:020000040800F2
:1000000030A10324E1020008194601081124010867
:1000100069450108B91A000831BA0108000000005A
:100020000000000000000000000000000153010873
:100030009138000800000000D14B0108C95A01089E
:10004000FB020008FB020008FB020008FB0200089C
:10005000FB020008FB02000899380008A9380008D4
:10006000B9380008FB020008FB020008112B000849
:10007000212B0008312B0008FB020008FB020008BE
:10008000FB020008FB020008FB020008993A000886
:10009000FB020008A93A0008FB020008FB02000866
:1000A000FB020008FB020008FB020008FB0200083C
:1000B000FB020008FB020008FB020008FB0200082C
:1000C000FB020008FB020008FB020008FB0200081C
:1000D000FB020008C17D0108FB020008FB020008CA
:1000E000FB020008FB02000800000000FB02000801
:1000F000FB020008FB020008FB020008FB020008EC
:10010000FB020008FB020008FB020008FB020008DB
:10011000B9680108FB020008015D0108FB02000844
:10012000412B0008FB020008FB020008FB0200084C
:10013000FB020008FB020008FB020008FB020008AB
:1001400000000000000000000000000000000000AF
:10015000FB020008FB020008FB020008FB0200088B
:10016000FB020008FB020008FB020008FB0200087B
:10017000FB02000891460108FB0200080000000095
:10018000FB020008FB020008FB020008D96A010814
:10019000FB020008FB020008FB020008FB0200084B
:1001A000FB020008FB020008FB0200080000000040
:1001B000FB020008FB020008FB020008FB0200082B
:1001C000FB020008FB020008000000000000000025
:1001D0000000000000000000FB020008000000001A
:1001E000000000000000000000000000000000000F
:1001F0000000000000000000FB020008FB020008F5
:10020000FB020008FB02000800000000FB020008DF
:10021000FB020008FB020008FB020008FB020008CA
:10022000FB02000800000000FB02000800000000C4
:10023000FB020008FB02000800000000FB020008AF
:10024000FB020008FB020008FB020008FB0200089A
:10025000FB020008FB020008FB020008FB0200088A
:10026000FB020008FB020008FB020008FB0200087A
:10027000FB020008FB020008FB020008000000006F
:10028000FB020008FB020008FB020008FB0200085A
:1002900000000000FB020008FB0200080000000054
:1002A00000000000FB020008FB020008FB0200083F
:1002B000B17D0108FB020008FB020008FB020008F8
:1002C000FB020008FB020008FB020008DFF80CD06C
:1002D00000F0D0FA00480047B9D0010830A103244B
:1002E0000648804706480047FEE7FEE7FEE7FEE7D0
:1002F000FEE7FEE7FEE7FEE7FEE7FEE7C15B01087B
:10030000CD0200082DE9F05F0546002092469B468D
:1003100088460646814640241BE02846414647461B
:10032000224600F08BF853465A46C01A914110D32A
:1003300011461846224600F072F82D1A67EB0108A4
:100340004F4622460120002100F069F817EB000912
:100350004E41201EA4F10104DFDC484631462A4606
:100360004346BDE8F09F40EA01039B0703D009E044
:1003700008C9121F08C0042AFAD203E011F8013B91
:1003800000F8013B521EF9D27047D2B201E000F8EA
:10039000012B491EFBD270470022F6E710B5134629
:1003A0000A4604461946FFF7F0FF204610BD421CDE
:1003B00010F8011B0029FBD1801A704710B50022EC
:1003C00000E0521C835C8C5CA34201D1002BF8D16D
:1003D000D8B2E1B2401A10BD30B504460020034641
:1003E00000E05B1C934203D2E05CCD5C401BF8D084
:1003F00030BD30B50B46014600202022012409E023
:1004000021FA02F59D4205D303FA02F5491B04FACD
:1004100002F52844151EA2F10102F1DC30BD202AAC
:1004200004DB203A00FA02F1002070479140C2F14B
:10043000200320FA03F3194390407047202A04DB7D
:10044000203A21FA02F00021704721FA02F3D0404D
:10045000C2F1200291400843194670470FB40B00C7
:1004600010B58AB00FA900910E994FF00004234AED
:10047000CC60214CCDE9064200D004236FF000424D
:10048000CDE901321E4A089202466B46002000F078
:10049000AFFA0AB010BC5DF814FBF0B585B00746A2
:1004A0004FF0FF300091CDE901011E4600201546B6
:1004B0000C4604903B466A46314604A8FFF7CEFF3F
:1004C00004990346601825B109B1024600E02246AE
:1004D0002A6000290ED0002B02DD0099814209D04C
:1004E0000094001BCDE901043B466A46314604A84E
:1004F000FFF7B4FF05B0F0BD290C0008470C000859
:10050000BD0800082DE9FE4F804681EA0300C00FB8
:100510000C46009021F0004123F00045B8EB0200AA
:10052000A94105D24046214690461C460B4602464C
:1005300023F00040104347D0270DC7F30A00C3F350
:100540000A510290401A019040286BDAC3F313005D
:1005500040F4801B0098924620B10023D2EB030A9E
:1005600063EB0B0B01985946C0F140025046FFF770
:1005700056FF06460D4650465946019A00F08CF942
:1005800010EB08006141002487EA115284EAE77306
:100590001A4340D0009A62B3019A012A4FEA0752E7
:1005A00015DC001B61EB02014FF0004202EA07522A
:1005B000CDE90042001C41F5801132462B4600F087
:1005C00062FB03B0BDE8F08F40462146F9E7001B0F
:1005D00061EB0201001C41F5801300185B412018FB
:1005E000A2F5001747EB030140EAD570B6196D413B
:1005F00011E06D084FEA360645EAC0754FEA07522A
:10060000001B61EB0201001C41F5801149084FEA13
:1006100030000019514132462B4603B0BDE8F04F7F
:1006200000F022BB0098012240000023D0EB020220
:1006300063EBE073009821464FEAE074B8EB0000EA
:1006400061EB0401E9E783F000435BE781F00041DF
:1006500058E72DE9FE4F81EA030404F0004421F03D
:10066000004100944FF0000B23F0004350EA0104D6
:100670005ED052EA03045BD0C3F30A54C1F30A55B7
:100680002C44A4F2F3340194A0FB0254C1F31301EF
:1006900041F48011C3F3130343F4801301FB0244BC
:1006A00000FB034E840A970A44EA815447EA8357C1
:1006B000A4FB076802958D0A05FB07854FEA932C7A
:1006C00004FB0C542705029D4FEA065847EA1637EB
:1006D000B5EB08056EEB070C870E920E47EA811703
:1006E00042EA8312A7FB0201B6EB0B0164EB0004A4
:1006F0002B0D43EA0C335E1844EB1C50DA4651468E
:10070000E7FB0201C5F313044FEA0B3343EA14532A
:100710004FEA0432019C43EA0603A4F10C0402945C
:10072000009CCDE900B400F0AEFA03B0BDE8F08F54
:1007300000200146F9E72DE9F04D81EA030404F0B9
:10074000004B21F0004514464FF0000A23F0004111
:1007500050EA050220D054EA01021DD0C5F30A5721
:100760000246C5F31303C1F31300C1F30A5640F464
:10077000801543F48013A7EB0608101BD64608F239
:10078000FD3873EB050002D308F1010801E092186F
:100790005B41B8F1000F03DA00200146BDE8F08D9F
:1007A00000204FF48011064684460EE0171B73EBC1
:1007B000050705D3121B63EB050306434CEA010C46
:1007C00049084FEA300092185B4150EA0107EDD129
:1007D00052EA030012D082EA040083EA05010843CA
:1007E00005D0101BAB4106D20122002306E00022F7
:1007F0004FF0004302E06FF0010253101AEB0600C5
:100800004CEB085110EB0A0041EB0B01BDE8F04D39
:1008100000F02ABAC1F30A52C1F3130140F2FF33C8
:1008200041F480119A4202DA00200146704740F2FA
:1008300033439A42A2F2334202DC5242FFF7FEBD3A
:10084000FFF7EDBD30B5041E71F1000404DB4FF07D
:100850000044404264EB0101141E73F1000405DB07
:100860001C464FF00043524263EB0403994208BF19
:10087000904230BD064C074D06E0E06840F00103B1
:1008800094E8070098471034AC42F6D3FFF722FDF6
:10089000B4280208D4280208202A06DBCB17203A05
:1008A00041FA02F043EAE07306E041FA02F3D04075
:1008B000C2F120029140084319467047C0B24FF47C
:1008C000F05100F02FBA00002DE9FF4F087883B0F7
:1008D0009946FF2805D0491C2D2804D0002400206B
:1008E00008E000200BE00124F9E700EB800003EBB7
:1008F0004000491C0B78FF2BF7D104B14042002384
:100900000293147819461D462D2C01D02B2C04D1AE
:10091000521C2D2C13D000240294AA461478FF2CCC
:100920000FD00A25A3FB057801FB05814FF0000CD1
:1009300003FB0C11521CE3194AEB0101EEE7012401
:10094000EAE7814453EA010002D019F5C87F06DACC
:1009500003980021C0E9001107B0BDE8F08F002521
:10096000AE4E2F46DFF8B882184600F0EFF9CDE919
:100970000001B9F1000002DAC9F1000400E0044608
:100980000023A74A1AEB030B42EB045A12E0E007DC
:1009900007D02A46334638464146FFF75AFE0746F7
:1009A00088462A46334610461946FFF752FE05464A
:1009B0000E466410002CEAD1DDE90001B9F1000F08
:1009C0005A46534606DAFFF7B6FE3A464346FFF765
:1009D000B2FE05E0FFF73DFE3A464346FFF739FE1B
:1009E000029A0AB181F00041039AC2E90001B3E71B
:1009F0002DE9FF4F1F468DB0D7E901464FF0FF3874
:100A00002E2045464FF000090B90B9696D1C0E98D9
:100A10008847396A824688470028F6D1BAF1FF3FF5
:100A20000AD024F4D064002E11DDBAF12B0F08D0C7
:100A3000BAF12D0F0BD102E0404611B08DE744F41E
:100A40008064B9696D1C0E9888478246761E694697
:100A5000600501D52D2000E02B208DF8000001F16C
:100A6000010B0DF1200809E0B9696D1C0E9888474B
:100A700082460F9844F40074761E0560002E02DD55
:100A8000BAF1300FF0D00B998A453ED144F0800482
:100A900006E00F99681CA9F1010944F4007408608C
:100AA000B9696D1C761E0E98884782463028F0D0B2
:100AB0002BE00B998A4505D1200603D444F080042D
:100AC000761E18E0504620F073FC08B30DF11302B7
:100AD000761EAAF1300044F40074934506D20BF858
:100AE000010B200607D5A9F1010003E0200602D47E
:100AF00009F101008146A00502D50F99681C086024
:100B0000B9696D1C0E9888478246002ED1DC53E0EF
:100B1000002E51DDBAF1650F02D0BAF1450F4BD16D
:100B2000A00549D5B9696D1C24F44074761E0E9851
:100B300088478246002E0CDD2B2804D0BAF12D0FF9
:100B400007D144F48074B9696D1C0E9888478246B9
:100B5000761EE00501D52D2100E02B2108F8011BB0
:100B6000CDF82C8021E00DF12901761E44F40074AB
:100B700088450CD2AAF1300010F0FF0088F8000080
:100B800002D10B99884509D908F1010806E0E00572
:100B900001D5244801E042F20F708146B9696D1C0D
:100BA0000E98884782460F980560002E04DD504657
:100BB00020F0FEFB0028D6D1F9690E988847FF2067
:100BC0008BF8000088F800000020069007904B4644
:100BD0006A4608A906A8FFF777FEA00502D46FF0C1
:100BE00001002AE714F0240F0AD0E00714D1DDE950
:100BF00006123868031D3B600068C0E900120BE074
:100C0000DDE9060100F0AEF80146E00704D13868DE
:100C1000021D3A600068016028460EE7000014409B
:100C20000000F03FF1D8FFFF426842B1016811F8BF
:100C3000013B23B1521EC0E9001218467047012142
:100C4000C160881E704742685AB1C368016843B9E1
:100C500083688B4205D0491E521CC0E90012002057
:100C600070474FF0FF30704710B5141E73F1000449
:100C700008DA401C41F1000192185B411A4301D18E
:100C800020F0010010BD2DE9F04D92469B4611B1B8
:100C9000B1FA81F202E0B0FA80F220329046FFF71A
:100CA000BEFB04460F4640EA0A0041EA0B015346E8
:100CB0005A46084313D0114653EA010019D0C8F12F
:100CC00040025046FFF7BAFB05460E4650465946CD
:100CD0004246FFF7A4FB084305D0012004E020466C
:100CE0003946BDE8F08D0020054346EAE0762C4306
:100CF00037430A986305E40AA0EB08000022FD0AC6
:100D000044EA47540A3002D500200146E9E70105CC
:100D100010196941DDE9084500196941BDE8F04D48
:100D2000A2E700007F2801D9002208E0064A02EB72
:100D30005002C007127800D1120902F00F02012000
:100D40009040084070470000A21B02080EB540F218
:100D5000334202920022CDE900221346FFF793FFAF
:100D600003B000BD01F0004330B421F0004150EA6F
:100D7000010206D00A0DA2F56072C1F31301002A28
:100D800002DC30BC00207047440F44EAC104C100BB
:100D9000E01830BC00EBC250AFF300800029A8BFC0
:100DA0007047401C490008BF20F00100704710B494
:100DB000B0FA80FC00FA0CF050EA010404BF10BC49
:100DC000704749B1CCF1200421FA04F411FA0CF176
:100DD00018BF012121430843A3EB0C01CB1D4FEAAF
:100DE00000614FEA102042BF002010BC704700EBAA
:100DF000C35010440029A4BF10BC7047401C4900D8
:100E000008BF20F0010010BC704730B58C1810F8F6
:100E1000012B12F00F0301D110F8013B120906D18A
:100E200010F8012B03E010F8015B01F8015B5B1E79
:100E3000F9D101E001F8013B521EFBD1A142E6D3FA
:100E4000002030BD0000000080B584B003900398FE
:100E5000006842F20001C4F20201884209D0FFE7B3
:100E60000398006842F20011C4F20201884209D1DD
:100E7000FFE742F20830C4F20200006810F4403F7D
:100E800009D129E046F20830C5F60200006810F4E6
:100E9000403F21D0FFE70DF0EBFA02900398406845
:100EA0000190B0F5803F0AD0FFE70198B0F5003F10
:100EB00005D0FFE70198B0F5403F07D00AE003985E
:100EC000C1880298B0FBF1F0029004E0029880081B
:100ED000029000E0FFE75FE04FF4002000210BF0FC
:100EE000D3FA0290039840680090B0F5802F32D07A
:100EF000FFE70098B0F5002F2DD0FFE70098B0F580
:100F0000402F28D0FFE70098B0F5801F23D0FFE7DF
:100F10000098B0F5A01F1ED0FFE70098B0F5C01FE5
:100F200019D0FFE70098B0F5E01F1FD0FFE7009849
:100F3000B0F5001F1ED0FFE70098B0F5101F1DD0C0
:100F4000FFE70098B0F5201F1CD0FFE70098B0F530
:100F5000301F1BD01EE0039841686FF0010000EACB
:100F600051410298B0FBF1F0029014E002980009A0
:100F7000029010E00298400902900CE0029880096B
:100F8000029008E00298C009029004E00298000A6A
:100F9000029000E0FFE7FFE7029840080290029805
:100FA00045F61061C0F25F01884209D8FFE7039857
:100FB0000068806820F440700399096888602EE01A
:100FC00002984BF62041C0F2BE0188420AD8FFE7E2
:100FD000039800688068012161F30920039909687A
:100FE00088601BE0029847F64001C0F27D118842FC
:100FF0000AD8FFE7039800688068022161F309209E
:1010000003990968886008E003980068806840F4E4
:101010004070039909688860FFE7FFE7FFE704B0C5
:1010200080BD00000000000080B58AB008900791E4
:1010300000200590079804900898006812F098FA2C
:1010400002900898006812F04BFA0190029828B9B3
:10105000FFE70198002800F0A880FFE708980068E3
:10106000C0688001002836D5FFE70898407E012837
:1010700031D1FFE70898007E01282CD1FFE701203D
:101080000490FFE708980068006800F04001002025
:10109000B0EB911F1AD1FFE705984DF60041C0F261
:1010A0000C0188420ED3FFE70899086E40F010004B
:1010B00008660899486E40F00100486601208DF8E6
:1010C000270076E0059801300590DBE70898016875
:1010D00040200860FFE70498022813D0FFE7089833
:1010E000006812F045FA60B1FFE70898006812F056
:1010F0001FFA28B9FFE70898006812F085FAFFE7A1
:10110000FFE7FFE70498012813D0FFE7089800687D
:1011100012F0E6F960B1FFE70898006812F008FAEB
:1011200028B9FFE70898006812F0E2F9FFE7FFE747
:10113000FFE704980090022807D0FFE700980328F3
:1011400006D1FFE70C20039005E00820039002E0A1
:1011500004200390FFE709F057FA0690FFE708988C
:1011600000688068039908421ED0FFE709F04CFA36
:101170000699401A062816D3FFE708980068806889
:10118000039908420ED0FFE70899086E40F010005E
:1011900008660899486E40F00100486601208DF805
:1011A000270006E0FFE7DAE7FFE700208DF82700D9
:1011B000FFE79DF827000AB080BD00000000000096
:1011C00080B584B002900298006812F0B1F90090E6
:1011D0000298006812F0B4F900284BD0FFE700989D
:1011E000002847D1FFE702980068806800F00D00F2
:1011F000012809D1FFE70298006812F00DF9029862
:101200000168032008600DE00299086E40F01000AC
:1012100008660299486E40F00100486601208DF88A
:101220000F002BE009F0F0F90190FFE70298006849
:101230008068C007E8B1FFE709F0E6F90199401AB4
:10124000032815D3FFE7029800688068C00770B1D3
:10125000FFE70299086E40F0100008660299486E98
:1012600040F00100486601208DF80F0006E0FFE71E
:10127000DCE7FFE700208DF80F00FFE79DF80F0087
:1012800004B080BD0000000080B586B004900498D2
:10129000006812F055F9002840F09280FFE70498AA
:1012A000006880683F21C8F2000108420ED0FFE7C5
:1012B0000499086E40F0100008660499486E40F0EA
:1012C0000100486601208DF817007DE00498006851
:1012D00012F0BEF809F098F9039004980168012013
:1012E00042F20002C4F20202914201900CD0FFE7E8
:1012F000049800684DF60071CBF6FD710844B0FA11
:1013000080F040090190FFE70198C10746F20030E4
:10131000C5F6020000291CBF42F20030C4F20200F0
:1013200012F0C6F802900498006842F20011C4F26C
:101330000201884206D1FFE742F20000C4F2020037
:10134000009003E0049800680090FFE7009804997B
:101350000968884203D0FFE7029880BBFFE7FFE7F8
:10136000049800680068C00740BBFFE70498006865
:1013700012F0E6F828B9FFE70498006812F068F860
:10138000FFE709F041F90399401A032815D3FFE755
:10139000049800680068C00770B9FFE70499086EF8
:1013A00040F0100008660499486E40F0010048665D
:1013B00001208DF8170007E0FFE7D1E7FFE7FFE71F
:1013C00000208DF81700FFE79DF8170006B080BDDC
:1013D00085B003908DED020ACDED010A8DED001A66
:1013E000039818B9FFE7002004903BE003989DEDB7
:1013F000010A9DED021A30EE412A90ED011A90ED9E
:10140000030A9DED003A20EE030AA1EE020A80EDE8
:10141000080A039890ED041A90ED080AB4EE410A08
:10142000F1EE10FA04DDFFE703990869086215E0A0
:10143000039890ED041A90ED080AB1EE411AB4EE4B
:10144000410AF1EE10FA08DAFFE7039890ED040A7A
:10145000B1EE400A80ED080AFFE7FFE70398006A53
:101460000490FFE79DED040A05B0704700000000FE
:1014700080B540F60000C5F602001021012209F0F7
:10148000ABF880BD0000000080B540F60000C5F656
:1014900002001021002209F09FF880BD000000002A
:1014A00080B50020C5F602001021012209F094F851
:1014B00080BD00000000000080B50020C5F60200DD
:1014C0001021002209F088F880BD00000000000013
:1014D00080B584B00390FFF7D7FF922000F040FA68
:1014E00040F22E31C2F200411220062200F000FA32
:1014F000FFF7BEFF40F21A10C2F200400078002849
:1015000054D0FFE740F22E33C2F2004318785978E6
:1015100040EA012040F22C31C2F200410880B1F9CA
:10152000000000EE100AB8EEC00A40F21000C2F24D
:10153000004090ED001A20EE011A039A92ED082A5D
:1015400092ED0C0A91EE020A82ED000A9A7893F865
:1015500003C042EA0C220A80B1F9002000EE102AF2
:10156000B8EEC00A90ED001A20EE011A039A92ED2F
:10157000082A92ED0D0A91EE020A82ED010A1A790B
:101580005B7942EA03220A80B1F9001000EE101ADA
:10159000B8EEC00A90ED001A20EE010A039890ED13
:1015A000081A20EE010A80ED020A4FE040F22E33C5
:1015B000C2F200431878597840EA012040F22C31F9
:1015C000C2F200410880B1F9000000EE100AB8EE46
:1015D000C00A40F21000C2F2004090ED001A20EE66
:1015E000010A039A92ED081A20EE010A82ED000A20
:1015F0009A7893F803C042EA0C220A80B1F90020DD
:1016000000EE102AB8EEC00A90ED001A20EE010A92
:10161000039A92ED081A20EE010A82ED010A1A7966
:101620005B7942EA03220A80B1F9001000EE101A39
:10163000B8EEC00A90ED001A20EE010A039890ED72
:10164000081A20EE010A80ED020AFFE7FFF734FFD7
:1016500040F22E31C2F2004102910020082200F037
:1016600047F9FFF71DFF029800780F2840F0988097
:10167000FFE740F21A10C2F20040007800284AD07A
:10168000FFE740F22E33C2F200439878D97840EA5F
:10169000012040F22C31C2F200410880B1F9000073
:1016A00000EE100AB8EEC01A40F21400C2F2004078
:1016B00090ED002A039A92ED090A91EE020A82ED5A
:1016C000030A1A7993F805C042EA0C220A80B1F99C
:1016D000002000EE102AB8EEC01A90ED002A039AFE
:1016E00092ED0A0A91EE020A82ED040A9A79DB79F8
:1016F00042EA03220A80B1F9001000EE101AB8EE97
:10170000C01A90ED002A039890ED0B0A91EE020AA0
:1017100080ED050A43E040F22E33C2F20043987890
:10172000D97840EA012040F22C31C2F20041088011
:10173000B1F9000000EE100AB8EEC00A40F2140041
:10174000C2F2004090ED001A20EE010A039A82EDE9
:10175000030A1A7993F805C042EA0C220A80B1F90B
:10176000002000EE102AB8EEC00A90ED001A20EE1C
:10177000010A039A82ED040A9A79DB7942EA03228C
:101780000A80B1F9001000EE101AB8EEC00A90ED10
:10179000001A20EE010A039880ED050AFFE7FFE733
:1017A000FFF772FEA22000F0DBF840F22E31C2F209
:1017B000004101912220022200F09AF8FFF758FE22
:1017C000019908784978C00040EA511140F22C3064
:1017D000C2F200400180B0F90000B0F5806F09DB73
:1017E000FFE740F22C31C2F200410888A0F500600A
:1017F0000880FFE740F22C30C2F20040B0F9000050
:1018000000EE100AB8EEC01AB4EE002AB3EE070AD2
:10181000A1EE020A039880ED070A04B080BD000023
:1018200080B584B003908DF80B10039840F23831E6
:10183000C2F20041086042F21501C2F2004101917A
:10184000002008701BF04CF80199024608781043FC
:1018500008701BF025F901990246087810430870BA
:101860009DF80B0038B1FFE740F2EC20C2F20040D7
:1018700000F06AFA31E040F2EC21C2F2004100913E
:1018800042F24210C3F6EC2048624FF64620C3F6FF
:101890000E2088624CF20310CBF6C120C86248F2D9
:1018A0004D20C3F6F740086347F2E550CBF63860A9
:1018B00048630020886348F27A40C4F21D10C86370
:1018C00091ED0F1A9FED080A80EE010A81ED080ADA
:1018D0000020C4F220208861FFE742F21500C2F226
:1018E0000040007804B080BDC3F51C41000000003A
:1018F00080B584B08DF80F0002918DF807209DF817
:101900000F0040F0800000F02BF8FFE79DF8070083
:1019100070B1FFE7552000F023F802990870029893
:10192000013002909DF8070001388DF80700EDE7BF
:1019300004B080BD0000000080B582B08DF80700C3
:1019400000919DF8070040F0800000F009F8552054
:1019500000F006F80099087002B080BD0000000099
:1019600080B582B08DF8070040F23830C2F20040F6
:1019700000686A464FF47A7111600DF107010DF1AC
:10198000060201230DF010FE9DF8060002B080BD96
:1019900080B582B08DF807008DF806109DF807001D
:1019A000FFF7DEFF9DF80600FFF7DAFF02B080BD0B
:1019B00083B0029001910092009890ED002A90ED82
:1019C000014A90ED026A90ED035AB6EE001AB0EEAD
:1019D000417AA6EE467AA5EE457A029822EE050AED
:1019E00094EE060AD0ED000AD0ED011A90ED023A0D
:1019F00020EE210AA7EE200A22EE062AA4EE052AEE
:101A0000A2EE030A30EE000A019880ED000A009869
:101A100090ED002A90ED016A90ED024A90ED035A94
:101A200022EE057AA6EE047A0298B0EE410AA6EEFE
:101A3000460AA5EE450AD0ED000AD0ED011A90ED58
:101A4000023A20EE210AA7EE200A22EE062A94EEA0
:101A5000052AA2EE030A30EE000A019880ED010A81
:101A6000009890ED000A90ED014A90ED023A90ED59
:101A7000032A20EE035A94EE025A029820EE040A3A
:101A8000A3EE020A90ED006A90ED017A90ED022A31
:101A900020EE070AA5EE060AA4EE441AA3EE431AA6
:101AA000A1EE020A30EE000A019880ED020A03B0AE
:101AB0007047000000000000FFE7FEE700000000A4
:101AC00084B08DF80F000291ADF806209DF80F004C
:101AD0000146009123281DD80099DFE801F0121378
:101AE0001415161B1B1B1B1B1B1B1B1B1B1B1B1B58
:101AF0001B1B1B1B1B1B1B1B1B1B1B1B1B1B17183D
:101B0000191A08E007E006E005E004E003E002E05F
:101B100001E000E0FFE7002004B070470000000093
:101B2000002070470000000080B582B042F228001B
:101B3000C2F20040009041F27C71C2F200410022EA
:101B4000019216F0EDFD009840F67C71C2F2004162
:101B500016F0C6FD019802B080BD00000000000034
:101B600080B584B0039002910298006847F2D831A2
:101B7000C2F20041087000200190FFE7019847F28F
:101B8000D831C2F20041097888420ED2FFE70398AB
:101B90000199405C47F2D832C2F2004211444870C9
:101BA000FFE7019801300190E8E747F2D851C2F20F
:101BB000004101200870039942F22800C2F200405F
:101BC000009016F08DFD009816F02EFD002004B058
:101BD00080BD00000000000083B0029001918DF8EC
:101BE000032000208DF802009DF9020003B0704729
:101BF00080B586B00490ADF80E1000208DF80D0071
:101C000042F22800C2F20040D0F8BC0202900298D2
:101C1000D0F8140220B1FFE701208DF8170013E07F
:101C20000499BDF80E2042F22800C2F20040019053
:101C300016F076FD019816F07FFE8DF80D009DF8E8
:101C40000D008DF81700FFE79DF8170006B080BD66
:101C500082B001908DED000A9DED000A20EE001A81
:101C6000B7EEC11AB7EEC00A9FED252B20EE020B8E
:101C70009FED252BA1EE020B9FED251B30EE010BF6
:101C8000B7EEC00B019880ED000A9DED000A20EE32
:101C9000001AB7EEC11AB7EEC00A9FED1F2B20EE57
:101CA000020B9FED1F2BA1EE020B9FED1F1B30EED1
:101CB000010BB7EEC00B019880ED010A019943F6C4
:101CC0007150CBF6AA6088609DED000A20EE001AE4
:101CD000B7EEC11AB7EEC00A9FED152B20EE020B2E
:101CE0009FED152BA1EE020B9FED151B30EE010BA6
:101CF000B7EEC00B019880ED030A02B0704700BF39
:101D0000098A1F63EE9A18C03FC6DCB584DC244004
:101D10003333333333B30DC0A323B9FC87F4F2BF9D
:101D20000EBE30992A18D5BF04E78C28ED0DC6BF2A
:101D3000EE7C3F355EFA104077BE9F1A2FFD27C01C
:101D400075931804560EF5BF80B592B0119000201F
:101D500010900F9001F0B0FC40F26030C2F20040F1
:101D600080ED000AFFE701F0A7FC40F26030C2F20C
:101D7000004090ED001A30EE410AB2EE041AB4EEC3
:101D8000410AF1EE10FA1EDDFFE7119942F242100E
:101D9000C3F6EC20486211994FF64620C3F60E2098
:101DA000886211994CF20310CBF6C120C8621199D8
:101DB00048F27A40C4F21D10C86311990020C4F2A1
:101DC00020208861ECE29FEDE70A01F021FC1199E7
:101DD0000020C86311994862119988621199C862FC
:101DE000ADF81200FFE7BDF8120040F21C01C2F28C
:101DF00000410988884280F2DF81FFE7FFF744FB5A
:101E00009220FFF7ADFD12200FA902910622FFF7E5
:101E10006FFDFFF72DFB9DF83C009DF83D1040EA5B
:101E20000120ADF83A00BDF93A0000EE100AB8EE14
:101E3000C00A40F21000C2F2004090ED001A20EEFD
:101E4000010A119981ED000A9DF83E109DF83F208E
:101E500041EA0221ADF83A10BDF93A1000EE101A2D
:101E6000B8EEC00A90ED001A20EE010A119981ED3A
:101E7000010A9DF840109DF8412041EA0221ADF889
:101E80003A10BDF93A1000EE101AB8EEC00A90ED03
:101E9000001A20EE010A119880ED020A119890EDC7
:101EA000002A90ED010A90ED021A20EE000AA2EE3F
:101EB000020AA1EE010A1FF06AF98DED070A9DEDF5
:101EC000071A119890ED0F0A30EE010A80ED0F0A03
:101ED000FFF7F2FA029900200822FFF709FDFFF749
:101EE000DFFA9DF83C000F285FD1FFE79DF83E0028
:101EF0009DF83F1040EA0120ADF83A00BDF93A00E4
:101F000000EE100AB8EEC00A40F21400C2F200401F
:101F100090ED001A20EE010A119981ED030A119942
:101F200091ED031A91ED090A30EE010A81ED090ADB
:101F30009DF840109DF8412041EA0221ADF83A1089
:101F4000BDF93A1000EE101AB8EEC00A90ED001A72
:101F500020EE010A119981ED040A119991ED041AFC
:101F600091ED0A0A30EE010A81ED0A0A9DF842104D
:101F70009DF8432041EA0221ADF83A10BDF93A102C
:101F800000EE101AB8EEC00A90ED001A20EE010A19
:101F9000119880ED050A119890ED051A90ED0B0A45
:101FA00030EE010A80ED0B0AFFE7BDF8120038BBE6
:101FB000FFE7079806900798059000208DF811001C
:101FC000FFE79DF81100022819DCFFE711989DF842
:101FD000112000EB8200C0680BA941F82200119883
:101FE0009DF8112000EB8200C06808A941F822008A
:101FF000FFE79DF8110001308DF81100E1E762E084
:102000009DED070A9DED061AB4EE410AF1EE10FAB5
:1020100003DDFFE707980690FFE79DED070A9DEDBA
:10202000051AB4EE410AF1EE10FA03DAFFE7079859
:102030000590FFE700208DF81000FFE79DF81000E5
:1020400002283FDCFFE711989DF8101000EB81009B
:1020500090ED030A0BA800EB810090ED001AB4EE9E
:10206000410AF1EE10FA0ADDFFE711989DF8102001
:1020700000EB8200C0680BA941F82200FFE711982D
:102080009DF8101000EB810090ED030A08A800EB0A
:10209000810090ED001AB4EE410AF1EE10FA0ADA6E
:1020A000FFE711989DF8102000EB8200C06808A996
:1020B00041F82200FFE7FFE79DF8100001308DF89E
:1020C0001000BBE7FFE79DED060A9DED051A30EE17
:1020D000410A42F21800C2F2004080ED000A0020DE
:1020E0008DF80F00FFE79DF80F0002281DDCFFE7C9
:1020F0009DF80F100BA800EB810090ED000A08A8D6
:1021000000EB810090ED001A30EE410A42F21C0013
:10211000C2F2004000EB810080ED000AFFE79DF86D
:102120000F0001308DF80F00DDE742F21800C2F217
:10213000004090ED000AB6EE001AB4EE410AF1EE4E
:1021400010FA2DDCFFE742F21C00C2F2004090EDD5
:10215000000A9FEDE61AB4EE410AF1EE10FA1FDC18
:1021600002E000BF0AD7A33B42F21C00C2F20040CB
:1021700090ED010A9FEDDD1AB4EE410AF1EE10FA7E
:102180000EDCFFE742F21C00C2F2004090ED020AB2
:102190009FEDD61AB4EE410AF1EE10FA01DDFFE729
:1021A0000AE09FEDD30A01F033FAFFE7BDF8120011
:1021B0000130ADF8120016E640F21C00C2F20040F9
:1021C000008800EE100AB8EE401A119890ED0F0A40
:1021D00080EE010A80ED0F0A00208DF80E00FFE767
:1021E0009DF80E0002281BDCFFE740F21C00C2F243
:1021F0000040008800EE100AB8EE401A11989DF8D1
:102200000E1000EB810090ED090A80EE010A80EDCE
:10221000090AFFE79DF80E0001308DF80E00DFE798
:10222000FFF732F9A220FFF79BFB22200FA9022221
:10223000FFF75EFBFFF71CF99DF83C009DF83D1091
:10224000C00040EA5110ADF83A00BDF93A00B0F5CF
:10225000806F07DBFFE7BDF83A00A0F50060ADF83E
:102260003A00FFE7BDF93A0000EE100AB8EEC01AD6
:10227000B4EE002AB3EE070AA1EE020A119880ED2F
:10228000060A42F20E01C2F20041088801300880BD
:10229000FFE742F21800C2F2004090ED000A012070
:1022A000B6EE001AB4EE410AF1EE10FA019071DCBC
:1022B000FFE7119890ED0F0A9FED8E1A30EE010A9C
:1022C000B0EEC00A0120B6EE001AB4EE410AF1EEFB
:1022D00010FA01905EDCFFE742F21C00C2F20040FF
:1022E00090ED000A01209FED811AB4EE410AF1EE53
:1022F00010FA01904EDCFFE742F21C00C2F20040EF
:1023000090ED010A01209FED791AB4EE410AF1EE39
:1023100010FA01903EDCFFE742F21C00C2F20040DE
:1023200090ED020A01209FED711AB4EE410AF1EE20
:1023300010FA01902EDCFFE7119890ED090AB0EE3B
:10234000C00A01209FED6C1AB4EE410AF1EE10FABA
:1023500001901FDCFFE7119890ED0A0AB0EEC00A69
:1023600001209FED651AB4EE410AF1EE10FA0190DA
:1023700010DCFFE7119890ED0B0AB0EEC00A9FED5C
:102380005E1A0020B4EE410AF1EE10FAC8BF012037
:102390000190FFE70198C00700287FF4E4ACFFE755
:1023A000119890ED0F1A9FED550A80EE010A80ED0D
:1023B000080A0020ADF80C00FFE7BDF80C0040F261
:1023C0001E01C2F200410988884280F28C80FFE73A
:1023D000FFF75AF89220FFF7C3FA12200FA906223E
:1023E000FFF786FAFFF744F89DF83C009DF83D1092
:1023F00040EA0120ADF83A00BDF93A0000EE100ABB
:10240000B8EEC00A40F21000C2F2004090ED001A8F
:1024100020EE010A119991ED081A20EE010A81EDD2
:10242000000A119991ED000A91ED0C1A9FED343AD2
:1024300020EE030A9FED332AA1EE020A81ED0C0A79
:102440009DF83E109DF83F2041EA0221ADF83A1078
:10245000BDF93A1000EE101AB8EEC00A90ED001A5D
:1024600020EE010A119991ED081A20EE010A81ED82
:10247000010A119991ED010A91ED0D1A20EE030A5E
:10248000A1EE020A81ED0D0A9DF840109DF8412051
:1024900041EA0221ADF83A10BDF93A1000EE101AE7
:1024A000B8EEC00A90ED001A20EE010A119890EDE6
:1024B000081A20EE010A80ED020A119890ED020A36
:1024C00090ED0E1A20EE030AA1EE020A80ED0E0A2C
:1024D0009FED070A01F09CF8FFE7BDF80C00013002
:1024E000ADF80C0069E712B080BD00BF9A99193EA3
:1024F0006F12033ACDCC1CC10AD7233CC3F51C4153
:10250000CDCC4C3ECDCC4C3F80B501F031FD01F03F
:10251000BFFC01F005FD80BD80B582B0FFE740F251
:102520009030C2F2004090F8900020B9FFE70120FF
:102530001AF02EFEF3E710F013F940F6EC20C2F289
:10254000004040F25822C2F200420021B7EE080AD1
:10255000DFED180A12F0FCFA40F21C10C2F2004043
:10256000019090F8680001F047FA012000901AF0FD
:102570000FFE019890F89C0001F03EFA00981AF0C6
:1025800007FE019890F8680001F022FA00981AF00E
:10259000FFFD019890F89C0001F01AFA40F290308B
:1025A000C2F20040C06F48F22C11C2F20041086034
:1025B00002B080BDCDCCCC3D80B586B0FFF7ACFF7E
:1025C000FFE748F20810C2F20040407B80B1FFE70D
:1025D00048F20811C2F200410020487343F26871CA
:1025E000C2F200410878B0FA80F040090870FFE7B5
:1025F000FFF78AFF43F29C60C2F20040059090ED25
:10260000030A40F21C10C2F200400490D030FFF7E1
:102610001FFB0498059991ED0D0AE030FFF718FBB8
:10262000049890ED3E4A90ED415A90ED343A90ED89
:10263000350A90ED362A90ED371A20EE050AA3EE02
:10264000040A90ED443AA2EE030A90ED472AA1EE67
:10265000020A80ED220A90ED3E4A90ED415A90ED3B
:10266000383A90ED390A90ED3A2A90ED3B1A20EE77
:10267000050AA3EE040A90ED443AA2EE030A90ED97
:10268000472AA1EE020A80ED2F0A40F29030C2F2F2
:10269000004090ED061A90ED1F0A48F22C10C2F28D
:1026A0000040D0ED000A40F6EC20C2F2004003905A
:1026B000FEF78EFE049890ED220A19F061FA039954
:1026C0000498B0EE401A91ED080A30EE410A80ED10
:1026D0001C0A90ED2F0A19F053FA039A04980599F1
:1026E00092ED081A30EE010A80ED290A91F82400D3
:1026F00091F84C10084001280BD1FFE740F21C1163
:10270000C2F2004100200867C1F8A400C1F8080126
:10271000FFE743F26870C2F200400078012813D14D
:10272000FFE740F21C11C2F20041029191F86800EB
:1027300091ED1C0A11F01CFF029991F89C0091ED9B
:10274000290A11F015FF22E040F29030C2F2004059
:10275000C06F48F22C11C2F20041086040F21C1018
:10276000C2F20040019090F868009FED0B0A8DEDD9
:10277000000A11F0FDFE9DED000A019890F89C0002
:1027800011F0F6FE01990020C1F80801FFE70220D0
:102790001AF0FEFC15E700BF00000000000000007A
:1027A00080B582B001900199002000900863C86252
:1027B000019834304021FDF7EFFD00980199C1F8F0
:1027C0008000C8678867486702B080BD00000000CD
:1027D00080B582B001908DF803108DF802209DF82D
:1027E0000300019981F824009DF80200019981F805
:1027F000250001990020886201984168884702B04D
:1028000080BD00000000000080B584B00290002070
:102810008DF80300ADF800000190FFE701980299E0
:10282000098C88421EDAFFE702980199084490F863
:102830008400202811D1FFE79DF80300012806DC61
:10284000FFE701989DF8032069468854FFE79DF84B
:10285000030001308DF80300FFE7FFE70198013026
:102860000190DBE79DF80300022810D0FFE70298F3
:1028700090F8250038B1FFE742F66C00C0F6020080
:102880001EF012FAFFE700208DF80F0039E00299E0
:1028900001F12C0085319DF80020013AFDF763FD20
:1028A000029901F134009DF800209DF80130114497
:1028B0008531D2431A44FDF756FD029A02F17400A5
:1028C0009DF80130D1188531128CD21A043AFDF7E7
:1028D0004AFD029890F8250038B1FFE742F68300E0
:1028E000C0F602001EF0E0F9FFE70298C06920B1CF
:1028F000FFE70298C0698047FFE701208DF80F00CD
:10290000FFE79DF80F0004B080BD0000000000004C
:1029100080B584B002908DF807109DF807000299E9
:1029200091F82410884207D1FFE740F26431C2F2E7
:10293000004101200870FFE740F26430C2F200401D
:10294000007801282AD1FFE740F26630C2F2004049
:102950000088402813DBFFE740F26431C2F20041F7
:1029600000200090087040F26631C2F200410880F9
:1029700002984168884700988DF80F0048E09DF85C
:102980000700029A40F26631C2F200410B881A44F5
:1029900082F88400088801300880FFE7029940F23D
:1029A0006630C2F200400088084490F882000D288A
:1029B0002AD1FFE7029940F26630C2F20040008857
:1029C000084490F883000A281ED1FFE740F26631E0
:1029D000C2F200410888029A108440F26432C2F2C6
:1029E0000042002010700880029890F8250038B14D
:1029F000FFE742F69D00C0F602001EF055F9FFE722
:102A000001208DF80F0003E000208DF80F00FFE794
:102A10009DF80F0004B080BD80B582B0019001998F
:102A200000200884019981F82200019981F823008F
:102A30000198843040210091FDF7AEFC0099019887
:102A4000C430FDF7A9FC0099019800F58270FDF7EC
:102A5000A3FC01988169884702B080BD0000000096
:102A600080B584B0029001910198FDF7A0FCADF80B
:102A70000200BDF8020020B9FFE700208DF80F002A
:102A80000EE0BDF8020002990884029A02F1840067
:102A90000199128CFDF767FC01208DF80F00FFE70C
:102AA0009DF80F0004B080BD84B00390039884307B
:102AB000029000200190FFE702980078A0B1FFE7A4
:102AC000029840780D2806D1FFE7029880780A28FE
:102AD00001D1FFE708E002980178019808440190CD
:102AE000029801300290E7E7019A4EF64F40C4F693
:102AF000C460A2FB0010C0081A2100FB1120413065
:102B00008DF80300012004B07047000000000000B1
:102B100080B542F26440C2F2004004F06DF880BD1E
:102B200080B542F27430C2F2004004F065F880BD16
:102B300080B542F2EC30C2F2004004F05DF880BD96
:102B400080B542F2DC40C2F2004004F055F880BD8E
:102B500083B002900298016801201022C4F20202A0
:102B60009142009000F0A380FFE7029801680120E5
:102B70002822C4F202029142009000F09880FFE700
:102B80000298016801204022C4F2020291420090A2
:102B900000F08D80FFE70298016801205822C4F2FE
:102BA00002029142009000F08280FFE702980168E3
:102BB00001207022C4F202029142009077D0FFE718
:102BC0000298016801208822C4F20202914200901A
:102BD0006DD0FFE7029801680120A022C4F2020232
:102BE0009142009063D0FFE7029801680120B8226B
:102BF000C4F202029142009059D0FFE702980168A6
:102C0000012040F21042C4F20202914200904ED0E4
:102C1000FFE702980168012040F22842C4F2020254
:102C20009142009043D0FFE702980168012040F2F2
:102C30004042C4F202029142009038D0FFE702986D
:102C40000168012040F25842C4F202029142009011
:102C50002DD0FFE702980168012040F27042C4F2D3
:102C600002029142009022D0FFE702980168012001
:102C700040F28842C4F202029142009017D0FFE76E
:102C800002980168012040F2A042C4F2020291427F
:102C900000900CD0FFE7029800684FF64831CBF661
:102CA000FD710844B0FA80F040090090FFE70098F9
:102CB000C00740B3FFE70298007810384AF6AB210E
:102CC000CAF6AA21A0FB011000090190019800F0AA
:102CD000070141F65040C0F60200405C0299C86509
:102CE0000198042807D3FFE702990868042262F3D9
:102CF0000900886506E00299086840F2FF329043B7
:102D00008865FFE705E00299086820F0FF00886504
:102D1000FFE70298806D03B07047000000000000DC
:102D200084B0039003980068019003980168012023
:102D300045F20842C5F60202914200904ED0FFE7EC
:102D400003980168012045F21C42C5F60202914237
:102D5000009043D0FFE703980168012045F230421C
:102D6000C5F602029142009038D0FFE7039801684F
:102D7000012045F24442C5F60202914200902DD056
:102D8000FFE703980168012045F25842C5F60202A8
:102D90009142009022D0FFE703980168012045F29C
:102DA0006C42C5F602029142009017D0FFE70398EB
:102DB0000168012045F28042C5F60202914200906E
:102DC0000CD0FFE7039800684AF66C31CAF2FD7137
:102DD0000844B0FA80F040090090FFE70098C0076F
:102DE00010B3FFE70398007808384CF6CD41CCF6D5
:102DF000CC41A0FB011000090290029945F60000A9
:102E0000C5F6020000EB810003990866039945F6B8
:102E10008000C5F602004866029800F01F010120FC
:102E200088400399886635E00398007810384AF6A0
:102E3000AB21CAF6AA21A0FB01100009029001985B
:102E400040F2B841C4F2020188420CD8FFE7019871
:102E500040F21041C4F20201884204D3FFE7029815
:102E600008300290FFE7029940F60000C4F2020029
:102E700000EB810003990866039940F68000C4F2D4
:102E800002004866029800F01F0101208840039963
:102E90008866FFE704B0704783B00290029800791B
:102EA00001900198002800F08A80FFE70198082827
:102EB00000F28580FFE702980168012045F2084290
:102EC000C5F60202914200904ED0FFE702980168D9
:102ED000012045F21C42C5F602029142009043D007
:102EE000FFE702980168012045F23042C5F6020270
:102EF0009142009038D0FFE702980168012045F226
:102F00004442C5F60202914200902DD0FFE702989C
:102F10000168012045F25842C5F602029142009034
:102F200022D0FFE702980168012045F26C42C5F605
:102F300002029142009017D0FFE702980168012039
:102F400045F28042C5F60202914200900CD0FFE7A4
:102F5000029800684AF66C31CAF2FD710844B0FA72
:102F600080F040090090FFE70098C00780B1FFE7BC
:102F7000019945F6FC00C5F6020000EB81000299BC
:102F8000C866029945F64010C5F6020008670FE0D2
:102F9000019940F6FC00C4F2020000EB81000299A6
:102FA000C866029940F64010C4F202000867FFE7C5
:102FB0000198411E0120884002994867FFE703B04D
:102FC000704700000000000085B0049000208DF8DC
:102FD0000F000498806918BBFFE70498806A02908C
:102FE00003281BD80299DFE801F0020D02180498AB
:102FF00090F82F00C00720B1FFE701208DF80F00E7
:10300000FFE70CE00498C06AB0F1C07F04D1FFE78D
:1030100001208DF80F00FFE701E000E0FFE747E047
:1030200004988069B0F5005F26D1FFE70498806AB4
:10303000019003281ED80199DFE801F00206021171
:1030400001208DF80F0016E0049890F82F00C007BB
:1030500020B1FFE701208DF80F00FFE70BE0049897
:10306000C06AB0F1C07F04D1FFE701208DF80F00E6
:10307000FFE700E0FFE71AE00498806A0090032869
:1030800004D3FFE70098032804D00EE001208DF858
:103090000F000BE0049890F82F00C00720B1FFE765
:1030A00001208DF80F00FFE700E0FFE7FFE7FFE7F3
:1030B0009DF80F0005B0704789B0089007910692FF
:1030C00005930898806D04900898806D0390089887
:1030D000016801201022C4F202029142029000F025
:1030E0000381FFE70898016801202822C4F2020248
:1030F0009142029000F0F880FFE7089801680120F3
:103100004022C4F202029142029000F0ED80FFE7FB
:103110000898016801205822C4F2020291420290EC
:1031200000F0E280FFE70898016801207022C4F2F5
:1031300002029142029000F0D780FFE708980168F0
:1031400001208822C4F202029142029000F0CC8059
:10315000FFE7089801680120A022C4F20202914210
:10316000029000F0C180FFE7089801680120B822B2
:10317000C4F202029142029000F0B680FFE7089884
:103180000168012040F21042C4F202029142029012
:1031900000F0AA80FFE708980168012040F2284269
:1031A000C4F202029142029000F09E80FFE708986C
:1031B0000168012040F24042C4F2020291420290B2
:1031C00000F09280FFE708980168012040F2584221
:1031D000C4F202029142029000F08680FFE7089854
:1031E0000168012040F27042C4F202029142029052
:1031F0007AD0FFE708980168012040F28842C4F2C3
:103200000202914202906FD0FFE708980168012006
:1032100040F2A042C4F202029142029064D0FFE761
:1032200008980168012040F2B842C4F202029142BB
:10323000029059D0FFE708980168012045F2084242
:10324000C5F60202914202904ED0FFE7089801684D
:10325000012045F21C42C5F602029142029043D081
:10326000FFE708980168012045F23042C5F60202E6
:103270009142029038D0FFE708980168012045F29A
:103280004442C5F60202914202902DD0FFE7089811
:103290000168012045F25842C5F6020291420290AF
:1032A00022D0FFE708980168012045F26C42C5F67C
:1032B00002029142029017D0FFE7089801680120AE
:1032C00045F28042C5F60202914202900CD0FFE71F
:1032D000089800684AF66C31CAF2FD710844B0FAE9
:1032E00080F040090290FFE70298C00770B1FFE745
:1032F0000898416E806E48600898C06E28B1FFE75C
:103300000898016F406F4860FFE7FFE70898016881
:1033100001201022C4F202029142019000F0A38029
:10332000FFE70898016801202822C4F202029142B6
:10333000019000F09880FFE7089801680120402282
:10334000C4F202029142019000F08D80FFE70898DC
:10335000016801205822C4F202029142019000F05B
:103360008280FFE70898016801207022C4F20202FF
:103370009142019077D0FFE70898016801208822E8
:10338000C4F20202914201906DD0FFE708980168F3
:103390000120A022C4F202029142019063D0FFE713
:1033A000089801680120B822C4F2020291420190FB
:1033B00059D0FFE708980168012040F21042C4F29A
:1033C0000202914201904ED0FFE708980168012067
:1033D00040F22842C4F202029142019043D0FFE73A
:1033E00008980168012040F24042C4F20202914272
:1033F000019038D0FFE708980168012040F2584258
:10340000C4F20202914201902DD0FFE708980168B2
:10341000012040F27042C4F202029142019022D097
:10342000FFE708980168012040F28842C4F20202D6
:103430009142019017D0FFE708980168012040F2FF
:10344000A042C4F20202914201900CD0FFE708981A
:1034500000684FF64831CBF6FD710844B0FA80F0B1
:1034600040090190FFE70198C00750B3FFE70898B3
:10347000C06D00F01F013F208840049988600898C3
:103480000168086820F48020086005980899096898
:10349000486008988068402809D1FFE70698089995
:1034A00009688860079808990968C86008E0079863
:1034B000089909688860069808990968C860FFE754
:1034C00082E008980168012045F20842C5F6020230
:1034D000914200904ED0FFE708980168012045F224
:1034E0001C42C5F602029142009043D0FFE70898C3
:1034F0000168012045F23042C5F602029142009077
:1035000038D0FFE708980168012045F24442C5F62B
:103510000202914200902DD0FFE708980168012037
:1035200045F25842C5F602029142009022D0FFE7D0
:1035300008980168012045F26C42C5F602029142EA
:10354000009017D0FFE708980168012045F28042FB
:10355000C5F60202914200900CD0FFE7089800687F
:103560004AF66C31CAF2FD710844B0FA80F04009A5
:103570000090FFE70098C00720B3FFE70898C06DF0
:1035800000F01F01012088400399486005980899C0
:103590000968486008988068402809D1FFE70698C4
:1035A000089909688860079808990968C86008E060
:1035B0000798089909688860069808990968C8609A
:1035C000FFE700E0FFE7FFE709B0704700000000F9
:1035D00081B041F20400CEF2000000680090009833
:1035E00040F25831C2F200410968884208D2FFE730
:1035F00040F25C31C2F20041086801300860FFE728
:10360000009840F25831C2F20041086001B07047A2
:1036100083B08DED020A41F20400CEF20000006892
:10362000019002980090FFE741F20400CEF2000002
:1036300000680199401A00EE100AB8EE400A9DEDAC
:10364000001A40F24430C2F2004090ED002AB8EE79
:10365000422A21EE021AB4EE410AF1EE10FA01DA22
:10366000FFE7E1E703B0704780B584B0039041F213
:103670000400CEF2000000680290029803990968E5
:10368000401A00EE100AB8EE400A40F24430C2F28E
:10369000004090ED001AB8EE411A80EE010A8DED5F
:1036A000010A029803990860FFF792FF9DED010A55
:1036B00004B080BD0000000080B582B000F068F862
:1036C00040F6E420C2F2004090ED000AB8EE400A55
:1036D000818801EE101AB8EEC11A9FED092AA1EEF9
:1036E000020AC08801EE100AB8EEC11A9FED052A41
:1036F000A1EE020A8DED010A9DED010A02B080BD26
:103700006F12833ABD37863581B000904EF6FC517A
:10371000CEF20001086840F08070086041F20401B8
:10372000CEF200010020086041F20002CEF2000259
:10373000116841F001011160009944F24022C0F289
:103740000F024A4340F24431C2F200410A600A6863
:1037500044F6D353C1F26203A2FB0332920940F252
:103760004833C2F200431A6009684DF68362C4F21E
:103770001B32A1FB0221890C40F24C32C2F2004202
:10378000116040F25C31C2F20041086001B0704744
:10379000B0B586B041F20400CEF20000006805909A
:1037A000FFF716FF40F25C30C2F200400168059856
:1037B000002302934FF0FF3C1A46E1FB0C0240F25B
:1037C0005031C2F2004100914A60086008684968BF
:1037D00040F24434C2F200442268FCF793FD029B9D
:1037E00002468C46009940F26830C2F20040C0F8B0
:1037F00004C00260D1F800C04968D0F800E0426817
:103800002468AEFB04E502FB0452BCEB0E0C61EB3A
:10381000020240F27031C2F200410391C1F800C0CF
:103820004A60006840F6E422C2F20042049210604E
:103830000868496840F24832C2F2004201921268B8
:10384000FCF760FDDDF804C0029B049A0146039872
:103850009180016840689288DCF800C002FB0CF29D
:103860008A1A60F1000040F27831C2F200410A6029
:1038700048600868496840F24C32C2F2004212685F
:10388000FCF740FD0499C88006B0B0BD0000000000
:10389000704700000000000080B5012006F098FC91
:1038A00080BD00000000000080B5022006F090FC02
:1038B00080BD00000000000080B5042006F088FCF8
:1038C00080BD00000000000083B0029001910092D2
:1038D000009890ED002A90ED014A90ED026A90ED7B
:1038E000035AB6EE001AB0EE417AA6EE467AA5EE7D
:1038F000457A029822EE050AA4EE060AD0ED000AE7
:10390000D0ED011A90ED023A20EE210AA7EE200A2E
:1039100022EE062A94EE052AA2EE030A30EE000AF1
:10392000019880ED000A009890ED002A90ED016A60
:1039300090ED024A90ED035A22EE057A96EE047A53
:103940000298B0EE410AA6EE460AA5EE450AD0ED71
:10395000000AD0ED011A90ED023A20EE210AA7EEFE
:10396000200A22EE062AA4EE052AA2EE030A30EE71
:10397000000A019880ED010A009890ED000A90ED90
:10398000014A90ED023A90ED032A20EE035AA4EE8C
:10399000025A029820EE040A93EE020A90ED006AA1
:1039A00090ED017A90ED022A20EE070AA5EE060AB4
:1039B000A4EE441AA3EE431AA1EE020A30EE000A66
:1039C000019880ED020A03B070470000000000007B
:1039D00080B584B08DF80F000020029001909DF812
:1039E0000F0040F4887001A9012200F065F804B0CE
:1039F00080BD00000000000080B584B08DF80F008D
:103A00000020029001909DF80F0040F4C07001A9C1
:103A1000012200F051F804B080BD00000000000059
:103A200081B0EFF3108072B60090FFE7FEE7000070
:103A300080B588B000200090019002210291012100
:103A400003910490059042F25450C2F2004069463E
:103A500005F0FAFA18B1FFE7FFF7E2FFFFE742F2DD
:103A60005450C2F2004006F03FFB18B1FFE7FFF7E9
:103A7000D7FFFFE742F25450C2F20040012100227A
:103A800005F0F2F918B1FFE7FFF7CAFFFFE708B04A
:103A900080BD00000000000080B542F25450C2F228
:103AA000004005F0E9FC80BD80B542F25450C2F2FE
:103AB000004005F0E1FC80BD80B586B00490039124
:103AC0000292049840F63431C2F20041019108603C
:103AD000002048608860029ACA6008614861886175
:103AE000C8610862039A42F25450C2F2004005F0E5
:103AF0003BFA20B1FFE701208DF8170003E000201A
:103B00008DF81700FFE79DF8170006B080BD000094
:103B100084B002900298406B009002980068D0F840
:103B200084004FF6FC718843009940EA81000299B5
:103B30000968C1F8840002980068D0F8840020F475
:103B40007F00029A1168926B40EA0240C1F884003B
:103B50000298816B00980844009002980068D0F8A1
:103B600088006FF38F00009940EA8100029909688C
:103B7000C1F8880002980068D0F8880020F4FE00A0
:103B8000029A1168D26B40EA0240C1F8880002989C
:103B9000C16B009800EB4100009002980068D0F8DB
:103BA000A0006FF38F00009940EA81000299096834
:103BB000C1F8A00002980068D0F8A00020F4FE0030
:103BC000029A1168126C40EA0240C1F8A000029902
:103BD000086C496C009A00FB012000900298006874
:103BE000D0F8B0006FF38F00009940EA810002998D
:103BF0000968C1F8B00002980068D0F8B00020F45D
:103C0000FE00029A1168926C40EA0240C1F8B000CE
:103C10000299886CC96C009A00FB01200090029800
:103C20000068D0F8AC006FF38F00009940EA810083
:103C300002990968C1F8AC000299086D496D009AB3
:103C400000FB0120009002980068D0F8F0006FF3AC
:103C50008F00009940EA810002990968C1F8F000DC
:103C600002980068D0F8F00020F47C10029A1168E5
:103C7000926D40EA0240C1F8F0000298816D009810
:103C800000EB4100009002980068D0F8C0006FF38C
:103C90008F00009940EA810002990968C1F8C000CC
:103CA00002980068D0F8C00020F47C10029A1168D5
:103CB000D26D40EA0240C1F8C00002980068D0F816
:103CC000C00020F07C50029A1168126E40EA026037
:103CD000C1F8C00002994A6B4AF60040C4F20000E5
:103CE00000EB8200C86602998A6BC86E00EB820006
:103CF00008670299CA6B086F00EBC2004867029917
:103D00000A6C4B6C486F5A4300EB8200886702993B
:103D10008A6CCB6C886F5A4300EB8200C8670299AB
:103D20000A6D4B6DC86F5A4300EB8200C1F88000EA
:103D300002998A6DD1F8800000EBC200C1F88400BE
:103D40000299CA6D8B6ED1F884005A4300EB820051
:103D5000C1F8880002990A6E8B6ED1F888005A4328
:103D600000EB8200C1F890000298D0F890004DF26C
:103D7000FD31C4F2000188420FD3FFE70299D1F868
:103D80009C0040F02000C1F89C000299032081F8BB
:103D9000980001208DF80F0017E00298C06E019086
:103DA000FFE701980299D1F89010884208D2FFE706
:103DB000019900200860FFE7019804300190F0E7C6
:103DC000FFE700208DF80F00FFE79DF80F0004B01B
:103DD000704700000000000088B00790069105922F
:103DE00004930698406848B9FFE70698016882681E
:103DF0000069104340EA8140039009E00698016899
:103E0000826800691043084340F080400390FFE758
:103E10000698D0F820C0C16842698369C06940EA49
:103E20000C601843104340EA014002900798826EEC
:103E3000D0F884000499514300EB8100019003986D
:103E40000199086001980430019002980199086076
:103E500001980430019000200090FFE70098069937
:103E6000CA6841F64041C0F60201895C88420DD221
:103E7000FFE70598009940580199086001980430BF
:103E80000190FFE7009804300090E7E708B0704722
:103E900040F29031C2F2004191ED1D0AB1EE400AAC
:103EA00040F21C10C2F2004080ED3C0A91ED040A81
:103EB000B1EE400A80ED3F0A42F21400C2F2004027
:103EC0000078012818D1FFE740F21C10C2F2004030
:103ED00090ED450AB0EEC00A9FED0F1AB4EE410A0C
:103EE000F1EE10FA07DAFFE742F21401C2F20041E4
:103EF00000200870FFE7FFE742F21400C2F2004022
:103F0000007840B1FFE740F21C11C2F200410020EE
:103F1000C1F80801FFE77047CDCC4C3E000000001F
:103F200040F21C10C2F2004090ED3C0A90ED3D1AA8
:103F300030EE410A80ED3E0A90ED3F0A90ED401AC6
:103F400030EE410A80ED410A90ED450A90ED461AA7
:103F500030EE410A80ED470A90ED420A90ED431A97
:103F600030EE410A80ED440A704700000000000076
:103F700084B040F28032C2F200421078411C1170CD
:103F80000B2826DBFFE740F28031C2F2004100201F
:103F9000087048F20810C2F20040B0F91800404220
:103FA00000EE100AB8EEC00B9FED471B20EE011B80
:103FB00048F22C10C2F2004090ED000AB7EEC00AA1
:103FC0009FED432BA1EE020BB7EEC00B80ED000A74
:103FD000FFE740F21C10C2F200404DF20A71CBF62E
:103FE0002341C0F8F4100021C0F8001148F2081174
:103FF000C2F20041B1F91A1000EE101AB8EEC00B6F
:104000009FED311B20EE010B9FED331B20EE010BCA
:10401000B7EEC00B80ED460A90ED460AB5EE400AB9
:10402000F1EE10FA07D0FFE742F21401C2F20041AC
:1040300001200870FFE740F21C10C2F2004090ED32
:10404000460AB7EEC00AB7EE081BB4EE410BF1EE1C
:1040500010FA05DDFFE7B7EE080B8DED020B24E04B
:1040600040F21C10C2F2004090ED460AB7EEC00AC2
:10407000BFEE081BB4EE410BF1EE10FA05DAFFE7D4
:10408000BFEE080B8DED000B0AE040F21C10C2F2EF
:10409000004090ED460AB7EEC00A8DED000BFFE739
:1040A0009DED000B8DED020BFFE79DED020BB7EED2
:1040B000C00B40F21C11C2F2004181ED460A002003
:1040C000C1F80C0104B070477B14AE47E17A843F1D
:1040D0002D431CEBE2363A3FFCA9F1D24D62603F22
:1040E00080B582B08DED010A9DED010A18F0B2FB9A
:1040F0009FED021A20EE010A02B080BD10E9773E62
:1041000080B584B04EF60000C1F6F17000680390EF
:104110004EF60400C1F6F170006802904EF60800F9
:10412000C1F6F1700068019001990398084403906A
:10413000039888B1FFE7039840F20011C2F20041F2
:104140000091023108220EF063FB009902981231AF
:1041500004220EF05DFBFFE704B080BD000000000C
:1041600080B582B08DED010A9DED010A18F00EF8C0
:104170009FED021A20EE010A02B080BD10E9773EE1
:1041800080B582B08DED010ACDED000A9DED010AEA
:1041900018F060FB9FED041A20EE010A9DED001A55
:1041A00020EE010A02B080BD10E977BE00000000D9
:1041B00080B586B004900391029200200090FFE742
:1041C000049890F85C00012804D1FFE702208DF8E4
:1041D00017005BE00499012081F85C00FFE7FFE72E
:1041E0000498FCF7EDFF8DF807009DF80700E0BB91
:1041F000FFE70498006E40F0020020F48850049914
:104200000866049800680399029A0FF04DFBFFE7D7
:10421000049800680FF07CF9F0B1FFE700980130D6
:10422000009000984FF60001C2F2C351884212D3A9
:10423000FFE70498006E40F0100020F0020004999F
:104240000866FFE70499002081F85C00FFE7012081
:104250008DF817001AE0DBE70498006E40F00100CB
:1042600020F002000499086605E00499086E40F009
:1042700010000866FFE7FFE70499002081F85C0062
:10428000FFE79DF807008DF81700FFE79DF817007E
:1042900006B080BD0000000080B5AAB0289027912C
:1042A00000208DF89B002798006808B1FFE7FFE722
:1042B000FFE7289890F85C00012804D1FFE702206E
:1042C0008DF8A7002DE12899012081F85C00FFE717
:1042D000FFE70020219022902898006842F2000118
:1042E000C4F20201884206D1FFE742F20010C4F294
:1042F0000200099002E000200990FFE7099878B9D0
:10430000FFE72899086E40F020000866FFE728992B
:10431000002081F85C00FFE701208DF8A70000E194
:1043200009980FF02DF90890289800680FF028F9E7
:10433000002840F0E280FFE70898002840F0DD8088
:10434000FFE728980168012042F20002C4F202024D
:10435000914207900CD0FFE7289800684DF6007155
:10436000CBF6FD710844B0FA80F040090790FFE7F2
:104370000798C10746F20030C5F6020000291CBFAD
:1043800042F20030C4F2020025902798006800280D
:104390005ED0FFE72598806820F44040279949685F
:1043A00008432599886028980168012042F200029C
:1043B000C4F20202914206900CD0FFE728980068F0
:1043C0004DF60071CBF6FD710844B0FA80F040095B
:1043D0000690FFE70698C10746F20030C5F60200D6
:1043E00000291CBF42F20030C4F2020042F2003148
:1043F000C4F20201884212D1FFE742F20000C4F287
:1044000002000FF0A5F8049042F20010C4F202007E
:104410000FF09EF8014604980843059007E046F225
:104420000000C5F602000FF093F80590FFE705982D
:1044300068B9FFE72598806840F61F718843279A7E
:10444000116892681143084325998860FFE753E09B
:104450002599886820F440408860289801680120E8
:1044600042F20002C4F20202914203900CD0FFE734
:10447000289800684DF60071CBF6FD710844B0FA3B
:1044800080F040090390FFE70398C10746F200302F
:10449000C5F6020000291CBF42F20030C4F202003F
:1044A00042F20031C4F20201884212D1FFE742F227
:1044B0000000C4F202000FF04BF8019042F200102D
:1044C000C4F202000FF044F801460198084302903C
:1044D00007E046F20000C5F602000FF039F802903E
:1044E000FFE7029838B9FFE72599886840F61F7200
:1044F00090438860FFE7FFE708E02899086E40F0E6
:104500002000086601208DF89B00FFE7FFE728994F
:10451000002081F85C00FFE79DF89B008DF8A70064
:10452000FFE79DF8A7002AB080BD00000000000052
:1045300080B5CCB02A90299100208DF8A300259059
:104540002A9890F84400012801D1FFE70BE02A984F
:10455000006846F20001C5F60201884201D1FFE77A
:1045600000E0FFE7FFE72998C0680021C4F2FF716F
:10457000884201D0FFE71EE02A98006842F200015D
:10458000C4F20201884201D1FFE7FFE72A980068E0
:1045900042F20011C4F20201884201D1FFE7FFE7B5
:1045A0002A98006846F20001C5F60201884201D14E
:1045B000FFE7FFE7FFE7FFE72A9890F85C00012894
:1045C00005D1FFE702208DF8AF0000F07DBD2A99EC
:1045D000012081F85C00FFE7FFE72A9800680EF0F1
:1045E000C7FF002840F05C85FFE72998C0780006E7
:1045F000002837D4FFE72A98006846F20001C5F684
:10460000020188422DD0FFE729980068000330B9E5
:10461000FFE729980068C0F38460229015E029988C
:10462000006890FAA0F04A904A9820B9FFE720204D
:104630008DF82F0105E04A98B0FA80F08DF82F012F
:10464000FFE79DF82F012290FFE7229800F01F015D
:10465000012000FA01F22A980168C8691043C86174
:10466000FFE7FFE72A98006829990A6849680EF071
:104670009BFF2A9800680EF07BFF24902A98006820
:104680000EF02EFF23902498002840F05A82FFE776
:104690002398002840F05582FFE72A980068299A5D
:1046A000116892680EF0C0FF2A98006846F2000177
:1046B000C5F6020188420BD1FFE7299840692A9983
:1046C0000968C96801F0180189088840279038E016
:1046D00041F20000C5F60040006800F07040B0F103
:1046E000805F0BD1FFE7299840692A990968C9685A
:1046F00001F01C014908884021901FE02A980068B9
:10470000C068C00600280BD4FFE7299840692A99A1
:104710000968C96801F01C014908884020900AE036
:10472000299840692A990968C96801F01001490867
:1047300088402090FFE720982190FFE7219827905C
:10474000FFE729980069042841D0FFE72A9800680C
:1047500029990A680969279B0EF0EEFF2A980068DC
:1047600046F20001C5F60201884215D1FFE72A98FA
:104770000068299A1169D2690FF02EF82A9800680A
:10478000299A116992F82020013AB2FA82F252096C
:1047900052060FF001F819E02A980068299A116969
:1047A00092F82120013AB2FA82F25209D2070FF0B0
:1047B00033F82A980068299A1169127E013AB2FAF0
:1047C00082F25209D2020EF0A3FFFFE7B8E12A9865
:1047D000006846F20001C5F60201884240F0668199
:1047E000FFE72A98006800210EF06AFE000348B92E
:1047F000FFE72A98006800210EF062FEC0F3846093
:104800001F9018E02A98006800210EF059FE90FAD7
:10481000A0F04890489820B9FFE720208DF82701A4
:1048200005E04898B0FA80F08DF82701FFE79DF881
:1048300027011F90FFE71F981E902998006800032A
:1048400030B9FFE729980068C0F384601D9015E037
:104850002998006890FAA0F04690469820B9FFE7A2
:1048600020208DF81F0105E04698B0FA80F08DF801
:104870001F01FFE79DF81F011D90FFE71E981D997E
:10488000884207D1FFE72A980068002211460EF0FF
:10489000E3FFFFE72A98006801210EF011FE0003F4
:1048A00048B9FFE72A98006801210EF009FEC0F31D
:1048B00084601C9018E02A98006801210EF000FE28
:1048C00090FAA0F04490449820B9FFE720208DF89A
:1048D000170105E04498B0FA80F08DF81701FFE762
:1048E0009DF817011C90FFE71C981B902998006801
:1048F000000330B9FFE729980068C0F384601A907C
:1049000015E02998006890FAA0F04290429820B9EA
:10491000FFE720208DF80F0105E04298B0FA80F003
:104920008DF80F01FFE79DF80F011A90FFE71B9824
:104930001A99884207D1FFE72A98006801210022CE
:104940000EF08AFFFFE72A98006802210EF0B8FDFA
:10495000000348B9FFE72A98006802210EF0B0FD75
:10496000C0F38460199018E02A98006802210EF0C4
:10497000A7FD90FAA0F04090409820B9FFE72020D2
:104980008DF8070105E04098B0FA80F08DF8070136
:10499000FFE79DF807011990FFE7199818902998EB
:1049A0000068000330B9FFE729980068C0F384600D
:1049B000179015E02998006890FAA0F03E903E9874
:1049C00020B9FFE720208DF8FF0005E03E98B0FAFF
:1049D00080F08DF8FF00FFE79DF8FF001790FFE7DC
:1049E00018981799884207D1FFE72A980068022192
:1049F00000220EF031FFFFE72A98006803210EF035
:104A00005FFD000348B9FFE72A98006803210EF014
:104A100057FDC0F38460169018E02A9800680321BF
:104A20000EF04EFD90FAA0F03C903C9820B9FFE7C4
:104A300020208DF8F70005E03C98B0FA80F08DF862
:104A4000F700FFE79DF8F7001690FFE7169815901E
:104A500029980068000330B9FFE729980068C0F37F
:104A60008460149015E02998006890FAA0F03A90BC
:104A70003A9820B9FFE720208DF8EF0005E03A983A
:104A8000B0FA80F08DF8EF00FFE79DF8EF0014908A
:104A9000FFE715981499884207D1FFE72A98006824
:104AA000032100220EF0D8FEFFE748E02A980068B4
:104AB000006E00F0F84029990968B0EB816F07D1CA
:104AC000FFE72A980168086E20F000400866FFE7BB
:104AD0002A980068406E00F0F84029990968B0EB08
:104AE000816F07D1FFE72A980168486E20F00040E7
:104AF0004866FFE72A980068806E00F0F840299920
:104B00000968B0EB816F07D1FFE72A980168886ECA
:104B100020F000408866FFE72A980068C06E00F029
:104B2000F84029990968B0EB816F07D1FFE72A980F
:104B30000168C86E20F00040C866FFE7FFE7FFE7A6
:104B4000FFE72A9800680EF0FBFC002840F0A782DF
:104B5000FFE72A980068299A1168D2680EF080FD54
:104B60002998C0680021C4F2FF71884240F0338167
:104B7000FFE72A980068139029980068000330B96D
:104B8000FFE729980068C0F38460129015E0299827
:104B9000006890FAA0F03890389820B9FFE72020FC
:104BA0008DF8E70005E03898B0FA80F08DF8E7005E
:104BB000FFE79DF8E7001290FFE71298013000F040
:104BC0001F0009287DD8FFE729980068000330B945
:104BD000FFE729980068C0F38460119015E02998D8
:104BE000006890FAA0F03690369820B9FFE72020B0
:104BF0008DF8DF0005E03698B0FA80F08DF8DF0020
:104C0000FFE79DF8DF001190FFE71198013000F0F9
:104C10001F008006109029980068000330B9FFE754
:104C200029980068C0F384600F9015E02998006807
:104C300090FAA0F03490349820B9FFE720208DF846
:104C4000D70005E03498B0FA80F08DF8D700FFE780
:104C50009DF8D7000F90FFE710980F99013101F0F0
:104C60001F020121914008430E902998006800031B
:104C700030B9FFE729980068C0F384600D9015E013
:104C80002998006890FAA0F03290329820B9FFE796
:104C900020208DF8CF0005E03298B0FA80F08DF832
:104CA000CF00FFE79DF8CF000D90FFE70E980D991C
:104CB000013101F01F0101EB410140EA01500C906C
:104CC00082E029980068000330B9FFE7299800685E
:104CD000C0F384600B9015E02998006890FAA0F06A
:104CE0003090309820B9FFE720208DF8C70005E00C
:104CF0003098B0FA80F08DF8C700FFE79DF8C70044
:104D00000B90FFE70B98013000F01F0080060A901F
:104D100029980068000330B9FFE729980068C0F3BC
:104D20008460099015E02998006890FAA0F02E9010
:104D30002E9820B9FFE720208DF8BF0005E02E98BF
:104D4000B0FA80F08DF8BF00FFE79DF8BF00099032
:104D5000FFE70A980999013101F01F0201219140F2
:104D60000843089029980068000330B9FFE72998A4
:104D70000068C0F38460079015E02998006890FAF5
:104D8000A0F02C902C9820B9FFE720208DF8B700D8
:104D900005E02C98B0FA80F08DF8B700FFE79DF899
:104DA000B7000790FFE708990798013000F01F004F
:104DB00000EB40020020CFF6206000EB02500843D9
:104DC00040F000700C90FFE713980C99299A9268B4
:104DD0000EF02AFCFFE72998C0780006002840F171
:104DE0005D81FFE72A980168012042F20002C4F2C7
:104DF0000202914206900CD0FFE72A9800684DF617
:104E00000071CBF6FD710844B0FA80F040090690BD
:104E1000FFE70698C10746F20030C5F602000029F8
:104E20001CBF42F20030C4F202000EF031FB2690AB
:104E30002A9801684FF0010042F20002C4F2020217
:104E4000914205900CD0FFE72A9800684DF600715A
:104E5000CBF6FD710844B0FA80F040090590FFE7F9
:104E60000598C10746F20030C5F6020000291CBFB4
:104E700042F20030C4F2020042F20031C4F20201F8
:104E8000884212D1FFE742F20000C4F202000EF0A5
:104E900057FB039042F20010C4F202000EF050FBE8
:104EA000014603980843049007E046F20000C5F667
:104EB00002000EF045FB0490FFE70498002840F044
:104EC000E380FFE7299800680021CCF25271884204
:104ED00055D1FFE79DF89A00000600284FD4FFE760
:104EE0002A98006846F20001C5F60201884245D1C1
:104EF000FFE72A980168012042F20002C4F2020290
:104F0000914202900CD0FFE72A9800684DF600719C
:104F1000CBF6FD710844B0FA80F040090290FFE73B
:104F20000298C10746F20030C5F6020000291CBFF6
:104F300042F20030C4F20200269941F400010EF062
:104F4000D7FB40F24400C2F2004000684FEA9010E4
:104F500042F66351C0F23E51A0FB01104FEA90119E
:104F60004FF0020000EB41002590FFE7259820B1AB
:104F7000FFE7259801382590F8E7FFE783E02998B7
:104F800000680021CCF22131884238D1FFE79DF83A
:104F90009B00C00798BBFFE72A98006846F2000113
:104FA000C5F60201884229D1FFE72A98016801204D
:104FB00042F20002C4F20202914201900CD0FFE7DB
:104FC0002A9800684DF60071CBF6FD710844B0FADE
:104FD00080F040090190FFE70198C10746F20030D8
:104FE000C5F6020000291CBF42F20030C4F20200E4
:104FF000269941F080710EF07BFBFFE742E0299893
:1050000000680021CCF68431884239D1FFE79DF851
:105010009A004006002833D4FFE72A98006846F239
:105020000001C5F60201884229D1FFE72A980168EC
:10503000012042F20002C4F20202914200900CD020
:10504000FFE72A9800684DF60071CBF6FD71084421
:10505000B0FA80F040090090FFE70098C10746F2DF
:105060000030C5F6020000291CBF42F20030C4F235
:105070000200269941F480010EF03AFBFFE700E0C0
:10508000FFE7FFE7FFE708E02A99086E40F02000FD
:10509000086601208DF8A300FFE7FFE7FFE708E0BF
:1050A0002A99086E40F02000086601208DF8A300C0
:1050B000FFE7FFE72A99002081F85C00FFE79DF8F1
:1050C000A3008DF8AF00FFE79DF8AF004CB080BDA6
:1050D00081B0009000980068006C01B0704700003B
:1050E00010B590B00E9000208DF837000A900E9801
:1050F00020B9FFE701208DF83F006EE20E980069AD
:1051000040B1FFE70E9890F82000012801D1FFE799
:10511000FFE7FFE70E98006E50B9FFE70E9800F02A
:1051200063FA0E99002048660E9981F85C00FFE74B
:105130000E9800680EF0F4F928B1FFE70E980068A9
:105140000EF07AF9FFE70E9800680EF009FAE8B958
:10515000FFE70E9800680EF08BF940F24400C2F2AF
:1051600000400068800942F66351C0F23E51A0FB46
:105170000101012000EB91100A90FFE70A9820B18D
:10518000FFE70A9801380A90F8E7FFE70E980068F1
:105190000EF0E6F970B9FFE70E99086E40F01000C6
:1051A00008660E99486E40F00100486601208DF8AF
:1051B0003700FFE70E9800680EF0DAF90B900E98B2
:1051C000006EC006002800F1FA81FFE70B98002866
:1051D00040F0F581FFE70E98006E40F0020020F4E9
:1051E00080700E9908660E9800680EF0A9F90028E4
:1051F00070D1FFE70E980168012042F20002C4F26C
:105200000202914207900CD0FFE70E9800684DF61D
:105210000071CBF6FD710844B0FA80F040090790A8
:10522000FFE70798C10746F20030C5F602000029E3
:105230001CBF42F20030C4F2020042F20031C4F25C
:105240000201884212D1FFE742F20000C4F20200DC
:105250000EF076F9059042F20010C4F202000EF052
:105260006FF9014605980843069007E046F20000F2
:10527000C5F602000EF064F90690FFE7069840BB01
:10528000FFE70E980168012042F20002C4F2020218
:10529000914204900CD0FFE70E9800684DF6007123
:1052A000CBF6FD710844B0FA80F040090490FFE7A6
:1052B0000498C10746F20030C5F6020000291CBF61
:1052C00042F20030C4F202000E9949680EF000FA72
:1052D000FFE7FFE70E98006846F20001C5F60201FD
:1052E00088423AD1FFE70E9A517ED06B40EA4131B5
:1052F0009068D26811430391082803D1FFE700208A
:1053000002901DE00E9880680C2803D1FFE704206E
:10531000019012E00E9880681C2803D1FFE7082056
:10532000009007E00E9881680020182908BF1C2013
:105330000090FFE700980190FFE701980290FFE7D7
:105340000398029901F00C0140EA41000E9991F88E
:10535000201040EA01400C900CE00E994A7EC86B88
:1053600040EA42308A68104391F8201040EA014038
:105370000C90FFE70E9890F8200001280BD1FFE772
:105380000E98416A0020CFF6FE7000EB41410C9868
:1053900008430C90FFE70E98806A50B1FFE70E9922
:1053A000886AC96A00F4787001430C9808430C902D
:1053B000FFE70E98006846F20001C5F60201884238
:1053C00018D1FFE70E980068C06844F20701CFF6D5
:1053D000F07108400C9908430E990968C8600E984E
:1053E0000068006920F040600E9A1168526B10430B
:1053F00008610DE00E980068C0684CF20301CFF61A
:10540000F07108400C9908430E990968C860FFE7DD
:105410000E9800680EF0ACF809900E9800680EF037
:105420005FF808900998002840F0A880FFE70898E6
:10543000002840F0A380FFE70E98006846F20001C4
:10544000C5F60201884209D1FFE70E99087E91F85E
:105450003810800340EA41000C9006E00E98017E6F
:10546000006B40EA81300C90FFE70E980068C0683E
:1054700044F2030188430C9908430E990968C860F7
:105480000E9890F84400012859D1FFE70E98006863
:1054900046F20001C5F60201884201D1FFE700E0B3
:1054A000FFE70E98806A20B1FFE70E98C06A08B93E
:1054B000FFE7FFE70E98006846F20001C5F602011B
:1054C00088421BD1FFE70E98006800694FF61E0165
:1054D000CFF6004100EA01020E9B1968986CD3F8E0
:1054E0004CE0D3F850C040EA0E0040EA0C005B6D7F
:1054F0001843104340F0010008611FE00E98006857
:1055000000694FF61E01CFF6004100EA01020E9B32
:1055100019689C6CD3F84CE0D3F850C00020CFF64B
:10552000FF7000EB044040EA0E0040EA0C005B6DA7
:105530001843104340F001000861FFE706E00E98B1
:105540000168086920F001000861FFE70E98006813
:10555000006920F070400E9A1168126C10430861C7
:105560000E98006846F20001C5F60201884204D098
:10557000FFE70E98FBF768FCFFE7FFE70E9800696E
:1055800001280CD1FFE70E980068006B20F00F0097
:105590000E9A1168D269013A1043086306E00E982A
:1055A0000168086B20F00F000863FFE70E98006E9B
:1055B00040F0010020F002000E99086608E00E9904
:1055C000086E40F01000086601208DF83700FFE7F4
:1055D0009DF837008DF83F00FFE79DF83F0010B0C1
:1055E00010BD00000000000080B5B6B0359000206E
:1055F0003490339032903190309002A8B821FAF76D
:10560000CBFE3598006842F20001C4F202018842E4
:1056100046D1FFE7002003904FF4002102910121C1
:105620000491182105910221069107910891C0214A
:1056300009910A900B902A9002A807F091FC18B1EA
:10564000FFE7FEF7EDF9FFE7FFE744F2D840C5F6C4
:105650000200016841F020010160006800F02000B4
:1056600001900198FFE7FFE744F2E040C5F6020031
:10567000016841F004010160006800F0040000903E
:105680000098FFE7202030900320319000203290D6
:1056900040F60000C5F6020030A904F0B5FDFFE7B2
:1056A00036B080BD0000000080B58CB00A90099132
:1056B0000A980168012042F20002C4F202029142FB
:1056C00003900CD0FFE70A9800684DF60071CBF606
:1056D000FD710844B0FA80F040090390FFE7039899
:1056E000C10746F20030C5F6020000291CBF42F295
:1056F0000030C4F202000DF0DBFE04900A9840690D
:10570000082803D1FFE70820079052E0049840B131
:10571000FFE70498052804D0FFE70498092813D16F
:10572000FFE70A980068C068C00748B1FFE70A9918
:10573000086E40F02000086601208DF82F00EFE091
:1057400004200790FFE733E00A980168012042F245
:105750000002C4F20202914202900CD0FFE70A98C4
:1057600000684DF60071CBF6FD710844B0FA80F088
:1057700040090290FFE70298C10746F20030C5F6E3
:10578000020000291CBF42F20030C4F202000DF0FA
:1057900087FE48B1FFE70A99086E40F020000866CE
:1057A00001208DF82F00BBE004200790FFE7FFE702
:1057B000FFE704F029FF0890FFE70A9800680068F7
:1057C0000799084228D1FFE70998013018B3FFE78D
:1057D00004F01AFF0899401A0999884203D8FFE794
:1057E0000998B8B9FFE70A98006800680799084265
:1057F0000FD1FFE70A99086E40F004000866FFE742
:105800000A99002081F85C00FFE703208DF82F0043
:1058100086E0FFE7FFE7D0E70A99086E40F40070E2
:1058200008660A9800680DF0B3FEF0B1FFE70A9829
:10583000407ED0B9FFE70A9800680068000700289A
:1058400012D5FFE70A99086E20F4807008660A985E
:10585000006EC004002806D4FFE70A99086E40F0E5
:1058600001000866FFE7FFE7FFE70A98006842F2D9
:105870000011C4F20201884206D1FFE742F20000A3
:10588000C4F20200019003E00A9800680190FFE76B
:1058900001980A99096888420BD0FFE7049840B143
:1058A000FFE70498052804D0FFE70498092805D1EC
:1058B000FFE70A980068C068069018E00A98006838
:1058C00042F20011C4F20201884206D1FFE742F21F
:1058D0000000C4F20200009003E00A980068009003
:1058E000FFE7009805900598C0680690FFE70798C5
:1058F000082805D1FFE70A980168082008600BE036
:105900009DF819004006002805D4FFE70A980168B1
:105910000C200860FFE7FFE700208DF82F00FFE76D
:105920009DF82F000CB080BD80B58AB00890089813
:105930000168012042F20002C4F202029142049086
:105940000CD0FFE7089800684DF60071CBF6FD71AA
:105950000844B0FA80F040090490FFE70498C107BA
:1059600046F20030C5F6020000291CBF42F20030AA
:10597000C4F202000DF09CFD0590089800680DF03F
:10598000F7FD002840F0CE80FFE7FFE7089890F889
:105990005C00012804D1FFE702208DF82700CAE04F
:1059A0000899012081F85C00FFE7FFE70898FBF702
:1059B0006BFC8DF81F009DF81F00002840F0AA80A6
:1059C000FFE70898006E40F4807040F6016188435C
:1059D000089908660898006842F20011C4F20201B2
:1059E000884206D1FFE742F20000C4F202000390B1
:1059F00003E0089800680390FFE703980899096896
:105A0000884203D0FFE7059830B9FFE70899086E90
:105A100020F480100866FFE70898006EC004002894
:105A200006D5FFE70899486E20F00600486603E0B7
:105A3000089900204866FFE7089801681C20086064
:105A4000FFE70899002081F85C00FFE708980068EC
:105A500042F20011C4F20201884206D1FFE742F28D
:105A60000000C4F20200029003E00898006802906F
:105A7000FFE702980899096888420BD0FFE705986C
:105A800040B1FFE70598052804D0FFE705980928ED
:105A900015D1FFE708980068C0688001002809D583
:105AA000FFE70898006E40F4805020F400500899F9
:105AB0000866FFE7089800680DF096FD29E0089950
:105AC000086E40F4801008660898006842F20011E1
:105AD000C4F20201884206D1FFE742F20000C4F29C
:105AE0000200019003E0089800680190FFE7019828
:105AF00006900698C0688001002809D5FFE708983D
:105B0000006E40F4805020F4005008990866FFE7CA
:105B1000FFE706E0FFE70899002081F85C00FFE757
:105B2000FFE703E002208DF81F00FFE79DF81F004C
:105B30008DF82700FFE79DF827000AB080BD000020
:105B400080B584B00290FFE7029890F85C000128CD
:105B500004D1FFE702208DF80F002DE0029901200B
:105B600081F85C00FFE7FFE702980321FBF75CFA8E
:105B70008DF807009DF8070098B9FFE70298FBF73A
:105B80001FFB8DF807009DF8070048B9FFE7029852
:105B9000006E40F0010020F4885002990866FFE78B
:105BA000FFE7FFE70299002081F85C00FFE79DF81E
:105BB00007008DF80F00FFE79DF80F0004B080BDCF
:105BC00080B58AB0089004F01FFD0490089828B9A9
:105BD000FFE701208DF8270000F0AABC089890F894
:105BE000350002280ED0FFE7089980204865FFE7BE
:105BF0000899002081F83400FFE701208DF8270084
:105C000000F096BC0898016801201022C4F202023C
:105C10009142039000F0A380FFE7089801680120FB
:105C20002822C4F202029142039000F09880FFE71C
:105C30000898016801204022C4F2020291420390B8
:105C400000F08D80FFE70898016801205822C4F217
:105C500002029142039000F08280FFE708980168F9
:105C600001207022C4F202029142039077D0FFE734
:105C70000898016801208822C4F202029142039030
:105C80006DD0FFE7089801680120A022C4F202024B
:105C90009142039063D0FFE7089801680120B82281
:105CA000C4F202029142039059D0FFE708980168BC
:105CB000012040F21042C4F20202914203904ED001
:105CC000FFE708980168012040F22842C4F202026E
:105CD0009142039043D0FFE708980168012040F209
:105CE0004042C4F202029142039038D0FFE7089884
:105CF0000168012040F25842C4F20202914203902E
:105D00002DD0FFE708980168012040F27042C4F2EC
:105D100002029142039022D0FFE708980168012017
:105D200040F28842C4F202029142039017D0FFE78A
:105D300008980168012040F2A042C4F20202914298
:105D400003900CD0FFE7089800684FF64831CBF677
:105D5000FD710844B0FA80F040090390FFE7039812
:105D6000C00780B1FFE708980168086820F01E00AE
:105D7000086008980168486920F080004861089828
:105D80000068059009E008980168086820F00E0096
:105D90000860089800680590FFE7089801680120EE
:105DA0001022C4F202029142029000F00381FFE748
:105DB0000898016801202822C4F202029142029050
:105DC00000F0F880FFE70898016801204022C4F243
:105DD00002029142029000F0ED80FFE7089801680E
:105DE00001205822C4F202029142029000F0E280A7
:105DF000FFE70898016801207022C4F20202914274
:105E0000029000F0D780FFE70898016801208822FF
:105E1000C4F202029142029000F0CC80FFE70898A1
:105E200001680120A022C4F202029142029000F017
:105E3000C180FFE7089801680120B822C4F202027D
:105E40009142029000F0B680FFE7089801680120B7
:105E500040F21042C4F202029142029000F0AA8085
:105E6000FFE708980168012040F22842C4F20202CC
:105E70009142029000F09E80FFE70898016801209F
:105E800040F24042C4F202029142029000F092803D
:105E9000FFE708980168012040F25842C4F202026C
:105EA0009142029000F08680FFE708980168012087
:105EB00040F27042C4F20202914202907AD0FFE7AF
:105EC00008980168012040F28842C4F2020291421F
:105ED00002906FD0FFE708980168012040F2A042CD
:105EE000C4F202029142029064D0FFE70898016870
:105EF000012040F2B842C4F202029142029059D00D
:105F0000FFE708980168012045F20842C5F6020241
:105F1000914202904ED0FFE708980168012045F2B7
:105F20001C42C5F602029142029043D0FFE7089856
:105F30000168012045F23042C5F60202914202900A
:105F400038D0FFE708980168012045F24442C5F6C1
:105F50000202914202902DD0FFE7089801680120CB
:105F600045F25842C5F602029142029022D0FFE764
:105F700008980168012045F26C42C5F60202914280
:105F8000029017D0FFE708980168012045F280428F
:105F9000C5F60202914202900CD0FFE70898006813
:105FA0004AF66C31CAF2FD710844B0FA80F040093B
:105FB0000290FFE70298C00738B1FFE70898016E2A
:105FC000086820F480700860FFE7089800681021D6
:105FD000C4F20201884200F08180FFE7089800685F
:105FE0002821C4F20201884278D0FFE708980068AF
:105FF0004021C4F20201884270D0FFE7089800688F
:106000005821C4F20201884268D0FFE7089800686E
:106010007021C4F20201884260D0FFE7089800684E
:106020008821C4F20201884258D0FFE7089800682E
:10603000A021C4F20201884250D0FFE7089800680E
:10604000B821C4F20201884248D0FFE708980068EE
:1060500040F21041C4F2020188423FD0FFE70898A5
:10606000006840F22841C4F20201884236D0FFE7BE
:106070000898006840F24041C4F2020188422DD0E5
:10608000FFE70898006840F25841C4F202018842D4
:1060900024D0FFE70898006840F27041C4F2020182
:1060A00088421BD0FFE70898006840F28841C4F29C
:1060B0000201884212D0FFE70898006840F2A04130
:1060C000C4F20201884209D0FFE70898006840F254
:1060D000B841C4F20201884207D1FFE7089801687D
:1060E000086820F00100086006E008980168086868
:1060F00020F001000860FFE7FFE705980068C0078F
:10610000C8B1FFE704F080FA0499401A062811D3B9
:10611000FFE70899202048650899032081F8350099
:10612000FFE70899002081F83400FFE701208DF88F
:106130002700FDE1E1E70898016801201022C4F280
:1061400002029142019000F0A380FFE708980168E5
:1061500001202822C4F202029142019000F09880AE
:10616000FFE70898016801204022C4F20202914230
:10617000019000F08D80FFE7089801680120582207
:10618000C4F202029142019000F08280FFE7089879
:10619000016801207022C4F202029142019077D07E
:1061A000FFE70898016801208822C4F202029142A8
:1061B00001906DD0FFE7089801680120A022C4F289
:1061C00002029142019063D0FFE708980168012024
:1061D000B822C4F202029142019059D0FFE7089818
:1061E0000168012040F21042C4F202029142019083
:1061F0004ED0FFE708980168012040F22842C4F21F
:1062000002029142019043D0FFE708980168012003
:1062100040F24042C4F202029142019038D0FFE7BE
:1062200008980168012040F25842C4F202029142EB
:1062300001902DD0FFE708980168012040F27042DC
:10624000C4F202029142019022D0FFE7089801684F
:10625000012040F28842C4F202029142019017D01C
:10626000FFE708980168012040F2A042C4F2020250
:10627000914201900CD0FFE7089800684FF6483132
:10628000CBF6FD710844B0FA80F040090190FFE7B9
:106290000198C00760B1FFE70898806D07900898E3
:1062A000C06D00F01F013F208840079988600BE017
:1062B0000898806D06900898C06D00F01F010120BD
:1062C000884006994860FFE708980168012010227D
:1062D000C4F202029142009000F00381FFE70898A7
:1062E000016801202822C4F202029142009000F0CD
:1062F000F880FFE70898016801204022C4F20202FA
:106300009142009000F0ED80FFE7089801680120BD
:106310005822C4F202029142009000F0E280FFE7AE
:106320000898016801207022C4F202029142009094
:1063300000F0D780FFE70898016801208822C4F2A6
:1063400002029142009000F0CC80FFE708980168BB
:106350000120A022C4F202029142009000F0C1800C
:10636000FFE7089801680120B822C4F202029142B6
:10637000009000F0B680FFE708980168012040F225
:106380001042C4F202029142009000F0AA80FFE79E
:1063900008980168012040F22842C4F202029142AA
:1063A000009000F09E80FFE708980168012040F20D
:1063B0004042C4F202029142009000F09280FFE756
:1063C00008980168012040F25842C4F2020291424A
:1063D000009000F08680FFE708980168012040F2F5
:1063E0007042C4F20202914200907AD0FFE708980E
:1063F0000168012040F28842C4F2020291420090FA
:106400006FD0FFE708980168012040F2A042C4F273
:1064100002029142009064D0FFE7089801680120D1
:1064200040F2B842C4F202029142009059D0FFE714
:1064300008980168012045F20842C5F6020291421F
:1064400000904ED0FFE708980168012045F21C42F9
:10645000C5F602029142009043D0FFE70898016818
:10646000012045F23042C5F602029142009038D038
:10647000FFE708980168012045F24442C5F6020290
:10648000914200902DD0FFE708980168012045F265
:106490005842C5F602029142009022D0FFE70898C8
:1064A0000168012045F26C42C5F60202914200905B
:1064B00017D0FFE708980168012045F28042C5F631
:1064C0000202914200900CD0FFE7089800684AF65B
:1064D0006C31CAF2FD710844B0FA80F040090090B6
:1064E000FFE70098C007A0B1FFE70898416E806EF3
:1064F00048600898C06E58B1FFE70898C16E0868F8
:1065000020F4807008600898016F406F4860FFE7D2
:10651000FFE70899012081F83500FFE7089900207E
:1065200081F83400FFE7FFE700208DF82700FFE740
:106530009DF827000AB080BD80B586B0049004980D
:1065400020B9FFE701208DF8170046E3049890F882
:106550003500022807D0FFE7049980204865012014
:106560008DF8170039E30498016801201022C4F265
:1065700002029142029000F0A380FFE704980168B4
:1065800001202822C4F202029142029000F0988079
:10659000FFE70498016801204022C4F20202914200
:1065A000029000F08D80FFE70498016801205822D6
:1065B000C4F202029142029000F08280FFE7049848
:1065C000016801207022C4F202029142029077D049
:1065D000FFE70498016801208822C4F20202914278
:1065E00002906DD0FFE7049801680120A022C4F258
:1065F00002029142029063D0FFE7049801680120F3
:10660000B822C4F202029142029059D0FFE70498E6
:106610000168012040F21042C4F20202914202904D
:106620004ED0FFE704980168012040F22842C4F2EE
:1066300002029142029043D0FFE7049801680120D2
:1066400040F24042C4F202029142029038D0FFE789
:1066500004980168012040F25842C4F202029142BB
:1066600002902DD0FFE704980168012040F27042AB
:10667000C4F202029142029022D0FFE7049801681E
:10668000012040F28842C4F202029142029017D0E7
:10669000FFE704980168012040F2A042C4F2020220
:1066A000914202900CD0FFE7049800684FF6483101
:1066B000CBF6FD710844B0FA80F040090290FFE784
:1066C0000298C007002800F09D80FFE7049904208D
:1066D00081F83500049800681021C4F20201884254
:1066E00000F08180FFE7049800682821C4F20201CD
:1066F000884278D0FFE7049800684021C4F2020184
:10670000884270D0FFE7049800685821C4F2020163
:10671000884268D0FFE7049800687021C4F2020143
:10672000884260D0FFE7049800688821C4F2020123
:10673000884258D0FFE704980068A021C4F2020103
:10674000884250D0FFE704980068B821C4F20201E3
:10675000884248D0FFE70498006840F21041C4F234
:10676000020188423FD0FFE70498006840F22841C8
:10677000C4F20201884236D0FFE70498006840F274
:106780004041C4F2020188422DD0FFE7049800681E
:1067900040F25841C4F20201884224D0FFE7049835
:1067A000006840F27041C4F2020188421BD0FFE74A
:1067B0000498006840F28841C4F20201884212D075
:1067C000FFE70498006840F2A041C4F20201884249
:1067D00009D0FFE70498006840F2B841C4F2020112
:1067E000884207D1FFE704980168086820F001009B
:1067F000086006E004980168086820F0010008605D
:10680000FFE7E5E104980168086820F00E000860E1
:10681000049800681021C4F20201884200F08180CF
:10682000FFE7049800682821C4F20201884278D06A
:10683000FFE7049800684021C4F20201884270D04A
:10684000FFE7049800685821C4F20201884268D02A
:10685000FFE7049800687021C4F20201884260D00A
:10686000FFE7049800688821C4F20201884258D0EA
:10687000FFE704980068A021C4F20201884250D0CA
:10688000FFE704980068B821C4F20201884248D0AA
:10689000FFE70498006840F21041C4F20201884208
:1068A0003FD0FFE70498006840F22841C4F202019B
:1068B000884236D0FFE70498006840F24041C4F2B5
:1068C000020188422DD0FFE70498006840F2584149
:1068D000C4F20201884224D0FFE70498006840F225
:1068E0007041C4F2020188421BD0FFE7049800689F
:1068F00040F28841C4F20201884212D0FFE70498B6
:10690000006840F2A041C4F20201884209D0FFE7CA
:106910000498006840F2B841C4F20201884207D1ED
:10692000FFE704980168086820F00100086006E0AD
:1069300004980168086820F001000860FFE70498E7
:10694000016801201022C4F202029142019000F07D
:106950000381FFE70498016801202822C4F20202A3
:106960009142019000F0F880FFE70498016801204F
:106970004022C4F202029142019000F0ED80FFE754
:106980000498016801205822C4F202029142019049
:1069900000F0E280FFE70498016801207022C4F251
:1069A00002029142019000F0D780FFE7049801684D
:1069B00001208822C4F202029142019000F0CC80B2
:1069C000FFE7049801680120A022C4F2020291426C
:1069D000019000F0C180FFE7049801680120B8220F
:1069E000C4F202029142019000F0B680FFE70498E1
:1069F0000168012040F21042C4F20202914201906B
:106A000000F0AA80FFE704980168012040F22842C4
:106A1000C4F202029142019000F09E80FFE70498C8
:106A20000168012040F24042C4F20202914201900A
:106A300000F09280FFE704980168012040F258427C
:106A4000C4F202029142019000F08680FFE70498B0
:106A50000168012040F27042C4F2020291420190AA
:106A60007AD0FFE704980168012040F28842C4F21E
:106A70000202914201906FD0FFE704980168012063
:106A800040F2A042C4F202029142019064D0FFE7BA
:106A900004980168012040F2B842C4F20202914217
:106AA000019059D0FFE704980168012045F208429F
:106AB000C5F60202914201904ED0FFE704980168AA
:106AC000012045F21C42C5F602029142019043D0DA
:106AD000FFE704980168012045F23042C5F6020242
:106AE0009142019038D0FFE704980168012045F2F7
:106AF0004442C5F60202914201902DD0FFE704986E
:106B00000168012045F25842C5F602029142019007
:106B100022D0FFE704980168012045F26C42C5F6D7
:106B200002029142019017D0FFE70498016801200A
:106B300045F28042C5F60202914201900CD0FFE777
:106B4000049800684AF66C31CAF2FD710844B0FA44
:106B500080F040090190FFE70198C00728B3FFE7E4
:106B60000498016E086820F4807008600498806DB5
:106B700003900498C06D00F01F0101208840039924
:106B800048600498416E806E48600498C06E58B1A9
:106B9000FFE70498C16E086820F4807008600498CC
:106BA000016F406F4860FFE7FFE70499012081F81B
:106BB0003500FFE70499002081F83400FFE70498CE
:106BC000006D20B1FFE70498016D8847FFE7FFE7FC
:106BD000FFE700208DF81700FFE79DF8170006B0CB
:106BE00080BD00000000000081B000900098406D62
:106BF00001B070470000000080B590B00F900020F9
:106C00000B9040F24400C2F20040006848F2B51117
:106C1000C1F64E31A0FB0110800A0A900F98806DDA
:106C200009900F98806D0890099800680E90089858
:106C300000680D900F98016801201022C4F2020232
:106C40009142079000F0A380FFE70F9801680120B0
:106C50002822C4F202029142079000F09880FFE7D8
:106C60000F98016801204022C4F20202914207906D
:106C700000F08D80FFE70F98016801205822C4F2D0
:106C800002029142079000F08280FFE70F980168AE
:106C900001207022C4F202029142079077D0FFE7F0
:106CA0000F98016801208822C4F2020291420790E5
:106CB0006DD0FFE70F9801680120A022C4F2020204
:106CC0009142079063D0FFE70F9801680120B82236
:106CD000C4F202029142079059D0FFE70F98016871
:106CE000012040F21042C4F20202914207904ED0BD
:106CF000FFE70F980168012040F22842C4F2020227
:106D00009142079043D0FFE70F980168012040F2BD
:106D10004042C4F202029142079038D0FFE70F9838
:106D20000168012040F25842C4F2020291420790E9
:106D30002DD0FFE70F980168012040F27042C4F2A5
:106D400002029142079022D0FFE70F9801680120CC
:106D500040F28842C4F202029142079017D0FFE746
:106D60000F980168012040F2A042C4F20202914251
:106D700007900CD0FFE70F9800684FF64831CBF62C
:106D8000FD710844B0FA80F040090790FFE70798CA
:106D9000C007002800F01385FFE70E980F99C96D12
:106DA00001F01F01C8400007002840F1B080FFE754
:106DB0000F9800681021C4F20201884200F081801F
:106DC000FFE70F9800682821C4F20201884278D0BA
:106DD000FFE70F9800684021C4F20201884270D09A
:106DE000FFE70F9800685821C4F20201884268D07A
:106DF000FFE70F9800687021C4F20201884260D05A
:106E0000FFE70F9800688821C4F20201884258D039
:106E1000FFE70F980068A021C4F20201884250D019
:106E2000FFE70F980068B821C4F20201884248D0F9
:106E3000FFE70F98006840F21041C4F20201884257
:106E40003FD0FFE70F98006840F22841C4F20201EA
:106E5000884236D0FFE70F98006840F24041C4F204
:106E6000020188422DD0FFE70F98006840F2584198
:106E7000C4F20201884224D0FFE70F98006840F274
:106E80007041C4F2020188421BD0FFE70F980068EE
:106E900040F28841C4F20201884212D0FFE70F9805
:106EA000006840F2A041C4F20201884209D0FFE725
:106EB0000F98006840F2B841C4F20201884207D13D
:106EC000FFE70F980068006800F00400069006E0F5
:106ED0000F980068006800F008000690FFE7069829
:106EE000A0B1FFE70F980168086820F0040008606F
:106EF0000F98C06D00F01F01082088400999886034
:106F00000F99486D40F001004865FFE7FFE70E98D4
:106F10000F99C96D01F01F01C840C007002800F09B
:106F2000A980FFE70F9800681021C4F2020188428F
:106F300000F08180FFE70F9800682821C4F2020169
:106F4000884278D0FFE70F9800684021C4F2020120
:106F5000884270D0FFE70F9800685821C4F2020100
:106F6000884268D0FFE70F9800687021C4F20201E0
:106F7000884260D0FFE70F9800688821C4F20201C0
:106F8000884258D0FFE70F980068A021C4F20201A0
:106F9000884250D0FFE70F980068B821C4F2020180
:106FA000884248D0FFE70F98006840F21041C4F2D1
:106FB000020188423FD0FFE70F98006840F2284165
:106FC000C4F20201884236D0FFE70F98006840F211
:106FD0004041C4F2020188422DD0FFE70F980068BB
:106FE00040F25841C4F20201884224D0FFE70F98D2
:106FF000006840F27041C4F2020188421BD0FFE7F2
:107000000F98006840F28841C4F20201884212D011
:10701000FFE70F98006840F2A041C4F202018842E5
:1070200009D0FFE70F98006840F2B841C4F20201AE
:10703000884207D1FFE70F980068406900F08000A0
:10704000059005E00F980068006800200590FFE7B4
:10705000059870B1FFE70F98C06D00F01F01012087
:107060008840099988600F99486D40F00200486592
:10707000FFE7FFE70E980F99C96D01F01F01C840A7
:107080004007002840F1A980FFE70F980068102111
:10709000C4F20201884200F08180FFE70F98006887
:1070A0002821C4F20201884278D0FFE70F980068D7
:1070B0004021C4F20201884270D0FFE70F980068B7
:1070C0005821C4F20201884268D0FFE70F98006897
:1070D0007021C4F20201884260D0FFE70F98006877
:1070E0008821C4F20201884258D0FFE70F98006857
:1070F000A021C4F20201884250D0FFE70F98006837
:10710000B821C4F20201884248D0FFE70F98006816
:1071100040F21041C4F2020188423FD0FFE70F98CD
:10712000006840F22841C4F20201884236D0FFE7ED
:107130000F98006840F24041C4F2020188422DD00D
:10714000FFE70F98006840F25841C4F202018842FC
:1071500024D0FFE70F98006840F27041C4F20201AA
:1071600088421BD0FFE70F98006840F28841C4F2C4
:107170000201884212D0FFE70F98006840F2A04158
:10718000C4F20201884209D0FFE70F98006840F27C
:10719000B841C4F20201884207D1FFE70F980068A6
:1071A000006800F00200049005E00F980068006895
:1071B00000200490FFE7049870B1FFE70F98C06DBE
:1071C00000F01F0104208840099988600F99486DDC
:1071D00040F004004865FFE7FFE70E980F99C96D7E
:1071E00001F01F01C840C006002840F1DE80FFE723
:1071F0000F9800681021C4F20201884200F08180DB
:10720000FFE70F9800682821C4F20201884278D075
:10721000FFE70F9800684021C4F20201884270D055
:10722000FFE70F9800685821C4F20201884268D035
:10723000FFE70F9800687021C4F20201884260D015
:10724000FFE70F9800688821C4F20201884258D0F5
:10725000FFE70F980068A021C4F20201884250D0D5
:10726000FFE70F980068B821C4F20201884248D0B5
:10727000FFE70F98006840F21041C4F20201884213
:107280003FD0FFE70F98006840F22841C4F20201A6
:10729000884236D0FFE70F98006840F24041C4F2C0
:1072A000020188422DD0FFE70F98006840F2584154
:1072B000C4F20201884224D0FFE70F98006840F230
:1072C0007041C4F2020188421BD0FFE70F980068AA
:1072D00040F28841C4F20201884212D0FFE70F98C1
:1072E000006840F2A041C4F20201884209D0FFE7E1
:1072F0000F98006840F2B841C4F20201884207D1F9
:10730000FFE70F980068006800F00800039006E0AF
:107310000F980068006800F004000390FFE70398EE
:10732000002841D0FFE70F98C06D00F01F0110202A
:107330008840099988600F98006800684003002819
:107340001AD5FFE70F98006800680003002809D4E9
:10735000FFE70F98006C20B1FFE70F98016C88479A
:10736000FFE708E00F98806C20B1FFE70F98816C71
:107370008847FFE7FFE716E00F9800680068C00540
:10738000002807D4FFE70F980168086820F008007C
:107390000860FFE70F98006C20B1FFE70F98016CC1
:1073A0008847FFE7FFE7FFE7FFE70E980F99C96DF2
:1073B00001F01F01C8408006002840F12681FFE748
:1073C0000F9800681021C4F20201884200F0818009
:1073D000FFE70F9800682821C4F20201884278D0A4
:1073E000FFE70F9800684021C4F20201884270D084
:1073F000FFE70F9800685821C4F20201884268D064
:10740000FFE70F9800687021C4F20201884260D043
:10741000FFE70F9800688821C4F20201884258D023
:10742000FFE70F980068A021C4F20201884250D003
:10743000FFE70F980068B821C4F20201884248D0E3
:10744000FFE70F98006840F21041C4F20201884241
:107450003FD0FFE70F98006840F22841C4F20201D4
:10746000884236D0FFE70F98006840F24041C4F2EE
:10747000020188422DD0FFE70F98006840F2584182
:10748000C4F20201884224D0FFE70F98006840F25E
:107490007041C4F2020188421BD0FFE70F980068D8
:1074A00040F28841C4F20201884212D0FFE70F98EF
:1074B000006840F2A041C4F20201884209D0FFE70F
:1074C0000F98006840F2B841C4F20201884207D127
:1074D000FFE70F980068006800F01000029006E0D7
:1074E0000F980068006800F002000290FFE7029821
:1074F000002800F08980FFE70F98C06D00F01F01A1
:1075000020208840099988600F9890F83500042859
:1075100037D1FFE70F980168086820F0160008606F
:107520000F980168486920F0800048610F98006C4E
:1075300020B9FFE70F98806C38B1FFE70F9801681A
:10754000086820F008000860FFE70F98C06D00F0A1
:107550001F013F208840099988600F99012081F818
:107560003500FFE70F99002081F83400FFE70F98FE
:10757000006D20B1FFE70F98016D8847FFE700F02D
:1075800019BC0F9800680068400300281AD5FFE76F
:107590000F98006800680003002809D4FFE70F98DF
:1075A000406C20B1FFE70F98416C8847FFE708E087
:1075B0000F98C06B20B1FFE70F98C16B8847FFE7BA
:1075C000FFE720E00F9800680068C005002811D48C
:1075D000FFE70F980168086820F0100008600F9915
:1075E000012081F83500FFE70F99002081F8340071
:1075F000FFE7FFE70F98C06B20B1FFE70F98C16B63
:107600008847FFE7FFE7FFE7FFE70F98406D002897
:1076100000F0D480FFE70F98406DC007002800F00D
:10762000C480FFE70F99042081F835000F980068A7
:107630001021C4F20201884200F08180FFE70F9818
:1076400000682821C4F20201884278D0FFE70F9831
:1076500000684021C4F20201884270D0FFE70F9811
:1076600000685821C4F20201884268D0FFE70F98F1
:1076700000687021C4F20201884260D0FFE70F98D1
:1076800000688821C4F20201884258D0FFE70F98B1
:107690000068A021C4F20201884250D0FFE70F9891
:1076A0000068B821C4F20201884248D0FFE70F9871
:1076B000006840F21041C4F2020188423FD0FFE767
:1076C0000F98006840F22841C4F20201884236D087
:1076D000FFE70F98006840F24041C4F2020188427F
:1076E0002DD0FFE70F98006840F25841C4F2020124
:1076F000884224D0FFE70F98006840F27041C4F23E
:10770000020188421BD0FFE70F98006840F28841D1
:10771000C4F20201884212D0FFE70F98006840F2DD
:10772000A041C4F20201884209D0FFE70F98006827
:1077300040F2B841C4F20201884207D1FFE70F9836
:107740000168086820F00100086006E00F980168F1
:10775000086820F001000860FFE7FFE70B980130A0
:107760000B900A99884201D9FFE707E0FFE70F98DD
:1077700000680068C0070028F0D1FFE70F98006894
:107780000068C00728B1FFE70F99032081F8350092
:1077900004E00F99012081F83500FFE7FFE70F991A
:1077A000002081F83400FFE7FFE70F98C06C20B19C
:1077B000FFE70F98C16C8847FFE7FFE7FAE20F98F1
:1077C0000168012045F20842C5F60202914201908B
:1077D0004ED0FFE70F980168012045F21C42C5F624
:1077E00002029142019043D0FFE70F980168012007
:1077F00045F23042C5F602029142019038D0FFE7CF
:107800000F980168012045F24442C5F602029142F8
:1078100001902DD0FFE70F980168012045F25842F2
:10782000C5F602029142019022D0FFE70F9801684D
:10783000012045F26C42C5F602029142019017D038
:10784000FFE70F980168012045F28042C5F6020269
:10785000914201900CD0FFE70F9800684AF66C3116
:10786000CAF2FD710844B0FA80F040090190FFE7C8
:107870000198C007002800F09B82FFE70F9800687E
:1078800000680C900D980F99C96D01F01F01C84058
:107890004007002840F1D780FFE79DF830004007FF
:1078A000002840F1D080FFE70F98C06D00F01F0165
:1078B00004208840089948609DF83100000600289F
:1078C00018D5FFE79DF83200C00748B9FFE70F98C9
:1078D000806C20B1FFE70F98816C8847FFE708E0D4
:1078E0000F98006C20B1FFE70F98016C8847FFE705
:1078F000FFE7A7E09DF830008006002800F199809E
:10790000FFE70F9800681021C4F20201884200F0DE
:107910008180FFE70F9800682821C4F202018842A5
:1079200078D0FFE70F9800684021C4F20201884236
:1079300070D0FFE70F9800685821C4F20201884216
:1079400068D0FFE70F9800687021C4F202018842F6
:1079500060D0FFE70F9800688821C4F202018842D6
:1079600058D0FFE70F980068A021C4F202018842B6
:1079700050D0FFE70F980068B821C4F20201884296
:1079800048D0FFE70F98006840F21041C4F20201AE
:1079900088423FD0FFE70F98006840F22841C4F2C8
:1079A0000201884236D0FFE70F98006840F240415C
:1079B000C4F2020188422DD0FFE70F98006840F220
:1079C0005841C4F20201884224D0FFE70F980068B2
:1079D00040F27041C4F2020188421BD0FFE70F98C9
:1079E000006840F28841C4F20201884212D0FFE7E9
:1079F0000F98006840F2A041C4F20201884209D009
:107A0000FFE70F98006840F2B841C4F202018842D3
:107A100007D1FFE70F980168086820F008000860A8
:107A200006E00F980168086820F004000860FFE78E
:107A3000FFE70F98006C20B1FFE70F98016C8847B3
:107A4000FFE7FFE7B3E10D980F99C96D01F01F0142
:107A5000C8408007002840F1E180FFE79DF8300032
:107A60008007002840F1DA80FFE70F98C06D00F032
:107A70001F0102208840089948609DF831000006E7
:107A8000002818D5FFE79DF83200C00748B9FFE786
:107A90000F98406C20B1FFE70F98416C8847FFE7D3
:107AA00008E00F98C06B20B1FFE70F98C16B8847C3
:107AB000FFE7FFE7B1E09DF830008006002800F105
:107AC000A380FFE70F9800681021C4F202018842EA
:107AD00000F08180FFE70F9800682821C4F20201BE
:107AE000884278D0FFE70F9800684021C4F2020175
:107AF000884270D0FFE70F9800685821C4F2020155
:107B0000884268D0FFE70F9800687021C4F2020134
:107B1000884260D0FFE70F9800688821C4F2020114
:107B2000884258D0FFE70F980068A021C4F20201F4
:107B3000884250D0FFE70F980068B821C4F20201D4
:107B4000884248D0FFE70F98006840F21041C4F225
:107B5000020188423FD0FFE70F98006840F22841B9
:107B6000C4F20201884236D0FFE70F98006840F265
:107B70004041C4F2020188422DD0FFE70F9800680F
:107B800040F25841C4F20201884224D0FFE70F9826
:107B9000006840F27041C4F2020188421BD0FFE746
:107BA0000F98006840F28841C4F20201884212D066
:107BB000FFE70F98006840F2A041C4F2020188423A
:107BC00009D0FFE70F98006840F2B841C4F2020103
:107BD000884207D1FFE70F980168086820F0140079
:107BE000086006E00F980168086820F00A00086045
:107BF000FFE70F99012081F83500FFE70F9900207A
:107C000081F83400FFE7FFE70F98C06B20B1FFE772
:107C10000F98C16B8847FFE7FFE7C7E00D980F9902
:107C2000C96D01F01F01C8400007002840F1BC8069
:107C3000FFE79DF830000007002840F1B580FFE71E
:107C40000F9800681021C4F20201884200F0818080
:107C5000FFE70F9800682821C4F20201884278D01B
:107C6000FFE70F9800684021C4F20201884270D0FB
:107C7000FFE70F9800685821C4F20201884268D0DB
:107C8000FFE70F9800687021C4F20201884260D0BB
:107C9000FFE70F9800688821C4F20201884258D09B
:107CA000FFE70F980068A021C4F20201884250D07B
:107CB000FFE70F980068B821C4F20201884248D05B
:107CC000FFE70F98006840F21041C4F202018842B9
:107CD0003FD0FFE70F98006840F22841C4F202014C
:107CE000884236D0FFE70F98006840F24041C4F266
:107CF000020188422DD0FFE70F98006840F25841FA
:107D0000C4F20201884224D0FFE70F98006840F2D5
:107D10007041C4F2020188421BD0FFE70F9800684F
:107D200040F28841C4F20201884212D0FFE70F9866
:107D3000006840F2A041C4F20201884209D0FFE786
:107D40000F98006840F2B841C4F20201884207D19E
:107D5000FFE70F980168086820F01C00086006E043
:107D60000F980168086820F00E000860FFE70F9880
:107D7000C06D00F01F01012000FA01F1089A516066
:107D80000F9948650F9981F83500FFE70F9900209A
:107D900081F83400FFE70F98C06C20B1FFE70F981F
:107DA000C16C8847FFE700E0FFE7FFE7FFE700E07F
:107DB000FFE7FFE710B080BD10B58EB00C9002F069
:107DC00023FC0A900C9828B9FFE701208DF83700B2
:107DD00000F09EBC0C98016801201022C4F202023F
:107DE0009142079000F0A380FFE70C980168012002
:107DF0002822C4F202029142079000F09880FFE727
:107E00000C98016801204022C4F2020291420790BE
:107E100000F08D80FFE70C98016801205822C4F221
:107E200002029142079000F08280FFE70C980168FF
:107E300001207022C4F202029142079077D0FFE73E
:107E40000C98016801208822C4F202029142079036
:107E50006DD0FFE70C9801680120A022C4F2020255
:107E60009142079063D0FFE70C9801680120B82287
:107E7000C4F202029142079059D0FFE70C980168C2
:107E8000012040F21042C4F20202914207904ED00B
:107E9000FFE70C980168012040F22842C4F2020278
:107EA0009142079043D0FFE70C980168012040F20F
:107EB0004042C4F202029142079038D0FFE70C988A
:107EC0000168012040F25842C4F202029142079038
:107ED0002DD0FFE70C980168012040F27042C4F2F7
:107EE00002029142079022D0FFE70C98016801201E
:107EF00040F28842C4F202029142079017D0FFE795
:107F00000C980168012040F2A042C4F202029142A2
:107F100007900CD0FFE70C9800684FF64831CBF67D
:107F2000FD710844B0FA80F040090790FFE7079818
:107F3000C007002800F07881FFE70C98406A08B17C
:107F4000FFE7FFE70C99022081F83500FFE70C9965
:107F5000002081F83400FFE70C9800681021C4F27B
:107F60000201884200F08180FFE70C980068282118
:107F7000C4F20201884278D0FFE70C9800684021E3
:107F8000C4F20201884270D0FFE70C9800685821C3
:107F9000C4F20201884268D0FFE70C9800687021A3
:107FA000C4F20201884260D0FFE70C980068882183
:107FB000C4F20201884258D0FFE70C980068A02163
:107FC000C4F20201884250D0FFE70C980068B82143
:107FD000C4F20201884248D0FFE70C98006840F2E2
:107FE0001041C4F2020188423FD0FFE70C980068BC
:107FF00040F22841C4F20201884236D0FFE70C98D3
:10800000006840F24041C4F2020188422DD0FFE7EF
:108010000C98006840F25841C4F20201884224D012
:10802000FFE70C98006840F27041C4F202018842F8
:108030001BD0FFE70C98006840F28841C4F20201AF
:10804000884212D0FFE70C98006840F2A041C4F2C9
:108050000201884209D0FFE70C98006840F2B8415D
:10806000C4F20201884207D1FFE70C980168086852
:1080700020F00100086006E00C980168086820F014
:1080800001000860FFE7FFE70C9800680068C00780
:1080900098B1FFE702F0B8FA0A99401A06280BD304
:1080A000FFE70C99202048650C99032081F83500E2
:1080B00001208DF837002BE3E6E70C980068006894
:1080C0000B900B9848F23F01CFF6106108400B90DF
:1080D0000C998868D1F80CC00B694A6940EA0C0019
:1080E000184310438A691043CA691043096A01435F
:1080F0000B9808430B900C98406A042808D1FFE7BE
:108100000C99C86A096B01430B9808430B90FFE771
:108110000C984068292807D3FFE70C984168012094
:108120002F29069036D3FFE70C9840683F2807D3E5
:10813000FFE70C9841680120432906902AD3FFE706
:108140000C984068472807D3FFE70C984168012046
:10815000492906901ED3FFE70C9840684F2807D3A3
:10816000FFE70C98416801205329069012D3FFE7DE
:108170000C98416800207429059008D3FFE70C98FB
:1081800041680020782938BF01200590FFE7059855
:108190000690FFE70698C00728B1FFE70B9840F468
:1081A00080100B90FFE70B980C99096808600C98F9
:1081B000006840690B900B9820F007000B900C981A
:1081C000416A0B9808430B900C98406A04281AD116
:1081D000FFE70C98816A0B9808430B900C98C06AD3
:1081E00080B1FFE70C98FAF7EFFE50B1FFE70C996A
:1081F000402048650C99012081F835008DF8370042
:1082000086E2FFE7FFE70B980C99096848610C9834
:10821000FAF79EFC09900C98C06D00F01F013F20FA
:1082200088400999886026E10C980168012045F290
:108230000842C5F60202914204904ED0FFE70C9826
:108240000168012045F21C42C5F6020291420490E9
:1082500043D0FFE70C980168012045F23042C5F693
:1082600002029142049038D0FFE70C980168012087
:1082700045F24442C5F60202914204902DD0FFE738
:108280000C980168012045F25842C5F6020291425D
:10829000049022D0FFE70C980168012045F26C425F
:1082A000C5F602029142049017D0FFE70C980168CE
:1082B000012045F28042C5F60202914204900CD0A2
:1082C000FFE70C9800684AF66C31CAF2FD71084469
:1082D000B0FA80F040090490FFE70498C007002836
:1082E00000F0BD80FFE70C980168012045F20842CC
:1082F000C5F60202914203904ED0FFE70C98016848
:10830000012045F21C42C5F602029142039043D07F
:10831000FFE70C980168012045F23042C5F60202E1
:108320009142039038D0FFE70C980168012045F294
:108330004442C5F60202914203902DD0FFE70C980B
:108340000168012045F25842C5F6020291420390AD
:1083500022D0FFE70C980168012045F26C42C5F677
:1083600002029142039017D0FFE70C9801680120A8
:1083700045F28042C5F60202914203900CD0FFE71D
:108380000C9800684AF66C31CAF2FD710844B0FAE4
:1083900080F040090390FFE70398C00708B1FFE7AA
:1083A000FFE70C99022081F83500FFE70C990020C7
:1083B00081F83400FFE70C98006800680B900B9878
:1083C0006FF310100B900C988068402803D1FFE7E2
:1083D0001020029008E00C9880688038B0FA80F095
:1083E000400980030290FFE702980C99CA680B6964
:1083F000D1F814C0D1F818E0CC694EEA040E4CEA6A
:108400000E0C43EA0C031A4340EAD200096A40EA20
:1084100011110B9808430B900B980C990968086090
:108420000C9908684AF6F832CAF2FD7210444CF60C
:10843000CD42CCF6CC42A0FB02026FF0030000EA72
:108440009200C8650C98FAF783FB08900C98C06DF1
:1084500000F01F0101208840089948600AE00C994B
:10846000402048650C99032081F8350001208DF8E3
:1084700037004DE1FFE70C98016801201022C4F29B
:1084800002029142019000F00381FFE70C9801681D
:1084900001202822C4F202029142019000F0F880EB
:1084A000FFE70C98016801204022C4F202029142C9
:1084B000019000F0ED80FFE70C9801680120582240
:1084C000C4F202029142019000F0E280FFE70C98B2
:1084D000016801207022C4F202029142019000F072
:1084E000D780FFE70C98016801208822C4F20202BD
:1084F0009142019000F0CC80FFE70C9801680120C8
:10850000A022C4F202029142019000F0C180FFE774
:108510000C9801680120B822C4F202029142019035
:1085200000F0B680FFE70C980168012040F210428D
:10853000C4F202029142019000F0AA80FFE70C9879
:108540000168012040F22842C4F2020291420190E7
:1085500000F09E80FFE70C980168012040F2404245
:10856000C4F202029142019000F09280FFE70C9861
:108570000168012040F25842C4F202029142019087
:1085800000F08680FFE70C980168012040F27042FD
:10859000C4F20202914201907AD0FFE70C98016880
:1085A000012040F28842C4F20202914201906FD051
:1085B000FFE70C980168012040F2A042C4F20202D9
:1085C0009142019064D0FFE70C980168012040F2CD
:1085D000B842C4F202029142019059D0FFE70C98D0
:1085E0000168012045F20842C5F60202914201905D
:1085F0004ED0FFE70C980168012045F21C42C5F6F9
:1086000002029142019043D0FFE70C9801680120DB
:1086100045F23042C5F602029142019038D0FFE7A0
:108620000C980168012045F24442C5F602029142CD
:1086300001902DD0FFE70C980168012045F25842C7
:10864000C5F602029142019022D0FFE70C98016822
:10865000012045F26C42C5F602029142019017D00A
:10866000FFE70C980168012045F28042C5F602023E
:10867000914201900CD0FFE70C9800684AF66C31EB
:10868000CAF2FD710844B0FA80F040090190FFE79A
:108690000198C00790B3FFE70C98FAF741FB0C98DC
:1086A0008068802804D1FFE70C9900204860FFE72C
:1086B0000C990879096E08600C98416E806E4860CC
:1086C0000C98406888B1FFE70C98406808280CD8DF
:1086D000FFE70C98FAF7E0FB0C98C16E00200860E9
:1086E0000C98016F406F486007E00C990020C86645
:1086F0000C9908670C994867FFE7FFE70C99002081
:1087000048650C9A012182F835108DF83700FFE793
:108710009DF837000EB010BD80B588B00690059169
:108720000492039300208DF80B00069820B9FFE710
:1087300001208DF81F006CE3FFE7069890F83400E5
:10874000012804D1FFE702208DF81F0061E306999C
:10875000012081F83400FFE7FFE7069890F8350024
:10876000012840F04383FFE70699022081F8350095
:10877000069900204865069800681021C4F202019D
:10878000884200F08180FFE7069800682821C4F243
:108790000201884278D0FFE7069800684021C4F2C1
:1087A0000201884270D0FFE7069800685821C4F2A1
:1087B0000201884268D0FFE7069800687021C4F281
:1087C0000201884260D0FFE7069800688821C4F261
:1087D0000201884258D0FFE706980068A021C4F241
:1087E0000201884250D0FFE706980068B821C4F221
:1087F0000201884248D0FFE70698006840F2104125
:10880000C4F2020188423FD0FFE70698006840F2B8
:108810002841C4F20201884236D0FFE7069800687A
:1088200040F24041C4F2020188422DD0FFE7069891
:10883000006840F25841C4F20201884224D0FFE7A8
:108840000698006840F27041C4F2020188421BD0D1
:10885000FFE70698006840F28841C4F202018842AE
:1088600012D0FFE70698006840F2A041C4F202016E
:10887000884209D0FFE70698006840F2B841C4F288
:108880000201884207D1FFE706980168086820F0D6
:108890000100086006E006980168086820F0010001
:1088A0000860FFE706980599049A039BFAF704FC11
:1088B0000698016801201022C4F202029142019040
:1088C00000F0A380FFE70698016801202822C4F287
:1088D00002029142019000F09880FFE7069801683B
:1088E00001204022C4F202029142019000F08D80EA
:1088F000FFE70698016801205822C4F20202914263
:10890000019000F08280FFE7069801680120702244
:10891000C4F202029142019077D0FFE70698016805
:1089200001208822C4F20202914201906DD0FFE73B
:10893000069801680120A022C4F20202914201902F
:1089400063D0FFE7069801680120B822C4F2020252
:108950009142019059D0FFE706980168012040F24A
:108960001042C4F20202914201904ED0FFE70698F5
:108970000168012040F22842C4F2020291420190B3
:1089800043D0FFE706980168012040F24042C4F25C
:1089900002029142019038D0FFE706980168012059
:1089A00040F25842C4F20202914201902DD0FFE7FA
:1089B00006980168012040F27042C4F2020291421E
:1089C000019022D0FFE706980168012040F288421A
:1089D000C4F202029142019017D0FFE706980168A5
:1089E000012040F2A042C4F20202914201900CD058
:1089F000FFE7069800684FF64831CBF6FD71084452
:108A0000B0FA80F040090190FFE70198C007A8B1D3
:108A1000FFE70698006800680B2161F3440006999F
:108A2000096808600698006C38B1FFE7069801688D
:108A3000086840F008000860FFE714E00698006846
:108A40000068052161F343000699096808600698EB
:108A5000006C38B1FFE706980168086840F0040030
:108A60000860FFE7FFE70698016801201022C4F2C2
:108A700002029142009000F00381FFE7069801682E
:108A800001202822C4F202029142009000F0F880F6
:108A9000FFE70698016801204022C4F202029142D9
:108AA000009000F0ED80FFE7069801680120582251
:108AB000C4F202029142009000F0E280FFE70698C3
:108AC000016801207022C4F202029142009000F07D
:108AD000D780FFE70698016801208822C4F20202CD
:108AE0009142009000F0CC80FFE7069801680120D9
:108AF000A022C4F202029142009000F0C180FFE780
:108B0000069801680120B822C4F202029142009046
:108B100000F0B680FFE706980168012040F210429D
:108B2000C4F202029142009000F0AA80FFE706988A
:108B30000168012040F22842C4F2020291420090F2
:108B400000F09E80FFE706980168012040F2404255
:108B5000C4F202029142009000F09280FFE7069872
:108B60000168012040F25842C4F202029142009092
:108B700000F08680FFE706980168012040F270420D
:108B8000C4F20202914200907AD0FFE70698016891
:108B9000012040F28842C4F20202914200906FD05C
:108BA000FFE706980168012040F2A042C4F20202E9
:108BB0009142009064D0FFE706980168012040F2DE
:108BC000B842C4F202029142009059D0FFE70698E1
:108BD0000168012045F20842C5F602029142009068
:108BE0004ED0FFE706980168012045F21C42C5F609
:108BF00002029142009043D0FFE7069801680120ED
:108C000045F23042C5F602029142009038D0FFE7AB
:108C100006980168012045F24442C5F602029142DD
:108C200000902DD0FFE706980168012045F25842D8
:108C3000C5F602029142009022D0FFE70698016833
:108C4000012045F26C42C5F602029142009017D015
:108C5000FFE706980168012045F28042C5F602024E
:108C6000914200900CD0FFE7069800684AF66C31FC
:108C7000CAF2FD710844B0FA80F040090090FFE7A5
:108C80000098C007D0B1FFE70698006E0068C003E7
:108C9000002807D5FFE70698016E086840F4807049
:108CA0000860FFE70698C06E38B1FFE70698C16E0E
:108CB000086840F480700860FFE7FFE706980068E6
:108CC0001021C4F20201884200F08180FFE706987B
:108CD00000682821C4F20201884278D0FFE7069894
:108CE00000684021C4F20201884270D0FFE7069874
:108CF00000685821C4F20201884268D0FFE7069854
:108D000000687021C4F20201884260D0FFE7069833
:108D100000688821C4F20201884258D0FFE7069813
:108D20000068A021C4F20201884250D0FFE70698F3
:108D30000068B821C4F20201884248D0FFE70698D3
:108D4000006840F21041C4F2020188423FD0FFE7C0
:108D50000698006840F22841C4F20201884236D0E9
:108D6000FFE70698006840F24041C4F202018842E1
:108D70002DD0FFE70698006840F25841C4F2020186
:108D8000884224D0FFE70698006840F27041C4F2A0
:108D9000020188421BD0FFE70698006840F2884134
:108DA000C4F20201884212D0FFE70698006840F240
:108DB000A041C4F20201884209D0FFE7069800688A
:108DC00040F2B841C4F20201884207D1FFE7069899
:108DD0000168086840F00100086006E00698016834
:108DE000086840F001000860FFE70DE006994FF4C5
:108DF00000604865FFE70699002081F83400FFE72E
:108E000001208DF80B00FFE79DF80B008DF81F0087
:108E1000FFE79DF81F0008B080BD000000000000C3
:108E200080B584B0039001F0EFFB029003980190AD
:108E30000198013048B1FFE740F26420C2F20040DF
:108E40000178019808440190FFE7FFE701F0DCFB9F
:108E50000299401A0199884201D2FFE7F6E704B06F
:108E600080BD00000000000085B0039002910192D7
:108E7000039890F898008DF803009DF803000128EE
:108E800005D0FFE79DF8030002285DD1FFE70298B7
:108E900003990968896D084207D1FFE703980168C3
:108EA000C86D40F00100C86515E002980399096893
:108EB000896D08400299884207D1FFE7039801684D
:108EC000C86D40F00200C86504E003980168032003
:108ED000C865FFE7FFE79DF809008007002809D56E
:108EE000FFE7019A03980168D1F8E0001043C1F848
:108EF000E000FFE79DF809004007002809D5FFE7DB
:108F0000019A03980168D1F8E4001043C1F8E40025
:108F1000FFE7FFE702984FF6FF71C3F6CF7100EA53
:108F2000010203980168486D10434865029A4AF6A9
:108F30001401C4F20001086840EA92700860FFE77B
:108F400000208DF813000AE00399D1F89C0040F04E
:108F50000200C1F89C0001208DF81300FFE79DF886
:108F6000130005B07047000080B586B004900391EF
:108F700002920398406808B9FFE700E0FFE7049811
:108F800090F89800022845D1FFE704980068D0F8CF
:108F9000C00010F07C5F0BD1FFE70499D1F89C0072
:108FA00040F02000C1F89C0001208DF817003CE043
:108FB00004980068D0F8C400800200280BD5FFE7B1
:108FC0000499D1F89C0040F40070C1F89C00012085
:108FD0008DF8170029E004980068D0F8C400C0F3A9
:108FE0000440019004980399029A019BFAF7F4FE59
:108FF0000199012000FA01F1049A1268C2F8D01018
:10900000019988400499C1F89400FFE700208DF889
:1090100017000AE00499D1F89C0040F00800C1F85C
:109020009C0001208DF81700FFE79DF8170006B09F
:1090300080BD00000000000082B00190009102B0ED
:10904000704700000000000087B00590049105986B
:1090500090F898008DF803009DF80300012805D0D2
:10906000FFE79DF8030002286AD1FFE70498C06873
:10907000072801D1FFE7FFE70498006878BBFFE706
:109080000498C068072801D0FFE7FFE70498C0688C
:1090900007280CD1FFE7049A10699169D26900048E
:1090A00040EA0220084340F0605003900CE004992D
:1090B0008868CB680A694969800740EAC36040EA6A
:1090C000024008430390FFE70598C06E0499496881
:1090D00000EB810001900398019908602CE004984E
:1090E000C068072801D0FFE7FFE70498C16800695E
:1090F00040EA417003900498C068072804D1FFE754
:1091000004988069029006E004988168406940EA0A
:1091100081700290FFE70598006F0499496800EBA1
:10912000C1000190039801990860019804300190F2
:10913000029801990860FFE700208DF81B000AE003
:109140000599D1F89C0040F00200C1F89C00012074
:109150008DF81B00FFE79DF81B0007B0704700006B
:1091600081B0009001B0704782B00190009102B0D0
:1091700070470000000000008AB008900791069236
:10918000059300200190089890F898008DF803004E
:109190009DF80300022840F05C81FFE70798402813
:1091A00051D1FFE708980068D0F8A00010F4FE0F36
:1091B0000BD1FFE70899D1F89C0040F02000C1F8DE
:1091C0009C0001208DF827004EE108980068D0F837
:1091D000A400400658B9FFE70899D1F89C0040F474
:1091E0008070C1F89C0001208DF827003CE10898B0
:1091F0000068D0F8A40000F080710120B0EB116F7E
:109200000DD1FFE708980068D0F8A0100120B0EB5E
:10921000D17F03D1FFE701200190FFE7FFE7089826
:109220000068D0F8A40000F47C51019800EB1120F4
:1092300001900898426C406F0199514300EB810006
:109240000490FFE770E00798412851D1FFE70898A4
:109250000068D0F8B00010F4FE0F0BD1FFE70899BA
:10926000D1F89C0040F02000C1F89C0001208DF84E
:109270002700F9E008980068D0F8B400400658B913
:10928000FFE70899D1F89C0040F48070C1F89C0079
:1092900001208DF82700E7E008980068D0F8B400B6
:1092A00000F080710120B0EB116F0DD1FFE708983D
:1092B0000068D0F8B0100120B0EBD17F03D1FFE7F8
:1092C00001200190FFE7FFE708980068D0F8B4009C
:1092D00000F47C51019800EB112001900898C26CB9
:1092E000806F0199514300EB81000490FFE71AE081
:1092F00007980899096D88420BD3FFE70899D1F8C0
:109300009C0040F02000C1F89C0001208DF827004F
:10931000AAE00898426DC06F0799514300EB8100A5
:109320000490FFE7FFE7FFE70498006800F0804043
:10933000069948600698406838B9FFE704980068C5
:10934000C0F38A400699086006E00498006820F09F
:10935000604006990860FFE70498006800F000503C
:10936000069988600498006800F00040069908613A
:10937000049804300490049800880699C861049801
:109380000068C0F303400699C8600498006800F4C0
:109390008010069948610498006800F4001006994E
:1093A000886104980068C0F3066006990862049812
:1093B0000068C00F0699486204980430049004982D
:1093C000039000200290FFE702980699CA6841F6D0
:1093D0004041C0F60201895C88420AD2FFE7039847
:1093E000029A805C05998854FFE702980130029048
:1093F000EAE70798402806D1FFE70198089909682D
:10940000C1F8A80021E00798412806D1FFE701989C
:1094100008990968C1F8B80016E007981F2808D80D
:10942000FFE707990120884008990968C1F898006A
:1094300009E0079800F01F01012088400899096899
:10944000C1F89C00FFE7FFE7FFE700208DF8270049
:109450000AE00899D1F89C0040F00800C1F89C008F
:1094600001208DF82700FFE79DF827000AB070471C
:1094700081B0009001B0704780B594B013904AF667
:109480001000C4F200000068800712904AF6140031
:10949000C4F200000168129800EA817012901398DB
:1094A0000068006D00F47040119013980068416DE1
:1094B00011980840119013980068006D00F00F009B
:1094C000109013980068416D109808401090139800
:1094D0000068006D00F0F0000F9013980068416D77
:1094E0000F9808400F9013980068006D00F07150BD
:1094F0000E9013980068416D0E9808400E901398D6
:109500000068006D00F060700D9013980068416D68
:109510000D9808400D9013980068406D03901398C3
:109520000068006D01909DF80D00C007B8B1FFE71D
:109530009DF80500C00788B1FFE7FFE713980168B1
:109540004FF4807008654AF61001C4F20001002053
:109550000860FFE71398FFF78BFFFFE7FFE79DF831
:109560000D0000F004010020B0EB910F28D0FFE7C0
:109570009DF8050000F004010020B0EB910F1ED013
:10958000FFE713980068D0F8DC000B901398006890
:10959000D0F8E4100B9808400B90FFE7139801688F
:1095A0004FF4806008654AF61001C4F20001002003
:1095B0000860FFE713980B9900F0E6FDFFE7FFE76F
:1095C0001298B8B1FFE7FFE712984FF6FF71C3F6A4
:1095D000CF7108401399096808651298800F4AF600
:1095E0001001C4F200010860FFE713981299FFF719
:1095F00023FDFFE71198B8B1FFE7FFE711984FF699
:10960000FF71C3F6CF710840139909680865119876
:10961000800F4AF61001C4F200010860FFE71398BA
:10962000119900F0C1FDFFE71098B8B1FFE7FFE71F
:1096300010984FF6FF71C3F6CF710840139909686F
:1096400008651098800F4AF61001C4F20001086006
:10965000FFE71398109900F063FCFFE70F98B8B18B
:10966000FFE7FFE70F984FF6FF71C3F6CF71084091
:109670001399096808650F98800F4AF61001C4F223
:1096800000010860FFE713980F9900F025FDFFE740
:109690009DF80D0000F008010020B0EBD10F1BD0A9
:1096A000FFE79DF8050000F008010020B0EBD10FA6
:1096B00011D0FFE7FFE7139801684FF400600865D9
:1096C0004AF61001C4F2000100200860FFE7139879
:1096D00000F072FDFFE7FFE79DF80D0000F00201CA
:1096E0000020B0EB510F28D0FFE79DF8050000F0F7
:1096F00002010020B0EB510F1ED0FFE71398006865
:10970000D0F8D8000C9013980068D0F8E0100C98AE
:1097100008400C90FFE7139801684FF4007008654B
:109720004AF61001C4F2000100200860FFE7139818
:109730000C9900F031FDFFE7FFE79DF80E0000F007
:1097400008010020B0EBD10F1BD0FFE79DF8060009
:1097500000F008010020B0EBD10F11D0FFE7FFE7C8
:10976000139801684FF4002008654AF61001C4F20E
:10977000000100200860FFE7139800F0CDFBFFE731
:10978000FFE79DF80E00C007B8B1FFE79DF806009F
:10979000C00788B1FFE7FFE7139801684FF48030F6
:1097A00008654AF61001C4F2000100200860FFE7D6
:1097B000139800F0E5FCFFE7FFE79DF80E0000F0CE
:1097C00004010020B0EB910F1BD0FFE79DF80600CD
:1097D00000F004010020B0EB910F11D0FFE7FFE78C
:1097E000139801684FF4802008654AF61001C4F20E
:1097F000000100200860FFE7139800F0BDFCFFE7C0
:10980000FFE79DF80E0000F002010020B0EB510FC1
:109810001FD0FFE79DF8060000F002010020B0EB2A
:10982000510F15D0FFE7FFE7139801684FF40030A0
:1098300008654AF61001C4F2000100200860FFE745
:109840001399D1F89C0040F08000C1F89C00FFE71C
:10985000FFE70D98B8B1FFE7FFE70D984FF6FF71EE
:10986000C3F6CF7108401399096808650D98800FF9
:109870004AF61001C4F200010860FFE713980D9941
:10988000FFF772FCFFE70E98D0B1FFE7FFE70E98F5
:109890004FF6FF71C3F6CF71084013990968086548
:1098A0000E98800F4AF61001C4F200010860FFE72D
:1098B0000E9A1399D1F89C001043C1F89C00FFE761
:1098C000139800684AF20001C4F20001884240F097
:1098D000B980FFE71398406880688007002800F08F
:1098E000B080FFE713984068006A00F00F000A900C
:1098F00013984068416A0A9808400A901398406893
:10990000006A00F03000099013984068416A099895
:109910000840099013984068006A00F4C0700890ED
:1099200013984068416A0898084008901398406866
:10993000006A00F4FC40079013984068416A079859
:109940000840079013984068006A00F4F0200690E1
:1099500013984068416A069808400690139840683A
:10996000406A029013984068006A00900A9848B1D3
:10997000FFE70A9813994968086213980A9900F05A
:10998000E3FBFFE7099848B1FFE709981399496895
:1099900008621398099900F0E7FBFFE79DF80800BB
:1099A00000F040010020B0EB911F1FD0FFE79DF8B1
:1099B000000000F040010020B0EB911F15D0FFE740
:1099C00013984068C06B000C059013984068C06BFA
:1099D00000F03F00049013984168402008621398FB
:1099E0000599049A00F0B8FBFFE7FFE7089848B133
:1099F000FFE708981399496808621398089900F0DE
:109A00009BFBFFE7079860B1FFE707981399496848
:109A10000862079A1399D1F89C001043C1F89C0082
:109A2000FFE7069860B1FFE7069813994968086256
:109A3000069A1399D1F89C001043C1F89C00FFE7E7
:109A4000FFE7FFE71398D0F89C0020B1FFE71398D9
:109A5000FFF786FBFFE714B080BD000000000000A8
:109A600080B598B0169041F6E431C0F6020101A825
:109A70004C22F6F778FC169820B9FFE701208DF804
:109A80005F00D9E1169800684AF20001C4F20001B3
:109A9000884206D1FFE71699086800F58070486093
:109AA000FFE716988068B0F5407F01D1FFE7FFE738
:109AB0001698006C08B1FFE7FFE71698806C08B1B4
:109AC000FFE7FFE71698006D08B1FFE7FFE716987C
:109AD000006E08B1FFE7FFE71699C86D096E0844EC
:109AE00008B1FFE7FFE7169890F8980040B9FFE744
:109AF0001699002081F89900169800F0A1F9FFE767
:109B000016980168886920F01000886100F07CFDDB
:109B10001590FFE71698006880690007002817D5A0
:109B2000FFE700F071FD1599401A0B280FD3FFE7EE
:109B30001699D1F89C0040F00100C1F89C001699DC
:109B4000032081F8980001208DF85F0074E1E1E7BF
:109B500016980168886940F00100886100F054FDA2
:109B60001590FFE7169800688069C007B8B9FFE74D
:109B700000F04AFD1599401A0B280FD3FFE71699FC
:109B8000D1F89C0040F00100C1F89C001699032018
:109B900081F8980001208DF85F004DE1E2E716980A
:109BA0000168886940F0020088611698007C0128ED
:109BB00007D1FFE716980168886920F040008861A6
:109BC00006E016980168886940F040008861FFE768
:109BD0001698407C012807D1FFE71698016888692C
:109BE00040F48040886106E016980168886920F496
:109BF00080408861FFE71698807C012807D1FFE745
:109C000016980168886920F48050886106E01698EB
:109C10000168886940F480508861FFE71698006801
:109C2000806920F44070169A116892681043886128
:109C300016980168886920F0A40088611698016868
:109C4000086920F0100008611698C068012807D143
:109C5000FFE716980168886940F0040088612BE0EE
:109C60001698C06830B3FFE71698C068022819D06C
:109C7000FFE716980168886940F0800088611698AF
:109C80000168086940F0100008611698C068032850
:109C900007D1FFE716980168886940F020008861C5
:109CA000FFE706E016980168886940F020008861A7
:109CB000FFE700E0FFE7FFE7169A11685369906934
:109CC000D2F81CE0A0F1010C6FF0FF0000EB0E20B9
:109CD00040EA4C60126A013A10430022CFF6FF724C
:109CE00002EB03421043C86116988068B0F5407FCC
:109CF0001CD1FFE7169A1168536A906AD2F82CE0DB
:109D000001386FF0FF0C0CEB0E2C40EA0C00D2F87F
:109D100030C06FF00F0202EB0C1210430022CFF69E
:109D2000FF7202EB03421043C860FFE71698006E13
:109D300048B1FFE716980168426ED1F8C0001043A1
:109D4000C1F8C000FFE71699C86D096E084480B1DC
:109D5000FFE716980068D0F8C80020F00700169AB0
:109D60001168936E01AA52F823201043C1F8C8006D
:109D7000FFE71698006C80B1FFE716980068D0F8EE
:109D8000BC0020F00700169A1168536C01AA52F823
:109D900023201043C1F8BC00FFE71698806C88B1FF
:109DA000FFE716980068D0F8BC0020F07000169A03
:109DB0001168D36C01AA52F8232040EA0210C1F8BE
:109DC000BC00FFE71698006D88B1FFE716980068A1
:109DD000D0F8BC0020F4E060169A1168536D01AA17
:109DE00052F8232040EA0220C1F8BC00FFE7169891
:109DF00000684AF20001C4F20001884207D1FFE77F
:109E000016984168886820F003008860FFE716997B
:109E10000020C1F894001699C1F89C001699012001
:109E200081F898001698F9F773FE8DF853009DF8A5
:109E300053008DF85F00FFE79DF85F0018B080BD0C
:109E400080B5BAB039900020389037903690359070
:109E5000349006A8B821F6F79FFA399800684AF2BC
:109E60000001C4F20001884253D1FFE700200790AF
:109E70004FF4004006904FF08050219006A803F068
:109E80006FF818B1FFE7F9F7CBFDFFE7FFE744F202
:109E9000EC40C5F60200016841F480710160006881
:109EA00000F4807005900598FFE7FFE744F2E0407A
:109EB000C5F60200016841F008010160006800F089
:109EC000080004900498FFE70320349002203590A6
:109ED00000200290369037900920389040F60040DC
:109EE000C5F6020034A900F08FF9029A1320009001
:109EF0000521019100F078FC009800F069FC0199BF
:109F0000029A1520039000F06FFC039800F060FCAB
:109F1000FFE73AB080BD000081B0009001B070470B
:109F200080B584B00390029140F6B820C2F20040A0
:109F30000068019040F2212188425BD0FFE7019840
:109F400040F22221884264D0FFE7019840F22321A9
:109F500088427DD0FFE70198B0F5097F68D0FFE720
:109F6000019840F28121884211D0FFE7019840F228
:109F70008221884217D0FFE7019840F2832188426E
:109F80002BD0FFE70198B0F5217F19D070E040F2A7
:109F90001C10C2F2004040F23C31C2F200410822E3
:109FA0000AF0FEFA65E040F21C10C2F200403430C4
:109FB00040F23C31C2F2004108220AF0F1FA58E0C6
:109FC00040F21C10C2F20040683040F23C31C2F254
:109FD000004108220AF0E4FA4BE040F21C10C2F201
:109FE00000409C3040F23C31C2F2004108220AF0AD
:109FF000D7FA3EE040F23C30C2F2004012F024FEBC
:10A0000040F21C11C2F20041C862012081F8300008
:10A010002FE040F23C30C2F2004012F015FE40F258
:10A020001C11C2F200410866012081F8640020E0A2
:10A0300040F23C30C2F2004012F006FE40F21C1129
:10A04000C2F20041C1F89400012081F8980010E0AC
:10A0500040F23C30C2F2004012F0F6FD40F21C111A
:10A06000C2F20041C1F8C800012081F8CC0000E034
:10A07000FFE743F26A71C2F20041087801300870CC
:10A08000C0B2C9280FDBFFE743F26A71C2F2004198
:10A090000020087040F60000C5F602004FF4804131
:10A0A00000F086FAFFE79DF80800C00790B1FFE7CF
:10A0B000039840F6B822C2F2004240F23C33C2F2AA
:10A0C00000434021FFF758F818B1FFE7F9F7A8FC63
:10A0D000FFE7FFE704B080BD82B00190009102B0BD
:10A0E000704700000000000082B00090009890F8D7
:10A0F0009800012811D1FFE70099022081F898000B
:10A1000000980168886920F00100886100990020AA
:10A11000C1F89C008DF807000AE00099D1F89C0076
:10A1200040F00400C1F89C0001208DF80700FFE713
:10A130009DF8070002B0704782B00190009102B014
:10A14000704700000000000082B00190009102B052
:10A15000704700000000000083B00290019100925F
:10A1600003B070470000000082B00190009102B07F
:10A17000704700000000000081B0009001B07047FF
:10A1800081B0009001B0704782B00190009102B0A0
:10A19000704700000000000082B00190009102B002
:10A1A000704700000000000082B00190009102B0F2
:10A1B000704700000000000081B0009001B07047BF
:10A1C00081B0ADF8020001B070470000000000004F
:10A1D00080B582B0ADF806008820C5F600000068A2
:10A1E000BDF8061008420BD0FFE7BDF80600882135
:10A1F000C5F600010860BDF80600FFF7E1FFFFE7C4
:10A2000002B080BD000000008FB00E900D910020C4
:10A210000C908020C5F600000990FFE70D980068BB
:10A220000C99C840002800F0C181FFE70D98006834
:10A230000C9A0121914008400B900B98002800F0E7
:10A24000B181FFE70D98406800F00300012807D0B6
:10A25000FFE70D98406800F0030002282FD1FFE7C8
:10A260000E9880680A900C984100032000FA01F1D2
:10A270000A9888430A900D98C0680C99490000FA22
:10A2800001F10A9808430A900A980E9988600E987E
:10A2900040680A900C99012000FA01F10A9888435D
:10A2A0000A900D984068C0F300100C9900FA01F173
:10A2B0000A9808430A900A980E994860FFE70D989B
:10A2C000406800F00300032818D0FFE70E98C0682C
:10A2D0000A900C984100032000FA01F10A98884383
:10A2E0000A900D9880680C99490000FA01F10A98CB
:10A2F00008430A900A980E99C860FFE70D984068D5
:10A3000000F00300022826D1FFE70E980C996FF0A9
:10A31000030202EA51010844006A0A900C9800F016
:10A32000070081000F2000FA01F10A9888430A9083
:10A330000D9800690C9901F00701890000FA01F1FC
:10A340000A9808430A900A980E990C9B02EA530255
:10A3500011440862FFE70E9800680A900C984100CB
:10A36000032000FA01F10A9888430A900D9840688A
:10A3700000F003000C99490000FA01F10A98084323
:10A380000A900A980E9908600D9880798007002835
:10A3900000F00781FFE7FFE744F2F440C5F6020052
:10A3A000016841F002010160006800F002000890BD
:10A3B0000898FFE70C9820F0030040F20841C5F62A
:10A3C000000140580A900C9800F0030081000F2013
:10A3D00000FA01F10A9888430A900E980021C5F608
:10A3E0000201884203D1FFE7002007906CE00E983D
:10A3F00040F20041C5F60201884203D1FFE7012087
:10A4000006905EE00E9840F60001C5F60201884213
:10A4100003D1FFE70220059050E00E9840F600417E
:10A42000C5F60201884203D1FFE70320049042E011
:10A430000E9841F20001C5F60201884203D1FFE700
:10A440000420039034E00E9841F20041C5F6020169
:10A45000884203D1FFE70520029026E00E9841F6DE
:10A460000001C5F60201884203D1FFE706200190F2
:10A4700018E00E9841F60041C5F60201884203D16A
:10A48000FFE7072000900AE00E9942F20042C5F66D
:10A4900002020A20914208BF09200090FFE70098BD
:10A4A0000190FFE701980290FFE702980390FFE711
:10A4B00003980490FFE704980590FFE7059806903D
:10A4C000FFE706980790FFE707980C9901F0030152
:10A4D000890000FA01F10A9808430A900A980C9939
:10A4E00021F0030140F20842C5F6000288504FF007
:10A4F000B04000680A900B990A9888430A900D981A
:10A500008079C006002805D5FFE70B990A98084313
:10A510000A90FFE70A984FF0B04108600420C5F6A2
:10A52000000000680A900B990A9888430A900D98D9
:10A5300080798006002805D5FFE70B990A98084323
:10A540000A90FFE70A980421C5F6000108600998FF
:10A5500040680A900B990A9888430A900D98807970
:10A560008007002805D5FFE70B990A9808430A9051
:10A57000FFE70A9809994860099800680A900B99C2
:10A580000A9888430A900D988079C00728B1FFE7A0
:10A590000B990A9808430A90FFE70A9809990860FE
:10A5A000FFE7FFE70C9801300C9037E60FB07047DB
:10A5B00083B00290ADF80610029840690090009AAE
:10A5C000BDF8060002EA0001904340EA014002990A
:10A5D000886103B07047000082B00190ADF80210AE
:10A5E0008DF801209DF8010028B1FFE7BDF80200B9
:10A5F0000199886105E0BDF80200000401998861B5
:10A60000FFE702B07047000047F2DC70C2F2004082
:10A61000006870470000000040F26420C2F2004071
:10A62000027847F2DC71C2F2004108681044086009
:10A63000704700000000000080B582B0032000F0E9
:10A64000EBF803F069FF44F21842C5F60202116804
:10A65000C1F3032341F63041C0F60201CB5C03F0A5
:10A660001F03D84000900098126802F00F02895C26
:10A6700001F01F01C84040F24801C2F200410860E9
:10A68000009840F24401C2F2004108600F2000F03F
:10A6900013F820B1FFE701208DF8070005E000F076
:10A6A0007BF800208DF80700FFE79DF8070002B057
:10A6B00080BD00000000000080B590B00E900E98A4
:10A6C0000F2810D8FFE70E9936200090002200F0E6
:10A6D0008BF8009800F07CF80E9840F26821C2F2E6
:10A6E0000041086003E001208DF83F004EE0FFE7E5
:10A6F00044F2E840C5F60200016841F01001016033
:10A70000006800F0100001900198FFE706A802A978
:10A7100003F06AFE0B980490049820B9FFE703F059
:10A72000D3FE059004E003F0CFFE40000590FFE764
:10A7300005984DF68361C4F21B31A0FB01014FF077
:10A74000FF3000EB9140039042F64440C2F20040DB
:10A7500041F20001C4F20001016040F2E731C16042
:10A760000399416000210161816005F005FC48B951
:10A77000FFE742F64440C2F2004005F011FD8DF8BB
:10A780003F0003E001208DF83F00FFE79DF83F0008
:10A7900010B080BD0000000080B582B0FFE744F239
:10A7A000F440C5F60200016841F002010160006852
:10A7B00000F0020001900198FFE76FF001000F2107
:10A7C000002200F011F802B080BD0000000000007F
:10A7D00080B582B0ADF80600BDF9060011F050FC5E
:10A7E00002B080BD0000000080B586B0ADF8160054
:10A7F0000491039211F05CFC0290BDF916000190E7
:10A8000002980499039A09F00BFF0146019811F090
:10A8100057FC06B080BD000080B582B00190019861
:10A8200011F096FC02B080BD82B0019001980068E2
:10A83000009001990120C1F8D8040199002081F805
:10A84000CC04009A916941F000619161009A516DC8
:10A850000323C1F200031943516502B070470000A1
:10A8600082B001908DF8031002B070470000000024
:10A8700082B00190ADF80210BDF80200019909689C
:10A880004862002002B0704784B003908DF80B102E
:10A89000ADF8082003980068406A00909DF80B000E
:10A8A00048B9FFE7BDF80810009840EA0140039955
:10A8B0000968886233E003980068816A009800EBB9
:10A8C0001140009000208DF80700FFE79DF8070079
:10A8D0009DF80B100139884213D2FFE703980068F6
:10A8E0009DF8071000EB8100D0F80411009800EBF0
:10A8F00011400090FFE79DF8070001308DF8070038
:10A90000E4E7BDF80810009840EA0140039909689F
:10A910009DF80B2001EB8201C1F80001FFE7002048
:10A9200004B070470000000080B582B0019001982B
:10A93000D0F8E0040EF0E8FE02B080BD0000000098
:10A9400080B582B001908DF80310019AD2F8E0042E
:10A950009DF8031001EBC10302EB8302126A0EF0B3
:10A960002FFD02B080BD000080B582B001908DF84F
:10A970000310019AD2F8E0049DF8031001EBC10323
:10A9800002EB8302D2F860220EF0E2FD02B080BD3D
:10A9900080B582B001900198D0F8E0040EF0BCFEC2
:10A9A00002B080BD0000000080B584B003908DF837
:10A9B0000B109DF80B00000600280CD5FFE703984C
:10A9C0009DF80B1001F00F0101EBC10100EB8100BC
:10A9D000143001900CE003989DF80B1001F00F016A
:10A9E00001EBC10100EB810000F515700190FFE75C
:10A9F00003980068019910F03BFC8DF80A009DF85F
:10AA00000A0004B080BD000080B584B002908DF8CB
:10AA100007109DF80700000600280FD5FFE70298F1
:10AA20009DF8071001F00F0101EBC10100EB81005F
:10AA3000143000900099012048700FE002989DF8B2
:10AA4000071001F00F0101EBC10100EB810000F5DF
:10AA500015700090009900204870FFE79DF80700EE
:10AA600000F00F0000990870FFE7029890F8940436
:10AA7000012804D1FFE702208DF80F0014E00299AD
:10AA8000012081F89404FFE7FFE70298006800992D
:10AA90000FF0E6FEFFE70299002081F89404FFE73B
:10AAA00000208DF80F00FFE79DF80F0004B080BD77
:10AAB00080B584B002908DF807109DF8070000F073
:10AAC0000F0002990979884204D9FFE701208DF827
:10AAD0000F004DE09DF80700000600280FD5FFE7A6
:10AAE00002989DF8071001F00F0101EBC10100EB86
:10AAF0008100143000900099012048700FE0029806
:10AB00009DF8071001F00F0101EBC10100EB81007E
:10AB100000F515700090009900204870FFE700993B
:10AB2000002088709DF8070000F00F000099087061
:10AB3000FFE7029890F89404012804D1FFE702206F
:10AB40008DF80F0014E00299012081F89404FFE7CA
:10AB5000FFE702980068009910F0F2F8FFE7029909
:10AB6000002081F89404FFE700208DF80F00FFE734
:10AB70009DF80F0004B080BD82B001908DF80310E5
:10AB800001989DF8031001F00F0101EBC10100EBEA
:10AB90008100D0F8680202B0704700000000000099
:10ABA00080B586B004908DF80F10ADF80C208DF8AC
:10ABB0000B3000208DF80A009DF80F0000060028D9
:10ABC0000FD5FFE704989DF80F1001F00F0101EB7E
:10ABD000C10100EB810014300190019901204870FF
:10ABE0000FE004989DF80F1001F00F0101EBC10177
:10ABF00000EB810000F5157001900199002048706C
:10AC0000FFE79DF80F0000F00F0001990870BDF8F4
:10AC10000C00019988609DF80B000199087101985A
:10AC2000407820B1FFE7019908784883FFE79DF855
:10AC30000B00022804D1FFE7019900204871FFE7CB
:10AC4000FFE7049890F89404012804D1FFE702205C
:10AC50008DF8170015E00499012081F89404FFE7AE
:10AC6000FFE70498006801990FF0BEFCFFE7049924
:10AC7000002081F89404FFE79DF80A008DF8170082
:10AC8000FFE79DF8170006B080BD0000000000003F
:10AC900080B586B005908DF8131003920293059845
:10ACA0009DF8131001F00F0101EBC10100EB8100D1
:10ACB00000F51570019003980199C86002980199F8
:10ACC0000861019900204861019948709DF81300BE
:10ACD00000F00F000199087005988079012804D1CF
:10ACE000FFE703980199C861FFE7059A1068019989
:10ACF000927910F0C9F8002006B080BD0000000075
:10AD000080B584B002908DF807109DF8070000F020
:10AD10000F0002990979884204D9FFE701208DF8D4
:10AD20000F0058E09DF80700000600280FD5FFE748
:10AD300002989DF8071001F00F0101EBC10100EB33
:10AD40008100143000900099012048700DE00298B5
:10AD50009DF8071001EBC10100EB810000F51570B3
:10AD60000090009900204870FFE70099012088704A
:10AD70009DF8070000F00F0000990870FFE70298A7
:10AD800090F89404012804D1FFE702208DF80F0009
:10AD900021E00299012081F89404FFE7FFE702987F
:10ADA0000068009910F01CF89DF80700000740B9F2
:10ADB000FFE7029A1068917902F29C420FF070FF4F
:10ADC000FFE7FFE70299002081F89404FFE70020E5
:10ADD0008DF80F00FFE79DF80F0004B080BD000064
:10ADE00080B586B005908DF81310039202930598F4
:10ADF0009DF8131001F00F0101EBC10100EB810080
:10AE00001430019003980199C86002980199086173
:10AE10000199002048610199012048709DF81300B4
:10AE200000F00F000199087005988079012804D17D
:10AE3000FFE703980199C861FFE7059A1068019937
:10AE4000927910F021F8002006B080BD00000000CB
:10AE500080B58CB00B900B9800680A900A98099006
:10AE60000B98006810F044FB002840F03384FFE7A3
:10AE70000B98006810F0ACFB10B9FFE700F02ABC9B
:10AE80000998D0F80808C0F30D200B99C1F8D40434
:10AE90000B98006810F09CFB8007002807D5FFE79F
:10AEA0000B980168486900F002004861FFE70B98C1
:10AEB000006810F08DFBC006002862D5FFE70B98F4
:10AEC0000168886920F0100088610A98006A029081
:10AED0000B98029901F00F0101EBC10100EB810019
:10AEE00000F515700890029800F4F0110220B0EB04
:10AEF000514F23D1FFE7BDF8080047F6F071084233
:10AF00001BD0FFE70A980899C968029AC2F30A128F
:10AF100010F06EFB029847F6F07100EA0103089A00
:10AF2000D06800EB1310D060029800EA0102089983
:10AF3000486900EB12104861FFE71BE0029800F43B
:10AF4000F0110620B0EB514F12D1FFE70A980B9990
:10AF500001F29C41082210F04BFB029847F6F07179
:10AF600000EA01020899486900EB1210486100E00C
:10AF7000FFE7FFE70B980168886940F010008861DF
:10AF8000FFE70B98006810F023FB0003002840F156
:10AF9000A680FFE7002004900B98006810F0C4FA28
:10AFA0000690FFE70698002800F09880FFE79DF8DC
:10AFB0001800C007002800F08A80FFE70B9800689F
:10AFC0009DF8101010F0ECFA05909DF81400C007E1
:10AFD00060B1FFE70998049900EB41110120C1F825
:10AFE000080B0B98049909F033FCFFE79DF8140057
:10AFF000000700280CD5FFE70998049900EB4111E0
:10B000000820C1F8080B0B98049909F0D9FBFFE759
:10B010009DF81400C006002808D5FFE70998049998
:10B0200000EB41111020C1F8080BFFE79DF8140058
:10B03000800700282DD5FFE70A9840690006002800
:10B0400008D5FFE70999D1F8040840F48060C1F8F9
:10B050000408FFE70B98049901EBC10100EB8100A4
:10B0600000F5157008900898C078012809D1FFE70D
:10B0700008990020C8700B989DF8101000F03CFB58
:10B08000FFE70998049900EB41110220C1F8080B71
:10B09000FFE79DF814008006002808D5FFE709980F
:10B0A000049900EB41112020C1F8080BFFE79DF83F
:10B0B00015008006002809D5FFE70998049900EBE0
:10B0C00041114FF40050C1F8080BFFE7FFE7049867
:10B0D0000130049006984008069063E7FFE70B985C
:10B0E000006810F075FA4003002840F1C680FFE7C1
:10B0F0000B98006810F004FA069000200490FFE717
:10B100000698002800F0B880FFE79DF81800C007F7
:10B11000002800F0AA80FFE70B9800689DF8101047
:10B1200010F016FA05909DF81400C00700283ED0D4
:10B13000FFE7049800F00F01012000FA01F10391EC
:10B14000039B099AD2F834189943C2F83418099924
:10B15000049A01EB4211C1F808090B988079012883
:10B160001FD1FFE70B98049901EBC10100EB8101AE
:10B17000CA69086A10440862049888B9FFE70B9806
:10B18000049901EBC10100EB8100406A40B9FFE77F
:10B190000B99086801F29C4201210FF081FDFFE745
:10B1A000FFE70B989DF81010FFF7CAFBFFE79DF82B
:10B1B00014000007002808D5FFE70998049900EB60
:10B1C00041110820C1F80809FFE79DF81400C006E6
:10B1D000002808D5FFE70998049900EB41111020D9
:10B1E000C1F80809FFE79DF814004006002808D5BB
:10B1F000FFE70998049900EB41114020C1F80809C4
:10B20000FFE79DF814008007002822D5FFE70A9881
:10B21000049910F005F90B98049901EBC10100EBBA
:10B220008100143008900898C078012809D1FFE700
:10B2300008990020C8700B989DF8101000F04CFA87
:10B24000FFE70998049900EB41110220C1F80809B1
:10B25000FFE79DF814000006002805D5FFE70B98CE
:10B26000049909F0D9FBFFE7FFE704980130049047
:10B2700006984008069043E7FFE70B98006810F037
:10B28000A7F9C00F00B3FFE70999D1F8040820F02F
:10B290000100C1F804080B9890F8CC04012808D1EB
:10B2A000FFE70B98002180F8CC140B98FFF7D8FA31
:10B2B00003E00B9800F0B8FBFFE70B9801684869C2
:10B2C00000F000404861FFE70B98006810F080F93B
:10B2D0000005002811D5FFE70998D0F80808C00735
:10B2E00020B1FFE70B9800F033FCFFE70B980168F3
:10B2F000486900F400604861FFE70B98006810F0AF
:10B3000067F90001002820D5FFE70B98016848691C
:10B3100000F0006048610B9890F8CC0480B9FFE71A
:10B320000B98012180F8CC140B980068406DC0F395
:10B3300083000B9AC2F8D0040B98FFF791FA03E050
:10B340000B9800F005FCFFE7FFE70B98006810F092
:10B350003FF9C004002840F18680FFE70999D1F841
:10B36000040820F00100C1F804080B9800681021BF
:10B3700010F056F800200790FFE707980B9909791D
:10B38000884231D2FFE70998079900EB41114FF647
:10B390007F30C1F808090999079A01EB4212D2F8E7
:10B3A000001921F40011C2F800190999079A01EB5C
:10B3B0004211C1F8080B0998079900EB4111D1F827
:10B3C000000B20F40010C1F8000B0998079900EB5E
:10B3D0004111D1F8000B40F00060C1F8000BFFE70D
:10B3E000079801300790C8E70999D1F81C0840F088
:10B3F0000110C1F81C080B98C07B78B1FFE70999D0
:10B40000D1F8840840F00B00C1F884080999D1F8FC
:10B41000440840F00B00C1F844080FE00999D1F846
:10B42000140842F22B021043C1F814080999D1F80C
:10B43000100840F00B00C1F81008FFE70999D1F897
:10B44000000820F4FE60C1F800080B9A106891799A
:10B4500002F29C420FF024FC0B980168486900F44A
:10B4600080504861FFE70B98006810F0B1F8800445
:10B4700000281FD5FFE70B9800680FF025F90B98FF
:10B48000006810F00DF80B99C8710B9800680190D6
:10B4900002F0EEFF014601980B9AD27910F0A4F960
:10B4A0000B9800F095FA0B980168486900F4005079
:10B4B0004861FFE70B98006810F08AF80007002841
:10B4C0000AD5FFE70B9800F0BBFA0B9801684869B2
:10B4D00000F008004861FFE70B98006810F078F86A
:10B4E0000006002825D5FFE70A99886920F080002A
:10B4F000886101200490FFE704980B99097988423C
:10B5000016D2FFE70B98049901EBC10100EB810013
:10B5100090F85702012806D1FFE70B989DF810100C
:10B52000FFF742FAFFE7FFE7049801300490E3E7F2
:10B53000FFE70B98006810F04BF8C00200283CD5DC
:10B54000FFE701200490FFE704980B9909798842EE
:10B550002CD2FFE70998049900EB4110D0F80009BC
:10B5600002900B98049901EBC10100EB8100007E71
:10B57000012816D1FFE79DF80B000006002810D522
:10B58000FFE70B98049901EBC10100EB8101012059
:10B59000C8750B989DF8101041F08001FFF704FA70
:10B5A000FFE7FFE7049801300490CDE70B980168AE
:10B5B000486900F480104861FFE70B98006810F0BC
:10B5C00007F88002002855D5FFE701200490FFE727
:10B5D00004980B990979884245D2FFE709980499A4
:10B5E00000EB4110D0F8000B02900B98049901EB8E
:10B5F000C10100EB810090F8580201282ED1FFE72D
:10B600009DF80B000006002828D5FFE7029800F4FB
:10B6100080300B99D1F8D41401F0010188421DD17A
:10B62000FFE70B98049901EBC10100EB81010120B8
:10B6300081F857020A99886940F0800088610A9869
:10B6400040690006002808D4FFE70999D1F80408EA
:10B6500040F40070C1F8040805E0FFE7FFE7049834
:10B6600001300490B4E70B980168486900F40010B9
:10B670004861FFE70B9800680FF0AAFF4000002820
:10B680000AD5FFE70B98FFF74FF90B980168486957
:10B6900000F080404861FFE70B9800680FF098FFCA
:10B6A0004007002815D5FFE70B9800684068029016
:10B6B0009DF808004007002804D5FFE70B98FFF726
:10B6C00067F9FFE7029A0B980168486810434860E1
:10B6D000FFE7FFE70CB080BD80B582B001908DF828
:10B6E00003100198D0F8E0049DF803100EF0B8F8AC
:10B6F00002B080BD0000000080B582B001908DF8DE
:10B7000003100198D0F8E0049DF803100EF0E0F863
:10B7100002B080BD0000000080B58CB00A900A988D
:10B7200020B9FFE701208DF82F000EE10A9890F86C
:10B73000950440B9FFE70A99002081F894040A981B
:10B7400000F00AF9FFE70A99032081F895040A98A6
:10B7500000680FF099FA0A9B1868197C8DF8201080
:10B7600059689A68DB680793069205910599069ACD
:10B77000079BDDF820C0EE46CEF800C00EF0BCFFFF
:10B7800040B1FFE70A99022081F8950401208DF865
:10B790002F00DAE00A98006800210FF085FF40B121
:10B7A000FFE70A99022081F8950401208DF82F0007
:10B7B000CBE000208DF82700FFE79DF827000A99CD
:10B7C0000979884241DAFFE70A989DF8271001EBD2
:10B7D000C10100EB8101012048759DF827000A99FD
:10B7E00000EBC00201EB820108759DF827000A9961
:10B7F00000EBC00201EB8201C8850A989DF8271072
:10B8000001EBC10100EB8101002008760A999DF847
:10B81000272002EBC20201EB8201C8610A999DF860
:10B82000272002EBC20201EB820108620A999DF80F
:10B83000272002EBC20201EB82014862FFE79DF87C
:10B84000270001308DF82700B7E700208DF827008A
:10B85000FFE79DF827000A99097988423EDAFFE759
:10B860000A989DF8271001EBC10100EB810100202F
:10B8700081F855029DF827100A9A01EBC10302EBEB
:10B88000830282F854120A999DF8272002EBC20223
:10B8900001EB820181F858020A999DF8272002EBFA
:10B8A000C20201EB8201C1F85C020A999DF82720CF
:10B8B00002EBC20201EB8201C1F860020A999DF815
:10B8C000272002EBC20201EB8201C1F86402FFE70C
:10B8D0009DF8270001308DF82700BAE70A9B186809
:10B8E000197C8DF8101059689A68DB6803930292EE
:10B8F00001910199029A039BDDF810C0EE46CEF843
:10B9000000C00FF079F840B1FFE70A99022081F8F2
:10B91000950401208DF82F0017E00A990020487443
:10B920000A99012081F895040A98007B012804D126
:10B93000FFE70A98FEF778FFFFE70A9800680FF024
:10B9400043F800208DF82F00FFE79DF82F000CB082
:10B9500080BD00000000000080B5B2B0319002A8A8
:10B96000B821F4F719FD319800680021C4F20401F0
:10B9700088422BD1FFE7002003904FF480200290F3
:10B980004FF44010239002A801F0EAFA18B1FFE743
:10B99000F8F746F8FFE700F04FF9FFE744F2D84028
:10B9A000C5F60200016841F000710160006800F016
:10B9B000007001900198FFE74D20009005210022C2
:10B9C000FEF712FF0098FEF703FFFFE732B080BDDD
:10B9D00080B582B0019001208DF803000198C079F4
:10B9E00020B9FFE700208DF803000CE00198C07932
:10B9F000022804D1FFE701208DF8030002E0F8F7E8
:10BA00000FF8FFE7FFE70198D0F8E0049DF8031076
:10BA10000EF066F80198D0F8E0040DF0DDFF02B0FA
:10BA200080BD00000000000080B582B00190019848
:10BA3000D0F8E0040EF020F802B080BD0000000055
:10BA400080B582B001900198D0F8E0040EF028F89B
:10BA500002B080BD0000000080B584B002908DF877
:10BA60000710FFE7029890F89404012804D1FFE73B
:10BA700002208DF80F0019E00299012081F894044A
:10BA8000FFE7FFE79DF807000299487402980068F5
:10BA90009DF807100FF078FEFFE70299002081F86B
:10BAA0009404FFE700208DF80F00FFE79DF80F00DA
:10BAB00004B080BD0000000080B582B00190019903
:10BAC000D1F8E00401F29C410EF036F802B080BDDE
:10BAD00080B584B00290029800680190FFE7029858
:10BAE00090F89404012804D1FFE702208DF80F009C
:10BAF00028E00299012081F89404FFE7FFE701980C
:10BB0000C068400600280BD5FFE70298407B01285B
:10BB100006D1FFE70199886B40F480308863FFE726
:10BB2000029800680FF034FC029800680EF034FFB1
:10BB3000FFE70299002081F89404FFE700208DF8C8
:10BB40000F00FFE79DF80F0004B080BD000000006B
:10BB500080B582B001900198D0F8E0040EF074F83E
:10BB600001980168D1F8000E40F00100C1F8000E04
:10BB70000198C07A48B1FFE74EF61051CEF20001AD
:10BB8000086840F006000860FFE702B080BD0000D2
:10BB900080B584B0029044F60C00C5F6020000683F
:10BBA00000F004010020B0EB910F13D1FFE744F641
:10BBB0000C00C5F60200006800F0070002998842F8
:10BBC00004D0FFE701208DF80F002EE000208DF853
:10BBD0000F002AE044F60C01C5F60201086820F0C7
:10BBE0000700029A10430860FEF70EFD0190FFE780
:10BBF00044F60400C5F60200006800F4005100207D
:10BC0000B0EB513F0DD1FFE7FEF7FEFC0199401A62
:10BC1000B0F57A7F04D9FFE701208DF80F0004E02A
:10BC2000E6E700208DF80F00FFE79DF80F0004B055
:10BC300080BD00000000000044F60C01C5F60201C2
:10BC4000086840F080700860704700000000000045
:10BC500080B502F00DFC44F22041C5F602010968EE
:10BC6000C1F3021241F63041C0F60201895C01F0D5
:10BC70001F01C84080BD000088B0079044F22840F2
:10BC8000C5F60200016801F0030106910068C0F3E7
:10BC90000510059044F22C40C5F60200006800F043
:10BCA00001000490049844F23441C5F60201096889
:10BCB00089B2C908484300EE100AB8EE400A8DED7B
:10BCC000020A0598002800F01B81FFE70698009003
:10BCD00048B1FFE70098012869D0FFE700980228E3
:10BCE00000F08980ABE044F20040C5F60200006835
:10BCF00000F020010020B0EB511F33D0FFE744F2E9
:10BD00000040C5F602000068C0F3C10149F200001E
:10BD1000C0F2D030C84003909DED030AB8EE400A4F
:10BD20009DED051AB8EE411A80EE010A44F230404A
:10BD3000C5F6020000686FF35F2001EE100AB8EE4E
:10BD4000411A9DED022A9FED743A82EE032A31EEEC
:10BD5000021AB7EE002A31EE021A20EE010A8DED2A
:10BD6000010A23E09DED050AB8EE401A9FED6C0A2A
:10BD700080EE010A44F23040C5F6020000686FF31D
:10BD80005F2001EE100AB8EE411A9DED022A9FEDE8
:10BD9000623A82EE032A31EE021AB7EE002A31EE41
:10BDA000021A20EE010A8DED010AFFE76BE09DED1E
:10BDB000050AB8EE401A9FED590A80EE010A44F2D6
:10BDC0003040C5F6020000686FF35F2001EE100AF4
:10BDD000B8EE411A9DED022A9FED4F3A82EE032AFA
:10BDE00031EE021AB7EE002A31EE021A20EE010AF5
:10BDF0008DED010A47E09DED050AB8EE401A9FED72
:10BE0000450A80EE010A44F23040C5F6020000689F
:10BE10006FF35F2001EE100AB8EE411A9DED022A81
:10BE20009FED3D3A82EE032A31EE021AB7EE002A68
:10BE300031EE021A20EE010A8DED010A23E09DED9C
:10BE4000050AB8EE401A9FED360A80EE010A44F268
:10BE50003040C5F6020000686FF35F2001EE100A63
:10BE6000B8EE411A9DED022A9FED2B3A82EE032A8D
:10BE700031EE021AB7EE002A31EE021A20EE010A64
:10BE80008DED010AFFE79DED010A44F23040C5F651
:10BE90000200016889B2490A01EE101AB8EE411A8F
:10BEA000B7EE002A31EE021A80EE010A0799BCEEC5
:10BEB000C00A81ED000A9DED010A0168C1F3064147
:10BEC00001EE101AB8EE411A31EE021A80EE010AA4
:10BED0000799BCEEC00A81ED010A9DED010A0068D8
:10BEE000C0F3066001EE100AB8EE411A31EE021AF4
:10BEF00080EE010A0798BCEEC00A80ED020A07E056
:10BF00000799002008600799486007998860FFE753
:10BF100008B070470024F44A000000460024744A28
:10BF20000024744C0000000088B0079044F22840C0
:10BF3000C5F60200016801F0030106910068C0F334
:10BF40000530059044F22C40C5F602000068C0F3AD
:10BF500000100490049844F23C41C5F602010968BF
:10BF600089B2C908484300EE100AB8EE400A8DEDC8
:10BF7000020A0598002800F01B81FFE70698009050
:10BF800048B1FFE70098012869D0FFE70098022830
:10BF900000F08980ABE044F20040C5F60200006882
:10BFA00000F020010020B0EB511F33D0FFE744F236
:10BFB0000040C5F602000068C0F3C10149F200006C
:10BFC000C0F2D030C84003909DED030AB8EE400A9D
:10BFD0009DED051AB8EE411A80EE010A44F2384090
:10BFE000C5F6020000686FF35F2001EE100AB8EE9C
:10BFF000411A9DED022A9FED743A82EE032A31EE3A
:10C00000021AB7EE002A31EE021A20EE010A8DED77
:10C01000010A23E09DED050AB8EE401A9FED6C0A77
:10C0200080EE010A44F23840C5F6020000686FF362
:10C030005F2001EE100AB8EE411A9DED022A9FED35
:10C04000623A82EE032A31EE021AB7EE002A31EE8E
:10C05000021A20EE010A8DED010AFFE76BE09DED6B
:10C06000050AB8EE401A9FED590A80EE010A44F223
:10C070003840C5F6020000686FF35F2001EE100A39
:10C08000B8EE411A9DED022A9FED4F3A82EE032A47
:10C0900031EE021AB7EE002A31EE021A20EE010A42
:10C0A0008DED010A47E09DED050AB8EE401A9FEDBF
:10C0B000450A80EE010A44F23840C5F602000068E5
:10C0C0006FF35F2001EE100AB8EE411A9DED022ACF
:10C0D0009FED3D3A82EE032A31EE021AB7EE002AB6
:10C0E00031EE021A20EE010A8DED010A23E09DEDEA
:10C0F000050AB8EE401A9FED350A80EE010A44F2B7
:10C100003840C5F6020000686FF35F2001EE100AA8
:10C11000B8EE411A9DED022A9FED2B3A82EE032ADA
:10C1200031EE021AB7EE002A31EE021A20EE010AB1
:10C130008DED010AFFE79DED010A44F23840C5F696
:10C140000200016889B2490A01EE101AB8EE411ADC
:10C15000B7EE002A31EE021A80EE010A0799BCEE12
:10C16000C00A81ED000A9DED010A0168C1F3064194
:10C1700001EE101AB8EE411A31EE021A80EE010AF1
:10C180000799BCEEC00A81ED010A9DED010A006825
:10C19000C0F3066001EE100AB8EE411A31EE021A41
:10C1A00080EE010A0798BCEEC00A80ED020A07E0A3
:10C1B0000799002008600799486007998860FFE7A1
:10C1C00008B070470024F44A000000460024744A76
:10C1D0000024744C0000000088B0079044F228400E
:10C1E000C5F60200016801F0030106910068C0F382
:10C1F0000550059044F22C40C5F602000068C0F3DB
:10C2000000200490049844F24441C5F602010968F4
:10C2100089B2C908484300EE100AB8EE400A8DED15
:10C22000020A0598002800F01B81FFE7069800909D
:10C2300048B1FFE70098012869D0FFE7009802287D
:10C2400000F08980ABE044F20040C5F602000068CF
:10C2500000F020010020B0EB511F33D0FFE744F283
:10C260000040C5F602000068C0F3C10149F20000B9
:10C27000C0F2D030C84003909DED030AB8EE400AEA
:10C280009DED051AB8EE411A80EE010A44F24040D5
:10C29000C5F6020000686FF35F2001EE100AB8EEE9
:10C2A000411A9DED022A9FED743A82EE032A31EE87
:10C2B000021AB7EE002A31EE021A20EE010A8DEDC5
:10C2C000010A23E09DED050AB8EE401A9FED6C0AC5
:10C2D00080EE010A44F24040C5F6020000686FF3A8
:10C2E0005F2001EE100AB8EE411A9DED022A9FED83
:10C2F000623A82EE032A31EE021AB7EE002A31EEDC
:10C30000021A20EE010A8DED010AFFE76BE09DEDB8
:10C31000050AB8EE401A9FED590A80EE010A44F270
:10C320004040C5F6020000686FF35F2001EE100A7E
:10C33000B8EE411A9DED022A9FED4F3A82EE032A94
:10C3400031EE021AB7EE002A31EE021A20EE010A8F
:10C350008DED010A47E09DED050AB8EE401A9FED0C
:10C36000450A80EE010A44F24040C5F6020000682A
:10C370006FF35F2001EE100AB8EE411A9DED022A1C
:10C380009FED3D3A82EE032A31EE021AB7EE002A03
:10C3900031EE021A20EE010A8DED010A23E09DED37
:10C3A000050AB8EE401A9FED350A80EE010A44F204
:10C3B0004040C5F6020000686FF35F2001EE100AEE
:10C3C000B8EE411A9DED022A9FED2B3A82EE032A28
:10C3D00031EE021AB7EE002A31EE021A20EE010AFF
:10C3E0008DED010AFFE79DED010A44F24040C5F6DC
:10C3F0000200016889B2490A01EE101AB8EE411A2A
:10C40000B7EE002A31EE021A80EE010A0799BCEE5F
:10C41000C00A81ED000A9DED010A0168C1F30641E1
:10C4200001EE101AB8EE411A31EE021A80EE010A3E
:10C430000799BCEEC00A81ED010A9DED010A006872
:10C44000C0F3066001EE100AB8EE411A31EE021A8E
:10C4500080EE010A0798BCEEC00A80ED020A07E0F0
:10C460000799002008600799486007998860FFE7EE
:10C4700008B070470024F44A000000460024744AC3
:10C480000024744C0000000080B598B017911690FD
:10C490001698179980F480700843002840F0A8800F
:10C4A000FFE744F25040C5F60200006800F00700C4
:10C4B0000B900B980890042800F295800899DFE80B
:10C4C00001F00316298C3C0044F20040C5F602003E
:10C4D00000688001002806D5FFE713A8FFF7CCFB12
:10C4E00014980C9002E000200C90FFE77EE044F2EC
:10C4F0000040C5F6020000680001002806D5FFE7ED
:10C5000010A8FFF711FD10980C9002E000200C908D
:10C51000FFE76BE044F20040C5F6020000688000CF
:10C52000002806D5FFE70DA8FFF756FE0D980C90E2
:10C5300002E000200C90FFE758E044F24C40C5F6C2
:10C540000200006800F040500A9044F20040C5F636
:10C55000020000684007002811D5FFE70A9870B96B
:10C56000FFE744F20040C5F602000068C0F3C101D5
:10C5700049F20000C0F2D030C8400C902CE044F2E8
:10C580000040C5F602000068C00500280BD5FFE793
:10C590000A98B0F1805F06D1FFE740F60010C0F2C4
:10C5A0003D000C9017E044F20040C5F60200006820
:10C5B000800300280BD5FFE70A98B0F1005F06D191
:10C5C000FFE741F20020C0F27A000C9002E0002068
:10C5D0000C90FFE7FFE7FFE708E048F20000C0F239
:10C5E000BB000C9002E000200C90FFE700F0B2BC12
:10C5F0001698179980F480600843002840F0B580B1
:10C60000FFE744F25840C5F60200006800F46000FD
:10C610000B900B980790A8B1FFE70798B0F5001FA3
:10C6200023D0FFE70798B0F5800F31D0FFE70798D8
:10C63000B0F5C00F00F08F80FFE70798B0F5000F4E
:10C6400039D08EE044F20040C5F602000068800157
:10C65000002806D5FFE713A8FFF70EFB14980C90EF
:10C6600002E000200C90FFE77EE044F20040C5F6B7
:10C67000020000680001002806D5FFE710A8FFF7B8
:10C6800053FC10980C9002E000200C90FFE76BE048
:10C6900044F20040C5F6020000688000002806D57C
:10C6A000FFE70DA8FFF798FD0D980C9002E0002021
:10C6B0000C90FFE758E044F24C40C5F602000068D9
:10C6C00000F040500A9044F20040C5F602000068B5
:10C6D0004007002811D5FFE70A9870B9FFE744F238
:10C6E0000040C5F602000068C0F3C10149F2000035
:10C6F000C0F2D030C8400C902CE044F20040C5F6A7
:10C7000002000068C00500280BD5FFE70A98B0F1C9
:10C71000805F06D1FFE740F60010C0F23D000C90AC
:10C7200017E044F20040C5F60200006880030028CC
:10C730000BD5FFE70A98B0F1005F06D1FFE741F2A1
:10C740000020C0F27A000C9002E000200C90FFE77D
:10C75000FFE7FFE708E048F20000C0F2BB000C90E2
:10C7600002E000200C90FFE7F3E31698179980F49D
:10C7700000600843002840F0B580FFE744F25840CD
:10C78000C5F60200006800F0E0600B900B98069080
:10C79000A8B1FFE70698B0F1807F23D0FFE70698A5
:10C7A000B0F1007F31D0FFE70698B0F1407F00F094
:10C7B0008F80FFE70698B0F1806F39D08EE044F2A9
:10C7C0000040C5F6020000688001002806D5FFE79A
:10C7D00013A8FFF751FA14980C9002E000200C9077
:10C7E000FFE77EE044F20040C5F602000068000169
:10C7F000002806D5FFE710A8FFF796FB10980C90CD
:10C8000002E000200C90FFE76BE044F20040C5F628
:10C81000020000688000002806D5FFE70DA8FFF79A
:10C82000DBFC0D980C9002E000200C90FFE758E034
:10C8300044F24C40C5F60200006800F040500A90F7
:10C8400044F20040C5F6020000684007002811D5F8
:10C85000FFE70A9870B9FFE744F20040C5F602000E
:10C860000068C0F3C10149F20000C0F2D030C840F6
:10C870000C902CE044F20040C5F602000068C005B0
:10C8800000280BD5FFE70A98B0F1805F06D1FFE7DB
:10C8900040F60010C0F23D000C9017E044F200405A
:10C8A000C5F602000068800300280BD5FFE70A9850
:10C8B000B0F1005F06D1FFE741F20020C0F27A003C
:10C8C0000C9002E000200C90FFE7FFE7FFE708E094
:10C8D00048F20000C0F2BB000C9002E000200C9077
:10C8E000FFE735E31698179980F480500843002835
:10C8F00040F0B580FFE744F25040C5F60200006802
:10C9000000F4E040099009980590A8B1FFE7059868
:10C91000B0F5805F23D0FFE70598B0F5005F31D018
:10C92000FFE70598B0F5405F00F08F80FFE70598BE
:10C93000B0F5804F39D08EE044F20040C5F60200D9
:10C9400000688001002806D5FFE713A8FFF794F9D7
:10C9500014980C9002E000200C90FFE77EE044F277
:10C960000040C5F6020000680001002806D5FFE778
:10C9700010A8FFF7D9FA10980C9002E000200C9054
:10C98000FFE76BE044F20040C5F60200006880005B
:10C99000002806D5FFE70DA8FFF71EFC0D980C90A8
:10C9A00002E000200C90FFE758E044F24C40C5F64E
:10C9B0000200006800F040500A9044F20040C5F6C2
:10C9C000020000684007002811D5FFE70A9870B9F7
:10C9D000FFE744F20040C5F602000068C0F3C10161
:10C9E00049F20000C0F2D030C8400C902CE044F274
:10C9F0000040C5F602000068C00500280BD5FFE71F
:10CA00000A98B0F1805F06D1FFE740F60010C0F24F
:10CA10003D000C9017E044F20040C5F602000068AB
:10CA2000800300280BD5FFE70A98B0F1005F06D11C
:10CA3000FFE741F20020C0F27A000C9002E00020F3
:10CA40000C90FFE7FFE7FFE708E048F20000C0F2C4
:10CA5000BB000C9002E000200C90FFE777E21698F4
:10CA6000179980F400500843002840F09580FFE7B4
:10CA700044F25040C5F60200006800F4E02009903E
:10CA800009980490C8B1FFE70498B0F5803F18D02A
:10CA9000FFE70498B0F5003F26D0FFE70498B0F513
:10CAA000403F34D0FFE70498B0F5802F4AD0FFE72D
:10CAB0000498B0F5A02F58D06AE001F005FD0C9065
:10CAC00069E044F20040C5F6020000680001002859
:10CAD00006D5FFE710A8FFF727FA11980C9002E09F
:10CAE00000200C90FFE756E044F20040C5F602003B
:10CAF00000688000002806D5FFE70DA8FFF76CFB53
:10CB00000E980C9002E000200C90FFE743E044F206
:10CB10000040C5F602000068400700280ED5FFE778
:10CB200044F20040C5F602000068C0F3C10149F2BA
:10CB30000000C0F2D030C8400C9002E000200C9001
:10CB4000FFE728E044F20040C5F602000068C00597
:10CB5000002806D5FFE740F60010C0F23D000C901B
:10CB600002E000200C90FFE715E044F20040C5F61B
:10CB7000020000688003002806D5FFE741F200208C
:10CB8000C0F27A000C9002E000200C90FFE702E077
:10CB900000200C90FFE7D9E11698179980F4002047
:10CBA0000843002840F09180FFE744F25840C5F662
:10CBB0000200006800F4403009900998039050B1D9
:10CBC000FFE70398B0F5803F18D0FFE70398B0F572
:10CBD000003F26D075E044F20040C5F60200006830
:10CBE0000001002806D5FFE710A8FFF79DF910986F
:10CBF0000C9002E000200C90FFE765E044F200405A
:10CC0000C5F6020000688000002806D5FFE70DA8E1
:10CC1000FFF7E2FA0F980C9002E000200C90FFE77B
:10CC200052E044F24C40C5F60200006800F040506B
:10CC30000A9044F20040C5F6020000684007002850
:10CC400011D5FFE70A9870B9FFE744F20040C5F636
:10CC500002000068C0F3C10149F20000C0F2D03008
:10CC6000C8400C902CE044F20040C5F60200006879
:10CC7000C00500280BD5FFE70A98B0F1805F06D108
:10CC8000FFE740F60010C0F23D000C9017E044F2C0
:10CC90000040C5F602000068800300280BD5FFE7BE
:10CCA0000A98B0F1005F06D1FFE741F20020C0F220
:10CCB0007A000C9002E000200C90FFE7FFE7FFE70E
:10CCC00002E000200C90FFE73FE11698179980F4EE
:10CCD00080300843D8BBFFE744F24C40C5F6020061
:10CCE000006800F4803009900998029028B1FFE7AD
:10CCF0000298B0F5803F13D025E044F20040C5F61D
:10CD0000020000688001002806D5FFE713A8FEF79F
:10CD1000B3FF14980C9002E000200C90FFE715E0A0
:10CD200044F20040C5F6020000680001002806D564
:10CD3000FFE710A8FFF7F8F812980C9002E0002027
:10CD40000C90FFE702E000200C90FFE7FCE0169853
:10CD5000179980F480400843002840F09580FFE751
:10CD600044F25840C5F60200006800F0E040099027
:10CD700009980190C8B1FFE70198B0F1805F18D021
:10CD8000FFE70198B0F1005F26D0FFE70198B0F10E
:10CD9000405F34D0FFE70198B0F1804F4AD0FFE701
:10CDA0000198B0F1A04F58D06AE0FEF751FF0C9007
:10CDB00069E044F20040C5F6020000680001002866
:10CDC00006D5FFE710A8FFF7AFF811980C9002E026
:10CDD00000200C90FFE756E044F20040C5F6020048
:10CDE00000688000002806D5FFE70DA8FFF7F4F9DA
:10CDF0000E980C9002E000200C90FFE743E044F214
:10CE00000040C5F602000068400700280ED5FFE785
:10CE100044F20040C5F602000068C0F3C10149F2C7
:10CE20000000C0F2D030C8400C9002E000200C900E
:10CE3000FFE728E044F20040C5F602000068C005A4
:10CE4000002806D5FFE740F60010C0F23D000C9028
:10CE500002E000200C90FFE715E044F20040C5F628
:10CE6000020000688003002806D5FFE741F2002099
:10CE7000C0F27A000C9002E000200C90FFE702E084
:10CE800000200C90FFE75EE01698179980F40040B0
:10CE90000843002853D1FFE744F25040C5F6020092
:10CEA000006800F0405009900998009050B1FFE7E9
:10CEB0000098B0F1805F18D0FFE70098B0F1005FF4
:10CEC00026D038E044F20040C5F602000068800336
:10CED000002806D5FFE741F20020C0F27A000C904E
:10CEE00002E000200C90FFE728E044F20040C5F685
:10CEF000020000688001002806D5FFE713A8FEF7AE
:10CF0000BBFE14980C9002E000200C90FFE715E0A7
:10CF100044F20040C5F6020000680001002806D572
:10CF2000FFE710A8FFF700F811980C9002E000202E
:10CF30000C90FFE702E000200C90FFE702E00020E9
:10CF40000C90FFE7FFE7FFE7FFE7FFE7FFE7FFE7FB
:10CF5000FFE7FFE70C9818B080BD0000000000005C
:10CF600080B59AB0189000208DF857008DF85600C3
:10CF70001898C0780007002848D5FFE71898406E39
:10CF8000149078B1FFE71498B0F5801F13D0FFE735
:10CF90001498B0F5001F16D0FFE71498B0F5401FA5
:10CFA00019D019E044F22C41C5F60201086840F49A
:10CFB0000030086014E018980830022107F03CFEA9
:10CFC0008DF857000CE018982830022107F01CFF5C
:10CFD0008DF8570004E003E001208DF85700FFE7CB
:10CFE0009DF8570060B9FFE744F25041C5F60201D1
:10CFF000086820F44010189A526E1043086004E04C
:10D000009DF857008DF85600FFE7FFE71898407825
:10D01000C007002840D0FFE71898806D13900428BF
:10D0200020D81399DFE801F0030C141C1D0044F212
:10D030002C41C5F60201086840F40030086015E094
:10D0400018980830002107F0F7FD8DF857000DE023
:10D0500018982830002107F0D7FE8DF8570005E01A
:10D0600004E003E001208DF85700FFE79DF857002A
:10D0700060B9FFE744F25041C5F60201086820F0AC
:10D080000700189A926D1043086004E09DF857005D
:10D090008DF85600FFE7FFE7189840784007002812
:10D0A00056D5FFE71898D0F8A4001290C8B1FFE752
:10D0B0001298B0F5001F1DD0FFE71298B0F5800F51
:10D0C00020D0FFE71298B0F5C00F23D0FFE71298E9
:10D0D000B0F5000F1FD0FFE71298B0F5200F1BD05E
:10D0E0001BE044F22C41C5F60201086840F4003010
:10D0F000086016E018980830002107F09DFD8DF8B3
:10D1000057000EE018982830002107F07DFE8DF8BA
:10D11000570006E005E004E003E001208DF8570029
:10D12000FFE79DF8570068B9FFE744F25841C5F69C
:10D130000201086820F46000189AD2F8A420104375
:10D14000086004E09DF857008DF85600FFE7FFE700
:10D15000189840780007002856D5FFE71898D0F8AF
:10D16000A8001190C8B1FFE71198B0F1807F1DD0E1
:10D17000FFE71198B0F1007F20D0FFE71198B0F1E0
:10D18000407F23D0FFE71198B0F1806F1FD0FFE7F9
:10D190001198B0F1A06F1BD01BE044F22C41C5F6F2
:10D1A0000201086840F40030086016E01898083062
:10D1B000002107F041FD8DF857000EE01898283047
:10D1C000002107F021FE8DF8570006E005E004E09D
:10D1D00003E001208DF85700FFE79DF8570068B97C
:10D1E000FFE744F25841C5F60201086820F0E0600C
:10D1F000189AD2F8A8201043086004E09DF8570060
:10D200008DF85600FFE7FFE71898C07880070028E0
:10D210003ED5FFE71898C06C1090F0B1FFE710986A
:10D22000102808D0FFE7109820280DD0FFE71098AD
:10D23000302811D012E044F22C41C5F602010868F2
:10D2400040F4003008600DE018980830022107F023
:10D25000F3FC8DF8570005E004E003E001208DF8B1
:10D260005700FFE79DF8570060B9FFE744F24C41D3
:10D27000C5F60201086820F03000189AD26C1043FD
:10D28000086004E09DF857008DF85600FFE7FFE7BF
:10D2900018984078C00600284ED5FFE71898C06D52
:10D2A0000F90A0B1FFE70F98B0F5805F18D0FFE7AF
:10D2B0000F98B0F5005F1BD0FFE70F98B0F5405F07
:10D2C0001ED0FFE70F98B0F5804F1AD01AE044F255
:10D2D0002C41C5F60201086840F40030086015E0F2
:10D2E00018980830002107F0A7FC8DF857000DE0D2
:10D2F00018982830002107F087FD8DF8570005E0C9
:10D3000004E003E001208DF85700FFE79DF8570087
:10D3100060B9FFE744F25041C5F60201086820F405
:10D32000E040189AD26D1043086004E09DF8570061
:10D330008DF85600FFE7FFE7189840788006002830
:10D340004CD5FFE71898006E0E90C8B1FFE70E9815
:10D35000B0F5803F15D0FFE70E98B0F5003F18D02C
:10D36000FFE70E98B0F5403F1BD0FFE70E98B0F5F1
:10D37000802F17D0FFE70E98B0F5A02F13D013E041
:10D3800016E018980830012107F056FC8DF8570078
:10D390000EE018982830012107F036FD8DF857006F
:10D3A00006E005E004E003E001208DF85700FFE708
:10D3B0009DF8570060B9FFE744F25041C5F60201FD
:10D3C000086820F4E020189A126E1043086004E008
:10D3D0009DF857008DF85600FFE7FFE71898407852
:10D3E000400600284ED5FFE71898D0F8AC000D9005
:10D3F000C8B1FFE70D98B0F1805F15D0FFE70D9839
:10D40000B0F1005F18D0FFE70D98B0F1405F1BD07E
:10D41000FFE70D98B0F1804F17D0FFE70D98B0F1FE
:10D42000A04F13D013E016E018980830012107F040
:10D4300003FC8DF857000EE018982830012107F002
:10D44000E3FC8DF8570006E005E004E003E001206E
:10D450008DF85700FFE79DF8570068B9FFE744F2E1
:10D460005841C5F60201086820F0E040189AD2F849
:10D47000AC201043086004E09DF857008DF856007A
:10D48000FFE7FFE718984078000600283BD5FFE744
:10D490001898C06E0C90D8B1FFE70C98B0F1805F7F
:10D4A00005D0FFE70C98B0F1005F09D011E044F21D
:10D4B0002C41C5F60201086840F4003008600CE019
:10D4C00018980830012107F0B7FB8DF8570004E0E9
:10D4D00003E001208DF85700FFE79DF8570060B981
:10D4E000FFE744F25041C5F60201086820F04050C1
:10D4F000189AD26E1043086004E09DF857008DF82A
:10D500005600FFE7FFE71898C078C007002837D01B
:10D51000FFE71898806C0B90032817D80B99DFE869
:10D5200001F014020B1344F22C41C5F60201086805
:10D5300040F4003008600DE018980830022107F030
:10D540007BFB8DF8570005E004E003E001208DF837
:10D550005700FFE79DF8570060B9FFE744F24C41E0
:10D56000C5F60201086820F00300189A926C104377
:10D57000086004E09DF857008DF85600FFE7FFE7CC
:10D58000189880784006002840F1B480FFE744F600
:10D590000001C5F60201086840F480700860FDF7DC
:10D5A00033F81690FFE744F60000C5F60200006865
:10D5B000C00500280CD4FFE7FDF726F81699401A9D
:10D5C000652804D3FFE703208DF8570000E0EAE761
:10D5D0009DF85700002840F08780FFE744F2704034
:10D5E000C5F60200006800F440701899D1F8B01038
:10D5F00001F44071884213D0FFE744F27041C5F650
:10D600000201086820F440701790086840F48030E8
:10D610000860086820F48030086017980860FFE709
:10D620001898D0F8B000B0F5807F1FD1FFE7FCF765
:10D63000EBFF1690FFE744F27040C5F60200006869
:10D6400000F002010020B0EB510F0ED1FFE7FCF714
:10D65000DBFF1699401A41F28931884204D3FFE773
:10D6600003208DF8570000E0E5E7FFE79DF857003D
:10D67000A0BBFFE7FFE71898D0F8B00000F44070B7
:10D68000B0F5407F13D1FFE744F21041C5F6020127
:10D69000086820F47C50189AD2F8B0204FF6F04376
:10D6A000C0F6FF731A4040EA1210086008E044F226
:10D6B0001041C5F60201086820F47C500860FFE7BD
:10D6C0001898D0F8B0206FF31F3244F27041C5F6BD
:10D6D0000201086810430860FFE704E09DF8570066
:10D6E0008DF85600FFE704E09DF857008DF85600CE
:10D6F000FFE7FFE718980068C007002800F04C809B
:10D70000FFE71898806F0A9028282BD80A99DFE83D
:10D7100001F0152929292929292916292929292901
:10D7200029291E2929292929292926292929292977
:10D7300029292729292929292929280016E0189883
:10D740000830012107F078FA8DF857000EE018989C
:10D750002830012107F058FB8DF8570006E005E05E
:10D7600004E003E001208DF85700FFE79DF8570023
:10D7700060B9FFE744F25441C5F60201086820F0A1
:10D780003800189A926F1043086004E09DF8570023
:10D790008DF85600FFE7FFE718980078800700280B
:10D7A00039D5FFE71898406F0990052819D80999CD
:10D7B000DFE801F003040C14151616E01898083081
:10D7C000012107F039FA8DF857000EE0189828303B
:10D7D000012107F019FB8DF8570006E005E004E091
:10D7E00003E001208DF85700FFE79DF8570060B96E
:10D7F000FFE744F25441C5F60201086820F0070033
:10D80000189A526F1043086004E09DF857008DF895
:10D810005600FFE7FFE718980078400700283BD53F
:10D82000FFE71898D0F890000890052819D80899B3
:10D83000DFE801F003040C14151616E01898083000
:10D84000012107F0F9F98DF857000EE018982830FB
:10D85000012107F0D9FA8DF8570006E005E004E051
:10D8600003E001208DF85700FFE79DF8570068B9E5
:10D87000FFE744F25841C5F60201086820F00700AE
:10D88000189AD2F890201043086004E09DF85700E1
:10D890008DF85600FFE7FFE718980078800600280B
:10D8A0004ED5FFE71898D0F88C000790C8B1FFE775
:10D8B0000798B0F1805F15D0FFE70798B0F1005FDF
:10D8C00018D0FFE70798B0F1405F1BD0FFE707983B
:10D8D000B0F1804F17D0FFE70798B0F1A04F13D0F9
:10D8E00013E016E018980830002107F0A5F98DF82C
:10D8F00057000EE018982830022107F085FA8DF8BD
:10D90000570006E005E004E003E001208DF8570031
:10D91000FFE79DF8570068B9FFE744F25441C5F6A8
:10D920000201086820F0E040189AD2F88C201043D9
:10D93000086004E09DF857008DF85600FFE7FFE708
:10D9400018980078400600284ED5FFE71898D0F8C0
:10D9500098000690C8B1FFE70698B0F5806F15D023
:10D96000FFE70698B0F5006F18D0FFE70698B0F50E
:10D97000406F1BD0FFE70698B0F5805F17D0FFE738
:10D980000698B0F5A05F13D013E016E018980830A1
:10D99000002107F051F98DF857000EE01898283053
:10D9A000022107F031FA8DF8570006E005E004E0A7
:10D9B00003E001208DF85700FFE79DF8570068B994
:10D9C000FFE744F25841C5F60201086820F4E05030
:10D9D000189AD2F898201043086004E09DF8570088
:10D9E0008DF85600FFE7FFE718980078000600283A
:10D9F0004ED5FFE71898D0F89C000590C8B1FFE716
:10DA00000598B0F5005F15D0FFE70598B0F5804F99
:10DA100018D0FFE70598B0F5C04F1BD0FFE7059879
:10DA2000B0F5004F17D0FFE70598B0F5204F13D0A1
:10DA300013E016E018980830002107F0FDF88DF883
:10DA400057000EE018982830022107F0DDF98DF814
:10DA5000570006E005E004E003E001208DF85700E0
:10DA6000FFE79DF8570068B9FFE744F25841C5F653
:10DA70000201086820F46040189AD2F89C201043F4
:10DA8000086004E09DF857008DF85600FFE7FFE7B7
:10DA9000189800780007002820D5FFE71898D0F8DC
:10DAA0008000B0F5805F0CD1FFE718982830022184
:10DAB00007F0AAF920B1FFE701208DF85600FFE733
:10DAC000FFE744F25441C5F60201086820F44050D3
:10DAD000189AD2F8802010430860FFE71898007861
:10DAE000C006002820D5FFE71898D0F89400B0F5BC
:10DAF000807F0CD1FFE718982830022107F084F9C5
:10DB000020B1FFE701208DF85600FFE7FFE744F260
:10DB10005841C5F60201086820F44070189AD2F8FE
:10DB2000942010430860FFE71898807800070028C9
:10DB30003CD5FFE71898D0F8A000049050B1FFE75B
:10DB40000498B0F5803F0DD0FFE70498B0F5003F92
:10DB500010D010E018980830002107F06DF88DF80B
:10DB600057000CE018982830022107F04DF98DF885
:10DB7000570004E003E001208DF85700FFE79DF80F
:10DB8000570068B9FFE744F25841C5F6020108683A
:10DB900020F44030189AD2F8A0201043086004E026
:10DBA0009DF857008DF85600FFE7FFE7189880783A
:10DBB000400700283FD5FFE71898D0F8840003906D
:10DBC000B0F5801F0AD0FFE70398B0F5001F0ED014
:10DBD000FFE70398B0F5401F11D011E044F22C414B
:10DBE000C5F60201086840F4003008600CE018989F
:10DBF0002830012107F008F98DF8570004E003E010
:10DC000001208DF85700FFE79DF8570068B9FFE73E
:10DC100044F25441C5F60201086820F44010189AF5
:10DC2000D2F884201043086004E09DF857008DF876
:10DC30005600FFE7FFE718988078C007A8B3FFE712
:10DC40001898006D029028B1FFE70298B0F5803F68
:10DC500009D010E044F22C41C5F60201086840F4F6
:10DC6000003008600BE018980830022106F0E4FF4D
:10DC70008DF8570003E001208DF85700FFE79DF86D
:10DC8000570060B9FFE744F24C41C5F6020108684D
:10DC900020F48030189A126D1043086004E09DF85B
:10DCA00057008DF85600FFE7FFE71898C078800608
:10DCB00000280CD5FFE718982830022107F0A4F8B7
:10DCC00020B1FFE701208DF85600FFE7FFE7189825
:10DCD0008078800700283AD5FFE71898C06F019038
:10DCE000D0B1FFE70198B0F5807F0AD0FFE7019837
:10DCF000B0F5007F0ED0FFE70198B0F5407F0AD065
:10DD00000BE044F22C41C5F60201086840F40030F3
:10DD1000086006E005E004E003E001208DF857000C
:10DD2000FFE79DF8570060B9FFE744F25441C5F69C
:10DD30000201086820F44070189AD26F10430860FE
:10DD400004E09DF857008DF85600FFE7FFE71898AC
:10DD50008078C00600280CD5FFE744F25041C5F694
:10DD60000201086820F00040189A126F1043086002
:10DD7000FFE718988078800600280CD5FFE744F26A
:10DD80005041C5F60201086820F08070189A926E22
:10DD900010430860FFE71898C0784006002811D5A6
:10DDA000FFE7FFE744F21041C5F60201086820F4DE
:10DDB000004008601898D0F8B42008681043086044
:10DDC000FFE7FFE71898C078000600280CD5FFE7AA
:10DDD00044F24C41C5F60201086820F04050189A00
:10DDE000526D10430860FFE71898807800060028FD
:10DDF0000DD5FFE744F25441C5F60201086820F44E
:10DE00004000189AD2F8882010430860FFE718985D
:10DE10000079C00790B1FFE718980830002106F09C
:10DE20000BFF8DF857009DF8570008B9FFE704E095
:10DE30009DF857008DF85600FFE7FFE71898007926
:10DE40008007002812D5FFE718980830012106F056
:10DE5000F3FE8DF857009DF8570008B9FFE704E07E
:10DE60009DF857008DF85600FFE7FFE718980079F6
:10DE70004007002812D5FFE718980830022106F065
:10DE8000DBFE8DF857009DF8570008B9FFE704E066
:10DE90009DF857008DF85600FFE7FFE718980079C6
:10DEA0000007002812D5FFE718982830002106F057
:10DEB000ABFF8DF857009DF8570008B9FFE704E065
:10DEC0009DF857008DF85600FFE7FFE71898007996
:10DED000C006002812D5FFE718982830012106F067
:10DEE00093FF8DF857009DF8570008B9FFE704E04D
:10DEF0009DF857008DF85600FFE7FFE71898007966
:10DF00008006002812D5FFE718982830022106F075
:10DF10007BFF8DF857009DF8570008B9FFE704E034
:10DF20009DF857008DF85600FFE7FFE79DF8560073
:10DF300020B9FFE700208DF8670003E001208DF88D
:10DF40006700FFE79DF867001AB080BD0000000081
:10DF500080B586B004900391049820B9FFE70120B2
:10DF60008DF817003CE2039842F20001C5F200214F
:10DF7000096801F00F01884216D9FFE742F200005C
:10DF8000C5F20020016821F00F01039A11430160DE
:10DF9000006800F00F000399884204D0FFE70120D9
:10DFA0008DF817001CE2FFE704980078400700286E
:10DFB00019D5FFE70498006944F21841C5F602013B
:10DFC000096801F0700188420CD9FFE744F218415A
:10DFD000C5F60201086820F07000049A1269104327
:10DFE0000860FFE7FFE7049800780007002819D5CC
:10DFF000FFE70498406944F21C41C5F60201096834
:10E0000001F0700188420CD9FFE744F21C41C5F6CB
:10E010000201086820F07000049A526910430860F9
:10E02000FFE7FFE704980078C006002819D5FFE74E
:10E030000498806944F21C41C5F60201096801F4A4
:10E04000E06188420CD9FFE744F21C41C5F60201A9
:10E05000086820F4E060049A926910430860FFE7C2
:10E06000FFE7049800788006002819D5FFE7049898
:10E07000C06944F22041C5F60201096801F070014F
:10E0800088420CD9FFE744F22041C5F60201086836
:10E0900020F07000049AD26910430860FFE7FFE7A0
:10E0A000049800788007002819D5FFE70498C06815
:10E0B00044F21841C5F60201096801F00F018842D7
:10E0C0000CD9FFE744F21841C5F60201086820F0B8
:10E0D0000F00049AD26810430860FFE7FFE7049836
:10E0E0000078C007002800F08C80FFE744F2184158
:10E0F000C5F60201086820F47060049A9268104323
:10E10000086004984068022811D1FFE744F20040FB
:10E11000C5F60200006800F400310020B0EB514F5A
:10E1200004D1FFE701208DF8170059E13EE0049883
:10E130004068032811D1FFE744F20040C5F6020011
:10E14000006800F000710020B0EB516F04D1FFE7D0
:10E1500001208DF8170043E127E00498406801286A
:10E1600011D1FFE744F20040C5F60200006800F458
:10E1700080710020B0EB112F04D1FFE701208DF852
:10E1800017002DE110E044F20040C5F602000068DF
:10E1900000F004010020B0EB910F04D1FFE7012053
:10E1A0008DF817001CE1FFE7FFE7FFE744F210419D
:10E1B000C5F60201086820F00700049A526810436F
:10E1C0000860FCF721FA0190FFE744F21040C5F621
:10E1D0000200006800F0380004994968B0EBC10FF4
:10E1E0000ED0FFE7FCF710FA0199401A41F289318D
:10E1F000884204D3FFE703208DF81700F0E0E4E73E
:10E20000FFE7049800788007002819D5FFE70498F5
:10E21000C06844F21841C5F60201096801F00F0117
:10E2200088420CD2FFE744F21841C5F602010868A3
:10E2300020F00F00049AD26810430860FFE7FFE760
:10E24000039842F20001C5F20021096801F00F01B4
:10E25000884216D2FFE742F20000C5F200200168B2
:10E2600021F00F01039A11430160006800F00F00D4
:10E270000399884204D0FFE701208DF81700AFE032
:10E28000FFE7049800784007002819D5FFE70498B5
:10E29000006944F21841C5F60201096801F07001F5
:10E2A00088420CD2FFE744F21841C5F60201086823
:10E2B00020F07000049A126910430860FFE7FFE73E
:10E2C000049800780007002819D5FFE704984069F2
:10E2D00044F21C41C5F60201096801F07001884250
:10E2E0000CD2FFE744F21C41C5F60201086820F099
:10E2F0007000049A526910430860FFE7FFE7049832
:10E300000078C006002819D5FFE70498806944F218
:10E310001C41C5F60201096801F4E06188420CD293
:10E32000FFE744F21C41C5F60201086820F4E060F2
:10E33000049A926910430860FFE7FFE704980078A9
:10E340008006002819D5FFE70498C06944F22041EF
:10E35000C5F60201096801F0700188420CD2FFE79E
:10E3600044F22041C5F60201086820F07000049ACA
:10E37000D26910430860FFE7FFE700F0CDF844F2F0
:10E380001842C5F602021168C1F3032341F6304179
:10E39000C0F60201CB5C03F01F03D8400090009848
:10E3A000126802F00F02895C01F01F01C84040F2C0
:10E3B0004801C2F200410860009840F24401C2F2F4
:10E3C0000041086040F26820C2F200400068FCF79B
:10E3D00073F98DF80B009DF80B008DF81700FFE71F
:10E3E0009DF8170006B080BD82B0019000910199A0
:10E3F0003F20086044F21040C5F60200006800F0BB
:10E4000007000199486044F21840C5F6020001680F
:10E4100001F47061019A9160016801F00F01019AA5
:10E42000D160006800F070000199086144F21C405E
:10E43000C5F60200016801F07001019A516100689F
:10E4400000F4E0600199886144F22040C5F60200C2
:10E45000006800F070000199C86142F20000C5F246
:10E460000020006800F00F000099086002B07047BB
:10E4700080B582B000F050F844F21842C5F60202AE
:10E480001168C1F3032341F63041C0F60201CB5CB1
:10E4900003F01F03D84001900198126802F00F02A8
:10E4A000895C01F01F0120FA01F140F24800C2F23C
:10E4B00000400160019940F24402C2F20042116042
:10E4C000006802B080BD000080B5FFF7D1FF44F2C4
:10E4D0001C41C5F602010968C1F3021241F6304140
:10E4E000C0F60201895C01F01F01C84080BD000038
:10E4F00080B5FFF7BDFF44F21C41C5F60201096873
:10E50000C1F3022241F63041C0F60201895C01F0FC
:10E510001F01C84080BD00008AB044F21040C5F61B
:10E520000200006800F0380001460191182800F24E
:10E5300069810199DFE811F0190066016601660141
:10E5400066016601660166013A00660166016601C0
:10E5500066016601660166014000660166016601AA
:10E560006601660166016601460044F20040C5F698
:10E570000200006800F020010020B0EB511F0ED017
:10E58000FFE744F20040C5F602000068C0F3C10195
:10E5900049F20000C0F2D030C840029005E049F2D4
:10E5A0000000C0F2D0300290FFE731E140F60010E9
:10E5B000C0F23D0002902BE141F20020C0F27A004F
:10E5C000029025E144F22840C5F60200016801F0FE
:10E5D000030108910068C0F30510079044F22C4035
:10E5E000C5F60200006800F001000690069844F2AB
:10E5F0003441C5F60201096889B2C908484300EEF2
:10E60000100AB8EE400A8DED040A0798002800F0C1
:10E61000F580FFE70898009048B1FFE700980128CF
:10E6200069D0FFE70098022800F08980ABE044F24F
:10E630000040C5F60200006800F020010020B0EBA9
:10E64000511F33D0FFE744F20040C5F602000068D6
:10E65000C0F3C10149F20000C0F2D030C8400590BB
:10E660009DED050AB8EE400A9DED071AB8EE411A75
:10E6700080EE010A44F23040C5F6020000686FF3F4
:10E680005F2001EE100AB8EE411A9DED042A9FEDBD
:10E69000633A82EE032A31EE021AB7EE002A31EE17
:10E6A000021A20EE010A8DED030A23E09DED070A10
:10E6B000B8EE401A9FED5B0A80EE010A44F230404A
:10E6C000C5F6020000686FF35F2001EE100AB8EE95
:10E6D000411A9DED042A9FED513A82EE032A31EE54
:10E6E000021AB7EE002A31EE021A20EE010A8DED71
:10E6F000030AFFE76BE09DED070AB8EE401A9FEDB5
:10E70000480A80EE010A44F23040C5F60200006873
:10E710006FF35F2001EE100AB8EE411A9DED042A56
:10E720009FED3E3A82EE032A31EE021AB7EE002A3E
:10E7300031EE021A20EE010A8DED030A47E09DED4D
:10E74000070AB8EE401A9FED340A80EE010A44F23F
:10E750003040C5F6020000686FF35F2001EE100A3A
:10E76000B8EE411A9DED042A9FED2C3A82EE032A61
:10E7700031EE021AB7EE002A31EE021A20EE010A3B
:10E780008DED030A23E09DED070AB8EE401A9FEDD8
:10E79000240A80EE010A44F23040C5F60200006807
:10E7A0006FF35F2001EE100AB8EE411A9DED042AC6
:10E7B0009FED1A3A82EE032A31EE021AB7EE002AD2
:10E7C00031EE021A20EE010A8DED030AFFE744F252
:10E7D0003040C5F60200006881B2012000EB5120F4
:10E7E00009909DED030A9DED091AB8EE411A80EEDD
:10E7F000010ABCEEC00A8DED020A02E00020029080
:10E80000FFE705E040F60010C0F23D000290FFE790
:10E8100002980AB0704700BF0024F44A0000004686
:10E820000024744A0024744C80B58CB00A900A9875
:10E8300028B9FFE701208DF82F0000F001BD0A98EC
:10E840000078C007002800F0B980FFE744F21040CC
:10E85000C5F60200006800F03800069044F2284037
:10E86000C5F6020000680590069810280AD0FFE758
:10E87000069818281CD1FFE7059800F0030002282D
:10E8800016D1FFE744F20040C5F60200006800F42C
:10E8900000310020B0EB514F09D0FFE70A984068E3
:10E8A00028B9FFE701208DF82F0000F0C9BC84E0F3
:10E8B000FFE70A984068B0F5803F09D1FFE744F2CE
:10E8C0000041C5F60201086840F48030086032E07B
:10E8D0000A98406868B9FFE744F20041C5F60201B2
:10E8E000086820F480300860086820F48020086000
:10E8F00020E00A984068B0F5A02F0DD1FFE744F260
:10E900000041C5F60201086840F4802008600868EC
:10E9100040F4803008600CE044F20041C5F602018A
:10E92000086820F480300860086820F480200860BF
:10E93000FFE7FFE7FFE7FFE70A984068F0B1FFE76E
:10E94000FBF762FE0990FFE744F20040C5F60200C3
:10E95000006800F400310020B0EB514F0DD1FFE70B
:10E96000FBF752FE0999401A652805D3FFE70320FB
:10E970008DF82F0000F064BCE6E71DE0FBF744FED5
:10E980000990FFE744F20040C5F60200006800F479
:10E9900000310020B0EB514F0DD0FFE7FBF734FE04
:10E9A0000999401A652805D3FFE703208DF82F0049
:10E9B00000F046BCE6E7FFE7FFE7FFE70A980078CC
:10E9C0008007002840F1C580FFE744F21040C5F6FB
:10E9D0000200006800F03800049044F22840C5F6B8
:10E9E000020000680390049850B1FFE704981828CB
:10E9F00050D1FFE79DF80C00800700284AD1FFE7BF
:10EA000044F20040C5F60200006800F00401002056
:10EA1000B0EB910F09D0FFE70A98C06828B9FFE76B
:10EA200001208DF82F0000F00BBC44F20041C5F628
:10EA30000201086820F019000A9AD26810430860A1
:10EA4000FBF7E2FD0990FFE744F20040C5F6020043
:10EA5000006800F004010020B0EB910F0CD1FFE73B
:10EA6000FBF7D2FD0999401A032804D3FFE70320DE
:10EA70008DF82F00E4E3E7E744F20441C5F6020114
:10EA8000086820F0FE400A9A126940EA02600860B5
:10EA9000FFE75DE00A98C068A0B3FFE744F20041D9
:10EAA000C5F60201086820F019000A9AD2681043DE
:10EAB0000860FBF7A9FD0990FFE744F20040C5F6A6
:10EAC0000200006800F004010020B0EB910F0CD1AF
:10EAD000FFE7FBF799FD0999401A032804D3FFE7E4
:10EAE00003208DF82F00ABE3E7E744F20441C5F6BD
:10EAF0000201086820F0FE400A9A126940EA0260AA
:10EB0000086024E044F20041C5F60201086820F0E4
:10EB100001000860FBF778FD0990FFE744F2004030
:10EB2000C5F60200006800F004010020B0EB910F70
:10EB30000CD0FFE7FBF768FD0999401A032804D3BE
:10EB4000FFE703208DF82F007AE3E7E7FFE7FFE711
:10EB5000FFE70A980078C006002840F1A080FFE790
:10EB600044F21040C5F60200006800F03800029040
:10EB700044F22840C5F60200006801900298082877
:10EB80000AD0FFE7029818282BD1FFE7019800F080
:10EB90000300012825D1FFE744F20040C5F602003A
:10EBA000006800F480710020B0EB112F09D0FFE75E
:10EBB0000A98C069802804D0FFE701208DF82F0053
:10EBC0003EE3FFE744F20C41C5F60201086820F07D
:10EBD0007C500A9A126A40EA02600860FFE7FFE789
:10EBE0005CE00A98C06998B3FFE744F20041C5F6BB
:10EBF0000201086840F080000860FBF705FD0990FD
:10EC0000FFE744F20040C5F60200006800F480719E
:10EC10000020B0EB112F0CD1FFE7FBF7F5FC0999B1
:10EC2000401A032804D3FFE703208DF82F0007E3E1
:10EC3000E7E7FFE744F20C41C5F60201086820F05F
:10EC40007C500A9A126A40EA02600860FFE724E0FA
:10EC500044F20041C5F60201086820F08000086017
:10EC6000FBF7D2FC0990FFE744F20040C5F6020032
:10EC7000006800F480710020B0EB112F0CD0FFE78A
:10EC8000FBF7C2FC0999401A032804D3FFE70320CD
:10EC90008DF82F00D4E2E7E7FFE7FFE7FFE70A98E8
:10ECA0000078000700284FD5FFE70A98406928B38D
:10ECB000FFE744F27441C5F60201086840F0010024
:10ECC0000860FBF7A1FC0990FFE744F27440C5F629
:10ECD0000200006800F002010020B0EB510F0CD1DF
:10ECE000FFE7FBF791FC0999401A032804D3FFE7DB
:10ECF00003208DF82F00A3E2E7E724E044F27441FB
:10ED0000C5F60201086820F001000860FBF77CFCF2
:10ED10000990FFE744F27440C5F60200006800F075
:10ED200002010020B0EB510F0CD0FFE7FBF76CFCA9
:10ED30000999401A032804D3FFE703208DF82F0018
:10ED40007EE2E7E7FFE7FFE70A9800788006002801
:10ED50004FD5FFE70A98806928B3FFE744F20041E6
:10ED6000C5F60201086840F480500860FBF74CFCCF
:10ED70000990FFE744F20040C5F60200006800F485
:10ED800000510020B0EB513F0CD1FFE7FBF73CFCFA
:10ED90000999401A032804D3FFE703208DF82F00B8
:10EDA0004EE2E7E724E044F20041C5F602010868BC
:10EDB00020F480500860FBF727FC0990FFE744F23D
:10EDC0000040C5F60200006800F400510020B0EBDE
:10EDD000513F0CD0FFE7FBF717FC0999401A0328B5
:10EDE00004D3FFE703208DF82F0029E2E7E7FFE7D0
:10EDF000FFE70A9800784007002840F1A780FFE766
:10EE000044F60001C5F60201086840F4807008600D
:10EE1000FBF7FAFB0990FFE744F60000C5F6020095
:10EE20000068C00500280CD4FFE7FBF7EDFB09994B
:10EE3000401A652804D3FFE703208DF82F00FFE177
:10EE4000EAE7FFE70A988068012809D1FFE744F262
:10EE50007041C5F60201086840F00100086031E029
:10EE60000A98806868B9FFE744F27041C5F602016C
:10EE7000086820F001000860086820F004000860BD
:10EE80001FE00A98806805280DD1FFE744F2704121
:10EE9000C5F60201086840F004000860086840F008
:10EEA000010008600CE044F27041C5F602010868F8
:10EEB00020F001000860086820F004000860FFE707
:10EEC000FFE7FFE7FFE70A988068F8B1FFE7FBF785
:10EED0009BFB0990FFE744F27040C5F60200006812
:10EEE00000F002010020B0EB510F0ED1FFE7FBF75D
:10EEF0008BFB0999401A41F28931884204D3FFE71C
:10EF000003208DF82F009BE1E5E71EE0FBF77CFB7B
:10EF10000990FFE744F27040C5F60200006800F077
:10EF200002010020B0EB510F0ED0FFE7FBF76CFBA6
:10EF30000999401A41F28931884204D3FFE703203E
:10EF40008DF82F007CE1E5E7FFE7FFE70A98406ACC
:10EF5000002800F07181FFE744F21040C5F602007E
:10EF6000006800F03800182800F0E080FFE70A98F9
:10EF7000406A022840F0B480FFE744F20041C5F641
:10EF80000201086820F080700860FBF73DFB0990E3
:10EF9000FFE744F20040C5F60200006800F000718F
:10EFA0000020B0EB516F0CD0FFE7FBF72DFB099968
:10EFB000401A032804D3FFE703208DF82F003FE118
:10EFC000E7E7FFE744F22841C5F60201086840F28E
:10EFD000F33290430A9B9A6ADB6A42EA03121043B7
:10EFE00008600A99086BD1F834C08B6BCA6B013882
:10EFF0006FF35F204FF60061CFF6FF7101EB4C21FC
:10F0000089B208440021CFF6FF7101EB034101F4FE
:10F01000FE0108444FF07F4101EB026101F0FE4127
:10F02000084444F23041C5F602010860FFE744F2AB
:10F030002C41C5F602010091086820F0010008602B
:10F0400044F23442C5F6020210684FF6F873984352
:10F050000A9B9B6C40EAC3001060086820F00C001B
:10F060000A9A126C10430860086820F002000A9A9D
:10F07000526C10430860086840F4803008600868EB
:10F0800040F400300860086840F480200860086898
:10F0900040F00100086044F20041C5F60201086832
:10F0A00040F080700860FBF7AFFA0990FFE744F288
:10F0B0000040C5F60200006800F000710020B0EBCF
:10F0C000516F0CD1FFE7FBF79FFA0999401A03280B
:10F0D00004D3FFE703208DF82F00B1E0E7E724E039
:10F0E00044F20041C5F60201086820F08070086013
:10F0F000FBF78AFA0990FFE744F20040C5F60200E8
:10F10000006800F000710020B0EB516F0CD0FFE7F9
:10F11000FBF77AFA0999401A032804D3FFE7032082
:10F120008DF82F008CE0E7E7FFE784E044F2284009
:10F13000C5F602000068089044F23040C5F60200AF
:10F14000006807900A98406A012837D0FFE70898BE
:10F1500000F003000A99896A88422FD1FFE70898D6
:10F1600000F47C710A98C06AB0EB111F26D1FFE74A
:10F1700007986FF35F200A99096B013988421DD106
:10F18000FFE7BDF81C100A98406B0138B0EB512F17
:10F1900014D1FFE7079800F4FE010A98806B01384C
:10F1A000B0EB114F0AD1FFE7079800F0FE410A9833
:10F1B000C06B0138B0EB116F04D0FFE701208DF870
:10F1C0002F003DE044F23440C5F60200006880B2F2
:10F1D000C00808900A98806C0899884229D0FFE7F7
:10F1E00044F22C41C5F60201086820F001000860D5
:10F1F000FBF70AFA0990FFE7FBF706FA0999401AAC
:10F2000008B9FFE7F8E744F23441C5F6020108689F
:10F210004FF6F87290430A9A926C40EAC200086076
:10F2200044F22C41C5F60201086840F00100086074
:10F23000FFE7FFE7FFE7FFE700208DF82F00FFE77C
:10F240009DF82F000CB080BD80B586B00490049866
:10F2500020B9FFE701208DF817003AE10498406AD1
:10F2600008B9FFE7FFE70499002088620498006866
:10F2700043F20001C4F2010188421BD0FFE7049869
:10F28000006843F60001C4F20001884212D0FFE793
:10F290000498006843F60041C4F20001884209D096
:10F2A000FFE70498C068102804D3FFE701208DF819
:10F2B00017000EE1049805F0D7FF0290049800684B
:10F2C00043F20001C4F20101884216D0FFE704981E
:10F2D000006843F60001C4F2000188420DD0FFE748
:10F2E0000498006843F60041C4F20001884204D04B
:10F2F000FFE7029808281FD8FFE70498006843F248
:10F300000001C4F20101884212D0FFE704980068AE
:10F3100043F60001C4F20001884209D0FFE70498D7
:10F32000006843F60041C4F20001884208D1FFE7BB
:10F330000298112804D3FFE701208DF81700C8E0D8
:10F34000049890F8810040B9FFE70499002081F803
:10F350008000049800F0C4F8FFE70499022081F8C7
:10F36000810004980168086820F001000860049892
:10F370000068806800F4F810039004988069B0F188
:10F38000806F1BD1FFE704984068B0F5800F04D16F
:10F39000FFE70498806B50B1FFE70498406868B9B4
:10F3A000FFE70498806BB0F1805F07D1FFE7049816
:10F3B0000168086840F480500860FFE7049880798D
:10F3C0004006002810D5FFE70498C06807280BD333
:10F3D000FFE704980068006820F48070049A1168C0
:10F3E000126D1043086006E004980168086820F474
:10F3F00080700860FFE7049B1968DA68D869D3F861
:10F4000028C040EA0C00DDF80CC040EA0C00DB6BC1
:10F41000184310438860049A0192506B516A084364
:10F42000916B0843916908431168D2F804C093684E
:10F43000D2F810E040EA0E00D2F814E040EA0E00E4
:10F44000D2F820E040EA0E0040EA0C00D2F84CC0AE
:10F4500040EA0C001843936C1843926D1043C86047
:10F460000498406898B9FFE7049800688068012113
:10F4700061F3CC200499096888600498006880686A
:10F48000022161F34A20049909688860FFE7049823
:10F490000168086D20F00100086504988079400635
:10F4A00000280BD5FFE704980068C06820F00040F2
:10F4B000049A1168526D1043C860FFE70499002058
:10F4C000C1F88400049A012182F881108DF8170098
:10F4D000FFE79DF8170006B080BD000000000000A7
:10F4E00080B5B6B035900020349033903290319092
:10F4F000309002A8B821F0F74FFF3598006843F22A
:10F500000001C4F2010188424BD1FFE700200390C3
:10F510004FF48051029101210C9118220D920E910D
:10F5200002210F9110914FF44061119112901390AC
:10F530004FF40050199002A8FDF712FD18B1FFE733
:10F54000F4F76EFAFFE7FFE744F2F040C5F6020079
:10F55000016841F480510160006800F4805001901E
:10F560000198FFE7FFE744F2E040C5F602000168BA
:10F5700041F001010160006800F001000090009876
:10F58000FFE7E0203090022031900020329033904D
:10F59000052034900020C5F6020030A9FAF734FEA9
:10F5A000FFE736B080BD000080B590B0DDF848C000
:10F5B0000E900D910C92ADF82E300E980068203010
:10F5C0000A900E980068303009900E98C16B0120A7
:10F5D00000EB5110ADF81200FBF716F80890BDF8DB
:10F5E0002E00ADF81600BDF82E00ADF814000E98F0
:10F5F00090F88100012804D0FFE702208DF83F0039
:10F6000050E30D9838B1FFE70C9820B1FFE7BDF843
:10F610002E0020B9FFE701208DF83F0042E3FFE70D
:10F620000E9890F88000012804D1FFE702208DF8A1
:10F630003F0037E30E99012081F88000FFE7FFE7E4
:10F640000E99052081F881000E990020C1F88400F0
:10F650000C990E9A5166BDF82E100E9AA2F86A10F7
:10F66000BDF82E100E9AA2F868100D990E9AD16569
:10F67000BDF82E100E9AA2F86210BDF82E100E9A48
:10F68000A2F860100E9908670E9948670E980068F6
:10F69000C06820F4C0200E990968C8600E98006800
:10F6A00043F20001C4F20101884212D0FFE70E9834
:10F6B000006843F60001C4F20001884209D0FFE768
:10F6C0000E98006843F60041C4F20001884203D15D
:10F6D000FFE71020079002E008200790FFE70E9850
:10F6E000006840684FF6FF718843BDF82E1008444B
:10F6F0000E99096848600E980168086840F001009A
:10F7000008600E984068B0F5800F07D1FFE70E98AB
:10F710000168086840F400700860FFE70E98C06850
:10F720001028C0F0B580FFE7079880080790FFE732
:10F73000BDF816100120039039B9FFE7BDF8140099
:10F74000002818BF01200390FFE70398C007002896
:10F7500000F09D80FFE70E98006840698007002850
:10F7600022D5FFE7BDF81600F0B1FFE7BDF81400A1
:10F77000BDF81610079A1144884215D2FFE70E987B
:10F780000168C06D006808620E99C86D0430C865D4
:10F790000E99B1F862000138A1F862000E98B0F835
:10F7A0006200ADF81600FFE70E9800684069069009
:10F7B000BDF81400002869D0FFE70E980068406982
:10F7C000C007B0B1FFE70E980068006B0E99496E54
:10F7D00008600E99486E043048660E99B1F86A00C8
:10F7E0000138A1F86A000E98B0F86A00ADF814006C
:10F7F0004BE0BDF81400BDF8121088421CDAFFE798
:10F800009DF819000006002816D5FFE70E9800683D
:10F81000006B0E99496E08600E99486E0430486678
:10F820000E99B1F86A000138A1F86A000E98B0F894
:10F830006A00ADF8140027E0FAF7E6FE0899401ACE
:10F840001299884204D3FFE71298013018B9FFE7F4
:10F850001298C0B9FFE70E9805F07AFC0E99D1F81E
:10F86000840040F48070C1F884000E99012081F872
:10F870008100FFE70E99002081F88000FFE7032058
:10F880008DF83F000EE2FFE7FFE7FFE750E7DCE11E
:10F890000E98C0680828C0F0DE80FFE7079840088F
:10F8A0000790FFE7BDF816100120029039B9FFE775
:10F8B000BDF81400002818BF01200290FFE702984D
:10F8C000C007002800F0C680FFE70E980068406976
:10F8D0008007002822D5FFE7BDF81600F0B1FFE74A
:10F8E000BDF81400BDF81610079A1144884215D2CD
:10F8F000FFE70E98C06D00880A9908800E99C86DC0
:10F900000230C8650E99B1F862000138A1F86200B2
:10F910000E98B0F86200ADF81600FFE70E98006888
:10F9200040690690BDF81400002800F09280FFE7BF
:10F930000E9800684069C007A8B1FFE709980088E1
:10F940000E99496E08800E99486E023048660E99ED
:10F95000B1F86A000138A1F86A000E98B0F86A00A0
:10F96000ADF8140074E0BDF81400BDF81210884220
:10F9700024DAFFE79DF81900000600281ED5FFE7EE
:10F98000099800880E99496E08800E99486E0230D9
:10F990004866099800880E99496E08800E99486E4D
:10F9A000023048660E99B1F86A000238A1F86A0080
:10F9B0000E98B0F86A00ADF8140048E0BDF81400E5
:10F9C00001281BD1FFE79DF819008006002815D5F6
:10F9D000FFE7099800880E99496E08800E99486ED5
:10F9E000023048660E99B1F86A000138A1F86A0041
:10F9F0000E98B0F86A00ADF8140027E0FAF704FE9C
:10FA00000899401A1299884204D3FFE712980130EE
:10FA100018B9FFE71298C0B9FFE70E9805F098FBF8
:10FA20000E99D1F8840040F48070C1F884000E99DA
:10FA3000012081F88100FFE70E99002081F8800005
:10FA4000FFE703208DF83F002CE1FFE7FFE7FFE72A
:10FA5000FFE727E7F8E0FFE7BDF816100120019067
:10FA600039B9FFE7BDF81400002818BF0120019044
:10FA7000FFE70198C007002800F0E580FFE70E9837
:10FA8000006840698007002823D5FFE7BDF816000D
:10FA9000F8B1FFE7BDF81400BDF81610079A11443D
:10FAA000884216D2FFE70E980168C06D007881F891
:10FAB00020000E99C86D0130C8650E99B1F862003A
:10FAC0000138A1F862000E98B0F86200ADF8160097
:10FAD000FFE70E98006840690690BDF81400002802
:10FAE00000F0B080FFE70E9800684069C007B8B129
:10FAF000FFE70E98006890F830000E99496E087084
:10FB00000E99486E013048660E99B1F86A000138C6
:10FB1000A1F86A000E98B0F86A00ADF8140090E001
:10FB2000BDF81400BDF8121088423EDAFFE79DF8D8
:10FB300019000006002838D5FFE70E98006890F8F5
:10FB400030000E99496E08700E99486E0130486673
:10FB50000E98006890F830000E99496E08700E9962
:10FB6000486E013048660E98006890F830000E9993
:10FB7000496E08700E99486E013048660E9800680C
:10FB800090F830000E99496E08700E99486E013059
:10FB900048660E99B1F86A000438A1F86A000E9818
:10FBA000B0F86A00ADF814004AE0BDF8140003286C
:10FBB0001DD8FFE79DF8190010F0600F17D0FFE780
:10FBC0000E98006890F830000E99496E08700E99F2
:10FBD000486E013048660E99B1F86A000138A1F804
:10FBE0006A000E98B0F86A00ADF8140027E0FAF742
:10FBF0000BFD0899401A1299884204D3FFE7129826
:10FC0000013018B9FFE71298C0B9FFE70E9805F068
:10FC10009FFA0E99D1F8840040F48070C1F88400F6
:10FC20000E99012081F88100FFE70E99002081F8EC
:10FC30008000FFE703208DF83F0033E0FFE7FFE798
:10FC4000FFE7FFE708E7FFE7FFE70E98129B089939
:10FC50006A4611600821002205F01EFB40B1FFE753
:10FC60000E99D1F8840040F02000C1F88400FFE72D
:10FC70000E9805F06DFA0E99012081F88100FFE7DA
:10FC80000E99002081F88000FFE70E98D0F88400DC
:10FC900020B1FFE701208DF83F0003E000208DF840
:10FCA0003F00FFE79DF83F0010B080BD000000005E
:10FCB00081B0009001B0704781B0009001B07047F2
:10FCC00081B0009001B0704784B002900191002093
:10FCD0000090FFE7029890F83C00012804D1FFE76C
:10FCE00002208DF80F0082E00299012081F83C008B
:10FCF000FFE7FFE7009820F0FF000199C96808437B
:10FD00000090009820F440700199896808430090A1
:10FD1000009820F480600199496808430090009899
:10FD200020F400600199096808430090009820F4CD
:10FD300080500199096908430090009820F4005010
:10FD40000199496908430090009820F48040019986
:10FD5000096B08430090009820F47020019989698C
:10FD600040EA01400090009820F080500199C96954
:10FD700008430090029800680021C4F20101884203
:10FD800009D0FFE70298006840F20041C4F2010187
:10FD900088421ED1FFE7009820F470000199896A1B
:10FDA00040EA01500090009820F080700199096AA3
:10FDB00008430090009820F000700199496A0843B8
:10FDC0000090009820F000500199C96A0843009003
:10FDD000FFE70098029909684864FFE7029900204C
:10FDE00081F83C00FFE700208DF80F00FFE79DF849
:10FDF0000F0004B07047000085B003900291FFE748
:10FE0000039890F83C00012804D1FFE702208DF808
:10FE10001300ABE00399012081F83C00FFE7FFE706
:10FE20000399022081F83D00039800684068019022
:10FE30000398006880680090039800680021C4F26D
:10FE40000101884209D0FFE70398006840F20041B1
:10FE5000C4F2010188420AD1FFE7019820F4700042
:10FE6000019002984168019808430190FFE70198CA
:10FE700020F07000019002980168019808430190F9
:10FE80000198039909684860039800680021C4F24A
:10FE9000010188424ED0FFE703980068B0F1804F1F
:10FEA00048D0FFE70398006840F20041C4F2000127
:10FEB00088423FD0FFE70398006840F60001C4F293
:10FEC0000001884236D0FFE70398006840F6004101
:10FED000C4F2000188422DD0FFE70398006840F289
:10FEE0000041C4F20101884224D0FFE70398006872
:10FEF00041F60001C4F2000188421BD0FFE70398DD
:10FF0000006844F20001C4F20101884212D0FFE708
:10FF1000039800684EF20001C4F20001884209D043
:10FF2000FFE7039800684EF20041C4F200018842E6
:10FF30000ED1FFE7009820F08000009002988168C1
:10FF40000098084300900098039909688860FFE7CB
:10FF50000399012081F83D00FFE70399002081F813
:10FF60003C00FFE700208DF81300FFE79DF8130029
:10FF700005B070470000000080B582B00090009886
:10FF800020B9FFE701208DF8070045E0009890F8C0
:10FF90003D0040B9FFE70099002081F83C0000983F
:10FFA00000F03EF8FFE70099022081F83D0000993B
:10FFB00051F8040B05F0ACFE0099012081F84800CF
:10FFC000FFE70099012081F83E00009981F83F0089
:10FFD000009981F84000009981F84100009981F86A
:10FFE0004200009981F84300FFE7FFE700990120F4
:10FFF00081F84400009981F84500009981F8460095
:020000040801F1
:10000000009981F84700FFE70099012081F83D0041
:1000100000208DF80700FFE79DF8070002B080BDC3
:1000200080B588B00790079800680021C4F20101EC
:10003000884268D1FFE7FFE744F2F040C5F60200CE
:10004000016841F001010160006800F001000690C4
:100050000698FFE742F27430C2F200400290282175
:10006000C4F2020101600B21416040218160002146
:10007000C1604FF4806202614FF4006242614FF44C
:1000800000528261C16101624162F7F795FE18B1C9
:10009000FFE7F3F7C5FCFFE7FFE7079842F274318B
:1000A000C2F20041416207988863FFE742F2EC30F8
:1000B000C2F2004001904021C4F2020101600C2113
:1000C0004160402181600021C1604FF48062026183
:1000D0004FF4006242614FF400528261C1610162DB
:1000E0004162F7F769FE18B1FFE7F3F799FCFFE704
:1000F000FFE7079842F2EC31C2F2004181620798B3
:100100008863FFE74AE007980068B0F1804F10D19C
:10011000FFE7FFE744F2E840C5F60200016841F05E
:1001200001010160006800F0010005900598FFE7FB
:1001300033E00798006840F20041C4F201018842B0
:1001400010D1FFE7FFE744F2F040C5F60200016876
:1001500041F002010160006800F002000490049880
:10016000FFE719E00798006844F20001C4F20101BA
:10017000884210D1FFE7FFE744F2F040C5F60200E5
:10018000016841F480310160006800F48030039020
:100190000398FFE7FFE7FFE7FFE7FFE708B080BD51
:1001A00083B00190019890F83D00012804D0FFE74A
:1001B00001208DF80B0083E00199022081F83D00B9
:1001C00001980168C86840F00100C86001980068A3
:1001D0000021C4F2010188424ED0FFE70198006877
:1001E000B0F1804F48D0FFE70198006840F200412D
:1001F000C4F2000188423FD0FFE70198006840F652
:100200000001C4F20001884236D0FFE7019800687F
:1002100040F60041C4F2000188422DD0FFE701986A
:10022000006840F20041C4F20101884224D0FFE797
:100230000198006841F60001C4F2000188421BD019
:10024000FFE70198006844F20001C4F2010188420E
:1002500012D0FFE7019800684EF20001C4F20001DD
:10026000884209D0FFE7019800684EF20041C4F2CD
:100270000001884219D1FFE70198006880680721D2
:10028000C0F2010108400090009806280CD0FFE75A
:100290000098B0F5803F07D0FFE701980168086833
:1002A00040F001000860FFE706E001980168086877
:1002B00040F001000860FFE700208DF80B00FFE729
:1002C0009DF80B0003B0704780B586B00490039191
:1002D00000208DF80B00FFE7049890F83C000128FF
:1002E00004D1FFE702208DF81700D1E00499012026
:1002F00081F83C00FFE7FFE70499022081F83D0008
:10030000049800688068019001984FF68871CFF6D4
:10031000CE7108400190019820F47F40019001982F
:10032000049909688860039800680090002800F02C
:100330009580FFE70098102800F09080FFE7009874
:10034000202800F08B80FFE70098302800F086809E
:10035000FFE70098402874D0FFE70098502856D057
:10036000FFE7009860285FD0FFE7009870282AD048
:10037000FFE70098B0F5805F24D0FFE70098B0F564
:10038000005F35D0FFE70098B0F5801F66D0FFE72B
:100390000098B0F1101F61D0FFE700982021C0F253
:1003A000100188425AD0FFE700983021C0F21001B6
:1003B000884253D0FFE700984021C0F210018842E4
:1003C0004CD052E055E004980068039B5A68996845
:1003D000DB6805F08DFE0498006880680190019844
:1003E00040F077000190019804990968886040E026
:1003F00004980068039B5A689968DB6805F078FEEA
:1004000004980168886840F48040886031E004986E
:100410000068039A5168D26806F0FAF904980068F7
:10042000502105F081FE24E004980068039A516889
:10043000D26806F015FA04980068602105F074FE91
:1004400017E004980068039A5168D26806F0E0F952
:1004500004980068402105F067FE0AE004980068EF
:100460000399096805F060FE03E001208DF80B0098
:10047000FFE70499012081F83D00FFE7049900207F
:1004800081F83C00FFE79DF80B008DF81700FFE7AF
:100490009DF8170006B080BD81B0009001B0704794
:1004A00081B0009001B0704780B584B0039003988C
:1004B0000068C068029003980068006901909DF888
:1004C00004008007002824D5FFE79DF80800800776
:1004D00000281DD5FFE7039801686FF0020008614E
:1004E000039901200877039800688069800720B18C
:1004F000FFE70398FFF7D4FF06E0039800F080F9C8
:10050000039800F0B1FAFFE7039900200877FFE7AE
:10051000FFE79DF804004007002825D5FFE79DF878
:100520000800400700281ED5FFE7039801686FF018
:100530000400086103990220087703980068806925
:1005400010F4407F04D0FFE70398FFF7A9FF06E00F
:10055000039800F055F9039800F086FAFFE7039935
:1005600000200877FFE7FFE79DF804000007002858
:1005700024D5FFE79DF80800000700281DD5FFE7F8
:10058000039801686FF00800086103990420087758
:1005900003980068C069800720B1FFE70398FFF760
:1005A0007FFF06E0039800F02BF9039800F05CFA57
:1005B000FFE7039900200877FFE7FFE79DF80400B5
:1005C000C006002825D5FFE79DF80800C0060028D2
:1005D0001ED5FFE7039801686FF0100008610399CA
:1005E0000820087703980068C06910F4407F04D0A1
:1005F000FFE70398FFF754FF06E0039800F000F9C7
:10060000039800F031FAFFE7039900200877FFE72D
:10061000FFE79DF80400C00778B1FFE79DF80800E8
:10062000C00748B1FFE7039801686FF00100086157
:10063000039800F0E9FDFFE7FFE7019800F0800074
:10064000802806D0FFE79DF805008006002810D519
:10065000FFE79DF808000006002809D5FFE703988A
:1006600001686FF4025008610398FFF725FBFFE76C
:10067000FFE79DF80500C00780B1FFE79DF808007F
:100680000006002809D5FFE7039801686FF4807021
:1006900008610398FFF70CFBFFE7FFE79DF80400F4
:1006A0004006002810D5FFE79DF808004006002806
:1006B00009D5FFE7039801686FF0400008610398CF
:1006C00000F0B6FDFFE7FFE79DF804008006002874
:1006D00010D5FFE79DF808008006002809D5FFE740
:1006E000039801686FF0200008610398FFF7E8FAAB
:1006F000FFE7FFE704B080BD80B58AB00990002015
:1007000008900790069005900490099800680021D1
:10071000C4F20101884221D1FFE7FFE744F2E04043
:10072000C5F60200016841F010010160006800F0A8
:10073000100003900398FFE74FF42060049002201C
:1007400005900020069007900120089041F20000DB
:10075000C5F6020004A9F9F757FD4FE009980068B3
:10076000B0F1804F1FD1FFE7FFE744F2E040C5F64C
:100770000200016841F001010160006800F0010021
:1007800002900298FFE70C200490022005900020C0
:1007900006900790012008900020C5F6020004A9E9
:1007A000F9F732FD29E00998006844F20001C4F22B
:1007B0000101884220D1FFE7FFE744F2E040C5F69F
:1007C0000200016841F010010160006800F01000B3
:1007D00001900198FFE7202004900220059000205E
:1007E000069007900420089041F20000C5F6020030
:1007F00004A9F9F709FDFFE7FFE7FFE70AB080BDAD
:1008000081B0009001B0704780B586B0049003912C
:10081000029200208DF80700FFE7049890F83C0052
:10082000012804D1FFE702208DF81700C0E00499E9
:10083000012081F83C00FFE7FFE7029800901428B0
:1008400000F2A7800099DFE801F00BA4A4A424A47F
:10085000A4A43EA4A4A457A4A4A471A4A4A48A00FC
:1008600004980068039905F077FC0498016888698A
:1008700040F00800886104980168886920F004004D
:100880008861039802690498016888691043886147
:1008900083E004980068039905F006FD0498016858
:1008A000886940F40060886104980168886920F4D0
:1008B000806088610398026904980168886940EA49
:1008C0000220886169E004980068039905F0A4FD9E
:1008D00004980168C86940F00800C861049801687C
:1008E000C86920F00400C86103980269049801688F
:1008F000C8691043C86150E004980068039905F086
:1009000043FE04980168C86940F40060C861049817
:100910000168C86920F48060C8610398026904987E
:100920000168C86940EA0220C86136E0049800689E
:10093000039905F099FE04980168486D40F008009D
:10094000486504980168486D20F0040048650398E4
:10095000026904980168486D104348651DE00498D9
:100960000068039905F0E8FE04980168486D40F4BA
:100970000060486504980168486D20F4806048650F
:100980000398026904980168486D40EA02204865AE
:1009900003E001208DF80700FFE7FFE7049900203E
:1009A00081F83C00FFE79DF807008DF81700FFE78E
:1009B0009DF8170006B080BD80B582B00090009809
:1009C00020B9FFE701208DF8070045E0009890F876
:1009D0003D0040B9FFE70099002081F83C000098F5
:1009E00000F03EF8FFE70099022081F83D000099F1
:1009F00051F8040B05F08CF90099012081F84800AA
:100A0000FFE70099012081F83E00009981F83F003E
:100A1000009981F84000009981F84100009981F81F
:100A20004200009981F84300FFE7FFE700990120A9
:100A300081F84400009981F84500009981F846004A
:100A4000009981F84700FFE70099012081F83D00F7
:100A500000208DF80700FFE79DF8070002B080BD79
:100A600081B0009001B0704781B0009001B0704734
:100A700081B0009001B0704780B590B00E900D919C
:100A80000D9828B9FFE70E9890F83E000B9034E0DF
:100A90000D98042805D1FFE70E9890F83F000A90C2
:100AA00028E00D98082805D1FFE70E9890F840003F
:100AB00009901CE00D980C2805D1FFE70E9890F8DE
:100AC0004100089010E00D98102805D1FFE70E981E
:100AD00090F84200079004E00E9890F843000790C9
:100AE000FFE707980890FFE708980990FFE7099843
:100AF0000A90FFE70A980B90FFE70B98012804D0B3
:100B0000FFE701208DF83F0003E10D9828B9FFE7CA
:100B10000E99022081F83E0038E00D98042806D195
:100B2000FFE70E99022081F83F0006902CE00D9817
:100B3000082806D1FFE70E99022081F840000590B1
:100B40001FE00D980C2806D1FFE70E99022081F8CE
:100B50004100049012E00D98102806D1FFE70E998D
:100B6000022081F84200039005E00E99022081F8EE
:100B700043000390FFE703980490FFE70498059073
:100B8000FFE705980690FFE70698FFE70E980068D4
:100B90000D990122019205F0A3F901980E990968B7
:100BA0000022C4F20102914202902DD0FFE70E987C
:100BB0000168012040F20042C4F201029142029019
:100BC00022D0FFE70E980168012044F20002C4F22F
:100BD00001029142029017D0FFE70E9801680120B0
:100BE00044F20042C4F20102914202900CD0FFE7AD
:100BF0000E9800684BF60001CBF6FE710844B0FA7F
:100C000080F040090290FFE70298C00738B1FFE783
:100C10000E980168486C40F400404864FFE70E9865
:100C200000680021C4F2010188424ED0FFE70E980F
:100C30000068B0F1804F48D0FFE70E98006840F29E
:100C40000041C4F2000188423FD0FFE70E980068DF
:100C500040F60001C4F20001884236D0FFE70E984A
:100C6000006840F60041C4F2000188422DD0FFE741
:100C70000E98006840F20041C4F20101884224D07D
:100C8000FFE70E98006841F60001C4F200018842B7
:100C90001BD0FFE70E98006844F20001C4F2010186
:100CA000884212D0FFE70E9800684EF20001C4F2AD
:100CB0000001884209D0FFE70E9800684EF200411B
:100CC000C4F20001884219D1FFE70E9800688068DD
:100CD0000721C0F2010108400C900C9806280CD0A6
:100CE000FFE70C98B0F5803F07D0FFE70E9801684A
:100CF000086840F001000860FFE706E00E98016810
:100D0000086840F001000860FFE700208DF83F0010
:100D1000FFE79DF83F0010B080BD0000000000001C
:100D200080B598B0169015911492ADF84E30002011
:100D30008DF84D00159828B9FFE7169890F83E00F9
:100D4000119034E01598042805D1FFE7169890F823
:100D50003F00109028E01598082805D1FFE7169865
:100D600090F840000F901CE015980C2805D1FFE783
:100D7000169890F841000E9010E01598102805D1B3
:100D8000FFE7169890F842000D9004E0169890F84E
:100D900043000D90FFE70D980E90FFE70E980F901F
:100DA000FFE70F981090FFE710981190FFE7119858
:100DB000022804D1FFE702208DF85F001DE215989C
:100DC00028B9FFE7169890F83E000C9034E015988B
:100DD000042805D1FFE7169890F83F000B9028E013
:100DE0001598082805D1FFE7169890F840000A905A
:100DF0001CE015980C2805D1FFE7169890F84100E3
:100E0000099010E01598102805D1FFE7169890F882
:100E10004200089004E0169890F843000890FFE71D
:100E200008980990FFE709980A90FFE70A980B9045
:100E3000FFE70B980C90FFE70C9801284ED1FFE7D5
:100E4000149820B1FFE7BDF84E0020B9FFE701205C
:100E50008DF85F00D1E1159828B9FFE716990220B7
:100E600081F83E0038E01598042806D1FFE716996E
:100E7000022081F83F0007902CE01598082806D141
:100E8000FFE71699022081F8400006901FE01598B0
:100E90000C2806D1FFE71699022081F84100059041
:100EA00012E01598102806D1FFE71699022081F864
:100EB0004200049005E01699022081F84300049056
:100EC000FFE704980590FFE705980690FFE706986E
:100ED0000790FFE70798FFE7FFE703E001208DF8A1
:100EE0005F008AE1FFE7159803900C2800F2B680B6
:100EF0000399DFE801F007B3B3B332B3B3B35DB323
:100F0000B3B388001698416A45F61970C0F601001F
:100F1000C8631698416A45F6D970C0F601000864A6
:100F20001698416A46F25100C0F60100C86416984E
:100F30000268406A14993432BDF84E30F7F7ECFB82
:100F400020B1FFE701208DF85F0056E11698016897
:100F5000C86840F40070C86084E01698816A45F65D
:100F60001970C0F60100C8631698816A45F6D970F9
:100F7000C0F6010008641698816A46F25100C0F676
:100F80000100C86416980268806A14993832BDF866
:100F90004E30F7F7C1FB20B1FFE701208DF85F006D
:100FA0002BE116980168C86840F48060C86059E079
:100FB0001698C16A45F61970C0F60100C863169804
:100FC000C16A45F6D970C0F6010008641698C16A76
:100FD00046F25100C0F60100C86416980268C06A63
:100FE00014993C32BDF84E30F7F796FB20B1FFE77D
:100FF00001208DF85F0000E116980168C86840F490
:101000000060C8602EE01698016B45F61970C0F6B6
:101010000100C8631698016B45F6D970C0F601004F
:1010200008641698016B46F25100C0F60100C864CE
:1010300016980268006B14994032BDF84E30F7F7ED
:101040006BFB20B1FFE701208DF85F00D5E016981B
:101050000168C86840F48050C86003E001208DF842
:101060004D00FFE79DF84D00002840F0C180FFE7EC
:101070001698006815990122019204F031FF019839
:10108000169909680022C4F20102914202902DD003
:10109000FFE716980168012040F20042C4F2010205
:1010A0009142029022D0FFE716980168012044F295
:1010B0000002C4F201029142029017D0FFE7169895
:1010C0000168012044F20042C4F201029142029000
:1010D0000CD0FFE7169800684BF60001CBF6FE71C6
:1010E0000844B0FA80F040090290FFE70298C00778
:1010F00038B1FFE716980168486C40F40040486436
:10110000FFE7169800680021C4F2010188424ED022
:10111000FFE716980068B0F1804F48D0FFE71698B7
:10112000006840F20041C4F2000188423FD0FFE76E
:101130001698006840F60001C4F20001884236D0DB
:10114000FFE71698006840F60041C4F200018842AB
:101150002DD0FFE71698006840F20041C4F201016B
:10116000884224D0FFE71698006841F60001C4F2D7
:10117000000188421BD0FFE71698006844F2000186
:10118000C4F20101884212D0FFE7169800684EF2BF
:101190000001C4F20001884209D0FFE716980068F8
:1011A0004EF20041C4F20001884219D1FFE71698BF
:1011B000006880680721C0F201010840129012986F
:1011C00006280CD0FFE71298B0F5803F07D0FFE764
:1011D00016980168086840F001000860FFE706E023
:1011E00016980168086840F001000860FFE7FFE713
:1011F0009DF84D008DF85F00FFE79DF85F0018B087
:1012000080BD00000000000080B582B00190019810
:10121000006841F20001C4F20001884203D1FFE7F7
:10122000F9F7FAF9FFE702B080BD00000000000006
:1012300081B0009001B0704783B00190FFE7019842
:1012400090F88400012804D1FFE702208DF80B00FC
:101250002CE00199012081F88400FFE7FFE7019964
:101260002420C1F888000198006800680090019867
:101270000168086820F001000860009820F0005024
:10128000009001990020486600980199096808605B
:1012900001992020C1F88800FFE70199002081F81A
:1012A0008400FFE700208DF80B00FFE79DF80B009E
:1012B00003B070470000000080B584B00290FFE7E3
:1012C000029890F88400012804D1FFE702208DF8ED
:1012D0000F0030E00299012081F88400FFE7FFE76A
:1012E00002992420C1F888000298006800680190E3
:1012F00002980168086820F001000860019840F039
:101300000050019002994FF00050486601980299F0
:1013100009680860029805F0E7FB02992020C1F8EF
:101320008800FFE70299002081F88400FFE7002091
:101330008DF80F00FFE79DF80F0004B080BD00009E
:1013400082B00190ADF8021002B0704700000000BA
:1013500081B0009001B0704780B584B002900191D7
:10136000FFE7029890F88400012804D1FFE70220EB
:101370008DF80F0032E00299012081F88400FFE728
:10138000FFE702992420C1F88800029800680068ED
:10139000009002980168086820F001000860029837
:1013A0000068806820F0606001990843029909682C
:1013B0008860029805F098FB009802990968086017
:1013C00002992020C1F88800FFE70299002081F8E7
:1013D0008400FFE700208DF80F00FFE79DF80F0065
:1013E00004B080BD0000000080B584B0029001917F
:1013F000FFE7029890F88400012804D1FFE702205B
:101400008DF80F0032E00299012081F88400FFE797
:10141000FFE702992420C1F888000298006800685C
:10142000009002980168086820F0010008600298A6
:101430000068806820F060400199084302990968BB
:101440008860029805F050FB0098029909680860CE
:1014500002992020C1F88800FFE70299002081F856
:101460008400FFE700208DF80F00FFE79DF80F00D4
:1014700004B080BD0000000081B0009001B0704752
:1014800081B0009001B0704780B586B00490049898
:10149000D0F8880003900498D0F88C00029004984B
:1014A000006880680006002836D5FFE703982128E9
:1014B00032D1FFE7FFE7FFE70498006850E8020F2A
:1014C00020F080000190FFE701990498026842E84B
:1014D00002100028F0D1FFE7FFE70498C06FB8B111
:1014E000FFE70498C06FF4F76BFB80B1FFE7049847
:1014F000C06FF5F779FB202808D1FFE70499102089
:10150000C1F8900003208DF8170049E0FFE7FFE7DE
:10151000049805F0D5FDFFE7049800688068400650
:10152000002839D5FFE70298222835D1FFE7FFE7E9
:10153000FFE70498006850E8020F20F04000009098
:10154000FFE700990498026842E802100028F0D1F1
:10155000FFE7FFE70498D0F88000C8B1FFE70498E0
:10156000D0F88000F4F72CFB88B1FFE70498D0F89E
:101570008000F5F739FB202808D1FFE704991020F7
:10158000C1F8900003208DF8170009E0FFE7FFE79E
:10159000049805F021FDFFE700208DF81700FFE714
:1015A0009DF8170006B080BD81B0009001B0704773
:1015B00080B592B0119011980068C0691090119890
:1015C000006800680F901198006880680E9010986D
:1015D00040F60F0108400D900D98E0B9FFE79DF827
:1015E00040008006002815D5FFE79DF83C008006E6
:1015F000002806D4FFE79DF83B00C006002809D567
:10160000FFE71198406F20B1FFE71198416F8847BD
:10161000FFE72FE3FFE70D98002800F00C81FFE7BC
:101620000E980121C1F20001084209D1FFE70F988D
:1016300040F22011C0F20041084200F0FC80FFE7B8
:101640009DF84000C00788B1FFE79DF83D00C00746
:1016500060B1FFE711980168012008621199D1F883
:10166000900040F00100C1F89000FFE79DF84000B5
:101670008007002811D5FFE79DF83800C00760B14A
:10168000FFE711980168022008621199D1F89000D3
:1016900040F00400C1F89000FFE79DF840004007CB
:1016A000002811D5FFE79DF83800C00760B1FFE7BB
:1016B00011980168042008621199D1F8900040F057
:1016C0000200C1F89000FFE79DF8400000070028E5
:1016D00019D5FFE79DF83C008006002807D4FFE7F6
:1016E0000E980121C1F2000108420CD0FFE71198C9
:1016F0000168082008621199D1F8900040F00800B4
:10170000C1F89000FFE79DF841000007002813D5BD
:10171000FFE79DF83F00400700280DD5FFE711982F
:1017200001684FF4006008621199D1F8900040F010
:101730002000C1F89000FFE71198D0F89000002831
:1017400078D0FFE79DF840008006002815D5FFE718
:101750009DF83C008006002806D4FFE79DF83B007A
:10176000C006002809D5FFE71198406F20B1FFE7B8
:101770001198416F8847FFE7FFE71198D0F8900074
:101780000C9011980068806800F04000402806D056
:10179000FFE79DF8300010F0280F42D0FFE71198C6
:1017A00005F01AFC1198006880684006002833D5BF
:1017B000FFE7FFE7FFE71198006850E8020F20F00D
:1017C00040000B90FFE70B991198026842E8021065
:1017D0000028F0D1FFE7FFE71198D0F88000B0B102
:1017E000FFE71198D0F8801046F60160C0F60100BE
:1017F00008651198D0F88000F4F79EFE30B1FFE73D
:101800001198D0F88000016D8847FFE703E0119838
:10181000FFF7CAFEFFE703E01198FFF7C5FEFFE7F9
:1018200007E01198FFF7C0FE11990020C1F8900061
:10183000FFE7FFE71EE21198C06E012840F0BB8170
:10184000FFE79DF84000C006002840F1B481FFE7A3
:101850009DF83C00C006002840F1AD81FFE71198DB
:10186000016810200862119800688068400600280E
:1018700040F13F81FFE71198D0F880000068102107
:10188000C4F20201884200F0A280FFE71198D0F86C
:10189000800000682821C4F20201884200F097808D
:1018A000FFE71198D0F8800000684021C4F20201DF
:1018B000884200F08C80FFE71198D0F88000006823
:1018C0005821C4F20201884200F08180FFE711989C
:1018D000D0F8800000687021C4F20201884276D0FE
:1018E000FFE71198D0F8800000688821C4F2020157
:1018F00088426CD0FFE71198D0F880000068A021E2
:10190000C4F20201884262D0FFE71198D0F880004B
:101910000068B821C4F20201884258D0FFE711984C
:10192000D0F88000006840F21041C4F20201884201
:101930004DD0FFE71198D0F88000006840F22841B0
:10194000C4F20201884242D0FFE71198D0F880002B
:10195000006840F24041C4F20201884237D0FFE7FC
:101960001198D0F88000006840F25841C4F202019A
:1019700088422CD0FFE71198D0F88000006840F230
:101980007041C4F20201884221D0FFE71198D0F8DB
:101990008000006840F28841C4F20201884216D0FB
:1019A000FFE71198D0F88000006840F2A041C4F22F
:1019B000020188420BD0FFE71198D0F88000006840
:1019C00040F2B841C4F20201884207D1FFE7119802
:1019D000D0F8800000684068019006E01198D0F8C7
:1019E0008000006840680190FFE70198ADF82A0088
:1019F000BDF82A0000287BD0FFE7BDF82A00119926
:101A0000B1F85C10884273DAFFE7BDF82A0011993B
:101A1000A1F85E001198D0F88000C069B0F5807F11
:101A200059D0FFE7FFE7FFE71198006850E8000F83
:101A300020F480700990FFE709991198026842E844
:101A400000100028F0D1FFE7FFE7FFE7FFE711985C
:101A5000006850E8020F20F001000890FFE70899A5
:101A60001198026842E802100028F0D1FFE7FFE772
:101A7000FFE7FFE71198006850E8020F20F04000F0
:101A80000790FFE707991198026842E802100028C2
:101A9000F0D1FFE7FFE711992020C1F88C001199E0
:101AA0000020C866FFE7FFE71198006850E8000FC4
:101AB00020F010000690FFE706991198026842E8AE
:101AC00000100028F0D1FFE7FFE71198D0F8800060
:101AD000F4F776F8FFE71199022008671198B0F83B
:101AE0005C10B0F85E20891A89B2FFF729FCFFE785
:101AF000C0E01199B1F85C00B1F85E10401AADF881
:101B000016001198B0F85E00002853D0FFE7BDF82A
:101B1000160000284ED0FFE7FFE7FFE711980068A6
:101B200050E8000F20F490700490FFE7049911989A
:101B3000026842E800100028F0D1FFE7FFE7FFE766
:101B4000FFE71198006850E8020F4FF6FE71CEF6DD
:101B5000FF7108400390FFE703991198026842E87B
:101B600002100028EDD1FFE7FFE711992020C1F80E
:101B70008C0011990020C86611994867FFE7FFE7BC
:101B80001198006850E8000F20F010000290FFE765
:101B900002991198026842E800100028F0D1FFE78E
:101BA000FFE71199022008671198BDF81610FFF79A
:101BB000C7FBFFE75EE09DF84200C00600280FD596
:101BC000FFE79DF83A004006002809D5FFE7119885
:101BD00001684FF4801008621198FFF751FC49E04A
:101BE0009DF840000006002815D5FFE79DF83C0051
:101BF0000006002806D4FFE79DF83A0000060028FA
