Component: Arm Compiler for Embedded 6.19 Tool: armlink [5e73cb00]

==============================================================================

Section Cross References

    startup_stm32h723xx.o(RESET) refers to startup_stm32h723xx.o(STACK) for __initial_sp
    startup_stm32h723xx.o(RESET) refers to startup_stm32h723xx.o(.text) for Reset_Handler
    startup_stm32h723xx.o(RESET) refers to stm32h7xx_it.o(.text.NMI_Handler) for NMI_Handler
    startup_stm32h723xx.o(RESET) refers to stm32h7xx_it.o(.text.HardFault_Handler) for HardFault_Handler
    startup_stm32h723xx.o(RESET) refers to stm32h7xx_it.o(.text.MemManage_Handler) for MemManage_Handler
    startup_stm32h723xx.o(RESET) refers to stm32h7xx_it.o(.text.BusFault_Handler) for BusFault_Handler
    startup_stm32h723xx.o(RESET) refers to stm32h7xx_it.o(.text.UsageFault_Handler) for UsageFault_Handler
    startup_stm32h723xx.o(RESET) refers to port.o(.text.SVC_Handler) for SVC_Handler
    startup_stm32h723xx.o(RESET) refers to stm32h7xx_it.o(.text.DebugMon_Handler) for DebugMon_Handler
    startup_stm32h723xx.o(RESET) refers to port.o(.text.PendSV_Handler) for PendSV_Handler
    startup_stm32h723xx.o(RESET) refers to cmsis_os2.o(.text.SysTick_Handler) for SysTick_Handler
    startup_stm32h723xx.o(RESET) refers to stm32h7xx_it.o(.text.EXTI0_IRQHandler) for EXTI0_IRQHandler
    startup_stm32h723xx.o(RESET) refers to stm32h7xx_it.o(.text.EXTI1_IRQHandler) for EXTI1_IRQHandler
    startup_stm32h723xx.o(RESET) refers to stm32h7xx_it.o(.text.EXTI2_IRQHandler) for EXTI2_IRQHandler
    startup_stm32h723xx.o(RESET) refers to stm32h7xx_it.o(.text.DMA1_Stream0_IRQHandler) for DMA1_Stream0_IRQHandler
    startup_stm32h723xx.o(RESET) refers to stm32h7xx_it.o(.text.DMA1_Stream1_IRQHandler) for DMA1_Stream1_IRQHandler
    startup_stm32h723xx.o(RESET) refers to stm32h7xx_it.o(.text.DMA1_Stream2_IRQHandler) for DMA1_Stream2_IRQHandler
    startup_stm32h723xx.o(RESET) refers to stm32h7xx_it.o(.text.FDCAN1_IT0_IRQHandler) for FDCAN1_IT0_IRQHandler
==============================================================================

Removing Unused input sections from the image.

    Removing main.o(.text), (0 bytes).
    Removing main.o(.ARM.exidx.text.main), (8 bytes).
    Removing main.o(.ARM.exidx.text.SystemClock_Config), (8 bytes).
    Removing main.o(.ARM.exidx.text.Error_Handler), (8 bytes).
    Removing main.o(.ARM.exidx.text.HAL_TIM_PeriodElapsedCallback), (8 bytes).
    Removing main.o(.ARM.use_no_argv), (4 bytes).
    Removing gpio.o(.text), (0 bytes).
    Removing gpio.o(.ARM.exidx.text.MX_GPIO_Init), (8 bytes).
    Removing freertos.o(.text), (0 bytes).
    Removing freertos.o(.ARM.exidx.text.MX_FREERTOS_Init), (8 bytes).
    Removing freertos.o(.ARM.exidx.text.StartDefaultTask), (8 bytes).
    Removing freertos.o(.ARM.exidx.text.StartTask_imu), (8 bytes).
    Removing freertos.o(.ARM.exidx.text.StartTask_Chassis), (8 bytes).
    Removing freertos.o(.ARM.exidx.text.StartTask_LED), (8 bytes).
    Removing freertos.o(.ARM.exidx.text.StartTask_observe), (8 bytes).
    Removing freertos.o(.ARM.exidx.text.StartTask_vmc), (8 bytes).
    Removing freertos.o(.ARM.exidx.text.StartTask_adc), (8 bytes).
    Removing freertos.o(.ARM.exidx.text.StartTask_motorError), (8 bytes).
==============================================================================

Image Symbol Table

    Local Symbols

    Symbol Name                              Value     Ov Type        Size  Object(Section)

    ../clib/../cmprslib/zerorunl.c           0x00000000   Number         0  __dczerorl.o ABSOLUTE
    ../clib/division.s                       0x00000000   Number         0  aeabi_sdiv.o ABSOLUTE
    ../clib/microlib/ctype/ctype.c           0x00000000   Number         0  isspace_c.o ABSOLUTE
    ../clib/microlib/ctype/ctype.c           0x00000000   Number         0  ctype_c.o ABSOLUTE
    ../clib/microlib/division.c              0x00000000   Number         0  uldiv.o ABSOLUTE
    ../clib/microlib/division.c              0x00000000   Number         0  uidiv.o ABSOLUTE
    ../clib/microlib/errno.c                 0x00000000   Number         0  errno.o ABSOLUTE
    ../clib/microlib/init/entry.s            0x00000000   Number         0  entry.o ABSOLUTE
    ../clib/microlib/init/entry.s            0x00000000   Number         0  entry2.o ABSOLUTE
    ../clib/microlib/init/entry.s            0x00000000   Number         0  entry5.o ABSOLUTE
    ../clib/microlib/init/entry.s            0x00000000   Number         0  entry7a.o ABSOLUTE
    ../clib/microlib/init/entry.s            0x00000000   Number         0  entry7b.o ABSOLUTE
    ../clib/microlib/init/entry.s            0x00000000   Number         0  entry8a.o ABSOLUTE
    ../clib/microlib/init/entry.s            0x00000000   Number         0  entry8b.o ABSOLUTE
    ../clib/microlib/init/entry.s            0x00000000   Number         0  entry9a.o ABSOLUTE
    ../clib/microlib/init/entry.s            0x00000000   Number         0  entry9b.o ABSOLUTE
    ../clib/microlib/init/entry.s            0x00000000   Number         0  entry10a.o ABSOLUTE
    ../clib/microlib/init/entry.s            0x00000000   Number         0  entry10b.o ABSOLUTE
    ../clib/microlib/init/entry.s            0x00000000   Number         0  entry11a.o ABSOLUTE
    ../clib/microlib/init/entry.s            0x00000000   Number         0  entry11b.o ABSOLUTE
    ../clib/microlib/longlong.c              0x00000000   Number         0  llshl.o ABSOLUTE
    ../clib/microlib/longlong.c              0x00000000   Number         0  llushr.o ABSOLUTE
    ../clib/microlib/longlong.c              0x00000000   Number         0  llsshr.o ABSOLUTE
    ../clib/microlib/malloc/malloc.c         0x00000000   Number         0  malloc.o ABSOLUTE
    ../clib/microlib/malloc/malloc.c         0x00000000   Number         0  mallocr.o ABSOLUTE
    ../clib/microlib/malloc/malloc.c         0x00000000   Number         0  malloca.o ABSOLUTE
    ../clib/microlib/malloc/malloc.c         0x00000000   Number         0  mallocra.o ABSOLUTE
    ../clib/microlib/malloc/mvars.c          0x00000000   Number         0  mvars.o ABSOLUTE
    ../clib/microlib/printf/printf.c         0x00000000   Number         0  printfa.o ABSOLUTE
    ../clib/microlib/stdio/streams.c         0x00000000   Number         0  stdout.o ABSOLUTE
    ../clib/microlib/stdlib/abs.c            0x00000000   Number         0  siabs.o ABSOLUTE
    ../clib/microlib/stdlib/abs.c            0x00000000   Number         0  ilabs.o ABSOLUTE
    ../clib/microlib/string/memcmp.c         0x00000000   Number         0  memcmp.o ABSOLUTE
    ../clib/microlib/string/memcpy.c         0x00000000   Number         0  memcpya.o ABSOLUTE
    ../clib/microlib/string/memcpy.c         0x00000000   Number         0  memcpyb.o ABSOLUTE
    ../clib/microlib/string/memset.c         0x00000000   Number         0  memseta.o ABSOLUTE
    ../clib/microlib/string/strcmp.c         0x00000000   Number         0  strcmp.o ABSOLUTE
    ../clib/microlib/string/strlen.c         0x00000000   Number         0  strlen.o ABSOLUTE
    ../clib/microlib/stubs.s                 0x00000000   Number         0  iusefp.o ABSOLUTE
    ../clib/scanf.c                          0x00000000   Number         0  strtod.o ABSOLUTE
    ../clib/scanf.c                          0x00000000   Number         0  scanf_fp.o ABSOLUTE
    ../clib/scanf.c                          0x00000000   Number         0  _sgetc.o ABSOLUTE
    ../fplib/microlib/d2f.c                  0x00000000   Number         0  d2f.o ABSOLUTE
    ../fplib/microlib/fpadd.c                0x00000000   Number         0  dadd.o ABSOLUTE
    ../fplib/microlib/fpdiv.c                0x00000000   Number         0  ddiv.o ABSOLUTE
    ../fplib/microlib/fpepilogue.c           0x00000000   Number         0  depilogue.o ABSOLUTE
    ../fplib/microlib/fpepilogue.c           0x00000000   Number         0  fepilogue.o ABSOLUTE
    ../fplib/microlib/fpfix.c                0x00000000   Number         0  dfixul.o ABSOLUTE
    ../fplib/microlib/fpflt.c                0x00000000   Number         0  dfltul.o ABSOLUTE
    ../fplib/microlib/fpmul.c                0x00000000   Number         0  dmul.o ABSOLUTE
    ../mathlib/acosf.c                       0x00000000   Number         0  acosf.o ABSOLUTE
    ../mathlib/asinf.c                       0x00000000   Number         0  asinf.o ABSOLUTE
    ../mathlib/atan2f.c                      0x00000000   Number         0  atan2f.o ABSOLUTE
    ../mathlib/atof.c                        0x00000000   Number         0  atof.o ABSOLUTE
    ../mathlib/fpclassifyf.c                 0x00000000   Number         0  fpclassifyf.o ABSOLUTE
    ../mathlib/funder.c                      0x00000000   Number         0  funder.o ABSOLUTE
    ../mathlib/sqrt.c                        0x00000000   Number         0  sqrt.o ABSOLUTE
    ../mathlib/sqrtf.c                       0x00000000   Number         0  sqrtf.o ABSOLUTE
    BMI088Middleware.c                       0x00000000   Number         0  bmi088middleware.o ABSOLUTE
    BMI088driver.c                           0x00000000   Number         0  bmi088driver.o ABSOLUTE
    DEFS_Parser.c                            0x00000000   Number         0  defs_parser.o ABSOLUTE
    INS_task.c                               0x00000000   Number         0  ins_task.o ABSOLUTE
    QuaternionEKF.c                          0x00000000   Number         0  quaternionekf.o ABSOLUTE
    adc.c                                    0x00000000   Number         0  adc.o ABSOLUTE
    arm_common_tables.c                      0x00000000   Number         0  arm_common_tables.o ABSOLUTE
    arm_cos_f32.c                            0x00000000   Number         0  arm_cos_f32.o ABSOLUTE
    arm_mat_add_f32.c                        0x00000000   Number         0  arm_mat_add_f32.o ABSOLUTE
    arm_mat_init_f32.c                       0x00000000   Number         0  arm_mat_init_f32.o ABSOLUTE
    arm_mat_inverse_f32.c                    0x00000000   Number         0  arm_mat_inverse_f32.o ABSOLUTE
    arm_mat_mult_f32.c                       0x00000000   Number         0  arm_mat_mult_f32.o ABSOLUTE
    arm_mat_sub_f32.c                        0x00000000   Number         0  arm_mat_sub_f32.o ABSOLUTE
    arm_mat_trans_f32.c                      0x00000000   Number         0  arm_mat_trans_f32.o ABSOLUTE
    arm_sin_f32.c                            0x00000000   Number         0  arm_sin_f32.o ABSOLUTE
    bsp_can.c                                0x00000000   Number         0  bsp_can.o ABSOLUTE
    bsp_dwt.c                                0x00000000   Number         0  bsp_dwt.o ABSOLUTE
    bsp_ext.c                                0x00000000   Number         0  bsp_ext.o ABSOLUTE
    bsp_motor.c                              0x00000000   Number         0  bsp_motor.o ABSOLUTE
    cdrcmple.s                               0x00000000   Number         0  cdrcmple.o ABSOLUTE
    chassis_task.c                           0x00000000   Number         0  chassis_task.o ABSOLUTE
    cmsis_os2.c                              0x00000000   Number         0  cmsis_os2.o ABSOLUTE
    crc8_maxim.c                             0x00000000   Number         0  crc8_maxim.o ABSOLUTE
    croutine.c                               0x00000000   Number         0  croutine.o ABSOLUTE
    dc.s                                     0x00000000   Number         0  dc.o ABSOLUTE
    dma.c                                    0x00000000   Number         0  dma.o ABSOLUTE
    event_groups.c                           0x00000000   Number         0  event_groups.o ABSOLUTE
    fdcan.c                                  0x00000000   Number         0  fdcan.o ABSOLUTE
    freertos.c                               0x00000000   Number         0  freertos.o ABSOLUTE
    gpio.c                                   0x00000000   Number         0  gpio.o ABSOLUTE
    handlers.s                               0x00000000   Number         0  handlers.o ABSOLUTE
    heap_4.c                                 0x00000000   Number         0  heap_4.o ABSOLUTE
    init.s                                   0x00000000   Number         0  init.o ABSOLUTE
    kalman_filter.c                          0x00000000   Number         0  kalman_filter.o ABSOLUTE
    list.c                                   0x00000000   Number         0  list.o ABSOLUTE
    mahony_filter.c                          0x00000000   Number         0  mahony_filter.o ABSOLUTE
    main.c                                   0x00000000   Number         0  main.o ABSOLUTE
    observe_task.c                           0x00000000   Number         0  observe_task.o ABSOLUTE
    pid.c                                    0x00000000   Number         0  pid.o ABSOLUTE
    port.c                                   0x00000000   Number         0  port.o ABSOLUTE
    queue.c                                  0x00000000   Number         0  queue.o ABSOLUTE
    rc.c                                     0x00000000   Number         0  rc.o ABSOLUTE
    spi.c                                    0x00000000   Number         0  spi.o ABSOLUTE
    startup_stm32h723xx.s                    0x00000000   Number         0  startup_stm32h723xx.o ABSOLUTE
    stm32h7xx_hal.c                          0x00000000   Number         0  stm32h7xx_hal.o ABSOLUTE
    stm32h7xx_hal_adc.c                      0x00000000   Number         0  stm32h7xx_hal_adc.o ABSOLUTE
    stm32h7xx_hal_adc_ex.c                   0x00000000   Number         0  stm32h7xx_hal_adc_ex.o ABSOLUTE
    stm32h7xx_hal_cortex.c                   0x00000000   Number         0  stm32h7xx_hal_cortex.o ABSOLUTE
    stm32h7xx_hal_dma.c                      0x00000000   Number         0  stm32h7xx_hal_dma.o ABSOLUTE
    stm32h7xx_hal_dma_ex.c                   0x00000000   Number         0  stm32h7xx_hal_dma_ex.o ABSOLUTE
    stm32h7xx_hal_exti.c                     0x00000000   Number         0  stm32h7xx_hal_exti.o ABSOLUTE
    stm32h7xx_hal_fdcan.c                    0x00000000   Number         0  stm32h7xx_hal_fdcan.o ABSOLUTE
    stm32h7xx_hal_flash.c                    0x00000000   Number         0  stm32h7xx_hal_flash.o ABSOLUTE
    stm32h7xx_hal_flash_ex.c                 0x00000000   Number         0  stm32h7xx_hal_flash_ex.o ABSOLUTE
    stm32h7xx_hal_gpio.c                     0x00000000   Number         0  stm32h7xx_hal_gpio.o ABSOLUTE
    stm32h7xx_hal_hsem.c                     0x00000000   Number         0  stm32h7xx_hal_hsem.o ABSOLUTE
    stm32h7xx_hal_i2c.c                      0x00000000   Number         0  stm32h7xx_hal_i2c.o ABSOLUTE
    stm32h7xx_hal_i2c_ex.c                   0x00000000   Number         0  stm32h7xx_hal_i2c_ex.o ABSOLUTE
    stm32h7xx_hal_mdma.c                     0x00000000   Number         0  stm32h7xx_hal_mdma.o ABSOLUTE
    stm32h7xx_hal_msp.c                      0x00000000   Number         0  stm32h7xx_hal_msp.o ABSOLUTE
    stm32h7xx_hal_pcd.c                      0x00000000   Number         0  stm32h7xx_hal_pcd.o ABSOLUTE
    stm32h7xx_hal_pcd_ex.c                   0x00000000   Number         0  stm32h7xx_hal_pcd_ex.o ABSOLUTE
    stm32h7xx_hal_pwr.c                      0x00000000   Number         0  stm32h7xx_hal_pwr.o ABSOLUTE
    stm32h7xx_hal_pwr_ex.c                   0x00000000   Number         0  stm32h7xx_hal_pwr_ex.o ABSOLUTE
    stm32h7xx_hal_rcc.c                      0x00000000   Number         0  stm32h7xx_hal_rcc.o ABSOLUTE
    stm32h7xx_hal_rcc_ex.c                   0x00000000   Number         0  stm32h7xx_hal_rcc_ex.o ABSOLUTE
    stm32h7xx_hal_spi.c                      0x00000000   Number         0  stm32h7xx_hal_spi.o ABSOLUTE
    stm32h7xx_hal_spi_ex.c                   0x00000000   Number         0  stm32h7xx_hal_spi_ex.o ABSOLUTE
    stm32h7xx_hal_tim.c                      0x00000000   Number         0  stm32h7xx_hal_tim.o ABSOLUTE
    stm32h7xx_hal_tim_ex.c                   0x00000000   Number         0  stm32h7xx_hal_tim_ex.o ABSOLUTE
    stm32h7xx_hal_timebase_tim.c             0x00000000   Number         0  stm32h7xx_hal_timebase_tim.o ABSOLUTE
    stm32h7xx_hal_uart.c                     0x00000000   Number         0  stm32h7xx_hal_uart.o ABSOLUTE
    stm32h7xx_hal_uart_ex.c                  0x00000000   Number         0  stm32h7xx_hal_uart_ex.o ABSOLUTE
    stm32h7xx_it.c                           0x00000000   Number         0  stm32h7xx_it.o ABSOLUTE
    stm32h7xx_ll_usb.c                       0x00000000   Number         0  stm32h7xx_ll_usb.o ABSOLUTE
    stream_buffer.c                          0x00000000   Number         0  stream_buffer.o ABSOLUTE
    system_stm32h7xx.c                       0x00000000   Number         0  system_stm32h7xx.o ABSOLUTE
    tasks.c                                  0x00000000   Number         0  tasks.o ABSOLUTE
    tim.c                                    0x00000000   Number         0  tim.o ABSOLUTE
    timers.c                                 0x00000000   Number         0  timers.o ABSOLUTE
    usart.c                                  0x00000000   Number         0  usart.o ABSOLUTE
    usb_device.c                             0x00000000   Number         0  usb_device.o ABSOLUTE
    usbd_cdc.c                               0x00000000   Number         0  usbd_cdc.o ABSOLUTE
    usbd_cdc_if.c                            0x00000000   Number         0  usbd_cdc_if.o ABSOLUTE
    usbd_conf.c                              0x00000000   Number         0  usbd_conf.o ABSOLUTE
    usbd_core.c                              0x00000000   Number         0  usbd_core.o ABSOLUTE
    usbd_ctlreq.c                            0x00000000   Number         0  usbd_ctlreq.o ABSOLUTE
    usbd_desc.c                              0x00000000   Number         0  usbd_desc.o ABSOLUTE
    usbd_ioreq.c                             0x00000000   Number         0  usbd_ioreq.o ABSOLUTE
    vmc.c                                    0x00000000   Number         0  vmc.o ABSOLUTE
    xbox.c                                   0x00000000   Number         0  xbox.o ABSOLUTE
    RESET                                    0x08000000   Section      716  startup_stm32h723xx.o(RESET)
    .ARM.Collect$$$$00000000                 0x080002cc   Section        0  entry.o(.ARM.Collect$$$$00000000)
    .ARM.Collect$$$$00000001                 0x080002cc   Section        4  entry2.o(.ARM.Collect$$$$00000001)
    .ARM.Collect$$$$00000004                 0x080002d0   Section        4  entry5.o(.ARM.Collect$$$$00000004)
    .ARM.Collect$$$$00000008                 0x080002d4   Section        0  entry7b.o(.ARM.Collect$$$$00000008)
    .ARM.Collect$$$$0000000A                 0x080002d4   Section        0  entry8b.o(.ARM.Collect$$$$0000000A)
    .ARM.Collect$$$$0000000B                 0x080002d4   Section        8  entry9a.o(.ARM.Collect$$$$0000000B)
    __lit__00000000                          0x080002dc   Data           4  entry2.o(.ARM.Collect$$$$00002712)
    .ARM.Collect$$$$0000000D                 0x080002dc   Section        0  entry10a.o(.ARM.Collect$$$$0000000D)
    .ARM.Collect$$$$0000000F                 0x080002dc   Section        0  entry11a.o(.ARM.Collect$$$$0000000F)
    .ARM.Collect$$$$00002712                 0x080002dc   Section        4  entry2.o(.ARM.Collect$$$$00002712)
    $v0                                      0x080002e0   Number         0  startup_stm32h723xx.o(.text)
    .text                                    0x080002e0   Section       36  startup_stm32h723xx.o(.text)
    .text                                    0x08000304   Section        0  uldiv.o(.text)
    .text                                    0x08000366   Section        0  memcpya.o(.text)
    .text                                    0x0800038a   Section        0  memseta.o(.text)
    .text                                    0x080003ae   Section        0  strlen.o(.text)
    .text                                    0x080003bc   Section        0  strcmp.o(.text)
    .text                                    0x080003d8   Section        0  memcmp.o(.text)
    .text                                    0x080003f2   Section        0  uidiv.o(.text)
    .text                                    0x0800041e   Section        0  llshl.o(.text)
    .text                                    0x0800043c   Section        0  llushr.o(.text)
    _local_sscanf                            0x0800045d   Thumb Code    62  strtod.o(.text)
    .text                                    0x0800045c   Section        0  strtod.o(.text)
    .text                                    0x08000504   Section        0  iusefp.o(.text)
    .text                                    0x08000504   Section        0  dadd.o(.text)
    .text                                    0x08000652   Section        0  dmul.o(.text)
    .text                                    0x08000736   Section        0  ddiv.o(.text)
    .text                                    0x08000814   Section        0  dfixul.o(.text)
    .text                                    0x08000844   Section       48  cdrcmple.o(.text)
    .text                                    0x08000874   Section       36  init.o(.text)
    .text                                    0x08000898   Section        0  llsshr.o(.text)
    .text                                    0x080008bc   Section        0  isspace_c.o(.text)
    _fp_value                                0x080008c9   Thumb Code   296  scanf_fp.o(.text)
    .text                                    0x080008c8   Section        0  scanf_fp.o(.text)
    .text                                    0x08000c28   Section        0  _sgetc.o(.text)
    .text                                    0x08000c68   Section        0  depilogue.o(.text)
    .text                                    0x08000d24   Section        0  ctype_c.o(.text)
    .text                                    0x08000d4c   Section        0  dfltul.o(.text)
    .text                                    0x08000d64   Section        0  d2f.o(.text)
    .text                                    0x08000d9c   Section        0  fepilogue.o(.text)
    .text                                    0x08000e0a   Section        0  __dczerorl.o(.text)
    [Anonymous Symbol]                       0x08000e48   Section        0  stm32h7xx_hal_adc.o(.text.ADC_ConfigureBoostMode)
    [Anonymous Symbol]                       0x08001028   Section        0  stm32h7xx_hal_adc.o(.text.ADC_ConversionStop)
    [Anonymous Symbol]                       0x080011c0   Section        0  stm32h7xx_hal_adc.o(.text.ADC_Disable)
    [Anonymous Symbol]                       0x08001288   Section        0  stm32h7xx_hal_adc.o(.text.ADC_Enable)
    [Anonymous Symbol]                       0x080013d0   Section        0  pid.o(.text.Angle_PID_calc)
    [Anonymous Symbol]                       0x08001470   Section        0  bmi088middleware.o(.text.BMI088_ACCEL_NS_H)
    [Anonymous Symbol]                       0x08001488   Section        0  bmi088middleware.o(.text.BMI088_ACCEL_NS_L)
    [Anonymous Symbol]                       0x080014a0   Section        0  bmi088middleware.o(.text.BMI088_GYRO_NS_H)
    [Anonymous Symbol]                       0x080014b8   Section        0  bmi088middleware.o(.text.BMI088_GYRO_NS_L)
    [Anonymous Symbol]                       0x080014d0   Section        0  bmi088driver.o(.text.BMI088_Read)
    [Anonymous Symbol]                       0x08001820   Section        0  bmi088driver.o(.text.BMI088_init)
    BMI088_read_muli_reg                     0x080018f1   Thumb Code    68  bmi088driver.o(.text.BMI088_read_muli_reg)
    [Anonymous Symbol]                       0x080018f0   Section        0  bmi088driver.o(.text.BMI088_read_muli_reg)
    BMI088_read_single_reg                   0x08001939   Thumb Code    36  bmi088driver.o(.text.BMI088_read_single_reg)
    [Anonymous Symbol]                       0x08001938   Section        0  bmi088driver.o(.text.BMI088_read_single_reg)
    [Anonymous Symbol]                       0x08001960   Section        0  bmi088middleware.o(.text.BMI088_read_write_byte)
    BMI088_write_single_reg                  0x08001991   Thumb Code    32  bmi088driver.o(.text.BMI088_write_single_reg)
    [Anonymous Symbol]                       0x08001990   Section        0  bmi088driver.o(.text.BMI088_write_single_reg)
    [Anonymous Symbol]                       0x080019b0   Section        0  ins_task.o(.text.BodyFrameToEarthFrame)
    [Anonymous Symbol]                       0x08001ab8   Section        0  stm32h7xx_it.o(.text.BusFault_Handler)
    CDC_Control_HS                           0x08001ac1   Thumb Code    92  usbd_cdc_if.o(.text.CDC_Control_HS)
    [Anonymous Symbol]                       0x08001ac0   Section        0  usbd_cdc_if.o(.text.CDC_Control_HS)
    CDC_DeInit_HS                            0x08001b21   Thumb Code     4  usbd_cdc_if.o(.text.CDC_DeInit_HS)
    [Anonymous Symbol]                       0x08001b20   Section        0  usbd_cdc_if.o(.text.CDC_DeInit_HS)
    CDC_Init_HS                              0x08001b29   Thumb Code    50  usbd_cdc_if.o(.text.CDC_Init_HS)
    [Anonymous Symbol]                       0x08001b28   Section        0  usbd_cdc_if.o(.text.CDC_Init_HS)
    CDC_Receive_HS                           0x08001b61   Thumb Code   114  usbd_cdc_if.o(.text.CDC_Receive_HS)
    [Anonymous Symbol]                       0x08001b60   Section        0  usbd_cdc_if.o(.text.CDC_Receive_HS)
    CDC_TransmitCplt_HS                      0x08001bd9   Thumb Code    24  usbd_cdc_if.o(.text.CDC_TransmitCplt_HS)
    [Anonymous Symbol]                       0x08001bd8   Section        0  usbd_cdc_if.o(.text.CDC_TransmitCplt_HS)
    [Anonymous Symbol]                       0x08001bf0   Section        0  usbd_cdc_if.o(.text.CDC_Transmit_HS)
    [Anonymous Symbol]                       0x08001c50   Section        0  chassis_task.o(.text.Cal_Matrix)
    Calibrate_MPU_Offset                     0x08001d49   Thumb Code  1984  bmi088driver.o(.text.Calibrate_MPU_Offset)
    [Anonymous Symbol]                       0x08001d48   Section        0  bmi088driver.o(.text.Calibrate_MPU_Offset)
    __arm_cp.4_8                             0x08002164   Number         4  bmi088driver.o(.text.Calibrate_MPU_Offset)
    [Anonymous Symbol]                       0x08002508   Section        0  chassis_task.o(.text.Chassis_Param_Updata)
    [Anonymous Symbol]                       0x08002518   Section        0  chassis_task.o(.text.Chassis_init)
    [Anonymous Symbol]                       0x080025b8   Section        0  chassis_task.o(.text.Chassis_task)
    [Anonymous Symbol]                       0x080027a0   Section        0  defs_parser.o(.text.DEFS_ClearPayload)
    [Anonymous Symbol]                       0x080027d0   Section        0  defs_parser.o(.text.DEFS_Init)
    [Anonymous Symbol]                       0x08002808   Section        0  defs_parser.o(.text.DEFS_Parse)
    [Anonymous Symbol]                       0x08002910   Section        0  defs_parser.o(.text.DEFS_PushChar2RawBuf)
    [Anonymous Symbol]                       0x08002a18   Section        0  defs_parser.o(.text.DEFS_Reset)
    [Anonymous Symbol]                       0x08002a60   Section        0  defs_parser.o(.text.DEFS_SetRawBuf)
    [Anonymous Symbol]                       0x08002aa8   Section        0  defs_parser.o(.text.DEFS_Verify)
    [Anonymous Symbol]                       0x08002b10   Section        0  stm32h7xx_it.o(.text.DMA1_Stream0_IRQHandler)
    [Anonymous Symbol]                       0x08002b20   Section        0  stm32h7xx_it.o(.text.DMA1_Stream1_IRQHandler)
    [Anonymous Symbol]                       0x08002b30   Section        0  stm32h7xx_it.o(.text.DMA1_Stream2_IRQHandler)
    [Anonymous Symbol]                       0x08002b40   Section        0  stm32h7xx_it.o(.text.DMA2_Stream0_IRQHandler)
    DMA_CalcBaseAndBitshift                  0x08002b51   Thumb Code   458  stm32h7xx_hal_dma.o(.text.DMA_CalcBaseAndBitshift)
    [Anonymous Symbol]                       0x08002b50   Section        0  stm32h7xx_hal_dma.o(.text.DMA_CalcBaseAndBitshift)
    DMA_CalcDMAMUXChannelBaseAndMask         0x08002d21   Thumb Code   376  stm32h7xx_hal_dma.o(.text.DMA_CalcDMAMUXChannelBaseAndMask)
    [Anonymous Symbol]                       0x08002d20   Section        0  stm32h7xx_hal_dma.o(.text.DMA_CalcDMAMUXChannelBaseAndMask)
    DMA_CalcDMAMUXRequestGenBaseAndMask      0x08002e99   Thumb Code   298  stm32h7xx_hal_dma.o(.text.DMA_CalcDMAMUXRequestGenBaseAndMask)
    [Anonymous Symbol]                       0x08002e98   Section        0  stm32h7xx_hal_dma.o(.text.DMA_CalcDMAMUXRequestGenBaseAndMask)
    DMA_CheckFifoParam                       0x08002fc9   Thumb Code   240  stm32h7xx_hal_dma.o(.text.DMA_CheckFifoParam)
    [Anonymous Symbol]                       0x08002fc8   Section        0  stm32h7xx_hal_dma.o(.text.DMA_CheckFifoParam)
    DMA_SetConfig                            0x080030b9   Thumb Code  1300  stm32h7xx_hal_dma.o(.text.DMA_SetConfig)
    [Anonymous Symbol]                       0x080030b8   Section        0  stm32h7xx_hal_dma.o(.text.DMA_SetConfig)
    DWT_CNT_Update                           0x080035d1   Thumb Code    64  bsp_dwt.o(.text.DWT_CNT_Update)
    [Anonymous Symbol]                       0x080035d0   Section        0  bsp_dwt.o(.text.DWT_CNT_Update)
    [Anonymous Symbol]                       0x08003610   Section        0  bsp_dwt.o(.text.DWT_Delay)
    [Anonymous Symbol]                       0x08003668   Section        0  bsp_dwt.o(.text.DWT_GetDeltaT)
    [Anonymous Symbol]                       0x080036b8   Section        0  bsp_dwt.o(.text.DWT_GetTimeline_s)
    [Anonymous Symbol]                       0x08003708   Section        0  bsp_dwt.o(.text.DWT_Init)
    [Anonymous Symbol]                       0x08003790   Section        0  bsp_dwt.o(.text.DWT_SysTimeUpdate)
    [Anonymous Symbol]                       0x08003890   Section        0  stm32h7xx_it.o(.text.DebugMon_Handler)
    [Anonymous Symbol]                       0x08003898   Section        0  stm32h7xx_it.o(.text.EXTI0_IRQHandler)
    [Anonymous Symbol]                       0x080038a8   Section        0  stm32h7xx_it.o(.text.EXTI1_IRQHandler)
    [Anonymous Symbol]                       0x080038b8   Section        0  stm32h7xx_it.o(.text.EXTI2_IRQHandler)
    [Anonymous Symbol]                       0x080038c8   Section        0  ins_task.o(.text.EarthFrameToBodyFrame)
    [Anonymous Symbol]                       0x080039d0   Section        0  bsp_motor.o(.text.Enable_Motor)
    [Anonymous Symbol]                       0x080039f8   Section        0  bsp_motor.o(.text.Enable_Motor_Report)
    [Anonymous Symbol]                       0x08003a20   Section        0  main.o(.text.Error_Handler)
    [Anonymous Symbol]                       0x08003a30   Section        0  bsp_can.o(.text.FDCAN1_Config)
    [Anonymous Symbol]                       0x08003a98   Section        0  stm32h7xx_it.o(.text.FDCAN1_IT0_IRQHandler)
    [Anonymous Symbol]                       0x08003aa8   Section        0  stm32h7xx_it.o(.text.FDCAN1_IT1_IRQHandler)
    [Anonymous Symbol]                       0x08003ab8   Section        0  bsp_can.o(.text.FDCAN1_Send_Msg)
    FDCAN_CalcultateRamBlockAddresses        0x08003b11   Thumb Code   706  stm32h7xx_hal_fdcan.o(.text.FDCAN_CalcultateRamBlockAddresses)
    [Anonymous Symbol]                       0x08003b10   Section        0  stm32h7xx_hal_fdcan.o(.text.FDCAN_CalcultateRamBlockAddresses)
    FDCAN_CopyMessageToRAM                   0x08003dd9   Thumb Code   184  stm32h7xx_hal_fdcan.o(.text.FDCAN_CopyMessageToRAM)
    [Anonymous Symbol]                       0x08003dd8   Section        0  stm32h7xx_hal_fdcan.o(.text.FDCAN_CopyMessageToRAM)
    [Anonymous Symbol]                       0x08003e90   Section        0  chassis_task.o(.text.Get_Control_Cur_Info)
    [Anonymous Symbol]                       0x08003f20   Section        0  chassis_task.o(.text.Get_Control_Err_Info)
    [Anonymous Symbol]                       0x08003f70   Section        0  chassis_task.o(.text.Get_Control_Tar_Info)
    [Anonymous Symbol]                       0x080040e0   Section        0  vmc.o(.text.Get_JointForce_Virtual2Real_K)
    Get_SerialNum                            0x08004101   Thumb Code    92  usbd_desc.o(.text.Get_SerialNum)
    [Anonymous Symbol]                       0x08004100   Section        0  usbd_desc.o(.text.Get_SerialNum)
    [Anonymous Symbol]                       0x08004160   Section        0  vmc.o(.text.Get_Virtual_Leg_Hight)
    [Anonymous Symbol]                       0x08004180   Section        0  vmc.o(.text.Get_Virtual_Leg_d_Hight)
    [Anonymous Symbol]                       0x080041b0   Section        0  stm32h7xx_hal_adc_ex.o(.text.HAL_ADCEx_Calibration_Start)
    [Anonymous Symbol]                       0x08004298   Section        0  stm32h7xx_hal_adc_ex.o(.text.HAL_ADCEx_MultiModeConfigChannel)
    [Anonymous Symbol]                       0x08004530   Section        0  stm32h7xx_hal_adc.o(.text.HAL_ADC_ConfigChannel)
    [Anonymous Symbol]                       0x080050d0   Section        0  stm32h7xx_hal_adc.o(.text.HAL_ADC_GetValue)
    [Anonymous Symbol]                       0x080050e0   Section        0  stm32h7xx_hal_adc.o(.text.HAL_ADC_Init)
    [Anonymous Symbol]                       0x080055e8   Section        0  adc.o(.text.HAL_ADC_MspInit)
    [Anonymous Symbol]                       0x080056a8   Section        0  stm32h7xx_hal_adc.o(.text.HAL_ADC_PollForConversion)
    [Anonymous Symbol]                       0x08005928   Section        0  stm32h7xx_hal_adc.o(.text.HAL_ADC_Start)
    [Anonymous Symbol]                       0x08005b40   Section        0  stm32h7xx_hal_adc.o(.text.HAL_ADC_Stop)
    [Anonymous Symbol]                       0x08005bc0   Section        0  stm32h7xx_hal_dma.o(.text.HAL_DMA_Abort)
    [Anonymous Symbol]                       0x08006538   Section        0  stm32h7xx_hal_dma.o(.text.HAL_DMA_Abort_IT)
    [Anonymous Symbol]                       0x08006be8   Section        0  stm32h7xx_hal_dma.o(.text.HAL_DMA_GetError)
    [Anonymous Symbol]                       0x08006bf8   Section        0  stm32h7xx_hal_dma.o(.text.HAL_DMA_IRQHandler)
    [Anonymous Symbol]                       0x08007db8   Section        0  stm32h7xx_hal_dma.o(.text.HAL_DMA_Init)
    [Anonymous Symbol]                       0x08008718   Section        0  stm32h7xx_hal_dma.o(.text.HAL_DMA_Start_IT)
    [Anonymous Symbol]                       0x08008e20   Section        0  stm32h7xx_hal.o(.text.HAL_Delay)
    [Anonymous Symbol]                       0x08008e68   Section        0  stm32h7xx_hal_fdcan.o(.text.HAL_FDCAN_ActivateNotification)
    [Anonymous Symbol]                       0x08008f68   Section        0  stm32h7xx_hal_fdcan.o(.text.HAL_FDCAN_AddMessageToTxFifoQ)
    [Anonymous Symbol]                       0x08009038   Section        0  stm32h7xx_hal_fdcan.o(.text.HAL_FDCAN_ClockCalibrationCallback)
    [Anonymous Symbol]                       0x08009048   Section        0  stm32h7xx_hal_fdcan.o(.text.HAL_FDCAN_ConfigFilter)
    [Anonymous Symbol]                       0x08009160   Section        0  stm32h7xx_hal_fdcan.o(.text.HAL_FDCAN_ErrorCallback)
    [Anonymous Symbol]                       0x08009168   Section        0  stm32h7xx_hal_fdcan.o(.text.HAL_FDCAN_ErrorStatusCallback)
    [Anonymous Symbol]                       0x08009178   Section        0  stm32h7xx_hal_fdcan.o(.text.HAL_FDCAN_GetRxMessage)
    [Anonymous Symbol]                       0x08009470   Section        0  stm32h7xx_hal_fdcan.o(.text.HAL_FDCAN_HighPriorityMessageCallback)
    [Anonymous Symbol]                       0x08009478   Section        0  stm32h7xx_hal_fdcan.o(.text.HAL_FDCAN_IRQHandler)
    [Anonymous Symbol]                       0x08009a60   Section        0  stm32h7xx_hal_fdcan.o(.text.HAL_FDCAN_Init)
    [Anonymous Symbol]                       0x08009e40   Section        0  fdcan.o(.text.HAL_FDCAN_MspInit)
    [Anonymous Symbol]                       0x08009f18   Section        0  stm32h7xx_hal_fdcan.o(.text.HAL_FDCAN_RxBufferNewMessageCallback)
    [Anonymous Symbol]                       0x08009f20   Section        0  bsp_can.o(.text.HAL_FDCAN_RxFifo0Callback)
    [Anonymous Symbol]                       0x0800a0d8   Section        0  stm32h7xx_hal_fdcan.o(.text.HAL_FDCAN_RxFifo1Callback)
    [Anonymous Symbol]                       0x0800a0e8   Section        0  stm32h7xx_hal_fdcan.o(.text.HAL_FDCAN_Start)
    [Anonymous Symbol]                       0x0800a138   Section        0  stm32h7xx_hal_fdcan.o(.text.HAL_FDCAN_TT_GlobalTimeCallback)
    [Anonymous Symbol]                       0x0800a148   Section        0  stm32h7xx_hal_fdcan.o(.text.HAL_FDCAN_TT_ScheduleSyncCallback)
    [Anonymous Symbol]                       0x0800a158   Section        0  stm32h7xx_hal_fdcan.o(.text.HAL_FDCAN_TT_StopWatchCallback)
    [Anonymous Symbol]                       0x0800a168   Section        0  stm32h7xx_hal_fdcan.o(.text.HAL_FDCAN_TT_TimeMarkCallback)
    [Anonymous Symbol]                       0x0800a178   Section        0  stm32h7xx_hal_fdcan.o(.text.HAL_FDCAN_TimeoutOccurredCallback)
    [Anonymous Symbol]                       0x0800a180   Section        0  stm32h7xx_hal_fdcan.o(.text.HAL_FDCAN_TimestampWraparoundCallback)
    [Anonymous Symbol]                       0x0800a188   Section        0  stm32h7xx_hal_fdcan.o(.text.HAL_FDCAN_TxBufferAbortCallback)
    [Anonymous Symbol]                       0x0800a198   Section        0  stm32h7xx_hal_fdcan.o(.text.HAL_FDCAN_TxBufferCompleteCallback)
    [Anonymous Symbol]                       0x0800a1a8   Section        0  stm32h7xx_hal_fdcan.o(.text.HAL_FDCAN_TxEventFifoCallback)
    [Anonymous Symbol]                       0x0800a1b8   Section        0  stm32h7xx_hal_fdcan.o(.text.HAL_FDCAN_TxFifoEmptyCallback)
    [Anonymous Symbol]                       0x0800a1c0   Section        0  stm32h7xx_hal_gpio.o(.text.HAL_GPIO_EXTI_Callback)
    [Anonymous Symbol]                       0x0800a1d0   Section        0  stm32h7xx_hal_gpio.o(.text.HAL_GPIO_EXTI_IRQHandler)
    [Anonymous Symbol]                       0x0800a208   Section        0  stm32h7xx_hal_gpio.o(.text.HAL_GPIO_Init)
    [Anonymous Symbol]                       0x0800a5b0   Section        0  stm32h7xx_hal_gpio.o(.text.HAL_GPIO_TogglePin)
    [Anonymous Symbol]                       0x0800a5d8   Section        0  stm32h7xx_hal_gpio.o(.text.HAL_GPIO_WritePin)
    [Anonymous Symbol]                       0x0800a608   Section        0  stm32h7xx_hal.o(.text.HAL_GetTick)
    [Anonymous Symbol]                       0x0800a618   Section        0  stm32h7xx_hal.o(.text.HAL_IncTick)
    [Anonymous Symbol]                       0x0800a638   Section        0  stm32h7xx_hal.o(.text.HAL_Init)
    [Anonymous Symbol]                       0x0800a6b8   Section        0  stm32h7xx_hal_timebase_tim.o(.text.HAL_InitTick)
    [Anonymous Symbol]                       0x0800a798   Section        0  stm32h7xx_hal_msp.o(.text.HAL_MspInit)
    [Anonymous Symbol]                       0x0800a7d0   Section        0  stm32h7xx_hal_cortex.o(.text.HAL_NVIC_EnableIRQ)
    [Anonymous Symbol]                       0x0800a7e8   Section        0  stm32h7xx_hal_cortex.o(.text.HAL_NVIC_SetPriority)
    [Anonymous Symbol]                       0x0800a818   Section        0  stm32h7xx_hal_cortex.o(.text.HAL_NVIC_SetPriorityGrouping)
    [Anonymous Symbol]                       0x0800a828   Section        0  stm32h7xx_hal_pcd_ex.o(.text.HAL_PCDEx_ActivateLPM)
    [Anonymous Symbol]                       0x0800a860   Section        0  stm32h7xx_hal_pcd_ex.o(.text.HAL_PCDEx_LPM_Callback)
    [Anonymous Symbol]                       0x0800a870   Section        0  stm32h7xx_hal_pcd_ex.o(.text.HAL_PCDEx_SetRxFiFo)
    [Anonymous Symbol]                       0x0800a888   Section        0  stm32h7xx_hal_pcd_ex.o(.text.HAL_PCDEx_SetTxFiFo)
    [Anonymous Symbol]                       0x0800a928   Section        0  usbd_conf.o(.text.HAL_PCD_ConnectCallback)
    [Anonymous Symbol]                       0x0800a940   Section        0  usbd_conf.o(.text.HAL_PCD_DataInStageCallback)
    [Anonymous Symbol]                       0x0800a968   Section        0  usbd_conf.o(.text.HAL_PCD_DataOutStageCallback)
    [Anonymous Symbol]                       0x0800a990   Section        0  usbd_conf.o(.text.HAL_PCD_DisconnectCallback)
    [Anonymous Symbol]                       0x0800a9a8   Section        0  stm32h7xx_hal_pcd.o(.text.HAL_PCD_EP_Abort)
    [Anonymous Symbol]                       0x0800aa08   Section        0  stm32h7xx_hal_pcd.o(.text.HAL_PCD_EP_Close)
    [Anonymous Symbol]                       0x0800aab0   Section        0  stm32h7xx_hal_pcd.o(.text.HAL_PCD_EP_ClrStall)
    [Anonymous Symbol]                       0x0800ab78   Section        0  stm32h7xx_hal_pcd.o(.text.HAL_PCD_EP_GetRxCount)
    [Anonymous Symbol]                       0x0800aba0   Section        0  stm32h7xx_hal_pcd.o(.text.HAL_PCD_EP_Open)
    [Anonymous Symbol]                       0x0800ac90   Section        0  stm32h7xx_hal_pcd.o(.text.HAL_PCD_EP_Receive)
    [Anonymous Symbol]                       0x0800ad00   Section        0  stm32h7xx_hal_pcd.o(.text.HAL_PCD_EP_SetStall)
    [Anonymous Symbol]                       0x0800ade0   Section        0  stm32h7xx_hal_pcd.o(.text.HAL_PCD_EP_Transmit)
    [Anonymous Symbol]                       0x0800ae50   Section        0  stm32h7xx_hal_pcd.o(.text.HAL_PCD_IRQHandler)
    [Anonymous Symbol]                       0x0800b6d8   Section        0  usbd_conf.o(.text.HAL_PCD_ISOINIncompleteCallback)
    [Anonymous Symbol]                       0x0800b6f8   Section        0  usbd_conf.o(.text.HAL_PCD_ISOOUTIncompleteCallback)
    [Anonymous Symbol]                       0x0800b718   Section        0  stm32h7xx_hal_pcd.o(.text.HAL_PCD_Init)
    [Anonymous Symbol]                       0x0800b958   Section        0  usbd_conf.o(.text.HAL_PCD_MspInit)
    [Anonymous Symbol]                       0x0800b9d0   Section        0  usbd_conf.o(.text.HAL_PCD_ResetCallback)
    [Anonymous Symbol]                       0x0800ba28   Section        0  usbd_conf.o(.text.HAL_PCD_ResumeCallback)
    [Anonymous Symbol]                       0x0800ba40   Section        0  usbd_conf.o(.text.HAL_PCD_SOFCallback)
    [Anonymous Symbol]                       0x0800ba58   Section        0  stm32h7xx_hal_pcd.o(.text.HAL_PCD_SetAddress)
    [Anonymous Symbol]                       0x0800bab8   Section        0  usbd_conf.o(.text.HAL_PCD_SetupStageCallback)
    [Anonymous Symbol]                       0x0800bad0   Section        0  stm32h7xx_hal_pcd.o(.text.HAL_PCD_Start)
    [Anonymous Symbol]                       0x0800bb50   Section        0  usbd_conf.o(.text.HAL_PCD_SuspendCallback)
    [Anonymous Symbol]                       0x0800bb90   Section        0  stm32h7xx_hal_pwr_ex.o(.text.HAL_PWREx_ConfigSupply)
    [Anonymous Symbol]                       0x0800bc38   Section        0  stm32h7xx_hal_pwr_ex.o(.text.HAL_PWREx_EnableUSBVoltageDetector)
    [Anonymous Symbol]                       0x0800bc50   Section        0  stm32h7xx_hal_rcc_ex.o(.text.HAL_RCCEx_GetD3PCLK1Freq)
    [Anonymous Symbol]                       0x0800bc78   Section        0  stm32h7xx_hal_rcc_ex.o(.text.HAL_RCCEx_GetPLL1ClockFreq)
    [Anonymous Symbol]                       0x0800bf28   Section        0  stm32h7xx_hal_rcc_ex.o(.text.HAL_RCCEx_GetPLL2ClockFreq)
    [Anonymous Symbol]                       0x0800c1d8   Section        0  stm32h7xx_hal_rcc_ex.o(.text.HAL_RCCEx_GetPLL3ClockFreq)
    [Anonymous Symbol]                       0x0800c488   Section        0  stm32h7xx_hal_rcc_ex.o(.text.HAL_RCCEx_GetPeriphCLKFreq)
    [Anonymous Symbol]                       0x0800cf60   Section        0  stm32h7xx_hal_rcc_ex.o(.text.HAL_RCCEx_PeriphCLKConfig)
    [Anonymous Symbol]                       0x0800df50   Section        0  stm32h7xx_hal_rcc.o(.text.HAL_RCC_ClockConfig)
    [Anonymous Symbol]                       0x0800e3e8   Section        0  stm32h7xx_hal_rcc.o(.text.HAL_RCC_GetClockConfig)
    [Anonymous Symbol]                       0x0800e470   Section        0  stm32h7xx_hal_rcc.o(.text.HAL_RCC_GetHCLKFreq)
    [Anonymous Symbol]                       0x0800e4c8   Section        0  stm32h7xx_hal_rcc.o(.text.HAL_RCC_GetPCLK1Freq)
    [Anonymous Symbol]                       0x0800e4f0   Section        0  stm32h7xx_hal_rcc.o(.text.HAL_RCC_GetPCLK2Freq)
    [Anonymous Symbol]                       0x0800e518   Section        0  stm32h7xx_hal_rcc.o(.text.HAL_RCC_GetSysClockFreq)
    [Anonymous Symbol]                       0x0800e828   Section        0  stm32h7xx_hal_rcc.o(.text.HAL_RCC_OscConfig)
    [Anonymous Symbol]                       0x0800f248   Section        0  stm32h7xx_hal_spi.o(.text.HAL_SPI_Init)
    [Anonymous Symbol]                       0x0800f4e0   Section        0  spi.o(.text.HAL_SPI_MspInit)
    [Anonymous Symbol]                       0x0800f5a8   Section        0  stm32h7xx_hal_spi.o(.text.HAL_SPI_TransmitReceive)
    [Anonymous Symbol]                       0x0800fcb0   Section        0  stm32h7xx_hal_tim_ex.o(.text.HAL_TIMEx_Break2Callback)
    [Anonymous Symbol]                       0x0800fcb8   Section        0  stm32h7xx_hal_tim_ex.o(.text.HAL_TIMEx_BreakCallback)
    [Anonymous Symbol]                       0x0800fcc0   Section        0  stm32h7xx_hal_tim_ex.o(.text.HAL_TIMEx_CommutCallback)
    [Anonymous Symbol]                       0x0800fcc8   Section        0  stm32h7xx_hal_tim_ex.o(.text.HAL_TIMEx_ConfigBreakDeadTime)
    [Anonymous Symbol]                       0x0800fdf8   Section        0  stm32h7xx_hal_tim_ex.o(.text.HAL_TIMEx_MasterConfigSynchronization)
    [Anonymous Symbol]                       0x0800ff78   Section        0  stm32h7xx_hal_tim.o(.text.HAL_TIM_Base_Init)
    [Anonymous Symbol]                       0x08010020   Section        0  tim.o(.text.HAL_TIM_Base_MspInit)
    [Anonymous Symbol]                       0x080101a0   Section        0  stm32h7xx_hal_tim.o(.text.HAL_TIM_Base_Start_IT)
    [Anonymous Symbol]                       0x080102c8   Section        0  stm32h7xx_hal_tim.o(.text.HAL_TIM_ConfigClockSource)
    [Anonymous Symbol]                       0x08010498   Section        0  stm32h7xx_hal_tim.o(.text.HAL_TIM_ErrorCallback)
    [Anonymous Symbol]                       0x080104a0   Section        0  stm32h7xx_hal_tim.o(.text.HAL_TIM_IC_CaptureCallback)
    [Anonymous Symbol]                       0x080104a8   Section        0  stm32h7xx_hal_tim.o(.text.HAL_TIM_IRQHandler)
    [Anonymous Symbol]                       0x080106f8   Section        0  tim.o(.text.HAL_TIM_MspPostInit)
    [Anonymous Symbol]                       0x08010800   Section        0  stm32h7xx_hal_tim.o(.text.HAL_TIM_OC_DelayElapsedCallback)
    [Anonymous Symbol]                       0x08010808   Section        0  stm32h7xx_hal_tim.o(.text.HAL_TIM_PWM_ConfigChannel)
    [Anonymous Symbol]                       0x080109b8   Section        0  stm32h7xx_hal_tim.o(.text.HAL_TIM_PWM_Init)
    [Anonymous Symbol]                       0x08010a60   Section        0  stm32h7xx_hal_tim.o(.text.HAL_TIM_PWM_MspInit)
    [Anonymous Symbol]                       0x08010a68   Section        0  stm32h7xx_hal_tim.o(.text.HAL_TIM_PWM_PulseFinishedCallback)
    [Anonymous Symbol]                       0x08010a70   Section        0  stm32h7xx_hal_tim.o(.text.HAL_TIM_PWM_PulseFinishedHalfCpltCallback)
    [Anonymous Symbol]                       0x08010a78   Section        0  stm32h7xx_hal_tim.o(.text.HAL_TIM_PWM_Start)
    [Anonymous Symbol]                       0x08010d20   Section        0  stm32h7xx_hal_tim.o(.text.HAL_TIM_PWM_Start_DMA)
    [Anonymous Symbol]                       0x08011208   Section        0  main.o(.text.HAL_TIM_PeriodElapsedCallback)
    [Anonymous Symbol]                       0x08011230   Section        0  stm32h7xx_hal_tim.o(.text.HAL_TIM_TriggerCallback)
    [Anonymous Symbol]                       0x08011238   Section        0  stm32h7xx_hal_uart_ex.o(.text.HAL_UARTEx_DisableFifoMode)
    [Anonymous Symbol]                       0x080112b8   Section        0  stm32h7xx_hal_uart_ex.o(.text.HAL_UARTEx_EnableFifoMode)
    [Anonymous Symbol]                       0x08011340   Section        0  stm32h7xx_hal_uart.o(.text.HAL_UARTEx_RxEventCallback)
    [Anonymous Symbol]                       0x08011350   Section        0  stm32h7xx_hal_uart_ex.o(.text.HAL_UARTEx_RxFifoFullCallback)
    [Anonymous Symbol]                       0x08011358   Section        0  stm32h7xx_hal_uart_ex.o(.text.HAL_UARTEx_SetRxFifoThreshold)
    [Anonymous Symbol]                       0x080113e8   Section        0  stm32h7xx_hal_uart_ex.o(.text.HAL_UARTEx_SetTxFifoThreshold)
    [Anonymous Symbol]                       0x08011478   Section        0  stm32h7xx_hal_uart_ex.o(.text.HAL_UARTEx_TxFifoEmptyCallback)
    [Anonymous Symbol]                       0x08011480   Section        0  stm32h7xx_hal_uart_ex.o(.text.HAL_UARTEx_WakeupCallback)
    [Anonymous Symbol]                       0x08011488   Section        0  stm32h7xx_hal_uart.o(.text.HAL_UART_DMAStop)
    [Anonymous Symbol]                       0x080115a8   Section        0  stm32h7xx_hal_uart.o(.text.HAL_UART_ErrorCallback)
    [Anonymous Symbol]                       0x080115b0   Section        0  stm32h7xx_hal_uart.o(.text.HAL_UART_IRQHandler)
    [Anonymous Symbol]                       0x08011c78   Section        0  stm32h7xx_hal_uart.o(.text.HAL_UART_Init)
    [Anonymous Symbol]                       0x08011d28   Section        0  usart.o(.text.HAL_UART_MspInit)
    [Anonymous Symbol]                       0x08012090   Section        0  stm32h7xx_hal_uart.o(.text.HAL_UART_Receive_DMA)
    [Anonymous Symbol]                       0x08012130   Section        0  stm32h7xx_hal_uart.o(.text.HAL_UART_RxCpltCallback)
    [Anonymous Symbol]                       0x08012138   Section        0  stm32h7xx_hal_uart.o(.text.HAL_UART_RxHalfCpltCallback)
    [Anonymous Symbol]                       0x08012140   Section        0  stm32h7xx_hal_uart.o(.text.HAL_UART_Transmit)
    [Anonymous Symbol]                       0x08012278   Section        0  stm32h7xx_hal_uart.o(.text.HAL_UART_TxCpltCallback)
    H_K_R_Adjustment                         0x08012281   Thumb Code   398  kalman_filter.o(.text.H_K_R_Adjustment)
    [Anonymous Symbol]                       0x08012280   Section        0  kalman_filter.o(.text.H_K_R_Adjustment)
    [Anonymous Symbol]                       0x08012410   Section        0  stm32h7xx_it.o(.text.HardFault_Handler)
    [Anonymous Symbol]                       0x08012418   Section        0  ins_task.o(.text.INS_Init)
    [Anonymous Symbol]                       0x08012450   Section        0  ins_task.o(.text.INS_task)
    [Anonymous Symbol]                       0x08012760   Section        0  bsp_ext.o(.text.Init_Beep)
    [Anonymous Symbol]                       0x080127c0   Section        0  bsp_ext.o(.text.Init_Servo)
    [Anonymous Symbol]                       0x08012800   Section        0  bsp_ext.o(.text.Init_Ws2812)
    IntToUnicode                             0x08012811   Thumb Code   122  usbd_desc.o(.text.IntToUnicode)
    [Anonymous Symbol]                       0x08012810   Section        0  usbd_desc.o(.text.IntToUnicode)
    [Anonymous Symbol]                       0x08012890   Section        0  bsp_motor.o(.text.JointMotor_Iq2Torque)
    [Anonymous Symbol]                       0x080128b0   Section        0  bsp_motor.o(.text.JointMotor_Torque2Iq)
    [Anonymous Symbol]                       0x080128d0   Section        0  kalman_filter.o(.text.Kalman_Filter_Init)
    [Anonymous Symbol]                       0x08012ec8   Section        0  kalman_filter.o(.text.Kalman_Filter_Measure)
    [Anonymous Symbol]                       0x08012f30   Section        0  kalman_filter.o(.text.Kalman_Filter_P_Update)
    [Anonymous Symbol]                       0x08012fb0   Section        0  kalman_filter.o(.text.Kalman_Filter_PminusUpdate)
    [Anonymous Symbol]                       0x08013030   Section        0  kalman_filter.o(.text.Kalman_Filter_SetK)
    [Anonymous Symbol]                       0x08013130   Section        0  kalman_filter.o(.text.Kalman_Filter_Update)
    [Anonymous Symbol]                       0x080132c0   Section        0  kalman_filter.o(.text.Kalman_Filter_xhatMinusUpdate)
    [Anonymous Symbol]                       0x08013368   Section        0  kalman_filter.o(.text.Kalman_Filter_xhatUpdate)
    LL_ADC_Disable                           0x08013419   Thumb Code    28  stm32h7xx_hal_adc.o(.text.LL_ADC_Disable)
    [Anonymous Symbol]                       0x08013418   Section        0  stm32h7xx_hal_adc.o(.text.LL_ADC_Disable)
    LL_ADC_DisableDeepPowerDown              0x08013439   Thumb Code    24  stm32h7xx_hal_adc.o(.text.LL_ADC_DisableDeepPowerDown)
    [Anonymous Symbol]                       0x08013438   Section        0  stm32h7xx_hal_adc.o(.text.LL_ADC_DisableDeepPowerDown)
    LL_ADC_Enable                            0x08013451   Thumb Code    28  stm32h7xx_hal_adc.o(.text.LL_ADC_Enable)
    [Anonymous Symbol]                       0x08013450   Section        0  stm32h7xx_hal_adc.o(.text.LL_ADC_Enable)
    LL_ADC_EnableInternalRegulator           0x08013471   Thumb Code    30  stm32h7xx_hal_adc.o(.text.LL_ADC_EnableInternalRegulator)
    [Anonymous Symbol]                       0x08013470   Section        0  stm32h7xx_hal_adc.o(.text.LL_ADC_EnableInternalRegulator)
    LL_ADC_GetCommonPathInternalCh           0x08013491   Thumb Code    16  stm32h7xx_hal_adc.o(.text.LL_ADC_GetCommonPathInternalCh)
    [Anonymous Symbol]                       0x08013490   Section        0  stm32h7xx_hal_adc.o(.text.LL_ADC_GetCommonPathInternalCh)
    LL_ADC_GetMultiDMATransfer               0x080134a1   Thumb Code    16  stm32h7xx_hal_adc.o(.text.LL_ADC_GetMultiDMATransfer)
    [Anonymous Symbol]                       0x080134a0   Section        0  stm32h7xx_hal_adc.o(.text.LL_ADC_GetMultiDMATransfer)
    LL_ADC_GetMultimode                      0x080134b1   Thumb Code    16  stm32h7xx_hal_adc.o(.text.LL_ADC_GetMultimode)
    [Anonymous Symbol]                       0x080134b0   Section        0  stm32h7xx_hal_adc.o(.text.LL_ADC_GetMultimode)
    LL_ADC_GetOffsetChannel                  0x080134c1   Thumb Code    30  stm32h7xx_hal_adc.o(.text.LL_ADC_GetOffsetChannel)
    [Anonymous Symbol]                       0x080134c0   Section        0  stm32h7xx_hal_adc.o(.text.LL_ADC_GetOffsetChannel)
    LL_ADC_INJ_IsConversionOngoing           0x080134e1   Thumb Code    16  stm32h7xx_hal_adc.o(.text.LL_ADC_INJ_IsConversionOngoing)
    [Anonymous Symbol]                       0x080134e0   Section        0  stm32h7xx_hal_adc.o(.text.LL_ADC_INJ_IsConversionOngoing)
    LL_ADC_INJ_StopConversion                0x080134f1   Thumb Code    28  stm32h7xx_hal_adc.o(.text.LL_ADC_INJ_StopConversion)
    [Anonymous Symbol]                       0x080134f0   Section        0  stm32h7xx_hal_adc.o(.text.LL_ADC_INJ_StopConversion)
    LL_ADC_IsCalibrationOnGoing              0x08013511   Thumb Code    14  stm32h7xx_hal_adc_ex.o(.text.LL_ADC_IsCalibrationOnGoing)
    [Anonymous Symbol]                       0x08013510   Section        0  stm32h7xx_hal_adc_ex.o(.text.LL_ADC_IsCalibrationOnGoing)
    LL_ADC_IsDeepPowerDownEnabled            0x08013521   Thumb Code    16  stm32h7xx_hal_adc.o(.text.LL_ADC_IsDeepPowerDownEnabled)
    [Anonymous Symbol]                       0x08013520   Section        0  stm32h7xx_hal_adc.o(.text.LL_ADC_IsDeepPowerDownEnabled)
    LL_ADC_IsDisableOngoing                  0x08013531   Thumb Code    16  stm32h7xx_hal_adc.o(.text.LL_ADC_IsDisableOngoing)
    [Anonymous Symbol]                       0x08013530   Section        0  stm32h7xx_hal_adc.o(.text.LL_ADC_IsDisableOngoing)
    LL_ADC_IsEnabled                         0x08013541   Thumb Code    16  stm32h7xx_hal_adc.o(.text.LL_ADC_IsEnabled)
    [Anonymous Symbol]                       0x08013540   Section        0  stm32h7xx_hal_adc.o(.text.LL_ADC_IsEnabled)
    LL_ADC_IsEnabled                         0x08013551   Thumb Code    16  stm32h7xx_hal_adc_ex.o(.text.LL_ADC_IsEnabled)
    [Anonymous Symbol]                       0x08013550   Section        0  stm32h7xx_hal_adc_ex.o(.text.LL_ADC_IsEnabled)
    LL_ADC_IsInternalRegulatorEnabled        0x08013561   Thumb Code    16  stm32h7xx_hal_adc.o(.text.LL_ADC_IsInternalRegulatorEnabled)
    [Anonymous Symbol]                       0x08013560   Section        0  stm32h7xx_hal_adc.o(.text.LL_ADC_IsInternalRegulatorEnabled)
    LL_ADC_REG_IsConversionOngoing           0x08013571   Thumb Code    16  stm32h7xx_hal_adc.o(.text.LL_ADC_REG_IsConversionOngoing)
    [Anonymous Symbol]                       0x08013570   Section        0  stm32h7xx_hal_adc.o(.text.LL_ADC_REG_IsConversionOngoing)
    LL_ADC_REG_IsConversionOngoing           0x08013581   Thumb Code    16  stm32h7xx_hal_adc_ex.o(.text.LL_ADC_REG_IsConversionOngoing)
    [Anonymous Symbol]                       0x08013580   Section        0  stm32h7xx_hal_adc_ex.o(.text.LL_ADC_REG_IsConversionOngoing)
    LL_ADC_REG_IsTriggerSourceSWStart        0x08013591   Thumb Code    22  stm32h7xx_hal_adc.o(.text.LL_ADC_REG_IsTriggerSourceSWStart)
    [Anonymous Symbol]                       0x08013590   Section        0  stm32h7xx_hal_adc.o(.text.LL_ADC_REG_IsTriggerSourceSWStart)
    LL_ADC_REG_SetSequencerRanks             0x080135a9   Thumb Code    58  stm32h7xx_hal_adc.o(.text.LL_ADC_REG_SetSequencerRanks)
    [Anonymous Symbol]                       0x080135a8   Section        0  stm32h7xx_hal_adc.o(.text.LL_ADC_REG_SetSequencerRanks)
    LL_ADC_REG_StartConversion               0x080135e9   Thumb Code    28  stm32h7xx_hal_adc.o(.text.LL_ADC_REG_StartConversion)
    [Anonymous Symbol]                       0x080135e8   Section        0  stm32h7xx_hal_adc.o(.text.LL_ADC_REG_StartConversion)
    LL_ADC_REG_StopConversion                0x08013609   Thumb Code    28  stm32h7xx_hal_adc.o(.text.LL_ADC_REG_StopConversion)
    [Anonymous Symbol]                       0x08013608   Section        0  stm32h7xx_hal_adc.o(.text.LL_ADC_REG_StopConversion)
    LL_ADC_SetChannelSamplingTime            0x08013629   Thumb Code    54  stm32h7xx_hal_adc.o(.text.LL_ADC_SetChannelSamplingTime)
    [Anonymous Symbol]                       0x08013628   Section        0  stm32h7xx_hal_adc.o(.text.LL_ADC_SetChannelSamplingTime)
    LL_ADC_SetChannelSingleDiff              0x08013661   Thumb Code   112  stm32h7xx_hal_adc.o(.text.LL_ADC_SetChannelSingleDiff)
    [Anonymous Symbol]                       0x08013660   Section        0  stm32h7xx_hal_adc.o(.text.LL_ADC_SetChannelSingleDiff)
    LL_ADC_SetCommonClock                    0x080136d1   Thumb Code    26  stm32h7xx_hal_adc.o(.text.LL_ADC_SetCommonClock)
    [Anonymous Symbol]                       0x080136d0   Section        0  stm32h7xx_hal_adc.o(.text.LL_ADC_SetCommonClock)
    LL_ADC_SetCommonPathInternalCh           0x080136f1   Thumb Code    26  stm32h7xx_hal_adc.o(.text.LL_ADC_SetCommonPathInternalCh)
    [Anonymous Symbol]                       0x080136f0   Section        0  stm32h7xx_hal_adc.o(.text.LL_ADC_SetCommonPathInternalCh)
    LL_ADC_SetDataRightShift                 0x08013711   Thumb Code    36  stm32h7xx_hal_adc.o(.text.LL_ADC_SetDataRightShift)
    [Anonymous Symbol]                       0x08013710   Section        0  stm32h7xx_hal_adc.o(.text.LL_ADC_SetDataRightShift)
    LL_ADC_SetOffset                         0x08013739   Thumb Code    92  stm32h7xx_hal_adc.o(.text.LL_ADC_SetOffset)
    [Anonymous Symbol]                       0x08013738   Section        0  stm32h7xx_hal_adc.o(.text.LL_ADC_SetOffset)
    LL_ADC_SetOffsetSaturation               0x08013799   Thumb Code    58  stm32h7xx_hal_adc.o(.text.LL_ADC_SetOffsetSaturation)
    [Anonymous Symbol]                       0x08013798   Section        0  stm32h7xx_hal_adc.o(.text.LL_ADC_SetOffsetSaturation)
    LL_ADC_SetOffsetSign                     0x080137d9   Thumb Code    58  stm32h7xx_hal_adc.o(.text.LL_ADC_SetOffsetSign)
    [Anonymous Symbol]                       0x080137d8   Section        0  stm32h7xx_hal_adc.o(.text.LL_ADC_SetOffsetSign)
    LL_ADC_SetOffsetSignedSaturation         0x08013819   Thumb Code    60  stm32h7xx_hal_adc.o(.text.LL_ADC_SetOffsetSignedSaturation)
    [Anonymous Symbol]                       0x08013818   Section        0  stm32h7xx_hal_adc.o(.text.LL_ADC_SetOffsetSignedSaturation)
    LL_ADC_SetOffsetState                    0x08013859   Thumb Code    76  stm32h7xx_hal_adc.o(.text.LL_ADC_SetOffsetState)
    [Anonymous Symbol]                       0x08013858   Section        0  stm32h7xx_hal_adc.o(.text.LL_ADC_SetOffsetState)
    LL_ADC_StartCalibration                  0x080138a9   Thumb Code    50  stm32h7xx_hal_adc_ex.o(.text.LL_ADC_StartCalibration)
    [Anonymous Symbol]                       0x080138a8   Section        0  stm32h7xx_hal_adc_ex.o(.text.LL_ADC_StartCalibration)
    [Anonymous Symbol]                       0x080138e0   Section        0  adc.o(.text.MX_ADC1_Init)
    [Anonymous Symbol]                       0x080139a0   Section        0  dma.o(.text.MX_DMA_Init)
    [Anonymous Symbol]                       0x08013a30   Section        0  fdcan.o(.text.MX_FDCAN1_Init)
    [Anonymous Symbol]                       0x08013aa0   Section        0  freertos.o(.text.MX_FREERTOS_Init)
    [Anonymous Symbol]                       0x08013bd0   Section        0  gpio.o(.text.MX_GPIO_Init)
    [Anonymous Symbol]                       0x08013de8   Section        0  spi.o(.text.MX_SPI1_Init)
    [Anonymous Symbol]                       0x08013e60   Section        0  tim.o(.text.MX_TIM15_Init)
    [Anonymous Symbol]                       0x08013f80   Section        0  tim.o(.text.MX_TIM1_Init)
    [Anonymous Symbol]                       0x080140c0   Section        0  tim.o(.text.MX_TIM2_Init)
    [Anonymous Symbol]                       0x080141b8   Section        0  tim.o(.text.MX_TIM8_Init)
    [Anonymous Symbol]                       0x08014248   Section        0  usart.o(.text.MX_UART4_Init)
    [Anonymous Symbol]                       0x080142f0   Section        0  usart.o(.text.MX_UART8_Init)
    [Anonymous Symbol]                       0x08014380   Section        0  usart.o(.text.MX_USART10_UART_Init)
    [Anonymous Symbol]                       0x08014410   Section        0  usart.o(.text.MX_USART1_UART_Init)
    [Anonymous Symbol]                       0x080144a0   Section        0  usb_device.o(.text.MX_USB_DEVICE_Init)
    [Anonymous Symbol]                       0x08014520   Section        0  defs_parser.o(.text.MatchThenSet_FLOAT)
    [Anonymous Symbol]                       0x08014568   Section        0  stm32h7xx_it.o(.text.MemManage_Handler)
    [Anonymous Symbol]                       0x08014570   Section        0  bsp_motor.o(.text.Motor_Setiq)
    [Anonymous Symbol]                       0x080145a0   Section        0  bsp_motor.o(.text.Motorparam_updata)
    [Anonymous Symbol]                       0x08014618   Section        0  stm32h7xx_it.o(.text.NMI_Handler)
    NVIC_EncodePriority                      0x08014621   Thumb Code   108  stm32h7xx_hal_cortex.o(.text.NVIC_EncodePriority)
    [Anonymous Symbol]                       0x08014620   Section        0  stm32h7xx_hal_cortex.o(.text.NVIC_EncodePriority)
    [Anonymous Symbol]                       0x08014690   Section        0  stm32h7xx_it.o(.text.OTG_HS_IRQHandler)
    [Anonymous Symbol]                       0x080146a0   Section        0  observe_task.o(.text.Observe_task)
    PCD_EP_OutSetupPacket_int                0x080147c1   Thumb Code   138  stm32h7xx_hal_pcd.o(.text.PCD_EP_OutSetupPacket_int)
    [Anonymous Symbol]                       0x080147c0   Section        0  stm32h7xx_hal_pcd.o(.text.PCD_EP_OutSetupPacket_int)
    PCD_EP_OutXfrComplete_int                0x08014851   Thumb Code   456  stm32h7xx_hal_pcd.o(.text.PCD_EP_OutXfrComplete_int)
    [Anonymous Symbol]                       0x08014850   Section        0  stm32h7xx_hal_pcd.o(.text.PCD_EP_OutXfrComplete_int)
    PCD_WriteEmptyTxFifo                     0x08014a19   Thumb Code   306  stm32h7xx_hal_pcd.o(.text.PCD_WriteEmptyTxFifo)
    [Anonymous Symbol]                       0x08014a18   Section        0  stm32h7xx_hal_pcd.o(.text.PCD_WriteEmptyTxFifo)
    [Anonymous Symbol]                       0x08014b50   Section        0  pid.o(.text.PID_init)
    [Anonymous Symbol]                       0x08014bd0   Section        0  port.o(.text.PendSV_Handler)
    pxCurrentTCBConst                        0x08014c30   Number         0  port.o(.text.PendSV_Handler)
    RCCEx_PLL2_Config                        0x08014c39   Thumb Code   458  stm32h7xx_hal_rcc_ex.o(.text.RCCEx_PLL2_Config)
    [Anonymous Symbol]                       0x08014c38   Section        0  stm32h7xx_hal_rcc_ex.o(.text.RCCEx_PLL2_Config)
    RCCEx_PLL3_Config                        0x08014e09   Thumb Code   458  stm32h7xx_hal_rcc_ex.o(.text.RCCEx_PLL3_Config)
    [Anonymous Symbol]                       0x08014e08   Section        0  stm32h7xx_hal_rcc_ex.o(.text.RCCEx_PLL3_Config)
    [Anonymous Symbol]                       0x08014fd8   Section        0  mahony_filter.o(.text.RotationMatrix_update)
    SPI_CloseTransfer                        0x08015151   Thumb Code   278  stm32h7xx_hal_spi.o(.text.SPI_CloseTransfer)
    [Anonymous Symbol]                       0x08015150   Section        0  stm32h7xx_hal_spi.o(.text.SPI_CloseTransfer)
    SPI_GetPacketSize                        0x08015269   Thumb Code    42  stm32h7xx_hal_spi.o(.text.SPI_GetPacketSize)
    [Anonymous Symbol]                       0x08015268   Section        0  stm32h7xx_hal_spi.o(.text.SPI_GetPacketSize)
    SPI_WaitOnFlagUntilTimeout               0x08015299   Thumb Code   104  stm32h7xx_hal_spi.o(.text.SPI_WaitOnFlagUntilTimeout)
    [Anonymous Symbol]                       0x08015298   Section        0  stm32h7xx_hal_spi.o(.text.SPI_WaitOnFlagUntilTimeout)
    [Anonymous Symbol]                       0x08015300   Section        0  port.o(.text.SVC_Handler)
    pxCurrentTCBConst2                       0x08015320   Number         0  port.o(.text.SVC_Handler)
    SVC_Setup                                0x08015329   Thumb Code    14  cmsis_os2.o(.text.SVC_Setup)
    [Anonymous Symbol]                       0x08015328   Section        0  cmsis_os2.o(.text.SVC_Setup)
    SWAPBYTE                                 0x08015339   Thumb Code    54  usbd_ctlreq.o(.text.SWAPBYTE)
    [Anonymous Symbol]                       0x08015338   Section        0  usbd_ctlreq.o(.text.SWAPBYTE)
    [Anonymous Symbol]                       0x08015370   Section        0  bsp_ext.o(.text.Servo_task)
    [Anonymous Symbol]                       0x08015450   Section        0  freertos.o(.text.StartDefaultTask)
    [Anonymous Symbol]                       0x08015740   Section        0  freertos.o(.text.StartTask_Chassis)
    [Anonymous Symbol]                       0x08015750   Section        0  freertos.o(.text.StartTask_LED)
    [Anonymous Symbol]                       0x08015788   Section        0  freertos.o(.text.StartTask_adc)
    [Anonymous Symbol]                       0x08015800   Section        0  freertos.o(.text.StartTask_imu)
    [Anonymous Symbol]                       0x08015810   Section        0  freertos.o(.text.StartTask_motorError)
    [Anonymous Symbol]                       0x080158f0   Section        0  freertos.o(.text.StartTask_observe)
    [Anonymous Symbol]                       0x08015900   Section        0  freertos.o(.text.StartTask_usb)
    [Anonymous Symbol]                       0x08015ab8   Section        0  freertos.o(.text.StartTask_vmc)
    [Anonymous Symbol]                       0x08015ac8   Section        0  cmsis_os2.o(.text.SysTick_Handler)
    [Anonymous Symbol]                       0x08015ae8   Section        0  main.o(.text.SystemClock_Config)
    [Anonymous Symbol]                       0x08015bc0   Section        0  system_stm32h7xx.o(.text.SystemInit)
    [Anonymous Symbol]                       0x08015d00   Section        0  stm32h7xx_it.o(.text.TIM6_DAC_IRQHandler)
    [Anonymous Symbol]                       0x08015d10   Section        0  stm32h7xx_hal_tim.o(.text.TIM_Base_SetConfig)
    [Anonymous Symbol]                       0x08015ee0   Section        0  stm32h7xx_hal_tim.o(.text.TIM_CCxChannelCmd)
    TIM_DMADelayPulseCplt                    0x08015f19   Thumb Code   188  stm32h7xx_hal_tim.o(.text.TIM_DMADelayPulseCplt)
    [Anonymous Symbol]                       0x08015f18   Section        0  stm32h7xx_hal_tim.o(.text.TIM_DMADelayPulseCplt)
    [Anonymous Symbol]                       0x08015fd8   Section        0  stm32h7xx_hal_tim.o(.text.TIM_DMADelayPulseHalfCplt)
    [Anonymous Symbol]                       0x08016050   Section        0  stm32h7xx_hal_tim.o(.text.TIM_DMAError)
    [Anonymous Symbol]                       0x080160f0   Section        0  stm32h7xx_hal_tim.o(.text.TIM_ETR_SetConfig)
    TIM_ITRx_SetConfig                       0x08016129   Thumb Code    48  stm32h7xx_hal_tim.o(.text.TIM_ITRx_SetConfig)
    [Anonymous Symbol]                       0x08016128   Section        0  stm32h7xx_hal_tim.o(.text.TIM_ITRx_SetConfig)
    TIM_OC1_SetConfig                        0x08016159   Thumb Code   336  stm32h7xx_hal_tim.o(.text.TIM_OC1_SetConfig)
    [Anonymous Symbol]                       0x08016158   Section        0  stm32h7xx_hal_tim.o(.text.TIM_OC1_SetConfig)
    [Anonymous Symbol]                       0x080162a8   Section        0  stm32h7xx_hal_tim.o(.text.TIM_OC2_SetConfig)
    TIM_OC3_SetConfig                        0x08016419   Thumb Code   362  stm32h7xx_hal_tim.o(.text.TIM_OC3_SetConfig)
    [Anonymous Symbol]                       0x08016418   Section        0  stm32h7xx_hal_tim.o(.text.TIM_OC3_SetConfig)
    TIM_OC4_SetConfig                        0x08016589   Thumb Code   218  stm32h7xx_hal_tim.o(.text.TIM_OC4_SetConfig)
    [Anonymous Symbol]                       0x08016588   Section        0  stm32h7xx_hal_tim.o(.text.TIM_OC4_SetConfig)
    TIM_OC5_SetConfig                        0x08016669   Thumb Code   208  stm32h7xx_hal_tim.o(.text.TIM_OC5_SetConfig)
    [Anonymous Symbol]                       0x08016668   Section        0  stm32h7xx_hal_tim.o(.text.TIM_OC5_SetConfig)
    TIM_OC6_SetConfig                        0x08016739   Thumb Code   210  stm32h7xx_hal_tim.o(.text.TIM_OC6_SetConfig)
    [Anonymous Symbol]                       0x08016738   Section        0  stm32h7xx_hal_tim.o(.text.TIM_OC6_SetConfig)
    TIM_TI1_ConfigInputStage                 0x08016811   Thumb Code    80  stm32h7xx_hal_tim.o(.text.TIM_TI1_ConfigInputStage)
    [Anonymous Symbol]                       0x08016810   Section        0  stm32h7xx_hal_tim.o(.text.TIM_TI1_ConfigInputStage)
    TIM_TI2_ConfigInputStage                 0x08016861   Thumb Code    82  stm32h7xx_hal_tim.o(.text.TIM_TI2_ConfigInputStage)
    [Anonymous Symbol]                       0x08016860   Section        0  stm32h7xx_hal_tim.o(.text.TIM_TI2_ConfigInputStage)
    [Anonymous Symbol]                       0x080168b8   Section        0  stm32h7xx_it.o(.text.UART4_IRQHandler)
    [Anonymous Symbol]                       0x08016ad8   Section        0  stm32h7xx_it.o(.text.UART8_IRQHandler)
    UARTEx_SetNbDataToProcess                0x08016ae9   Thumb Code   134  stm32h7xx_hal_uart_ex.o(.text.UARTEx_SetNbDataToProcess)
    [Anonymous Symbol]                       0x08016ae8   Section        0  stm32h7xx_hal_uart_ex.o(.text.UARTEx_SetNbDataToProcess)
    [Anonymous Symbol]                       0x08016b70   Section        0  stm32h7xx_hal_uart.o(.text.UART_AdvFeatureConfig)
    [Anonymous Symbol]                       0x08016cb8   Section        0  stm32h7xx_hal_uart.o(.text.UART_CheckIdleState)
    UART_DMAAbortOnError                     0x08016e01   Thumb Code    36  stm32h7xx_hal_uart.o(.text.UART_DMAAbortOnError)
    [Anonymous Symbol]                       0x08016e00   Section        0  stm32h7xx_hal_uart.o(.text.UART_DMAAbortOnError)
    UART_DMAError                            0x08016e29   Thumb Code   128  stm32h7xx_hal_uart.o(.text.UART_DMAError)
    [Anonymous Symbol]                       0x08016e28   Section        0  stm32h7xx_hal_uart.o(.text.UART_DMAError)
    UART_DMAReceiveCplt                      0x08016ea9   Thumb Code   246  stm32h7xx_hal_uart.o(.text.UART_DMAReceiveCplt)
    [Anonymous Symbol]                       0x08016ea8   Section        0  stm32h7xx_hal_uart.o(.text.UART_DMAReceiveCplt)
    UART_DMARxHalfCplt                       0x08016fa1   Thumb Code    54  stm32h7xx_hal_uart.o(.text.UART_DMARxHalfCplt)
    [Anonymous Symbol]                       0x08016fa0   Section        0  stm32h7xx_hal_uart.o(.text.UART_DMARxHalfCplt)
    UART_EndRxTransfer                       0x08016fd9   Thumb Code   158  stm32h7xx_hal_uart.o(.text.UART_EndRxTransfer)
    [Anonymous Symbol]                       0x08016fd8   Section        0  stm32h7xx_hal_uart.o(.text.UART_EndRxTransfer)
    UART_EndTransmit_IT                      0x08017079   Thumb Code    68  stm32h7xx_hal_uart.o(.text.UART_EndTransmit_IT)
    [Anonymous Symbol]                       0x08017078   Section        0  stm32h7xx_hal_uart.o(.text.UART_EndTransmit_IT)
    UART_EndTxTransfer                       0x080170c1   Thumb Code    92  stm32h7xx_hal_uart.o(.text.UART_EndTxTransfer)
    [Anonymous Symbol]                       0x080170c0   Section        0  stm32h7xx_hal_uart.o(.text.UART_EndTxTransfer)
    [Anonymous Symbol]                       0x08017120   Section        0  stm32h7xx_hal_uart.o(.text.UART_SetConfig)
    [Anonymous Symbol]                       0x08017b70   Section        0  stm32h7xx_hal_uart.o(.text.UART_Start_Receive_DMA)
    [Anonymous Symbol]                       0x08017ca0   Section        0  stm32h7xx_hal_uart.o(.text.UART_WaitOnFlagUntilTimeout)
    [Anonymous Symbol]                       0x08017db0   Section        0  stm32h7xx_it.o(.text.USART10_IRQHandler)
    [Anonymous Symbol]                       0x08017dc0   Section        0  stm32h7xx_it.o(.text.USART1_IRQHandler)
    USBD_CDC_DataIn                          0x08017fd1   Thumb Code   244  usbd_cdc.o(.text.USBD_CDC_DataIn)
    [Anonymous Symbol]                       0x08017fd0   Section        0  usbd_cdc.o(.text.USBD_CDC_DataIn)
    USBD_CDC_DataOut                         0x080180c9   Thumb Code   112  usbd_cdc.o(.text.USBD_CDC_DataOut)
    [Anonymous Symbol]                       0x080180c8   Section        0  usbd_cdc.o(.text.USBD_CDC_DataOut)
    USBD_CDC_DeInit                          0x08018139   Thumb Code   236  usbd_cdc.o(.text.USBD_CDC_DeInit)
    [Anonymous Symbol]                       0x08018138   Section        0  usbd_cdc.o(.text.USBD_CDC_DeInit)
    USBD_CDC_EP0_RxReady                     0x08018229   Thumb Code   120  usbd_cdc.o(.text.USBD_CDC_EP0_RxReady)
    [Anonymous Symbol]                       0x08018228   Section        0  usbd_cdc.o(.text.USBD_CDC_EP0_RxReady)
    [Anonymous Symbol]                       0x080182a0   Section        0  usbd_cdc.o(.text.USBD_CDC_GetDeviceQualifierDescriptor)
    USBD_CDC_GetFSCfgDesc                    0x080182b9   Thumb Code   108  usbd_cdc.o(.text.USBD_CDC_GetFSCfgDesc)
    [Anonymous Symbol]                       0x080182b8   Section        0  usbd_cdc.o(.text.USBD_CDC_GetFSCfgDesc)
    USBD_CDC_GetHSCfgDesc                    0x08018329   Thumb Code   112  usbd_cdc.o(.text.USBD_CDC_GetHSCfgDesc)
    [Anonymous Symbol]                       0x08018328   Section        0  usbd_cdc.o(.text.USBD_CDC_GetHSCfgDesc)
    USBD_CDC_GetOtherSpeedCfgDesc            0x08018399   Thumb Code   108  usbd_cdc.o(.text.USBD_CDC_GetOtherSpeedCfgDesc)
    [Anonymous Symbol]                       0x08018398   Section        0  usbd_cdc.o(.text.USBD_CDC_GetOtherSpeedCfgDesc)
    USBD_CDC_Init                            0x08018409   Thumb Code   540  usbd_cdc.o(.text.USBD_CDC_Init)
    [Anonymous Symbol]                       0x08018408   Section        0  usbd_cdc.o(.text.USBD_CDC_Init)
    [Anonymous Symbol]                       0x08018628   Section        0  usbd_cdc.o(.text.USBD_CDC_ReceivePacket)
    [Anonymous Symbol]                       0x080186a8   Section        0  usbd_cdc.o(.text.USBD_CDC_RegisterInterface)
    [Anonymous Symbol]                       0x080186e0   Section        0  usbd_cdc.o(.text.USBD_CDC_SetRxBuffer)
    [Anonymous Symbol]                       0x08018720   Section        0  usbd_cdc.o(.text.USBD_CDC_SetTxBuffer)
    USBD_CDC_Setup                           0x08018769   Thumb Code   460  usbd_cdc.o(.text.USBD_CDC_Setup)
    [Anonymous Symbol]                       0x08018768   Section        0  usbd_cdc.o(.text.USBD_CDC_Setup)
    [Anonymous Symbol]                       0x08018938   Section        0  usbd_cdc.o(.text.USBD_CDC_TransmitPacket)
    [Anonymous Symbol]                       0x080189c0   Section        0  usbd_core.o(.text.USBD_ClrClassConfig)
    USBD_ClrFeature                          0x080189f9   Thumb Code    64  usbd_ctlreq.o(.text.USBD_ClrFeature)
    [Anonymous Symbol]                       0x080189f8   Section        0  usbd_ctlreq.o(.text.USBD_ClrFeature)
    [Anonymous Symbol]                       0x08018a38   Section        0  usbd_core.o(.text.USBD_CoreFindEP)
    [Anonymous Symbol]                       0x08018a48   Section        0  usbd_core.o(.text.USBD_CoreFindIF)
    [Anonymous Symbol]                       0x08018a58   Section        0  usbd_ioreq.o(.text.USBD_CtlContinueRx)
    [Anonymous Symbol]                       0x08018a78   Section        0  usbd_ioreq.o(.text.USBD_CtlContinueSendData)
    [Anonymous Symbol]                       0x08018a98   Section        0  usbd_ctlreq.o(.text.USBD_CtlError)
    [Anonymous Symbol]                       0x08018ab8   Section        0  usbd_ioreq.o(.text.USBD_CtlPrepareRx)
    [Anonymous Symbol]                       0x08018af0   Section        0  usbd_ioreq.o(.text.USBD_CtlReceiveStatus)
    [Anonymous Symbol]                       0x08018b18   Section        0  usbd_ioreq.o(.text.USBD_CtlSendData)
    [Anonymous Symbol]                       0x08018b50   Section        0  usbd_ioreq.o(.text.USBD_CtlSendStatus)
    USBD_GetConfig                           0x08018b79   Thumb Code   100  usbd_ctlreq.o(.text.USBD_GetConfig)
    [Anonymous Symbol]                       0x08018b78   Section        0  usbd_ctlreq.o(.text.USBD_GetConfig)
    USBD_GetDescriptor                       0x08018be1   Thumb Code   798  usbd_ctlreq.o(.text.USBD_GetDescriptor)
    [Anonymous Symbol]                       0x08018be0   Section        0  usbd_ctlreq.o(.text.USBD_GetDescriptor)
    [Anonymous Symbol]                       0x08018f00   Section        0  usbd_core.o(.text.USBD_GetEpDesc)
    USBD_GetLen                              0x08018f79   Thumb Code    50  usbd_ctlreq.o(.text.USBD_GetLen)
    [Anonymous Symbol]                       0x08018f78   Section        0  usbd_ctlreq.o(.text.USBD_GetLen)
    [Anonymous Symbol]                       0x08018fb0   Section        0  usbd_core.o(.text.USBD_GetNextDesc)
    USBD_GetStatus                           0x08018fd9   Thumb Code    98  usbd_ctlreq.o(.text.USBD_GetStatus)
    [Anonymous Symbol]                       0x08018fd8   Section        0  usbd_ctlreq.o(.text.USBD_GetStatus)
    [Anonymous Symbol]                       0x08019040   Section        0  usbd_ctlreq.o(.text.USBD_GetString)
    [Anonymous Symbol]                       0x08019100   Section        0  usbd_conf.o(.text.USBD_Get_USB_Status)
    [Anonymous Symbol]                       0x08019158   Section        0  usbd_desc.o(.text.USBD_HS_ConfigStrDescriptor)
    [Anonymous Symbol]                       0x080191a8   Section        0  usbd_desc.o(.text.USBD_HS_DeviceDescriptor)
    [Anonymous Symbol]                       0x080191c8   Section        0  usbd_desc.o(.text.USBD_HS_InterfaceStrDescriptor)
    [Anonymous Symbol]                       0x08019218   Section        0  usbd_desc.o(.text.USBD_HS_LangIDStrDescriptor)
    [Anonymous Symbol]                       0x08019238   Section        0  usbd_desc.o(.text.USBD_HS_ManufacturerStrDescriptor)
    [Anonymous Symbol]                       0x08019260   Section        0  usbd_desc.o(.text.USBD_HS_ProductStrDescriptor)
    [Anonymous Symbol]                       0x080192b0   Section        0  usbd_desc.o(.text.USBD_HS_SerialStrDescriptor)
    [Anonymous Symbol]                       0x080192d0   Section        0  usbd_core.o(.text.USBD_Init)
    [Anonymous Symbol]                       0x08019340   Section        0  usbd_conf.o(.text.USBD_LL_ClearStallEP)
    [Anonymous Symbol]                       0x08019380   Section        0  usbd_conf.o(.text.USBD_LL_CloseEP)
    [Anonymous Symbol]                       0x080193c0   Section        0  usbd_core.o(.text.USBD_LL_DataInStage)
    [Anonymous Symbol]                       0x08019550   Section        0  usbd_core.o(.text.USBD_LL_DataOutStage)
    [Anonymous Symbol]                       0x08019708   Section        0  usbd_core.o(.text.USBD_LL_DevConnected)
    [Anonymous Symbol]                       0x08019718   Section        0  usbd_core.o(.text.USBD_LL_DevDisconnected)
    [Anonymous Symbol]                       0x08019758   Section        0  usbd_conf.o(.text.USBD_LL_GetRxDataSize)
    [Anonymous Symbol]                       0x08019778   Section        0  usbd_conf.o(.text.USBD_LL_Init)
    [Anonymous Symbol]                       0x08019800   Section        0  usbd_conf.o(.text.USBD_LL_IsStallEP)
    [Anonymous Symbol]                       0x08019860   Section        0  usbd_core.o(.text.USBD_LL_IsoINIncomplete)
    [Anonymous Symbol]                       0x080198d0   Section        0  usbd_core.o(.text.USBD_LL_IsoOUTIncomplete)
    [Anonymous Symbol]                       0x08019940   Section        0  usbd_conf.o(.text.USBD_LL_OpenEP)
    [Anonymous Symbol]                       0x08019990   Section        0  usbd_conf.o(.text.USBD_LL_PrepareReceive)
    [Anonymous Symbol]                       0x080199d8   Section        0  usbd_core.o(.text.USBD_LL_Reset)
    [Anonymous Symbol]                       0x08019a78   Section        0  usbd_core.o(.text.USBD_LL_Resume)
    [Anonymous Symbol]                       0x08019aa0   Section        0  usbd_core.o(.text.USBD_LL_SOF)
    [Anonymous Symbol]                       0x08019ae0   Section        0  usbd_core.o(.text.USBD_LL_SetSpeed)
    [Anonymous Symbol]                       0x08019af8   Section        0  usbd_conf.o(.text.USBD_LL_SetUSBAddress)
    [Anonymous Symbol]                       0x08019b38   Section        0  usbd_core.o(.text.USBD_LL_SetupStage)
    [Anonymous Symbol]                       0x08019bd0   Section        0  usbd_conf.o(.text.USBD_LL_StallEP)
    [Anonymous Symbol]                       0x08019c10   Section        0  usbd_conf.o(.text.USBD_LL_Start)
    [Anonymous Symbol]                       0x08019c48   Section        0  usbd_core.o(.text.USBD_LL_Suspend)
    [Anonymous Symbol]                       0x08019c78   Section        0  usbd_conf.o(.text.USBD_LL_Transmit)
    [Anonymous Symbol]                       0x08019cc0   Section        0  usbd_ctlreq.o(.text.USBD_ParseSetupRequest)
    [Anonymous Symbol]                       0x08019d28   Section        0  usbd_core.o(.text.USBD_RegisterClass)
    [Anonymous Symbol]                       0x08019da0   Section        0  usbd_core.o(.text.USBD_RunTestMode)
    USBD_SetAddress                          0x08019db1   Thumb Code   140  usbd_ctlreq.o(.text.USBD_SetAddress)
    [Anonymous Symbol]                       0x08019db0   Section        0  usbd_ctlreq.o(.text.USBD_SetAddress)
    [Anonymous Symbol]                       0x08019e40   Section        0  usbd_core.o(.text.USBD_SetClassConfig)
    USBD_SetConfig                           0x08019e79   Thumb Code   382  usbd_ctlreq.o(.text.USBD_SetConfig)
    [Anonymous Symbol]                       0x08019e78   Section        0  usbd_ctlreq.o(.text.USBD_SetConfig)
    USBD_SetFeature                          0x08019ff9   Thumb Code    78  usbd_ctlreq.o(.text.USBD_SetFeature)
    [Anonymous Symbol]                       0x08019ff8   Section        0  usbd_ctlreq.o(.text.USBD_SetFeature)
    [Anonymous Symbol]                       0x0801a048   Section        0  usbd_core.o(.text.USBD_Start)
    [Anonymous Symbol]                       0x0801a058   Section        0  usbd_ctlreq.o(.text.USBD_StdDevReq)
    [Anonymous Symbol]                       0x0801a128   Section        0  usbd_ctlreq.o(.text.USBD_StdEPReq)
    [Anonymous Symbol]                       0x0801a4d8   Section        0  usbd_ctlreq.o(.text.USBD_StdItfReq)
    [Anonymous Symbol]                       0x0801a5d0   Section        0  usbd_conf.o(.text.USBD_static_free)
    [Anonymous Symbol]                       0x0801a5d8   Section        0  usbd_conf.o(.text.USBD_static_malloc)
    [Anonymous Symbol]                       0x0801a5e8   Section        0  stm32h7xx_ll_usb.o(.text.USB_ActivateEndpoint)
    [Anonymous Symbol]                       0x0801a6c8   Section        0  stm32h7xx_ll_usb.o(.text.USB_ActivateSetup)
    [Anonymous Symbol]                       0x0801a6f8   Section        0  stm32h7xx_ll_usb.o(.text.USB_CoreInit)
    USB_CoreReset                            0x0801a7e9   Thumb Code   118  stm32h7xx_ll_usb.o(.text.USB_CoreReset)
    [Anonymous Symbol]                       0x0801a7e8   Section        0  stm32h7xx_ll_usb.o(.text.USB_CoreReset)
    [Anonymous Symbol]                       0x0801a860   Section        0  stm32h7xx_ll_usb.o(.text.USB_DeactivateEndpoint)
    [Anonymous Symbol]                       0x0801a998   Section        0  stm32h7xx_ll_usb.o(.text.USB_DevConnect)
    [Anonymous Symbol]                       0x0801a9c8   Section        0  stm32h7xx_ll_usb.o(.text.USB_DevDisconnect)
    [Anonymous Symbol]                       0x0801a9f8   Section        0  stm32h7xx_ll_usb.o(.text.USB_DevInit)
    [Anonymous Symbol]                       0x0801ac88   Section        0  stm32h7xx_ll_usb.o(.text.USB_DisableGlobalInt)
    [Anonymous Symbol]                       0x0801aca0   Section        0  stm32h7xx_ll_usb.o(.text.USB_EP0_OutStart)
    [Anonymous Symbol]                       0x0801ad40   Section        0  stm32h7xx_ll_usb.o(.text.USB_EPClearStall)
    [Anonymous Symbol]                       0x0801ade0   Section        0  stm32h7xx_ll_usb.o(.text.USB_EPSetStall)
    [Anonymous Symbol]                       0x0801ae88   Section        0  stm32h7xx_ll_usb.o(.text.USB_EPStartXfer)
    [Anonymous Symbol]                       0x0801b270   Section        0  stm32h7xx_ll_usb.o(.text.USB_EPStopXfer)
    [Anonymous Symbol]                       0x0801b390   Section        0  stm32h7xx_ll_usb.o(.text.USB_EnableGlobalInt)
    [Anonymous Symbol]                       0x0801b3a8   Section        0  stm32h7xx_ll_usb.o(.text.USB_FlushRxFifo)
    [Anonymous Symbol]                       0x0801b420   Section        0  stm32h7xx_ll_usb.o(.text.USB_FlushTxFifo)
    [Anonymous Symbol]                       0x0801b4a0   Section        0  stm32h7xx_ll_usb.o(.text.USB_GetDevSpeed)
    [Anonymous Symbol]                       0x0801b4f0   Section        0  stm32h7xx_ll_usb.o(.text.USB_GetMode)
    [Anonymous Symbol]                       0x0801b500   Section        0  stm32h7xx_ll_usb.o(.text.USB_ReadDevAllInEpInterrupt)
    [Anonymous Symbol]                       0x0801b528   Section        0  stm32h7xx_ll_usb.o(.text.USB_ReadDevAllOutEpInterrupt)
    [Anonymous Symbol]                       0x0801b550   Section        0  stm32h7xx_ll_usb.o(.text.USB_ReadDevInEPInterrupt)
    [Anonymous Symbol]                       0x0801b5a0   Section        0  stm32h7xx_ll_usb.o(.text.USB_ReadDevOutEPInterrupt)
    [Anonymous Symbol]                       0x0801b5d0   Section        0  stm32h7xx_ll_usb.o(.text.USB_ReadInterrupts)
    [Anonymous Symbol]                       0x0801b5f0   Section        0  stm32h7xx_ll_usb.o(.text.USB_ReadPacket)
    [Anonymous Symbol]                       0x0801b6a8   Section        0  stm32h7xx_ll_usb.o(.text.USB_SetCurrentMode)
    [Anonymous Symbol]                       0x0801b788   Section        0  stm32h7xx_ll_usb.o(.text.USB_SetDevAddress)
    [Anonymous Symbol]                       0x0801b7c0   Section        0  stm32h7xx_ll_usb.o(.text.USB_SetDevSpeed)
    [Anonymous Symbol]                       0x0801b7e8   Section        0  stm32h7xx_ll_usb.o(.text.USB_SetTurnaroundTime)
    [Anonymous Symbol]                       0x0801b9a8   Section        0  stm32h7xx_ll_usb.o(.text.USB_WritePacket)
    [Anonymous Symbol]                       0x0801ba30   Section        0  stm32h7xx_it.o(.text.UsageFault_Handler)
    [Anonymous Symbol]                       0x0801ba38   Section        0  vmc.o(.text.VMC_Param_Updata)
    [Anonymous Symbol]                       0x0801bab8   Section        0  vmc.o(.text.VMC_liftoff_check)
    [Anonymous Symbol]                       0x0801bb80   Section        0  bsp_motor.o(.text.WheelMotor_Torque2Iq)
    [Anonymous Symbol]                       0x0801bb98   Section        0  bsp_ext.o(.text.Ws2812_set_one_color)
    [Anonymous Symbol]                       0x0801bc20   Section        0  bsp_ext.o(.text.Ws2812_task)
    [Anonymous Symbol]                       0x0801bc70   Section        0  xbox.o(.text.Xbox_rx_buf_Handle)
    __NVIC_EnableIRQ                         0x0801c081   Thumb Code    48  stm32h7xx_hal_cortex.o(.text.__NVIC_EnableIRQ)
    [Anonymous Symbol]                       0x0801c080   Section        0  stm32h7xx_hal_cortex.o(.text.__NVIC_EnableIRQ)
    __NVIC_GetPriorityGrouping               0x0801c0b1   Thumb Code    16  stm32h7xx_hal_cortex.o(.text.__NVIC_GetPriorityGrouping)
    [Anonymous Symbol]                       0x0801c0b0   Section        0  stm32h7xx_hal_cortex.o(.text.__NVIC_GetPriorityGrouping)
    __NVIC_SetPriority                       0x0801c0c1   Thumb Code    66  stm32h7xx_hal_cortex.o(.text.__NVIC_SetPriority)
    [Anonymous Symbol]                       0x0801c0c0   Section        0  stm32h7xx_hal_cortex.o(.text.__NVIC_SetPriority)
    __NVIC_SetPriority                       0x0801c109   Thumb Code    66  cmsis_os2.o(.text.__NVIC_SetPriority)
    [Anonymous Symbol]                       0x0801c108   Section        0  cmsis_os2.o(.text.__NVIC_SetPriority)
    __NVIC_SetPriorityGrouping               0x0801c151   Thumb Code    60  stm32h7xx_hal_cortex.o(.text.__NVIC_SetPriorityGrouping)
    [Anonymous Symbol]                       0x0801c150   Section        0  stm32h7xx_hal_cortex.o(.text.__NVIC_SetPriorityGrouping)
    [Anonymous Symbol]                       0x0801c18c   Section        0  arm_cos_f32.o(.text.arm_cos_f32)
    [Anonymous Symbol]                       0x0801c21c   Section        0  arm_mat_add_f32.o(.text.arm_mat_add_f32)
    [Anonymous Symbol]                       0x0801c2da   Section        0  arm_mat_init_f32.o(.text.arm_mat_init_f32)
    [Anonymous Symbol]                       0x0801c2e4   Section        0  arm_mat_inverse_f32.o(.text.arm_mat_inverse_f32)
    [Anonymous Symbol]                       0x0801c5b0   Section        0  arm_mat_mult_f32.o(.text.arm_mat_mult_f32)
    [Anonymous Symbol]                       0x0801c6e0   Section        0  arm_mat_sub_f32.o(.text.arm_mat_sub_f32)
    [Anonymous Symbol]                       0x0801c7a0   Section        0  arm_mat_trans_f32.o(.text.arm_mat_trans_f32)
    [Anonymous Symbol]                       0x0801c854   Section        0  arm_sin_f32.o(.text.arm_sin_f32)
    [Anonymous Symbol]                       0x0801c8e0   Section        0  bmi088driver.o(.text.bmi088_accel_init)
    [Anonymous Symbol]                       0x0801caa0   Section        0  bmi088driver.o(.text.bmi088_gyro_init)
    data_to_float                            0x0801cc19   Thumb Code    44  bsp_motor.o(.text.data_to_float)
    [Anonymous Symbol]                       0x0801cc18   Section        0  bsp_motor.o(.text.data_to_float)
    data_to_int                              0x0801cc49   Thumb Code    42  bsp_can.o(.text.data_to_int)
    [Anonymous Symbol]                       0x0801cc48   Section        0  bsp_can.o(.text.data_to_int)
    float_to_data                            0x0801cc79   Thumb Code    44  bsp_motor.o(.text.float_to_data)
    [Anonymous Symbol]                       0x0801cc78   Section        0  bsp_motor.o(.text.float_to_data)
    [Anonymous Symbol]                       0x0801cca8   Section        0  usart.o(.text.fputc)
    [Anonymous Symbol]                       0x0801ccd0   Section        0  mahony_filter.o(.text.mahony_init)
    [Anonymous Symbol]                       0x0801cd30   Section        0  mahony_filter.o(.text.mahony_input)
    [Anonymous Symbol]                       0x0801cd70   Section        0  mahony_filter.o(.text.mahony_output)
    [Anonymous Symbol]                       0x0801cdb8   Section        0  mahony_filter.o(.text.mahony_update)
    [Anonymous Symbol]                       0x0801d0b8   Section        0  main.o(.text.main)
    [Anonymous Symbol]                       0x0801d190   Section        0  cmsis_os2.o(.text.osDelay)
    [Anonymous Symbol]                       0x0801d1c8   Section        0  cmsis_os2.o(.text.osKernelInitialize)
    [Anonymous Symbol]                       0x0801d210   Section        0  cmsis_os2.o(.text.osKernelStart)
    [Anonymous Symbol]                       0x0801d268   Section        0  cmsis_os2.o(.text.osThreadNew)
    prvAddCurrentTaskToDelayedList           0x0801d3c9   Thumb Code   212  tasks.o(.text.prvAddCurrentTaskToDelayedList)
    [Anonymous Symbol]                       0x0801d3c8   Section        0  tasks.o(.text.prvAddCurrentTaskToDelayedList)
    prvAddNewTaskToReadyList                 0x0801d4a1   Thumb Code   290  tasks.o(.text.prvAddNewTaskToReadyList)
    [Anonymous Symbol]                       0x0801d4a0   Section        0  tasks.o(.text.prvAddNewTaskToReadyList)
    prvCheckForValidListAndQueue             0x0801d5c9   Thumb Code   162  timers.o(.text.prvCheckForValidListAndQueue)
    [Anonymous Symbol]                       0x0801d5c8   Section        0  timers.o(.text.prvCheckForValidListAndQueue)
    prvCheckTasksWaitingTermination          0x0801d671   Thumb Code    90  tasks.o(.text.prvCheckTasksWaitingTermination)
    [Anonymous Symbol]                       0x0801d670   Section        0  tasks.o(.text.prvCheckTasksWaitingTermination)
    prvCopyDataFromQueue                     0x0801d6d1   Thumb Code    66  queue.o(.text.prvCopyDataFromQueue)
    [Anonymous Symbol]                       0x0801d6d0   Section        0  queue.o(.text.prvCopyDataFromQueue)
    prvCopyDataToQueue                       0x0801d719   Thumb Code   204  queue.o(.text.prvCopyDataToQueue)
    [Anonymous Symbol]                       0x0801d718   Section        0  queue.o(.text.prvCopyDataToQueue)
    prvDeleteTCB                             0x0801d7e9   Thumb Code    94  tasks.o(.text.prvDeleteTCB)
    [Anonymous Symbol]                       0x0801d7e8   Section        0  tasks.o(.text.prvDeleteTCB)
    prvGetNextExpireTime                     0x0801d849   Thumb Code    64  timers.o(.text.prvGetNextExpireTime)
    [Anonymous Symbol]                       0x0801d848   Section        0  timers.o(.text.prvGetNextExpireTime)
    prvHeapInit                              0x0801d889   Thumb Code   188  heap_4.o(.text.prvHeapInit)
    [Anonymous Symbol]                       0x0801d888   Section        0  heap_4.o(.text.prvHeapInit)
    prvIdleTask                              0x0801d949   Thumb Code    56  tasks.o(.text.prvIdleTask)
    [Anonymous Symbol]                       0x0801d948   Section        0  tasks.o(.text.prvIdleTask)
    prvInitialiseNewQueue                    0x0801d981   Thumb Code    72  queue.o(.text.prvInitialiseNewQueue)
    [Anonymous Symbol]                       0x0801d980   Section        0  queue.o(.text.prvInitialiseNewQueue)
    prvInitialiseNewTask                     0x0801d9c9   Thumb Code   290  tasks.o(.text.prvInitialiseNewTask)
    [Anonymous Symbol]                       0x0801d9c8   Section        0  tasks.o(.text.prvInitialiseNewTask)
    prvInitialiseTaskLists                   0x0801daf1   Thumb Code   142  tasks.o(.text.prvInitialiseTaskLists)
    [Anonymous Symbol]                       0x0801daf0   Section        0  tasks.o(.text.prvInitialiseTaskLists)
    prvInsertBlockIntoFreeList               0x0801db81   Thumb Code   198  heap_4.o(.text.prvInsertBlockIntoFreeList)
    [Anonymous Symbol]                       0x0801db80   Section        0  heap_4.o(.text.prvInsertBlockIntoFreeList)
    prvInsertTimerInActiveList               0x0801dc49   Thumb Code   134  timers.o(.text.prvInsertTimerInActiveList)
    [Anonymous Symbol]                       0x0801dc48   Section        0  timers.o(.text.prvInsertTimerInActiveList)
    prvIsQueueEmpty                          0x0801dcd1   Thumb Code    40  queue.o(.text.prvIsQueueEmpty)
    [Anonymous Symbol]                       0x0801dcd0   Section        0  queue.o(.text.prvIsQueueEmpty)
    prvIsQueueFull                           0x0801dcf9   Thumb Code    46  queue.o(.text.prvIsQueueFull)
    [Anonymous Symbol]                       0x0801dcf8   Section        0  queue.o(.text.prvIsQueueFull)
    prvPortStartFirstTask                    0x0801dd29   Thumb Code    34  port.o(.text.prvPortStartFirstTask)
    [Anonymous Symbol]                       0x0801dd28   Section        0  port.o(.text.prvPortStartFirstTask)
    prvProcessExpiredTimer                   0x0801dd51   Thumb Code   142  timers.o(.text.prvProcessExpiredTimer)
    [Anonymous Symbol]                       0x0801dd50   Section        0  timers.o(.text.prvProcessExpiredTimer)
    prvProcessReceivedCommands               0x0801dde1   Thumb Code   402  timers.o(.text.prvProcessReceivedCommands)
    [Anonymous Symbol]                       0x0801dde0   Section        0  timers.o(.text.prvProcessReceivedCommands)
    prvProcessTimerOrBlockTask               0x0801df79   Thumb Code   154  timers.o(.text.prvProcessTimerOrBlockTask)
    [Anonymous Symbol]                       0x0801df78   Section        0  timers.o(.text.prvProcessTimerOrBlockTask)
    prvResetNextTaskUnblockTime              0x0801e019   Thumb Code    70  tasks.o(.text.prvResetNextTaskUnblockTime)
    [Anonymous Symbol]                       0x0801e018   Section        0  tasks.o(.text.prvResetNextTaskUnblockTime)
    prvSampleTimeNow                         0x0801e061   Thumb Code    68  timers.o(.text.prvSampleTimeNow)
    [Anonymous Symbol]                       0x0801e060   Section        0  timers.o(.text.prvSampleTimeNow)
    prvSwitchTimerLists                      0x0801e0a9   Thumb Code   212  timers.o(.text.prvSwitchTimerLists)
    [Anonymous Symbol]                       0x0801e0a8   Section        0  timers.o(.text.prvSwitchTimerLists)
    prvTaskExitError                         0x0801e181   Thumb Code    76  port.o(.text.prvTaskExitError)
    [Anonymous Symbol]                       0x0801e180   Section        0  port.o(.text.prvTaskExitError)
    prvTimerTask                             0x0801e1d1   Thumb Code    30  timers.o(.text.prvTimerTask)
    [Anonymous Symbol]                       0x0801e1d0   Section        0  timers.o(.text.prvTimerTask)
    prvUnlockQueue                           0x0801e1f1   Thumb Code   174  queue.o(.text.prvUnlockQueue)
    [Anonymous Symbol]                       0x0801e1f0   Section        0  queue.o(.text.prvUnlockQueue)
    [Anonymous Symbol]                       0x0801e2a0   Section        0  heap_4.o(.text.pvPortMalloc)
    [Anonymous Symbol]                       0x0801e490   Section        0  port.o(.text.pxPortInitialiseStack)
    q510_to_float                            0x0801e4f1   Thumb Code    48  bsp_motor.o(.text.q510_to_float)
    [Anonymous Symbol]                       0x0801e4f0   Section        0  bsp_motor.o(.text.q510_to_float)
    [Anonymous Symbol]                       0x0801e520   Section        0  list.o(.text.uxListRemove)
    [Anonymous Symbol]                       0x0801e568   Section        0  cmsis_os2.o(.text.vApplicationGetIdleTaskMemory)
    [Anonymous Symbol]                       0x0801e598   Section        0  cmsis_os2.o(.text.vApplicationGetTimerTaskMemory)
    [Anonymous Symbol]                       0x0801e5c8   Section        0  list.o(.text.vListInitialise)
    [Anonymous Symbol]                       0x0801e5f8   Section        0  list.o(.text.vListInitialiseItem)
    [Anonymous Symbol]                       0x0801e608   Section        0  list.o(.text.vListInsert)
    [Anonymous Symbol]                       0x0801e678   Section        0  list.o(.text.vListInsertEnd)
    vPortEnableVFP                           0x0801e6b9   Thumb Code    14  port.o(.text.vPortEnableVFP)
    [Anonymous Symbol]                       0x0801e6b8   Section        0  port.o(.text.vPortEnableVFP)
    [Anonymous Symbol]                       0x0801e6d0   Section        0  port.o(.text.vPortEnterCritical)
    [Anonymous Symbol]                       0x0801e728   Section        0  port.o(.text.vPortExitCritical)
    [Anonymous Symbol]                       0x0801e778   Section        0  heap_4.o(.text.vPortFree)
    [Anonymous Symbol]                       0x0801e848   Section        0  port.o(.text.vPortSetupTimerInterrupt)
    [Anonymous Symbol]                       0x0801e890   Section        0  port.o(.text.vPortValidateInterruptPriority)
    [Anonymous Symbol]                       0x0801e918   Section        0  queue.o(.text.vQueueAddToRegistry)
    [Anonymous Symbol]                       0x0801e970   Section        0  queue.o(.text.vQueueWaitForMessageRestricted)
    [Anonymous Symbol]                       0x0801e9d8   Section        0  tasks.o(.text.vTaskDelay)
    [Anonymous Symbol]                       0x0801ea48   Section        0  tasks.o(.text.vTaskInternalSetTimeOutState)
    [Anonymous Symbol]                       0x0801ea70   Section        0  tasks.o(.text.vTaskMissedYield)
    [Anonymous Symbol]                       0x0801ea80   Section        0  tasks.o(.text.vTaskPlaceOnEventList)
    [Anonymous Symbol]                       0x0801eac8   Section        0  tasks.o(.text.vTaskPlaceOnEventListRestricted)
    [Anonymous Symbol]                       0x0801eb20   Section        0  tasks.o(.text.vTaskStartScheduler)
    [Anonymous Symbol]                       0x0801ec00   Section        0  tasks.o(.text.vTaskSuspend)
    [Anonymous Symbol]                       0x0801ed28   Section        0  tasks.o(.text.vTaskSuspendAll)
    [Anonymous Symbol]                       0x0801ed38   Section        0  tasks.o(.text.vTaskSwitchContext)
    [Anonymous Symbol]                       0x0801ee00   Section        0  vmc.o(.text.vmc_task)
    [Anonymous Symbol]                       0x0801f918   Section        0  bsp_ext.o(.text.ws2812_set_RGB)
    [Anonymous Symbol]                       0x0801f9b8   Section        0  port.o(.text.xPortStartScheduler)
    [Anonymous Symbol]                       0x0801fb10   Section        0  port.o(.text.xPortSysTickHandler)
    [Anonymous Symbol]                       0x0801fb50   Section        0  queue.o(.text.xQueueGenericCreateStatic)
    [Anonymous Symbol]                       0x0801fc60   Section        0  queue.o(.text.xQueueGenericReset)
    [Anonymous Symbol]                       0x0801fd20   Section        0  queue.o(.text.xQueueGenericSend)
    [Anonymous Symbol]                       0x0801ff50   Section        0  queue.o(.text.xQueueGenericSendFromISR)
    [Anonymous Symbol]                       0x080200a0   Section        0  queue.o(.text.xQueueReceive)
    [Anonymous Symbol]                       0x08020280   Section        0  tasks.o(.text.xTaskCheckForTimeOut)
    [Anonymous Symbol]                       0x08020350   Section        0  tasks.o(.text.xTaskCreate)
    [Anonymous Symbol]                       0x080203f0   Section        0  tasks.o(.text.xTaskCreateStatic)
    [Anonymous Symbol]                       0x080204c0   Section        0  tasks.o(.text.xTaskGetSchedulerState)
    [Anonymous Symbol]                       0x080204f8   Section        0  tasks.o(.text.xTaskGetTickCount)
    [Anonymous Symbol]                       0x08020510   Section        0  tasks.o(.text.xTaskIncrementTick)
    [Anonymous Symbol]                       0x080206d8   Section        0  tasks.o(.text.xTaskPriorityDisinherit)
    [Anonymous Symbol]                       0x080207c8   Section        0  tasks.o(.text.xTaskRemoveFromEventList)
    [Anonymous Symbol]                       0x08020898   Section        0  tasks.o(.text.xTaskResumeAll)
    [Anonymous Symbol]                       0x08020a20   Section        0  timers.o(.text.xTimerCreateTimerTask)
    [Anonymous Symbol]                       0x08020ab8   Section        0  timers.o(.text.xTimerGenericCommand)
    [Anonymous Symbol]                       0x08020b68   Section        0  observe_task.o(.text.xvEstimateKF_Init)
    [Anonymous Symbol]                       0x08020c40   Section        0  observe_task.o(.text.xvEstimateKF_Update)
    i.__0printf                              0x08020ca8   Section        0  printfa.o(i.__0printf)
    i.__0sprintf                             0x08020cc8   Section        0  printfa.o(i.__0sprintf)
    i.__ARM_fpclassifyf                      0x08020cf0   Section        0  fpclassifyf.o(i.__ARM_fpclassifyf)
    i.__hardfp_asinf                         0x08020d18   Section        0  asinf.o(i.__hardfp_asinf)
    i.__hardfp_atan2f                        0x08020e44   Section        0  atan2f.o(i.__hardfp_atan2f)
    i.__hardfp_atof                          0x080210f0   Section        0  atof.o(i.__hardfp_atof)
    i.__hardfp_sqrt                          0x08021128   Section        0  sqrt.o(i.__hardfp_sqrt)
    i.__hardfp_sqrtf                         0x0802118e   Section        0  sqrtf.o(i.__hardfp_sqrtf)
    i.__mathlib_flt_infnan                   0x080211c8   Section        0  funder.o(i.__mathlib_flt_infnan)
    i.__mathlib_flt_infnan2                  0x080211ce   Section        0  funder.o(i.__mathlib_flt_infnan2)
    i.__mathlib_flt_invalid                  0x080211d4   Section        0  funder.o(i.__mathlib_flt_invalid)
    i.__mathlib_flt_underflow                0x080211e4   Section        0  funder.o(i.__mathlib_flt_underflow)
    i.__read_errno                           0x080211f4   Section        0  errno.o(i.__read_errno)
    i.__scatterload_copy                     0x08021200   Section       14  handlers.o(i.__scatterload_copy)
    i.__scatterload_null                     0x0802120e   Section        2  handlers.o(i.__scatterload_null)
    i.__scatterload_zeroinit                 0x08021210   Section       14  handlers.o(i.__scatterload_zeroinit)
    i.__set_errno                            0x08021220   Section        0  errno.o(i.__set_errno)
    _fp_digits                               0x0802122d   Thumb Code   366  printfa.o(i._fp_digits)
    i._fp_digits                             0x0802122c   Section        0  printfa.o(i._fp_digits)
    i._is_digit                              0x080213b0   Section        0  scanf_fp.o(i._is_digit)
    _printf_core                             0x080213c1   Thumb Code  1744  printfa.o(i._printf_core)
    i._printf_core                           0x080213c0   Section        0  printfa.o(i._printf_core)
    _printf_post_padding                     0x08021a9d   Thumb Code    36  printfa.o(i._printf_post_padding)
    i._printf_post_padding                   0x08021a9c   Section        0  printfa.o(i._printf_post_padding)
    _printf_pre_padding                      0x08021ac1   Thumb Code    46  printfa.o(i._printf_pre_padding)
    i._printf_pre_padding                    0x08021ac0   Section        0  printfa.o(i._printf_pre_padding)
    _sputc                                   0x08021aef   Thumb Code    10  printfa.o(i._sputc)
    i._sputc                                 0x08021aee   Section        0  printfa.o(i._sputc)
    i.malloc                                 0x08021af8   Section        0  malloc.o(i.malloc)
    i.sqrtf                                  0x08021b64   Section        0  sqrtf.o(i.sqrtf)
    .constdata                               0x08021ba2   Section       64  ctype_c.o(.constdata)
    .L__const.HAL_FDCAN_Init.CvtEltSize      0x08021be4   Data          76  stm32h7xx_hal_fdcan.o(.rodata..L__const.HAL_FDCAN_Init.CvtEltSize)
    DLCtoBytes                               0x08021c40   Data          16  stm32h7xx_hal_fdcan.o(.rodata.DLCtoBytes)
    [Anonymous Symbol]                       0x08021c40   Section        0  stm32h7xx_hal_fdcan.o(.rodata.DLCtoBytes)
    DMA_CalcBaseAndBitshift.flagBitshiftOffset 0x08021c50   Data           8  stm32h7xx_hal_dma.o(.rodata.DMA_CalcBaseAndBitshift.flagBitshiftOffset)
    [Anonymous Symbol]                       0x08021c50   Section        0  stm32h7xx_hal_dma.o(.rodata.DMA_CalcBaseAndBitshift.flagBitshiftOffset)
    UARTEx_SetNbDataToProcess.denominator    0x08021c58   Data           8  stm32h7xx_hal_uart_ex.o(.rodata.UARTEx_SetNbDataToProcess.denominator)
    [Anonymous Symbol]                       0x08021c58   Section        0  stm32h7xx_hal_uart_ex.o(.rodata.UARTEx_SetNbDataToProcess.denominator)
    UARTEx_SetNbDataToProcess.numerator      0x08021c60   Data           8  stm32h7xx_hal_uart_ex.o(.rodata.UARTEx_SetNbDataToProcess.numerator)
    [Anonymous Symbol]                       0x08021c60   Section        0  stm32h7xx_hal_uart_ex.o(.rodata.UARTEx_SetNbDataToProcess.numerator)
    .L.str.9                                 0x080225c8   Data          29  freertos.o(.rodata.str1.1)
    [Anonymous Symbol]                       0x080225c8   Section        0  freertos.o(.rodata.str1.1)
    .L.str.30                                0x080225e5   Data          37  freertos.o(.rodata.str1.1)
    .L.str.26                                0x0802260a   Data          30  freertos.o(.rodata.str1.1)
    .L.str.24                                0x08022628   Data          30  freertos.o(.rodata.str1.1)
    .L.str.27                                0x08022646   Data          30  freertos.o(.rodata.str1.1)
    .L.str.25                                0x08022664   Data          30  freertos.o(.rodata.str1.1)
    .L.str.23                                0x08022682   Data          36  freertos.o(.rodata.str1.1)
    .L.str.28                                0x080226a6   Data          17  freertos.o(.rodata.str1.1)
    .L.str.10                                0x080226b7   Data           9  freertos.o(.rodata.str1.1)
    .L.str.11                                0x080226c0   Data          12  freertos.o(.rodata.str1.1)
    .L.str.12                                0x080226cc   Data          12  freertos.o(.rodata.str1.1)
    .L.str.13                                0x080226d8   Data          12  freertos.o(.rodata.str1.1)
    .L.str.14                                0x080226e4   Data          12  freertos.o(.rodata.str1.1)
    .L.str.16                                0x0802271c   Data          12  freertos.o(.rodata.str1.1)
    .L.str.19                                0x08022728   Data          12  freertos.o(.rodata.str1.1)
    .L.str.22                                0x08022734   Data          11  freertos.o(.rodata.str1.1)
    .L.str.18                                0x0802274e   Data          12  freertos.o(.rodata.str1.1)
    .L.str.21                                0x0802275a   Data          11  freertos.o(.rodata.str1.1)
    .L.str.15                                0x08022771   Data          12  freertos.o(.rodata.str1.1)
    .L.str.17                                0x0802277d   Data          12  freertos.o(.rodata.str1.1)
    .L.str.20                                0x08022789   Data          11  freertos.o(.rodata.str1.1)
    .L.str.29                                0x080227b3   Data          90  freertos.o(.rodata.str1.1)
    .L.str                                   0x08022818   Data           5  tasks.o(.rodata.str1.1)
    [Anonymous Symbol]                       0x08022818   Section        0  tasks.o(.rodata.str1.1)
    .L.str.1                                 0x0802281d   Data           5  timers.o(.rodata.str1.1)
    [Anonymous Symbol]                       0x0802281d   Section        0  timers.o(.rodata.str1.1)
    .L.str                                   0x08022822   Data           8  timers.o(.rodata.str1.1)
    .L.str.3                                 0x0802282a   Data          14  usbd_desc.o(.rodata.str1.1)
    [Anonymous Symbol]                       0x0802282a   Section        0  usbd_desc.o(.rodata.str1.1)
    .L.str.2                                 0x08022838   Data          11  usbd_desc.o(.rodata.str1.1)
    .L.str.1                                 0x08022843   Data          19  usbd_desc.o(.rodata.str1.1)
    .L.str                                   0x08022856   Data          22  usbd_desc.o(.rodata.str1.1)
    .L.str.1                                 0x0802286c   Data          23  defs_parser.o(.rodata.str1.1)
    [Anonymous Symbol]                       0x0802286c   Section        0  defs_parser.o(.rodata.str1.1)
    .L.str.2                                 0x08022883   Data          26  defs_parser.o(.rodata.str1.1)
    .L.str                                   0x0802289d   Data          21  defs_parser.o(.rodata.str1.1)
    .data                                    0x24000000   Section        4  stdout.o(.data)
    .data                                    0x24000004   Section        4  mvars.o(.data)
    .data                                    0x24000008   Section        4  mvars.o(.data)
    _errno                                   0x2400000c   Data           4  errno.o(.data)
    .data                                    0x2400000c   Section        4  errno.o(.data)
    CDCCmdEpAdd                              0x24000018   Data           1  usbd_cdc.o(.data.CDCCmdEpAdd)
    [Anonymous Symbol]                       0x24000018   Section        0  usbd_cdc.o(.data.CDCCmdEpAdd)
    CDCInEpAdd                               0x24000019   Data           1  usbd_cdc.o(.data.CDCInEpAdd)
    [Anonymous Symbol]                       0x24000019   Section        0  usbd_cdc.o(.data.CDCInEpAdd)
    CDCOutEpAdd                              0x2400001a   Data           1  usbd_cdc.o(.data.CDCOutEpAdd)
    [Anonymous Symbol]                       0x2400001a   Section        0  usbd_cdc.o(.data.CDCOutEpAdd)
    Calibrate_MPU_Offset.CaliTimes           0x2400001c   Data           2  bmi088driver.o(.data.Calibrate_MPU_Offset.CaliTimes)
    [Anonymous Symbol]                       0x2400001c   Section        0  bmi088driver.o(.data.Calibrate_MPU_Offset.CaliTimes)
    Calibrate_MPU_Offset.acc_CaliTimes       0x2400001e   Data           2  bmi088driver.o(.data.Calibrate_MPU_Offset.acc_CaliTimes)
    [Anonymous Symbol]                       0x2400001e   Section        0  bmi088driver.o(.data.Calibrate_MPU_Offset.acc_CaliTimes)
    USBD_CDC_CfgDesc                         0x24000084   Data          67  usbd_cdc.o(.data.USBD_CDC_CfgDesc)
    [Anonymous Symbol]                       0x24000084   Section        0  usbd_cdc.o(.data.USBD_CDC_CfgDesc)
    USBD_CDC_DeviceQualifierDesc             0x240000c8   Data          10  usbd_cdc.o(.data.USBD_CDC_DeviceQualifierDesc)
    [Anonymous Symbol]                       0x240000c8   Section        0  usbd_cdc.o(.data.USBD_CDC_DeviceQualifierDesc)
    uxCriticalNesting                        0x2400026c   Data           4  port.o(.data.uxCriticalNesting)
    [Anonymous Symbol]                       0x2400026c   Section        0  port.o(.data.uxCriticalNesting)
    write_BMI088_accel_reg_data_error        0x240002bc   Data          18  bmi088driver.o(.data.write_BMI088_accel_reg_data_error)
    [Anonymous Symbol]                       0x240002bc   Section        0  bmi088driver.o(.data.write_BMI088_accel_reg_data_error)
    write_BMI088_gyro_reg_data_error         0x240002ce   Data          18  bmi088driver.o(.data.write_BMI088_gyro_reg_data_error)
    [Anonymous Symbol]                       0x240002ce   Section        0  bmi088driver.o(.data.write_BMI088_gyro_reg_data_error)
    BMI088_Read.bmi088_raw_temp              0x2400032c   Data           2  bmi088driver.o(.bss.BMI088_Read.bmi088_raw_temp)
    [Anonymous Symbol]                       0x2400032c   Section        0  bmi088driver.o(.bss.BMI088_Read.bmi088_raw_temp)
    BMI088_Read.buf                          0x2400032e   Data           8  bmi088driver.o(.bss.BMI088_Read.buf)
    [Anonymous Symbol]                       0x2400032e   Section        0  bmi088driver.o(.bss.BMI088_Read.buf)
    CPU_FREQ_Hz                              0x24000344   Data           4  bsp_dwt.o(.bss.CPU_FREQ_Hz)
    [Anonymous Symbol]                       0x24000344   Section        0  bsp_dwt.o(.bss.CPU_FREQ_Hz)
    CPU_FREQ_Hz_ms                           0x24000348   Data           4  bsp_dwt.o(.bss.CPU_FREQ_Hz_ms)
    [Anonymous Symbol]                       0x24000348   Section        0  bsp_dwt.o(.bss.CPU_FREQ_Hz_ms)
    CPU_FREQ_Hz_us                           0x2400034c   Data           4  bsp_dwt.o(.bss.CPU_FREQ_Hz_us)
    [Anonymous Symbol]                       0x2400034c   Section        0  bsp_dwt.o(.bss.CPU_FREQ_Hz_us)
    CYCCNT_LAST                              0x24000358   Data           4  bsp_dwt.o(.bss.CYCCNT_LAST)
    [Anonymous Symbol]                       0x24000358   Section        0  bsp_dwt.o(.bss.CYCCNT_LAST)
    CYCCNT_RountCount                        0x2400035c   Data           4  bsp_dwt.o(.bss.CYCCNT_RountCount)
    [Anonymous Symbol]                       0x2400035c   Section        0  bsp_dwt.o(.bss.CYCCNT_RountCount)
    Calibrate_MPU_Offset.startTime           0x24000360   Data           4  bmi088driver.o(.bss.Calibrate_MPU_Offset.startTime)
    [Anonymous Symbol]                       0x24000360   Section        0  bmi088driver.o(.bss.Calibrate_MPU_Offset.startTime)
    DEFS_PushChar2RawBuf.begin_new_frame_flag 0x24000364   Data           1  defs_parser.o(.bss.DEFS_PushChar2RawBuf.begin_new_frame_flag)
    [Anonymous Symbol]                       0x24000364   Section        0  defs_parser.o(.bss.DEFS_PushChar2RawBuf.begin_new_frame_flag)
    DEFS_PushChar2RawBuf.recv_index          0x24000366   Data           2  defs_parser.o(.bss.DEFS_PushChar2RawBuf.recv_index)
    [Anonymous Symbol]                       0x24000366   Section        0  defs_parser.o(.bss.DEFS_PushChar2RawBuf.recv_index)
    DWT_SysTimeUpdate.CNT_TEMP1              0x24000368   Data           8  bsp_dwt.o(.bss.DWT_SysTimeUpdate.CNT_TEMP1)
    [Anonymous Symbol]                       0x24000368   Section        0  bsp_dwt.o(.bss.DWT_SysTimeUpdate.CNT_TEMP1)
    DWT_SysTimeUpdate.CNT_TEMP2              0x24000370   Data           8  bsp_dwt.o(.bss.DWT_SysTimeUpdate.CNT_TEMP2)
    [Anonymous Symbol]                       0x24000370   Section        0  bsp_dwt.o(.bss.DWT_SysTimeUpdate.CNT_TEMP2)
    DWT_SysTimeUpdate.CNT_TEMP3              0x24000378   Data           8  bsp_dwt.o(.bss.DWT_SysTimeUpdate.CNT_TEMP3)
    [Anonymous Symbol]                       0x24000378   Section        0  bsp_dwt.o(.bss.DWT_SysTimeUpdate.CNT_TEMP3)
    Get_Control_Tar_Info.cnt                 0x24000380   Data           1  chassis_task.o(.bss.Get_Control_Tar_Info.cnt)
    [Anonymous Symbol]                       0x24000380   Section        0  chassis_task.o(.bss.Get_Control_Tar_Info.cnt)
    KernelState                              0x24000438   Data           4  cmsis_os2.o(.bss.KernelState)
    [Anonymous Symbol]                       0x24000438   Section        0  cmsis_os2.o(.bss.KernelState)
    Observe_task.aver_v                      0x2400043c   Data           4  observe_task.o(.bss.Observe_task.aver_v)
    [Anonymous Symbol]                       0x2400043c   Section        0  observe_task.o(.bss.Observe_task.aver_v)
    Observe_task.vlb                         0x24000440   Data           4  observe_task.o(.bss.Observe_task.vlb)
    [Anonymous Symbol]                       0x24000440   Section        0  observe_task.o(.bss.Observe_task.vlb)
    Observe_task.vrb                         0x24000444   Data           4  observe_task.o(.bss.Observe_task.vrb)
    [Anonymous Symbol]                       0x24000444   Section        0  observe_task.o(.bss.Observe_task.vrb)
    Observe_task.wl                          0x24000448   Data           4  observe_task.o(.bss.Observe_task.wl)
    [Anonymous Symbol]                       0x24000448   Section        0  observe_task.o(.bss.Observe_task.wl)
    Observe_task.wr                          0x2400044c   Data           4  observe_task.o(.bss.Observe_task.wr)
    [Anonymous Symbol]                       0x2400044c   Section        0  observe_task.o(.bss.Observe_task.wr)
    RGB_buffur                               0x24000450   Data         784  bsp_ext.o(.bss.RGB_buffur)
    [Anonymous Symbol]                       0x24000450   Section        0  bsp_ext.o(.bss.RGB_buffur)
    RGB_buffur_Copy                          0x24000760   Data         784  bsp_ext.o(.bss.RGB_buffur_Copy)
    [Anonymous Symbol]                       0x24000760   Section        0  bsp_ext.o(.bss.RGB_buffur_Copy)
    Servo_task.cnt                           0x24000ae0   Data           1  bsp_ext.o(.bss.Servo_task.cnt)
    [Anonymous Symbol]                       0x24000ae0   Section        0  bsp_ext.o(.bss.Servo_task.cnt)
    USBD_SetConfig.cfgidx                    0x24000b58   Data           1  usbd_ctlreq.o(.bss.USBD_SetConfig.cfgidx)
    [Anonymous Symbol]                       0x24000b58   Section        0  usbd_ctlreq.o(.bss.USBD_SetConfig.cfgidx)
    USBD_static_malloc.mem                   0x24000d5c   Data         544  usbd_conf.o(.bss.USBD_static_malloc.mem)
    [Anonymous Symbol]                       0x24000d5c   Section        0  usbd_conf.o(.bss.USBD_static_malloc.mem)
    Ws2812_task.cnt                          0x2400200c   Data           1  bsp_ext.o(.bss.Ws2812_task.cnt)
    [Anonymous Symbol]                       0x2400200c   Section        0  bsp_ext.o(.bss.Ws2812_task.cnt)
    error                                    0x24002015   Data           1  bmi088driver.o(.bss.error)
    [Anonymous Symbol]                       0x24002015   Section        0  bmi088driver.o(.bss.error)
    jump_time                                0x24002f35   Data           1  vmc.o(.bss.jump_time)
    [Anonymous Symbol]                       0x24002f35   Section        0  vmc.o(.bss.jump_time)
    prvCheckForValidListAndQueue.ucStaticTimerQueueStorage 0x24003120   Data         160  timers.o(.bss.prvCheckForValidListAndQueue.ucStaticTimerQueueStorage)
    [Anonymous Symbol]                       0x24003120   Section        0  timers.o(.bss.prvCheckForValidListAndQueue.ucStaticTimerQueueStorage)
    prvCheckForValidListAndQueue.xStaticTimerQueue 0x240031c0   Data          80  timers.o(.bss.prvCheckForValidListAndQueue.xStaticTimerQueue)
    [Anonymous Symbol]                       0x240031c0   Section        0  timers.o(.bss.prvCheckForValidListAndQueue.xStaticTimerQueue)
    prvSampleTimeNow.xLastTime               0x24003210   Data           4  timers.o(.bss.prvSampleTimeNow.xLastTime)
    [Anonymous Symbol]                       0x24003210   Section        0  timers.o(.bss.prvSampleTimeNow.xLastTime)
    pxCurrentTimerList                       0x24003218   Data           4  timers.o(.bss.pxCurrentTimerList)
    [Anonymous Symbol]                       0x24003218   Section        0  timers.o(.bss.pxCurrentTimerList)
    pxDelayedTaskList                        0x2400321c   Data           4  tasks.o(.bss.pxDelayedTaskList)
    [Anonymous Symbol]                       0x2400321c   Section        0  tasks.o(.bss.pxDelayedTaskList)
    pxEnd                                    0x24003220   Data           4  heap_4.o(.bss.pxEnd)
    [Anonymous Symbol]                       0x24003220   Section        0  heap_4.o(.bss.pxEnd)
    pxOverflowDelayedTaskList                0x24003224   Data           4  tasks.o(.bss.pxOverflowDelayedTaskList)
    [Anonymous Symbol]                       0x24003224   Section        0  tasks.o(.bss.pxOverflowDelayedTaskList)
    pxOverflowTimerList                      0x24003228   Data           4  timers.o(.bss.pxOverflowTimerList)
    [Anonymous Symbol]                       0x24003228   Section        0  timers.o(.bss.pxOverflowTimerList)
    pxReadyTasksLists                        0x2400322c   Data        1120  tasks.o(.bss.pxReadyTasksLists)
    [Anonymous Symbol]                       0x2400322c   Section        0  tasks.o(.bss.pxReadyTasksLists)
    res                                      0x24003698   Data           1  bmi088driver.o(.bss.res)
    [Anonymous Symbol]                       0x24003698   Section        0  bmi088driver.o(.bss.res)
    tim                                      0x2400376a   Data           1  bsp_can.o(.bss.tim)
    [Anonymous Symbol]                       0x2400376a   Section        0  bsp_can.o(.bss.tim)
    ucHeap                                   0x240037d1   Data       15360  heap_4.o(.bss.ucHeap)
    [Anonymous Symbol]                       0x240037d1   Section        0  heap_4.o(.bss.ucHeap)
    ucMaxSysCallPriority                     0x240073d1   Data           1  port.o(.bss.ucMaxSysCallPriority)
    [Anonymous Symbol]                       0x240073d1   Section        0  port.o(.bss.ucMaxSysCallPriority)
    ulMaxPRIGROUPValue                       0x240073d4   Data           4  port.o(.bss.ulMaxPRIGROUPValue)
    [Anonymous Symbol]                       0x240073d4   Section        0  port.o(.bss.ulMaxPRIGROUPValue)
    uxCurrentNumberOfTasks                   0x240077e0   Data           4  tasks.o(.bss.uxCurrentNumberOfTasks)
    [Anonymous Symbol]                       0x240077e0   Section        0  tasks.o(.bss.uxCurrentNumberOfTasks)
    uxDeletedTasksWaitingCleanUp             0x240077e4   Data           4  tasks.o(.bss.uxDeletedTasksWaitingCleanUp)
    [Anonymous Symbol]                       0x240077e4   Section        0  tasks.o(.bss.uxDeletedTasksWaitingCleanUp)
    uxSchedulerSuspended                     0x240077e8   Data           4  tasks.o(.bss.uxSchedulerSuspended)
    [Anonymous Symbol]                       0x240077e8   Section        0  tasks.o(.bss.uxSchedulerSuspended)
    uxTaskNumber                             0x240077ec   Data           4  tasks.o(.bss.uxTaskNumber)
    [Anonymous Symbol]                       0x240077ec   Section        0  tasks.o(.bss.uxTaskNumber)
    uxTopReadyPriority                       0x240077f0   Data           4  tasks.o(.bss.uxTopReadyPriority)
    [Anonymous Symbol]                       0x240077f0   Section        0  tasks.o(.bss.uxTopReadyPriority)
    vApplicationGetIdleTaskMemory.Idle_Stack 0x240077f4   Data         512  cmsis_os2.o(.bss.vApplicationGetIdleTaskMemory.Idle_Stack)
    [Anonymous Symbol]                       0x240077f4   Section        0  cmsis_os2.o(.bss.vApplicationGetIdleTaskMemory.Idle_Stack)
    vApplicationGetIdleTaskMemory.Idle_TCB   0x240079f4   Data          92  cmsis_os2.o(.bss.vApplicationGetIdleTaskMemory.Idle_TCB)
    [Anonymous Symbol]                       0x240079f4   Section        0  cmsis_os2.o(.bss.vApplicationGetIdleTaskMemory.Idle_TCB)
    vApplicationGetTimerTaskMemory.Timer_Stack 0x24007a50   Data        1024  cmsis_os2.o(.bss.vApplicationGetTimerTaskMemory.Timer_Stack)
    [Anonymous Symbol]                       0x24007a50   Section        0  cmsis_os2.o(.bss.vApplicationGetTimerTaskMemory.Timer_Stack)
    vApplicationGetTimerTaskMemory.Timer_TCB 0x24007e50   Data          92  cmsis_os2.o(.bss.vApplicationGetTimerTaskMemory.Timer_TCB)
    [Anonymous Symbol]                       0x24007e50   Section        0  cmsis_os2.o(.bss.vApplicationGetTimerTaskMemory.Timer_TCB)
    write_reg_num                            0x24007ff8   Data           1  bmi088driver.o(.bss.write_reg_num)
    [Anonymous Symbol]                       0x24007ff8   Section        0  bmi088driver.o(.bss.write_reg_num)
    xActiveTimerList1                        0x24007ffc   Data          20  timers.o(.bss.xActiveTimerList1)
    [Anonymous Symbol]                       0x24007ffc   Section        0  timers.o(.bss.xActiveTimerList1)
    xActiveTimerList2                        0x24008010   Data          20  timers.o(.bss.xActiveTimerList2)
    [Anonymous Symbol]                       0x24008010   Section        0  timers.o(.bss.xActiveTimerList2)
    xBlockAllocatedBit                       0x24008024   Data           4  heap_4.o(.bss.xBlockAllocatedBit)
    [Anonymous Symbol]                       0x24008024   Section        0  heap_4.o(.bss.xBlockAllocatedBit)
    xDelayedTaskList1                        0x24008028   Data          20  tasks.o(.bss.xDelayedTaskList1)
    [Anonymous Symbol]                       0x24008028   Section        0  tasks.o(.bss.xDelayedTaskList1)
    xDelayedTaskList2                        0x2400803c   Data          20  tasks.o(.bss.xDelayedTaskList2)
    [Anonymous Symbol]                       0x2400803c   Section        0  tasks.o(.bss.xDelayedTaskList2)
    xFreeBytesRemaining                      0x24008050   Data           4  heap_4.o(.bss.xFreeBytesRemaining)
    [Anonymous Symbol]                       0x24008050   Section        0  heap_4.o(.bss.xFreeBytesRemaining)
    xIdleTaskHandle                          0x24008054   Data           4  tasks.o(.bss.xIdleTaskHandle)
    [Anonymous Symbol]                       0x24008054   Section        0  tasks.o(.bss.xIdleTaskHandle)
    xMinimumEverFreeBytesRemaining           0x24008058   Data           4  heap_4.o(.bss.xMinimumEverFreeBytesRemaining)
    [Anonymous Symbol]                       0x24008058   Section        0  heap_4.o(.bss.xMinimumEverFreeBytesRemaining)
    xNextTaskUnblockTime                     0x2400805c   Data           4  tasks.o(.bss.xNextTaskUnblockTime)
    [Anonymous Symbol]                       0x2400805c   Section        0  tasks.o(.bss.xNextTaskUnblockTime)
    xNumOfOverflows                          0x24008060   Data           4  tasks.o(.bss.xNumOfOverflows)
    [Anonymous Symbol]                       0x24008060   Section        0  tasks.o(.bss.xNumOfOverflows)
    xNumberOfSuccessfulAllocations           0x24008064   Data           4  heap_4.o(.bss.xNumberOfSuccessfulAllocations)
    [Anonymous Symbol]                       0x24008064   Section        0  heap_4.o(.bss.xNumberOfSuccessfulAllocations)
    xNumberOfSuccessfulFrees                 0x24008068   Data           4  heap_4.o(.bss.xNumberOfSuccessfulFrees)
    [Anonymous Symbol]                       0x24008068   Section        0  heap_4.o(.bss.xNumberOfSuccessfulFrees)
    xPendedTicks                             0x2400806c   Data           4  tasks.o(.bss.xPendedTicks)
    [Anonymous Symbol]                       0x2400806c   Section        0  tasks.o(.bss.xPendedTicks)
    xPendingReadyList                        0x24008070   Data          20  tasks.o(.bss.xPendingReadyList)
    [Anonymous Symbol]                       0x24008070   Section        0  tasks.o(.bss.xPendingReadyList)
    xSchedulerRunning                        0x240080c4   Data           4  tasks.o(.bss.xSchedulerRunning)
    [Anonymous Symbol]                       0x240080c4   Section        0  tasks.o(.bss.xSchedulerRunning)
    xStart                                   0x240080c8   Data           8  heap_4.o(.bss.xStart)
    [Anonymous Symbol]                       0x240080c8   Section        0  heap_4.o(.bss.xStart)
    xSuspendedTaskList                       0x240080d0   Data          20  tasks.o(.bss.xSuspendedTaskList)
    [Anonymous Symbol]                       0x240080d0   Section        0  tasks.o(.bss.xSuspendedTaskList)
    xTasksWaitingTermination                 0x240080e4   Data          20  tasks.o(.bss.xTasksWaitingTermination)
    [Anonymous Symbol]                       0x240080e4   Section        0  tasks.o(.bss.xTasksWaitingTermination)
    xTickCount                               0x240080f8   Data           4  tasks.o(.bss.xTickCount)
    [Anonymous Symbol]                       0x240080f8   Section        0  tasks.o(.bss.xTickCount)
    xTimerQueue                              0x240080fc   Data           4  timers.o(.bss.xTimerQueue)
    [Anonymous Symbol]                       0x240080fc   Section        0  timers.o(.bss.xTimerQueue)
    xTimerTaskHandle                         0x24008100   Data           4  timers.o(.bss.xTimerTaskHandle)
    [Anonymous Symbol]                       0x24008100   Section        0  timers.o(.bss.xTimerTaskHandle)
    xYieldPending                            0x24008104   Data           4  tasks.o(.bss.xYieldPending)
    [Anonymous Symbol]                       0x24008104   Section        0  tasks.o(.bss.xYieldPending)
    HEAP                                     0x24008130   Section    102400  startup_stm32h723xx.o(HEAP)
    STACK                                    0x24021130   Section    102400  startup_stm32h723xx.o(STACK)

    Global Symbols

    Symbol Name                              Value     Ov Type        Size  Object(Section)

    BuildAttributes$$THM_ISAv4$E$P$D$K$B$S$7EM$VFPv5_D16$PE$PLD8$A:L22UL41UL21$X:L11$S22US41US21$IEEE1$IW$~IW$USESV6$~STKCKD$USESV7$~SHL$OTIME$ROPI$IEEEX$EBA8$MICROLIB$REQ8$PRES8$EABIv2 0x00000000   Number         0  anon$$obj.o ABSOLUTE
    __cpp_initialize__aeabi_                  - Undefined Weak Reference
    __cxa_finalize                            - Undefined Weak Reference
    _clock_init                               - Undefined Weak Reference
    _microlib_exit                            - Undefined Weak Reference
    __Vectors_Size                           0x000002cc   Number         0  startup_stm32h723xx.o ABSOLUTE
    __Vectors                                0x08000000   Data           4  startup_stm32h723xx.o(RESET)
    __Vectors_End                            0x080002cc   Data           0  startup_stm32h723xx.o(RESET)
    __main                                   0x080002cd   Thumb Code     0  entry.o(.ARM.Collect$$$$00000000)
    _main_stk                                0x080002cd   Thumb Code     0  entry2.o(.ARM.Collect$$$$00000001)
    _main_scatterload                        0x080002d1   Thumb Code     0  entry5.o(.ARM.Collect$$$$00000004)
    __main_after_scatterload                 0x080002d5   Thumb Code     0  entry5.o(.ARM.Collect$$$$00000004)
    _main_clock                              0x080002d5   Thumb Code     0  entry7b.o(.ARM.Collect$$$$00000008)
    _main_cpp_init                           0x080002d5   Thumb Code     0  entry8b.o(.ARM.Collect$$$$0000000A)
    _main_init                               0x080002d5   Thumb Code     0  entry9a.o(.ARM.Collect$$$$0000000B)
    __rt_final_cpp                           0x080002dd   Thumb Code     0  entry10a.o(.ARM.Collect$$$$0000000D)
    __rt_final_exit                          0x080002dd   Thumb Code     0  entry11a.o(.ARM.Collect$$$$0000000F)
    Reset_Handler                            0x080002e1   Thumb Code     8  startup_stm32h723xx.o(.text)
    ADC3_IRQHandler                          0x080002fb   Thumb Code     0  startup_stm32h723xx.o(.text)
    ADC_IRQHandler                           0x080002fb   Thumb Code     0  startup_stm32h723xx.o(.text)
    BDMA_Channel0_IRQHandler                 0x080002fb   Thumb Code     0  startup_stm32h723xx.o(.text)
    BDMA_Channel1_IRQHandler                 0x080002fb   Thumb Code     0  startup_stm32h723xx.o(.text)
    BDMA_Channel2_IRQHandler                 0x080002fb   Thumb Code     0  startup_stm32h723xx.o(.text)
    BDMA_Channel3_IRQHandler                 0x080002fb   Thumb Code     0  startup_stm32h723xx.o(.text)
    BDMA_Channel4_IRQHandler                 0x080002fb   Thumb Code     0  startup_stm32h723xx.o(.text)
    BDMA_Channel5_IRQHandler                 0x080002fb   Thumb Code     0  startup_stm32h723xx.o(.text)
    BDMA_Channel6_IRQHandler                 0x080002fb   Thumb Code     0  startup_stm32h723xx.o(.text)
    BDMA_Channel7_IRQHandler                 0x080002fb   Thumb Code     0  startup_stm32h723xx.o(.text)
    CEC_IRQHandler                           0x080002fb   Thumb Code     0  startup_stm32h723xx.o(.text)
    COMP1_IRQHandler                         0x080002fb   Thumb Code     0  startup_stm32h723xx.o(.text)
    CORDIC_IRQHandler                        0x080002fb   Thumb Code     0  startup_stm32h723xx.o(.text)
    CRS_IRQHandler                           0x080002fb   Thumb Code     0  startup_stm32h723xx.o(.text)
    DCMI_PSSI_IRQHandler                     0x080002fb   Thumb Code     0  startup_stm32h723xx.o(.text)
    DFSDM1_FLT0_IRQHandler                   0x080002fb   Thumb Code     0  startup_stm32h723xx.o(.text)
    DFSDM1_FLT1_IRQHandler                   0x080002fb   Thumb Code     0  startup_stm32h723xx.o(.text)
    DFSDM1_FLT2_IRQHandler                   0x080002fb   Thumb Code     0  startup_stm32h723xx.o(.text)
    DFSDM1_FLT3_IRQHandler                   0x080002fb   Thumb Code     0  startup_stm32h723xx.o(.text)
    DMA1_Stream3_IRQHandler                  0x080002fb   Thumb Code     0  startup_stm32h723xx.o(.text)
    DMA1_Stream4_IRQHandler                  0x080002fb   Thumb Code     0  startup_stm32h723xx.o(.text)
    DMA1_Stream5_IRQHandler                  0x080002fb   Thumb Code     0  startup_stm32h723xx.o(.text)
    DMA1_Stream6_IRQHandler                  0x080002fb   Thumb Code     0  startup_stm32h723xx.o(.text)
    DMA1_Stream7_IRQHandler                  0x080002fb   Thumb Code     0  startup_stm32h723xx.o(.text)
    DMA2D_IRQHandler                         0x080002fb   Thumb Code     0  startup_stm32h723xx.o(.text)
    DMA2_Stream1_IRQHandler                  0x080002fb   Thumb Code     0  startup_stm32h723xx.o(.text)
    DMA2_Stream2_IRQHandler                  0x080002fb   Thumb Code     0  startup_stm32h723xx.o(.text)
    DMA2_Stream3_IRQHandler                  0x080002fb   Thumb Code     0  startup_stm32h723xx.o(.text)
    DMA2_Stream4_IRQHandler                  0x080002fb   Thumb Code     0  startup_stm32h723xx.o(.text)
    DMA2_Stream5_IRQHandler                  0x080002fb   Thumb Code     0  startup_stm32h723xx.o(.text)
    DMA2_Stream6_IRQHandler                  0x080002fb   Thumb Code     0  startup_stm32h723xx.o(.text)
    DMA2_Stream7_IRQHandler                  0x080002fb   Thumb Code     0  startup_stm32h723xx.o(.text)
    DMAMUX1_OVR_IRQHandler                   0x080002fb   Thumb Code     0  startup_stm32h723xx.o(.text)
    DMAMUX2_OVR_IRQHandler                   0x080002fb   Thumb Code     0  startup_stm32h723xx.o(.text)
    DTS_IRQHandler                           0x080002fb   Thumb Code     0  startup_stm32h723xx.o(.text)
    ECC_IRQHandler                           0x080002fb   Thumb Code     0  startup_stm32h723xx.o(.text)
    ETH_IRQHandler                           0x080002fb   Thumb Code     0  startup_stm32h723xx.o(.text)
    ETH_WKUP_IRQHandler                      0x080002fb   Thumb Code     0  startup_stm32h723xx.o(.text)
    EXTI15_10_IRQHandler                     0x080002fb   Thumb Code     0  startup_stm32h723xx.o(.text)
    EXTI3_IRQHandler                         0x080002fb   Thumb Code     0  startup_stm32h723xx.o(.text)
    EXTI4_IRQHandler                         0x080002fb   Thumb Code     0  startup_stm32h723xx.o(.text)
    EXTI9_5_IRQHandler                       0x080002fb   Thumb Code     0  startup_stm32h723xx.o(.text)
    FDCAN2_IT0_IRQHandler                    0x080002fb   Thumb Code     0  startup_stm32h723xx.o(.text)
    FDCAN2_IT1_IRQHandler                    0x080002fb   Thumb Code     0  startup_stm32h723xx.o(.text)
    FDCAN3_IT0_IRQHandler                    0x080002fb   Thumb Code     0  startup_stm32h723xx.o(.text)
    FDCAN3_IT1_IRQHandler                    0x080002fb   Thumb Code     0  startup_stm32h723xx.o(.text)
    FDCAN_CAL_IRQHandler                     0x080002fb   Thumb Code     0  startup_stm32h723xx.o(.text)
    FLASH_IRQHandler                         0x080002fb   Thumb Code     0  startup_stm32h723xx.o(.text)
    FMAC_IRQHandler                          0x080002fb   Thumb Code     0  startup_stm32h723xx.o(.text)
    FMC_IRQHandler                           0x080002fb   Thumb Code     0  startup_stm32h723xx.o(.text)
    FPU_IRQHandler                           0x080002fb   Thumb Code     0  startup_stm32h723xx.o(.text)
    HSEM1_IRQHandler                         0x080002fb   Thumb Code     0  startup_stm32h723xx.o(.text)
    I2C1_ER_IRQHandler                       0x080002fb   Thumb Code     0  startup_stm32h723xx.o(.text)
    I2C1_EV_IRQHandler                       0x080002fb   Thumb Code     0  startup_stm32h723xx.o(.text)
    I2C2_ER_IRQHandler                       0x080002fb   Thumb Code     0  startup_stm32h723xx.o(.text)
    I2C2_EV_IRQHandler                       0x080002fb   Thumb Code     0  startup_stm32h723xx.o(.text)
    I2C3_ER_IRQHandler                       0x080002fb   Thumb Code     0  startup_stm32h723xx.o(.text)
    I2C3_EV_IRQHandler                       0x080002fb   Thumb Code     0  startup_stm32h723xx.o(.text)
    I2C4_ER_IRQHandler                       0x080002fb   Thumb Code     0  startup_stm32h723xx.o(.text)
    I2C4_EV_IRQHandler                       0x080002fb   Thumb Code     0  startup_stm32h723xx.o(.text)
    I2C5_ER_IRQHandler                       0x080002fb   Thumb Code     0  startup_stm32h723xx.o(.text)
    I2C5_EV_IRQHandler                       0x080002fb   Thumb Code     0  startup_stm32h723xx.o(.text)
    LPTIM1_IRQHandler                        0x080002fb   Thumb Code     0  startup_stm32h723xx.o(.text)
    LPTIM2_IRQHandler                        0x080002fb   Thumb Code     0  startup_stm32h723xx.o(.text)
    LPTIM3_IRQHandler                        0x080002fb   Thumb Code     0  startup_stm32h723xx.o(.text)
    LPTIM4_IRQHandler                        0x080002fb   Thumb Code     0  startup_stm32h723xx.o(.text)
    LPTIM5_IRQHandler                        0x080002fb   Thumb Code     0  startup_stm32h723xx.o(.text)
    LPUART1_IRQHandler                       0x080002fb   Thumb Code     0  startup_stm32h723xx.o(.text)
    LTDC_ER_IRQHandler                       0x080002fb   Thumb Code     0  startup_stm32h723xx.o(.text)
    LTDC_IRQHandler                          0x080002fb   Thumb Code     0  startup_stm32h723xx.o(.text)
    MDIOS_IRQHandler                         0x080002fb   Thumb Code     0  startup_stm32h723xx.o(.text)
    MDIOS_WKUP_IRQHandler                    0x080002fb   Thumb Code     0  startup_stm32h723xx.o(.text)
    MDMA_IRQHandler                          0x080002fb   Thumb Code     0  startup_stm32h723xx.o(.text)
    OCTOSPI1_IRQHandler                      0x080002fb   Thumb Code     0  startup_stm32h723xx.o(.text)
    OCTOSPI2_IRQHandler                      0x080002fb   Thumb Code     0  startup_stm32h723xx.o(.text)
    OTG_HS_EP1_IN_IRQHandler                 0x080002fb   Thumb Code     0  startup_stm32h723xx.o(.text)
    OTG_HS_EP1_OUT_IRQHandler                0x080002fb   Thumb Code     0  startup_stm32h723xx.o(.text)
    OTG_HS_WKUP_IRQHandler                   0x080002fb   Thumb Code     0  startup_stm32h723xx.o(.text)
    PVD_AVD_IRQHandler                       0x080002fb   Thumb Code     0  startup_stm32h723xx.o(.text)
    RCC_IRQHandler                           0x080002fb   Thumb Code     0  startup_stm32h723xx.o(.text)
    RNG_IRQHandler                           0x080002fb   Thumb Code     0  startup_stm32h723xx.o(.text)
    RTC_Alarm_IRQHandler                     0x080002fb   Thumb Code     0  startup_stm32h723xx.o(.text)
    RTC_WKUP_IRQHandler                      0x080002fb   Thumb Code     0  startup_stm32h723xx.o(.text)
    SAI1_IRQHandler                          0x080002fb   Thumb Code     0  startup_stm32h723xx.o(.text)
    SAI4_IRQHandler                          0x080002fb   Thumb Code     0  startup_stm32h723xx.o(.text)
    SDMMC1_IRQHandler                        0x080002fb   Thumb Code     0  startup_stm32h723xx.o(.text)
    SDMMC2_IRQHandler                        0x080002fb   Thumb Code     0  startup_stm32h723xx.o(.text)
    SPDIF_RX_IRQHandler                      0x080002fb   Thumb Code     0  startup_stm32h723xx.o(.text)
    SPI1_IRQHandler                          0x080002fb   Thumb Code     0  startup_stm32h723xx.o(.text)
    SPI2_IRQHandler                          0x080002fb   Thumb Code     0  startup_stm32h723xx.o(.text)
    SPI3_IRQHandler                          0x080002fb   Thumb Code     0  startup_stm32h723xx.o(.text)
    SPI4_IRQHandler                          0x080002fb   Thumb Code     0  startup_stm32h723xx.o(.text)
    SPI5_IRQHandler                          0x080002fb   Thumb Code     0  startup_stm32h723xx.o(.text)
    SPI6_IRQHandler                          0x080002fb   Thumb Code     0  startup_stm32h723xx.o(.text)
    SWPMI1_IRQHandler                        0x080002fb   Thumb Code     0  startup_stm32h723xx.o(.text)
    TAMP_STAMP_IRQHandler                    0x080002fb   Thumb Code     0  startup_stm32h723xx.o(.text)
    TIM15_IRQHandler                         0x080002fb   Thumb Code     0  startup_stm32h723xx.o(.text)
    TIM16_IRQHandler                         0x080002fb   Thumb Code     0  startup_stm32h723xx.o(.text)
    TIM17_IRQHandler                         0x080002fb   Thumb Code     0  startup_stm32h723xx.o(.text)
    TIM1_BRK_IRQHandler                      0x080002fb   Thumb Code     0  startup_stm32h723xx.o(.text)
    TIM1_CC_IRQHandler                       0x080002fb   Thumb Code     0  startup_stm32h723xx.o(.text)
    TIM1_TRG_COM_IRQHandler                  0x080002fb   Thumb Code     0  startup_stm32h723xx.o(.text)
    TIM1_UP_IRQHandler                       0x080002fb   Thumb Code     0  startup_stm32h723xx.o(.text)
    TIM23_IRQHandler                         0x080002fb   Thumb Code     0  startup_stm32h723xx.o(.text)
    TIM24_IRQHandler                         0x080002fb   Thumb Code     0  startup_stm32h723xx.o(.text)
    TIM2_IRQHandler                          0x080002fb   Thumb Code     0  startup_stm32h723xx.o(.text)
    TIM3_IRQHandler                          0x080002fb   Thumb Code     0  startup_stm32h723xx.o(.text)
    TIM4_IRQHandler                          0x080002fb   Thumb Code     0  startup_stm32h723xx.o(.text)
    TIM5_IRQHandler                          0x080002fb   Thumb Code     0  startup_stm32h723xx.o(.text)
    TIM7_IRQHandler                          0x080002fb   Thumb Code     0  startup_stm32h723xx.o(.text)
    TIM8_BRK_TIM12_IRQHandler                0x080002fb   Thumb Code     0  startup_stm32h723xx.o(.text)
    TIM8_CC_IRQHandler                       0x080002fb   Thumb Code     0  startup_stm32h723xx.o(.text)
    TIM8_TRG_COM_TIM14_IRQHandler            0x080002fb   Thumb Code     0  startup_stm32h723xx.o(.text)
    TIM8_UP_TIM13_IRQHandler                 0x080002fb   Thumb Code     0  startup_stm32h723xx.o(.text)
    UART5_IRQHandler                         0x080002fb   Thumb Code     0  startup_stm32h723xx.o(.text)
    UART7_IRQHandler                         0x080002fb   Thumb Code     0  startup_stm32h723xx.o(.text)
    UART9_IRQHandler                         0x080002fb   Thumb Code     0  startup_stm32h723xx.o(.text)
    USART2_IRQHandler                        0x080002fb   Thumb Code     0  startup_stm32h723xx.o(.text)
    USART3_IRQHandler                        0x080002fb   Thumb Code     0  startup_stm32h723xx.o(.text)
    USART6_IRQHandler                        0x080002fb   Thumb Code     0  startup_stm32h723xx.o(.text)
    WAKEUP_PIN_IRQHandler                    0x080002fb   Thumb Code     0  startup_stm32h723xx.o(.text)
    WWDG_IRQHandler                          0x080002fb   Thumb Code     0  startup_stm32h723xx.o(.text)
    __aeabi_uldivmod                         0x08000305   Thumb Code    98  uldiv.o(.text)
    __aeabi_memcpy                           0x08000367   Thumb Code    36  memcpya.o(.text)
    __aeabi_memcpy4                          0x08000367   Thumb Code     0  memcpya.o(.text)
    __aeabi_memcpy8                          0x08000367   Thumb Code     0  memcpya.o(.text)
    __aeabi_memset                           0x0800038b   Thumb Code    14  memseta.o(.text)
    __aeabi_memset4                          0x0800038b   Thumb Code     0  memseta.o(.text)
    __aeabi_memset8                          0x0800038b   Thumb Code     0  memseta.o(.text)
    __aeabi_memclr                           0x08000399   Thumb Code     4  memseta.o(.text)
    __aeabi_memclr4                          0x08000399   Thumb Code     0  memseta.o(.text)
    __aeabi_memclr8                          0x08000399   Thumb Code     0  memseta.o(.text)
    _memset$wrapper                          0x0800039d   Thumb Code    18  memseta.o(.text)
    strlen                                   0x080003af   Thumb Code    14  strlen.o(.text)
    strcmp                                   0x080003bd   Thumb Code    28  strcmp.o(.text)
    memcmp                                   0x080003d9   Thumb Code    26  memcmp.o(.text)
    __aeabi_uidiv                            0x080003f3   Thumb Code     0  uidiv.o(.text)
    __aeabi_uidivmod                         0x080003f3   Thumb Code    44  uidiv.o(.text)
    __aeabi_llsl                             0x0800041f   Thumb Code    30  llshl.o(.text)
    _ll_shift_l                              0x0800041f   Thumb Code     0  llshl.o(.text)
    __aeabi_llsr                             0x0800043d   Thumb Code    32  llushr.o(.text)
    _ll_ushift_r                             0x0800043d   Thumb Code     0  llushr.o(.text)
    __strtod_int                             0x0800049b   Thumb Code    94  strtod.o(.text)
    __I$use$fp                               0x08000505   Thumb Code     0  iusefp.o(.text)
    __aeabi_dadd                             0x08000505   Thumb Code   322  dadd.o(.text)
    __aeabi_dsub                             0x08000647   Thumb Code     6  dadd.o(.text)
    __aeabi_drsub                            0x0800064d   Thumb Code     6  dadd.o(.text)
    __aeabi_dmul                             0x08000653   Thumb Code   228  dmul.o(.text)
    __aeabi_ddiv                             0x08000737   Thumb Code   222  ddiv.o(.text)
    __aeabi_d2ulz                            0x08000815   Thumb Code    48  dfixul.o(.text)
    __aeabi_cdrcmple                         0x08000845   Thumb Code    48  cdrcmple.o(.text)
    __scatterload                            0x08000875   Thumb Code    28  init.o(.text)
    __scatterload_rt2                        0x08000875   Thumb Code     0  init.o(.text)
    __aeabi_lasr                             0x08000899   Thumb Code    36  llsshr.o(.text)
    _ll_sshift_r                             0x08000899   Thumb Code     0  llsshr.o(.text)
    isspace                                  0x080008bd   Thumb Code    10  isspace_c.o(.text)
    _scanf_real                              0x080009f1   Thumb Code     0  scanf_fp.o(.text)
    _scanf_really_real                       0x080009f1   Thumb Code   556  scanf_fp.o(.text)
    _sgetc                                   0x08000c29   Thumb Code    30  _sgetc.o(.text)
    _sbackspace                              0x08000c47   Thumb Code    34  _sgetc.o(.text)
    _double_round                            0x08000c69   Thumb Code    30  depilogue.o(.text)
    _double_epilogue                         0x08000c87   Thumb Code   156  depilogue.o(.text)
    __ctype_lookup                           0x08000d25   Thumb Code    34  ctype_c.o(.text)
    __aeabi_ul2d                             0x08000d4d   Thumb Code    24  dfltul.o(.text)
    __aeabi_d2f                              0x08000d65   Thumb Code    56  d2f.o(.text)
    _float_round                             0x08000d9d   Thumb Code    18  fepilogue.o(.text)
    _float_epilogue                          0x08000daf   Thumb Code    92  fepilogue.o(.text)
    __decompress                             0x08000e0b   Thumb Code     0  __dczerorl.o(.text)
    __decompress0                            0x08000e0b   Thumb Code    58  __dczerorl.o(.text)
    ADC_ConfigureBoostMode                   0x08000e49   Thumb Code   474  stm32h7xx_hal_adc.o(.text.ADC_ConfigureBoostMode)
    ADC_ConversionStop                       0x08001029   Thumb Code   402  stm32h7xx_hal_adc.o(.text.ADC_ConversionStop)
    ADC_Disable                              0x080011c1   Thumb Code   196  stm32h7xx_hal_adc.o(.text.ADC_Disable)
    ADC_Enable                               0x08001289   Thumb Code   328  stm32h7xx_hal_adc.o(.text.ADC_Enable)
    Angle_PID_calc                           0x080013d1   Thumb Code   156  pid.o(.text.Angle_PID_calc)
    BMI088_ACCEL_NS_H                        0x08001471   Thumb Code    20  bmi088middleware.o(.text.BMI088_ACCEL_NS_H)
    BMI088_ACCEL_NS_L                        0x08001489   Thumb Code    20  bmi088middleware.o(.text.BMI088_ACCEL_NS_L)
    BMI088_GYRO_NS_H                         0x080014a1   Thumb Code    18  bmi088middleware.o(.text.BMI088_GYRO_NS_H)
    BMI088_GYRO_NS_L                         0x080014b9   Thumb Code    18  bmi088middleware.o(.text.BMI088_GYRO_NS_L)
    BMI088_Read                              0x080014d1   Thumb Code   846  bmi088driver.o(.text.BMI088_Read)
    BMI088_init                              0x08001821   Thumb Code   204  bmi088driver.o(.text.BMI088_init)
    BMI088_read_write_byte                   0x08001961   Thumb Code    48  bmi088middleware.o(.text.BMI088_read_write_byte)
    BodyFrameToEarthFrame                    0x080019b1   Thumb Code   258  ins_task.o(.text.BodyFrameToEarthFrame)
    BusFault_Handler                         0x08001ab9   Thumb Code     4  stm32h7xx_it.o(.text.BusFault_Handler)
    CDC_Transmit_HS                          0x08001bf1   Thumb Code    96  usbd_cdc_if.o(.text.CDC_Transmit_HS)
    Cal_Matrix                               0x08001c51   Thumb Code   248  chassis_task.o(.text.Cal_Matrix)
    Chassis_Param_Updata                     0x08002509   Thumb Code    16  chassis_task.o(.text.Chassis_Param_Updata)
    Chassis_init                             0x08002519   Thumb Code   160  chassis_task.o(.text.Chassis_init)
    Chassis_task                             0x080025b9   Thumb Code   484  chassis_task.o(.text.Chassis_task)
    DEFS_ClearPayload                        0x080027a1   Thumb Code    44  defs_parser.o(.text.DEFS_ClearPayload)
    DEFS_Init                                0x080027d1   Thumb Code    50  defs_parser.o(.text.DEFS_Init)
    DEFS_Parse                               0x08002809   Thumb Code   258  defs_parser.o(.text.DEFS_Parse)
    DEFS_PushChar2RawBuf                     0x08002911   Thumb Code   264  defs_parser.o(.text.DEFS_PushChar2RawBuf)
    DEFS_Reset                               0x08002a19   Thumb Code    68  defs_parser.o(.text.DEFS_Reset)
    DEFS_SetRawBuf                           0x08002a61   Thumb Code    72  defs_parser.o(.text.DEFS_SetRawBuf)
    DEFS_Verify                              0x08002aa9   Thumb Code    98  defs_parser.o(.text.DEFS_Verify)
    DMA1_Stream0_IRQHandler                  0x08002b11   Thumb Code    16  stm32h7xx_it.o(.text.DMA1_Stream0_IRQHandler)
    DMA1_Stream1_IRQHandler                  0x08002b21   Thumb Code    16  stm32h7xx_it.o(.text.DMA1_Stream1_IRQHandler)
    DMA1_Stream2_IRQHandler                  0x08002b31   Thumb Code    16  stm32h7xx_it.o(.text.DMA1_Stream2_IRQHandler)
    DMA2_Stream0_IRQHandler                  0x08002b41   Thumb Code    16  stm32h7xx_it.o(.text.DMA2_Stream0_IRQHandler)
    DWT_Delay                                0x08003611   Thumb Code    88  bsp_dwt.o(.text.DWT_Delay)
    DWT_GetDeltaT                            0x08003669   Thumb Code    76  bsp_dwt.o(.text.DWT_GetDeltaT)
    DWT_GetTimeline_s                        0x080036b9   Thumb Code    80  bsp_dwt.o(.text.DWT_GetTimeline_s)
    DWT_Init                                 0x08003709   Thumb Code   136  bsp_dwt.o(.text.DWT_Init)
    DWT_SysTimeUpdate                        0x08003791   Thumb Code   252  bsp_dwt.o(.text.DWT_SysTimeUpdate)
    DebugMon_Handler                         0x08003891   Thumb Code     2  stm32h7xx_it.o(.text.DebugMon_Handler)
    EXTI0_IRQHandler                         0x08003899   Thumb Code    10  stm32h7xx_it.o(.text.EXTI0_IRQHandler)
    EXTI1_IRQHandler                         0x080038a9   Thumb Code    10  stm32h7xx_it.o(.text.EXTI1_IRQHandler)
    EXTI2_IRQHandler                         0x080038b9   Thumb Code    10  stm32h7xx_it.o(.text.EXTI2_IRQHandler)
    EarthFrameToBodyFrame                    0x080038c9   Thumb Code   258  ins_task.o(.text.EarthFrameToBodyFrame)
    Enable_Motor                             0x080039d1   Thumb Code    34  bsp_motor.o(.text.Enable_Motor)
    Enable_Motor_Report                      0x080039f9   Thumb Code    34  bsp_motor.o(.text.Enable_Motor_Report)
    Error_Handler                            0x08003a21   Thumb Code    14  main.o(.text.Error_Handler)
    FDCAN1_Config                            0x08003a31   Thumb Code    98  bsp_can.o(.text.FDCAN1_Config)
    FDCAN1_IT0_IRQHandler                    0x08003a99   Thumb Code    16  stm32h7xx_it.o(.text.FDCAN1_IT0_IRQHandler)
    FDCAN1_IT1_IRQHandler                    0x08003aa9   Thumb Code    16  stm32h7xx_it.o(.text.FDCAN1_IT1_IRQHandler)
    FDCAN1_Send_Msg                          0x08003ab9   Thumb Code    86  bsp_can.o(.text.FDCAN1_Send_Msg)
    Get_Control_Cur_Info                     0x08003e91   Thumb Code   140  chassis_task.o(.text.Get_Control_Cur_Info)
    Get_Control_Err_Info                     0x08003f21   Thumb Code    74  chassis_task.o(.text.Get_Control_Err_Info)
    Get_Control_Tar_Info                     0x08003f71   Thumb Code   368  chassis_task.o(.text.Get_Control_Tar_Info)
    Get_JointForce_Virtual2Real_K            0x080040e1   Thumb Code    32  vmc.o(.text.Get_JointForce_Virtual2Real_K)
    Get_Virtual_Leg_Hight                    0x08004161   Thumb Code    32  vmc.o(.text.Get_Virtual_Leg_Hight)
    Get_Virtual_Leg_d_Hight                  0x08004181   Thumb Code    44  vmc.o(.text.Get_Virtual_Leg_d_Hight)
    HAL_ADCEx_Calibration_Start              0x080041b1   Thumb Code   228  stm32h7xx_hal_adc_ex.o(.text.HAL_ADCEx_Calibration_Start)
    HAL_ADCEx_MultiModeConfigChannel         0x08004299   Thumb Code   658  stm32h7xx_hal_adc_ex.o(.text.HAL_ADCEx_MultiModeConfigChannel)
    HAL_ADC_ConfigChannel                    0x08004531   Thumb Code  2976  stm32h7xx_hal_adc.o(.text.HAL_ADC_ConfigChannel)
    HAL_ADC_GetValue                         0x080050d1   Thumb Code    14  stm32h7xx_hal_adc.o(.text.HAL_ADC_GetValue)
    HAL_ADC_Init                             0x080050e1   Thumb Code  1282  stm32h7xx_hal_adc.o(.text.HAL_ADC_Init)
    HAL_ADC_MspInit                          0x080055e9   Thumb Code   188  adc.o(.text.HAL_ADC_MspInit)
    HAL_ADC_PollForConversion                0x080056a9   Thumb Code   640  stm32h7xx_hal_adc.o(.text.HAL_ADC_PollForConversion)
    HAL_ADC_Start                            0x08005929   Thumb Code   534  stm32h7xx_hal_adc.o(.text.HAL_ADC_Start)
    HAL_ADC_Stop                             0x08005b41   Thumb Code   128  stm32h7xx_hal_adc.o(.text.HAL_ADC_Stop)
    HAL_DMA_Abort                            0x08005bc1   Thumb Code  2424  stm32h7xx_hal_dma.o(.text.HAL_DMA_Abort)
    HAL_DMA_Abort_IT                         0x08006539   Thumb Code  1706  stm32h7xx_hal_dma.o(.text.HAL_DMA_Abort_IT)
    HAL_DMA_GetError                         0x08006be9   Thumb Code    12  stm32h7xx_hal_dma.o(.text.HAL_DMA_GetError)
    HAL_DMA_IRQHandler                       0x08006bf9   Thumb Code  4544  stm32h7xx_hal_dma.o(.text.HAL_DMA_IRQHandler)
    HAL_DMA_Init                             0x08007db9   Thumb Code  2400  stm32h7xx_hal_dma.o(.text.HAL_DMA_Init)
    HAL_DMA_Start_IT                         0x08008719   Thumb Code  1794  stm32h7xx_hal_dma.o(.text.HAL_DMA_Start_IT)
    HAL_Delay                                0x08008e21   Thumb Code    66  stm32h7xx_hal.o(.text.HAL_Delay)
    HAL_FDCAN_ActivateNotification           0x08008e69   Thumb Code   254  stm32h7xx_hal_fdcan.o(.text.HAL_FDCAN_ActivateNotification)
    HAL_FDCAN_AddMessageToTxFifoQ            0x08008f69   Thumb Code   202  stm32h7xx_hal_fdcan.o(.text.HAL_FDCAN_AddMessageToTxFifoQ)
    HAL_FDCAN_ClockCalibrationCallback       0x08009039   Thumb Code    10  stm32h7xx_hal_fdcan.o(.text.HAL_FDCAN_ClockCalibrationCallback)
    HAL_FDCAN_ConfigFilter                   0x08009049   Thumb Code   278  stm32h7xx_hal_fdcan.o(.text.HAL_FDCAN_ConfigFilter)
    HAL_FDCAN_ErrorCallback                  0x08009161   Thumb Code     8  stm32h7xx_hal_fdcan.o(.text.HAL_FDCAN_ErrorCallback)
    HAL_FDCAN_ErrorStatusCallback            0x08009169   Thumb Code    10  stm32h7xx_hal_fdcan.o(.text.HAL_FDCAN_ErrorStatusCallback)
    HAL_FDCAN_GetRxMessage                   0x08009179   Thumb Code   760  stm32h7xx_hal_fdcan.o(.text.HAL_FDCAN_GetRxMessage)
    HAL_FDCAN_HighPriorityMessageCallback    0x08009471   Thumb Code     8  stm32h7xx_hal_fdcan.o(.text.HAL_FDCAN_HighPriorityMessageCallback)
    HAL_FDCAN_IRQHandler                     0x08009479   Thumb Code  1506  stm32h7xx_hal_fdcan.o(.text.HAL_FDCAN_IRQHandler)
    HAL_FDCAN_Init                           0x08009a61   Thumb Code   992  stm32h7xx_hal_fdcan.o(.text.HAL_FDCAN_Init)
    HAL_FDCAN_MspInit                        0x08009e41   Thumb Code   214  fdcan.o(.text.HAL_FDCAN_MspInit)
    HAL_FDCAN_RxBufferNewMessageCallback     0x08009f19   Thumb Code     8  stm32h7xx_hal_fdcan.o(.text.HAL_FDCAN_RxBufferNewMessageCallback)
    HAL_FDCAN_RxFifo0Callback                0x08009f21   Thumb Code   440  bsp_can.o(.text.HAL_FDCAN_RxFifo0Callback)
    HAL_FDCAN_RxFifo1Callback                0x0800a0d9   Thumb Code    10  stm32h7xx_hal_fdcan.o(.text.HAL_FDCAN_RxFifo1Callback)
    HAL_FDCAN_Start                          0x0800a0e9   Thumb Code    80  stm32h7xx_hal_fdcan.o(.text.HAL_FDCAN_Start)
    HAL_FDCAN_TT_GlobalTimeCallback          0x0800a139   Thumb Code    10  stm32h7xx_hal_fdcan.o(.text.HAL_FDCAN_TT_GlobalTimeCallback)
    HAL_FDCAN_TT_ScheduleSyncCallback        0x0800a149   Thumb Code    10  stm32h7xx_hal_fdcan.o(.text.HAL_FDCAN_TT_ScheduleSyncCallback)
    HAL_FDCAN_TT_StopWatchCallback           0x0800a159   Thumb Code    12  stm32h7xx_hal_fdcan.o(.text.HAL_FDCAN_TT_StopWatchCallback)
    HAL_FDCAN_TT_TimeMarkCallback            0x0800a169   Thumb Code    10  stm32h7xx_hal_fdcan.o(.text.HAL_FDCAN_TT_TimeMarkCallback)
    HAL_FDCAN_TimeoutOccurredCallback        0x0800a179   Thumb Code     8  stm32h7xx_hal_fdcan.o(.text.HAL_FDCAN_TimeoutOccurredCallback)
    HAL_FDCAN_TimestampWraparoundCallback    0x0800a181   Thumb Code     8  stm32h7xx_hal_fdcan.o(.text.HAL_FDCAN_TimestampWraparoundCallback)
    HAL_FDCAN_TxBufferAbortCallback          0x0800a189   Thumb Code    10  stm32h7xx_hal_fdcan.o(.text.HAL_FDCAN_TxBufferAbortCallback)
    HAL_FDCAN_TxBufferCompleteCallback       0x0800a199   Thumb Code    10  stm32h7xx_hal_fdcan.o(.text.HAL_FDCAN_TxBufferCompleteCallback)
    HAL_FDCAN_TxEventFifoCallback            0x0800a1a9   Thumb Code    10  stm32h7xx_hal_fdcan.o(.text.HAL_FDCAN_TxEventFifoCallback)
    HAL_FDCAN_TxFifoEmptyCallback            0x0800a1b9   Thumb Code     8  stm32h7xx_hal_fdcan.o(.text.HAL_FDCAN_TxFifoEmptyCallback)
    HAL_GPIO_EXTI_Callback                   0x0800a1c1   Thumb Code    10  stm32h7xx_hal_gpio.o(.text.HAL_GPIO_EXTI_Callback)
    HAL_GPIO_EXTI_IRQHandler                 0x0800a1d1   Thumb Code    52  stm32h7xx_hal_gpio.o(.text.HAL_GPIO_EXTI_IRQHandler)
    HAL_GPIO_Init                            0x0800a209   Thumb Code   936  stm32h7xx_hal_gpio.o(.text.HAL_GPIO_Init)
    HAL_GPIO_TogglePin                       0x0800a5b1   Thumb Code    38  stm32h7xx_hal_gpio.o(.text.HAL_GPIO_TogglePin)
    HAL_GPIO_WritePin                        0x0800a5d9   Thumb Code    46  stm32h7xx_hal_gpio.o(.text.HAL_GPIO_WritePin)
    HAL_GetTick                              0x0800a609   Thumb Code    12  stm32h7xx_hal.o(.text.HAL_GetTick)
    HAL_IncTick                              0x0800a619   Thumb Code    26  stm32h7xx_hal.o(.text.HAL_IncTick)
    HAL_Init                                 0x0800a639   Thumb Code   122  stm32h7xx_hal.o(.text.HAL_Init)
    HAL_InitTick                             0x0800a6b9   Thumb Code   220  stm32h7xx_hal_timebase_tim.o(.text.HAL_InitTick)
    HAL_MspInit                              0x0800a799   Thumb Code    50  stm32h7xx_hal_msp.o(.text.HAL_MspInit)
    HAL_NVIC_EnableIRQ                       0x0800a7d1   Thumb Code    20  stm32h7xx_hal_cortex.o(.text.HAL_NVIC_EnableIRQ)
    HAL_NVIC_SetPriority                     0x0800a7e9   Thumb Code    46  stm32h7xx_hal_cortex.o(.text.HAL_NVIC_SetPriority)
    HAL_NVIC_SetPriorityGrouping             0x0800a819   Thumb Code    16  stm32h7xx_hal_cortex.o(.text.HAL_NVIC_SetPriorityGrouping)
    HAL_PCDEx_ActivateLPM                    0x0800a829   Thumb Code    54  stm32h7xx_hal_pcd_ex.o(.text.HAL_PCDEx_ActivateLPM)
    HAL_PCDEx_LPM_Callback                   0x0800a861   Thumb Code    12  stm32h7xx_hal_pcd_ex.o(.text.HAL_PCDEx_LPM_Callback)
    HAL_PCDEx_SetRxFiFo                      0x0800a871   Thumb Code    24  stm32h7xx_hal_pcd_ex.o(.text.HAL_PCDEx_SetRxFiFo)
    HAL_PCDEx_SetTxFiFo                      0x0800a889   Thumb Code   156  stm32h7xx_hal_pcd_ex.o(.text.HAL_PCDEx_SetTxFiFo)
    HAL_PCD_ConnectCallback                  0x0800a929   Thumb Code    20  usbd_conf.o(.text.HAL_PCD_ConnectCallback)
    HAL_PCD_DataInStageCallback              0x0800a941   Thumb Code    38  usbd_conf.o(.text.HAL_PCD_DataInStageCallback)
    HAL_PCD_DataOutStageCallback             0x0800a969   Thumb Code    40  usbd_conf.o(.text.HAL_PCD_DataOutStageCallback)
    HAL_PCD_DisconnectCallback               0x0800a991   Thumb Code    20  usbd_conf.o(.text.HAL_PCD_DisconnectCallback)
    HAL_PCD_EP_Abort                         0x0800a9a9   Thumb Code    94  stm32h7xx_hal_pcd.o(.text.HAL_PCD_EP_Abort)
    HAL_PCD_EP_Close                         0x0800aa09   Thumb Code   168  stm32h7xx_hal_pcd.o(.text.HAL_PCD_EP_Close)
    HAL_PCD_EP_ClrStall                      0x0800aab1   Thumb Code   200  stm32h7xx_hal_pcd.o(.text.HAL_PCD_EP_ClrStall)
    HAL_PCD_EP_GetRxCount                    0x0800ab79   Thumb Code    34  stm32h7xx_hal_pcd.o(.text.HAL_PCD_EP_GetRxCount)
    HAL_PCD_EP_Open                          0x0800aba1   Thumb Code   234  stm32h7xx_hal_pcd.o(.text.HAL_PCD_EP_Open)
    HAL_PCD_EP_Receive                       0x0800ac91   Thumb Code   108  stm32h7xx_hal_pcd.o(.text.HAL_PCD_EP_Receive)
    HAL_PCD_EP_SetStall                      0x0800ad01   Thumb Code   222  stm32h7xx_hal_pcd.o(.text.HAL_PCD_EP_SetStall)
    HAL_PCD_EP_Transmit                      0x0800ade1   Thumb Code   108  stm32h7xx_hal_pcd.o(.text.HAL_PCD_EP_Transmit)
    HAL_PCD_IRQHandler                       0x0800ae51   Thumb Code  2184  stm32h7xx_hal_pcd.o(.text.HAL_PCD_IRQHandler)
    HAL_PCD_ISOINIncompleteCallback          0x0800b6d9   Thumb Code    28  usbd_conf.o(.text.HAL_PCD_ISOINIncompleteCallback)
    HAL_PCD_ISOOUTIncompleteCallback         0x0800b6f9   Thumb Code    28  usbd_conf.o(.text.HAL_PCD_ISOOUTIncompleteCallback)
    HAL_PCD_Init                             0x0800b719   Thumb Code   570  stm32h7xx_hal_pcd.o(.text.HAL_PCD_Init)
    HAL_PCD_MspInit                          0x0800b959   Thumb Code   120  usbd_conf.o(.text.HAL_PCD_MspInit)
    HAL_PCD_ResetCallback                    0x0800b9d1   Thumb Code    82  usbd_conf.o(.text.HAL_PCD_ResetCallback)
    HAL_PCD_ResumeCallback                   0x0800ba29   Thumb Code    20  usbd_conf.o(.text.HAL_PCD_ResumeCallback)
    HAL_PCD_SOFCallback                      0x0800ba41   Thumb Code    20  usbd_conf.o(.text.HAL_PCD_SOFCallback)
    HAL_PCD_SetAddress                       0x0800ba59   Thumb Code    92  stm32h7xx_hal_pcd.o(.text.HAL_PCD_SetAddress)
    HAL_PCD_SetupStageCallback               0x0800bab9   Thumb Code    24  usbd_conf.o(.text.HAL_PCD_SetupStageCallback)
    HAL_PCD_Start                            0x0800bad1   Thumb Code   124  stm32h7xx_hal_pcd.o(.text.HAL_PCD_Start)
    HAL_PCD_SuspendCallback                  0x0800bb51   Thumb Code    62  usbd_conf.o(.text.HAL_PCD_SuspendCallback)
    HAL_PWREx_ConfigSupply                   0x0800bb91   Thumb Code   162  stm32h7xx_hal_pwr_ex.o(.text.HAL_PWREx_ConfigSupply)
    HAL_PWREx_EnableUSBVoltageDetector       0x0800bc39   Thumb Code    18  stm32h7xx_hal_pwr_ex.o(.text.HAL_PWREx_EnableUSBVoltageDetector)
    HAL_RCCEx_GetD3PCLK1Freq                 0x0800bc51   Thumb Code    38  stm32h7xx_hal_rcc_ex.o(.text.HAL_RCCEx_GetD3PCLK1Freq)
    HAL_RCCEx_GetPLL1ClockFreq               0x0800bc79   Thumb Code   684  stm32h7xx_hal_rcc_ex.o(.text.HAL_RCCEx_GetPLL1ClockFreq)
    HAL_RCCEx_GetPLL2ClockFreq               0x0800bf29   Thumb Code   684  stm32h7xx_hal_rcc_ex.o(.text.HAL_RCCEx_GetPLL2ClockFreq)
    HAL_RCCEx_GetPLL3ClockFreq               0x0800c1d9   Thumb Code   684  stm32h7xx_hal_rcc_ex.o(.text.HAL_RCCEx_GetPLL3ClockFreq)
    HAL_RCCEx_GetPeriphCLKFreq               0x0800c489   Thumb Code  2770  stm32h7xx_hal_rcc_ex.o(.text.HAL_RCCEx_GetPeriphCLKFreq)
    HAL_RCCEx_PeriphCLKConfig                0x0800cf61   Thumb Code  4076  stm32h7xx_hal_rcc_ex.o(.text.HAL_RCCEx_PeriphCLKConfig)
    HAL_RCC_ClockConfig                      0x0800df51   Thumb Code  1176  stm32h7xx_hal_rcc.o(.text.HAL_RCC_ClockConfig)
    HAL_RCC_GetClockConfig                   0x0800e3e9   Thumb Code   136  stm32h7xx_hal_rcc.o(.text.HAL_RCC_GetClockConfig)
    HAL_RCC_GetHCLKFreq                      0x0800e471   Thumb Code    86  stm32h7xx_hal_rcc.o(.text.HAL_RCC_GetHCLKFreq)
    HAL_RCC_GetPCLK1Freq                     0x0800e4c9   Thumb Code    38  stm32h7xx_hal_rcc.o(.text.HAL_RCC_GetPCLK1Freq)
    HAL_RCC_GetPCLK2Freq                     0x0800e4f1   Thumb Code    38  stm32h7xx_hal_rcc.o(.text.HAL_RCC_GetPCLK2Freq)
    HAL_RCC_GetSysClockFreq                  0x0800e519   Thumb Code   784  stm32h7xx_hal_rcc.o(.text.HAL_RCC_GetSysClockFreq)
    HAL_RCC_OscConfig                        0x0800e829   Thumb Code  2592  stm32h7xx_hal_rcc.o(.text.HAL_RCC_OscConfig)
    HAL_SPI_Init                             0x0800f249   Thumb Code   658  stm32h7xx_hal_spi.o(.text.HAL_SPI_Init)
    HAL_SPI_MspInit                          0x0800f4e1   Thumb Code   198  spi.o(.text.HAL_SPI_MspInit)
    HAL_SPI_TransmitReceive                  0x0800f5a9   Thumb Code  1796  stm32h7xx_hal_spi.o(.text.HAL_SPI_TransmitReceive)
    HAL_TIMEx_Break2Callback                 0x0800fcb1   Thumb Code     8  stm32h7xx_hal_tim_ex.o(.text.HAL_TIMEx_Break2Callback)
    HAL_TIMEx_BreakCallback                  0x0800fcb9   Thumb Code     8  stm32h7xx_hal_tim_ex.o(.text.HAL_TIMEx_BreakCallback)
    HAL_TIMEx_CommutCallback                 0x0800fcc1   Thumb Code     8  stm32h7xx_hal_tim_ex.o(.text.HAL_TIMEx_CommutCallback)
    HAL_TIMEx_ConfigBreakDeadTime            0x0800fcc9   Thumb Code   302  stm32h7xx_hal_tim_ex.o(.text.HAL_TIMEx_ConfigBreakDeadTime)
    HAL_TIMEx_MasterConfigSynchronization    0x0800fdf9   Thumb Code   380  stm32h7xx_hal_tim_ex.o(.text.HAL_TIMEx_MasterConfigSynchronization)
    HAL_TIM_Base_Init                        0x0800ff79   Thumb Code   168  stm32h7xx_hal_tim.o(.text.HAL_TIM_Base_Init)
    HAL_TIM_Base_MspInit                     0x08010021   Thumb Code   384  tim.o(.text.HAL_TIM_Base_MspInit)
    HAL_TIM_Base_Start_IT                    0x080101a1   Thumb Code   296  stm32h7xx_hal_tim.o(.text.HAL_TIM_Base_Start_IT)
    HAL_TIM_ConfigClockSource                0x080102c9   Thumb Code   464  stm32h7xx_hal_tim.o(.text.HAL_TIM_ConfigClockSource)
    HAL_TIM_ErrorCallback                    0x08010499   Thumb Code     8  stm32h7xx_hal_tim.o(.text.HAL_TIM_ErrorCallback)
    HAL_TIM_IC_CaptureCallback               0x080104a1   Thumb Code     8  stm32h7xx_hal_tim.o(.text.HAL_TIM_IC_CaptureCallback)
    HAL_TIM_IRQHandler                       0x080104a9   Thumb Code   592  stm32h7xx_hal_tim.o(.text.HAL_TIM_IRQHandler)
    HAL_TIM_MspPostInit                      0x080106f9   Thumb Code   264  tim.o(.text.HAL_TIM_MspPostInit)
    HAL_TIM_OC_DelayElapsedCallback          0x08010801   Thumb Code     8  stm32h7xx_hal_tim.o(.text.HAL_TIM_OC_DelayElapsedCallback)
    HAL_TIM_PWM_ConfigChannel                0x08010809   Thumb Code   432  stm32h7xx_hal_tim.o(.text.HAL_TIM_PWM_ConfigChannel)
    HAL_TIM_PWM_Init                         0x080109b9   Thumb Code   168  stm32h7xx_hal_tim.o(.text.HAL_TIM_PWM_Init)
    HAL_TIM_PWM_MspInit                      0x08010a61   Thumb Code     8  stm32h7xx_hal_tim.o(.text.HAL_TIM_PWM_MspInit)
    HAL_TIM_PWM_PulseFinishedCallback        0x08010a69   Thumb Code     8  stm32h7xx_hal_tim.o(.text.HAL_TIM_PWM_PulseFinishedCallback)
    HAL_TIM_PWM_PulseFinishedHalfCpltCallback 0x08010a71   Thumb Code     8  stm32h7xx_hal_tim.o(.text.HAL_TIM_PWM_PulseFinishedHalfCpltCallback)
    HAL_TIM_PWM_Start                        0x08010a79   Thumb Code   674  stm32h7xx_hal_tim.o(.text.HAL_TIM_PWM_Start)
    HAL_TIM_PWM_Start_DMA                    0x08010d21   Thumb Code  1250  stm32h7xx_hal_tim.o(.text.HAL_TIM_PWM_Start_DMA)
    HAL_TIM_PeriodElapsedCallback            0x08011209   Thumb Code    34  main.o(.text.HAL_TIM_PeriodElapsedCallback)
    HAL_TIM_TriggerCallback                  0x08011231   Thumb Code     8  stm32h7xx_hal_tim.o(.text.HAL_TIM_TriggerCallback)
    HAL_UARTEx_DisableFifoMode               0x08011239   Thumb Code   124  stm32h7xx_hal_uart_ex.o(.text.HAL_UARTEx_DisableFifoMode)
    HAL_UARTEx_EnableFifoMode                0x080112b9   Thumb Code   134  stm32h7xx_hal_uart_ex.o(.text.HAL_UARTEx_EnableFifoMode)
    HAL_UARTEx_RxEventCallback               0x08011341   Thumb Code    12  stm32h7xx_hal_uart.o(.text.HAL_UARTEx_RxEventCallback)
    HAL_UARTEx_RxFifoFullCallback            0x08011351   Thumb Code     8  stm32h7xx_hal_uart_ex.o(.text.HAL_UARTEx_RxFifoFullCallback)
    HAL_UARTEx_SetRxFifoThreshold            0x08011359   Thumb Code   140  stm32h7xx_hal_uart_ex.o(.text.HAL_UARTEx_SetRxFifoThreshold)
    HAL_UARTEx_SetTxFifoThreshold            0x080113e9   Thumb Code   140  stm32h7xx_hal_uart_ex.o(.text.HAL_UARTEx_SetTxFifoThreshold)
    HAL_UARTEx_TxFifoEmptyCallback           0x08011479   Thumb Code     8  stm32h7xx_hal_uart_ex.o(.text.HAL_UARTEx_TxFifoEmptyCallback)
    HAL_UARTEx_WakeupCallback                0x08011481   Thumb Code     8  stm32h7xx_hal_uart_ex.o(.text.HAL_UARTEx_WakeupCallback)
    HAL_UART_DMAStop                         0x08011489   Thumb Code   288  stm32h7xx_hal_uart.o(.text.HAL_UART_DMAStop)
    HAL_UART_ErrorCallback                   0x080115a9   Thumb Code     8  stm32h7xx_hal_uart.o(.text.HAL_UART_ErrorCallback)
    HAL_UART_IRQHandler                      0x080115b1   Thumb Code  1736  stm32h7xx_hal_uart.o(.text.HAL_UART_IRQHandler)
    HAL_UART_Init                            0x08011c79   Thumb Code   170  stm32h7xx_hal_uart.o(.text.HAL_UART_Init)
    HAL_UART_MspInit                         0x08011d29   Thumb Code   870  usart.o(.text.HAL_UART_MspInit)
    HAL_UART_Receive_DMA                     0x08012091   Thumb Code   160  stm32h7xx_hal_uart.o(.text.HAL_UART_Receive_DMA)
    HAL_UART_RxCpltCallback                  0x08012131   Thumb Code     8  stm32h7xx_hal_uart.o(.text.HAL_UART_RxCpltCallback)
    HAL_UART_RxHalfCpltCallback              0x08012139   Thumb Code     8  stm32h7xx_hal_uart.o(.text.HAL_UART_RxHalfCpltCallback)
    HAL_UART_Transmit                        0x08012141   Thumb Code   312  stm32h7xx_hal_uart.o(.text.HAL_UART_Transmit)
    HAL_UART_TxCpltCallback                  0x08012279   Thumb Code     8  stm32h7xx_hal_uart.o(.text.HAL_UART_TxCpltCallback)
    HardFault_Handler                        0x08012411   Thumb Code     4  stm32h7xx_it.o(.text.HardFault_Handler)
    INS_Init                                 0x08012419   Thumb Code    56  ins_task.o(.text.INS_Init)
    INS_task                                 0x08012451   Thumb Code   784  ins_task.o(.text.INS_task)
    Init_Beep                                0x08012761   Thumb Code    90  bsp_ext.o(.text.Init_Beep)
    Init_Servo                               0x080127c1   Thumb Code    60  bsp_ext.o(.text.Init_Servo)
    Init_Ws2812                              0x08012801   Thumb Code    14  bsp_ext.o(.text.Init_Ws2812)
    JointMotor_Iq2Torque                     0x08012891   Thumb Code    28  bsp_motor.o(.text.JointMotor_Iq2Torque)
    JointMotor_Torque2Iq                     0x080128b1   Thumb Code    28  bsp_motor.o(.text.JointMotor_Torque2Iq)
    Kalman_Filter_Init                       0x080128d1   Thumb Code  1522  kalman_filter.o(.text.Kalman_Filter_Init)
    Kalman_Filter_Measure                    0x08012ec9   Thumb Code    98  kalman_filter.o(.text.Kalman_Filter_Measure)
    Kalman_Filter_P_Update                   0x08012f31   Thumb Code   128  kalman_filter.o(.text.Kalman_Filter_P_Update)
    Kalman_Filter_PminusUpdate               0x08012fb1   Thumb Code   126  kalman_filter.o(.text.Kalman_Filter_PminusUpdate)
    Kalman_Filter_SetK                       0x08013031   Thumb Code   250  kalman_filter.o(.text.Kalman_Filter_SetK)
    Kalman_Filter_Update                     0x08013131   Thumb Code   400  kalman_filter.o(.text.Kalman_Filter_Update)
    Kalman_Filter_xhatMinusUpdate            0x080132c1   Thumb Code   162  kalman_filter.o(.text.Kalman_Filter_xhatMinusUpdate)
    Kalman_Filter_xhatUpdate                 0x08013369   Thumb Code   172  kalman_filter.o(.text.Kalman_Filter_xhatUpdate)
    MX_ADC1_Init                             0x080138e1   Thumb Code   188  adc.o(.text.MX_ADC1_Init)
    MX_DMA_Init                              0x080139a1   Thumb Code   144  dma.o(.text.MX_DMA_Init)
    MX_FDCAN1_Init                           0x08013a31   Thumb Code   112  fdcan.o(.text.MX_FDCAN1_Init)
    MX_FREERTOS_Init                         0x08013aa1   Thumb Code   302  freertos.o(.text.MX_FREERTOS_Init)
    MX_GPIO_Init                             0x08013bd1   Thumb Code   532  gpio.o(.text.MX_GPIO_Init)
    MX_SPI1_Init                             0x08013de9   Thumb Code   114  spi.o(.text.MX_SPI1_Init)
    MX_TIM15_Init                            0x08013e61   Thumb Code   284  tim.o(.text.MX_TIM15_Init)
    MX_TIM1_Init                             0x08013f81   Thumb Code   320  tim.o(.text.MX_TIM1_Init)
    MX_TIM2_Init                             0x080140c1   Thumb Code   244  tim.o(.text.MX_TIM2_Init)
    MX_TIM8_Init                             0x080141b9   Thumb Code   144  tim.o(.text.MX_TIM8_Init)
    MX_UART4_Init                            0x08014249   Thumb Code   162  usart.o(.text.MX_UART4_Init)
    MX_UART8_Init                            0x080142f1   Thumb Code   142  usart.o(.text.MX_UART8_Init)
    MX_USART10_UART_Init                     0x08014381   Thumb Code   142  usart.o(.text.MX_USART10_UART_Init)
    MX_USART1_UART_Init                      0x08014411   Thumb Code   142  usart.o(.text.MX_USART1_UART_Init)
    MX_USB_DEVICE_Init                       0x080144a1   Thumb Code   122  usb_device.o(.text.MX_USB_DEVICE_Init)
    MatchThenSet_FLOAT                       0x08014521   Thumb Code    70  defs_parser.o(.text.MatchThenSet_FLOAT)
    MemManage_Handler                        0x08014569   Thumb Code     4  stm32h7xx_it.o(.text.MemManage_Handler)
    Motor_Setiq                              0x08014571   Thumb Code    44  bsp_motor.o(.text.Motor_Setiq)
    Motorparam_updata                        0x080145a1   Thumb Code   116  bsp_motor.o(.text.Motorparam_updata)
    NMI_Handler                              0x08014619   Thumb Code     4  stm32h7xx_it.o(.text.NMI_Handler)
    OTG_HS_IRQHandler                        0x08014691   Thumb Code    16  stm32h7xx_it.o(.text.OTG_HS_IRQHandler)
    Observe_task                             0x080146a1   Thumb Code   284  observe_task.o(.text.Observe_task)
    PID_init                                 0x08014b51   Thumb Code   126  pid.o(.text.PID_init)
    PendSV_Handler                           0x08014bd1   Thumb Code   100  port.o(.text.PendSV_Handler)
    RotationMatrix_update                    0x08014fd9   Thumb Code   372  mahony_filter.o(.text.RotationMatrix_update)
    SVC_Handler                              0x08015301   Thumb Code    36  port.o(.text.SVC_Handler)
    Servo_task                               0x08015371   Thumb Code   224  bsp_ext.o(.text.Servo_task)
    StartDefaultTask                         0x08015451   Thumb Code   752  freertos.o(.text.StartDefaultTask)
    StartTask_Chassis                        0x08015741   Thumb Code    14  freertos.o(.text.StartTask_Chassis)
    StartTask_LED                            0x08015751   Thumb Code    56  freertos.o(.text.StartTask_LED)
    StartTask_adc                            0x08015789   Thumb Code   120  freertos.o(.text.StartTask_adc)
    StartTask_imu                            0x08015801   Thumb Code    14  freertos.o(.text.StartTask_imu)
    StartTask_motorError                     0x08015811   Thumb Code   220  freertos.o(.text.StartTask_motorError)
    StartTask_observe                        0x080158f1   Thumb Code    14  freertos.o(.text.StartTask_observe)
    StartTask_usb                            0x08015901   Thumb Code   440  freertos.o(.text.StartTask_usb)
    StartTask_vmc                            0x08015ab9   Thumb Code    14  freertos.o(.text.StartTask_vmc)
    SysTick_Handler                          0x08015ac9   Thumb Code    30  cmsis_os2.o(.text.SysTick_Handler)
    SystemClock_Config                       0x08015ae9   Thumb Code   212  main.o(.text.SystemClock_Config)
    SystemInit                               0x08015bc1   Thumb Code   314  system_stm32h7xx.o(.text.SystemInit)
    TIM6_DAC_IRQHandler                      0x08015d01   Thumb Code    16  stm32h7xx_it.o(.text.TIM6_DAC_IRQHandler)
    TIM_Base_SetConfig                       0x08015d11   Thumb Code   464  stm32h7xx_hal_tim.o(.text.TIM_Base_SetConfig)
    TIM_CCxChannelCmd                        0x08015ee1   Thumb Code    54  stm32h7xx_hal_tim.o(.text.TIM_CCxChannelCmd)
    TIM_DMADelayPulseHalfCplt                0x08015fd9   Thumb Code   116  stm32h7xx_hal_tim.o(.text.TIM_DMADelayPulseHalfCplt)
    TIM_DMAError                             0x08016051   Thumb Code   154  stm32h7xx_hal_tim.o(.text.TIM_DMAError)
    TIM_ETR_SetConfig                        0x080160f1   Thumb Code    52  stm32h7xx_hal_tim.o(.text.TIM_ETR_SetConfig)
    TIM_OC2_SetConfig                        0x080162a9   Thumb Code   364  stm32h7xx_hal_tim.o(.text.TIM_OC2_SetConfig)
    UART4_IRQHandler                         0x080168b9   Thumb Code   542  stm32h7xx_it.o(.text.UART4_IRQHandler)
    UART8_IRQHandler                         0x08016ad9   Thumb Code    16  stm32h7xx_it.o(.text.UART8_IRQHandler)
    UART_AdvFeatureConfig                    0x08016b71   Thumb Code   328  stm32h7xx_hal_uart.o(.text.UART_AdvFeatureConfig)
    UART_CheckIdleState                      0x08016cb9   Thumb Code   326  stm32h7xx_hal_uart.o(.text.UART_CheckIdleState)
    UART_SetConfig                           0x08017121   Thumb Code  2638  stm32h7xx_hal_uart.o(.text.UART_SetConfig)
    UART_Start_Receive_DMA                   0x08017b71   Thumb Code   302  stm32h7xx_hal_uart.o(.text.UART_Start_Receive_DMA)
    UART_WaitOnFlagUntilTimeout              0x08017ca1   Thumb Code   268  stm32h7xx_hal_uart.o(.text.UART_WaitOnFlagUntilTimeout)
    USART10_IRQHandler                       0x08017db1   Thumb Code    16  stm32h7xx_it.o(.text.USART10_IRQHandler)
    USART1_IRQHandler                        0x08017dc1   Thumb Code   528  stm32h7xx_it.o(.text.USART1_IRQHandler)
    USBD_CDC_GetDeviceQualifierDescriptor    0x080182a1   Thumb Code    22  usbd_cdc.o(.text.USBD_CDC_GetDeviceQualifierDescriptor)
    USBD_CDC_ReceivePacket                   0x08018629   Thumb Code   126  usbd_cdc.o(.text.USBD_CDC_ReceivePacket)
    USBD_CDC_RegisterInterface               0x080186a9   Thumb Code    52  usbd_cdc.o(.text.USBD_CDC_RegisterInterface)
    USBD_CDC_SetRxBuffer                     0x080186e1   Thumb Code    60  usbd_cdc.o(.text.USBD_CDC_SetRxBuffer)
    USBD_CDC_SetTxBuffer                     0x08018721   Thumb Code    70  usbd_cdc.o(.text.USBD_CDC_SetTxBuffer)
    USBD_CDC_TransmitPacket                  0x08018939   Thumb Code   136  usbd_cdc.o(.text.USBD_CDC_TransmitPacket)
    USBD_ClrClassConfig                      0x080189c1   Thumb Code    50  usbd_core.o(.text.USBD_ClrClassConfig)
    USBD_CoreFindEP                          0x08018a39   Thumb Code    14  usbd_core.o(.text.USBD_CoreFindEP)
    USBD_CoreFindIF                          0x08018a49   Thumb Code    14  usbd_core.o(.text.USBD_CoreFindIF)
    USBD_CtlContinueRx                       0x08018a59   Thumb Code    30  usbd_ioreq.o(.text.USBD_CtlContinueRx)
    USBD_CtlContinueSendData                 0x08018a79   Thumb Code    30  usbd_ioreq.o(.text.USBD_CtlContinueSendData)
    USBD_CtlError                            0x08018a99   Thumb Code    28  usbd_ctlreq.o(.text.USBD_CtlError)
    USBD_CtlPrepareRx                        0x08018ab9   Thumb Code    54  usbd_ioreq.o(.text.USBD_CtlPrepareRx)
    USBD_CtlReceiveStatus                    0x08018af1   Thumb Code    34  usbd_ioreq.o(.text.USBD_CtlReceiveStatus)
    USBD_CtlSendData                         0x08018b19   Thumb Code    50  usbd_ioreq.o(.text.USBD_CtlSendData)
    USBD_CtlSendStatus                       0x08018b51   Thumb Code    34  usbd_ioreq.o(.text.USBD_CtlSendStatus)
    USBD_GetEpDesc                           0x08018f01   Thumb Code   118  usbd_core.o(.text.USBD_GetEpDesc)
    USBD_GetNextDesc                         0x08018fb1   Thumb Code    38  usbd_core.o(.text.USBD_GetNextDesc)
    USBD_GetString                           0x08019041   Thumb Code   188  usbd_ctlreq.o(.text.USBD_GetString)
    USBD_Get_USB_Status                      0x08019101   Thumb Code    82  usbd_conf.o(.text.USBD_Get_USB_Status)
    USBD_HS_ConfigStrDescriptor              0x08019159   Thumb Code    78  usbd_desc.o(.text.USBD_HS_ConfigStrDescriptor)
    USBD_HS_DeviceDescriptor                 0x080191a9   Thumb Code    26  usbd_desc.o(.text.USBD_HS_DeviceDescriptor)
    USBD_HS_InterfaceStrDescriptor           0x080191c9   Thumb Code    78  usbd_desc.o(.text.USBD_HS_InterfaceStrDescriptor)
    USBD_HS_LangIDStrDescriptor              0x08019219   Thumb Code    26  usbd_desc.o(.text.USBD_HS_LangIDStrDescriptor)
    USBD_HS_ManufacturerStrDescriptor        0x08019239   Thumb Code    40  usbd_desc.o(.text.USBD_HS_ManufacturerStrDescriptor)
    USBD_HS_ProductStrDescriptor             0x08019261   Thumb Code    78  usbd_desc.o(.text.USBD_HS_ProductStrDescriptor)
    USBD_HS_SerialStrDescriptor              0x080192b1   Thumb Code    32  usbd_desc.o(.text.USBD_HS_SerialStrDescriptor)
    USBD_Init                                0x080192d1   Thumb Code   106  usbd_core.o(.text.USBD_Init)
    USBD_LL_ClearStallEP                     0x08019341   Thumb Code    58  usbd_conf.o(.text.USBD_LL_ClearStallEP)
    USBD_LL_CloseEP                          0x08019381   Thumb Code    58  usbd_conf.o(.text.USBD_LL_CloseEP)
    USBD_LL_DataInStage                      0x080193c1   Thumb Code   400  usbd_core.o(.text.USBD_LL_DataInStage)
    USBD_LL_DataOutStage                     0x08019551   Thumb Code   434  usbd_core.o(.text.USBD_LL_DataOutStage)
    USBD_LL_DevConnected                     0x08019709   Thumb Code    10  usbd_core.o(.text.USBD_LL_DevConnected)
    USBD_LL_DevDisconnected                  0x08019719   Thumb Code    64  usbd_core.o(.text.USBD_LL_DevDisconnected)
    USBD_LL_GetRxDataSize                    0x08019759   Thumb Code    28  usbd_conf.o(.text.USBD_LL_GetRxDataSize)
    USBD_LL_Init                             0x08019779   Thumb Code   134  usbd_conf.o(.text.USBD_LL_Init)
    USBD_LL_IsStallEP                        0x08019801   Thumb Code    90  usbd_conf.o(.text.USBD_LL_IsStallEP)
    USBD_LL_IsoINIncomplete                  0x08019861   Thumb Code   110  usbd_core.o(.text.USBD_LL_IsoINIncomplete)
    USBD_LL_IsoOUTIncomplete                 0x080198d1   Thumb Code   110  usbd_core.o(.text.USBD_LL_IsoOUTIncomplete)
    USBD_LL_OpenEP                           0x08019941   Thumb Code    74  usbd_conf.o(.text.USBD_LL_OpenEP)
    USBD_LL_PrepareReceive                   0x08019991   Thumb Code    66  usbd_conf.o(.text.USBD_LL_PrepareReceive)
    USBD_LL_Reset                            0x080199d9   Thumb Code   156  usbd_core.o(.text.USBD_LL_Reset)
    USBD_LL_Resume                           0x08019a79   Thumb Code    36  usbd_core.o(.text.USBD_LL_Resume)
    USBD_LL_SOF                              0x08019aa1   Thumb Code    62  usbd_core.o(.text.USBD_LL_SOF)
    USBD_LL_SetSpeed                         0x08019ae1   Thumb Code    22  usbd_core.o(.text.USBD_LL_SetSpeed)
    USBD_LL_SetUSBAddress                    0x08019af9   Thumb Code    58  usbd_conf.o(.text.USBD_LL_SetUSBAddress)
    USBD_LL_SetupStage                       0x08019b39   Thumb Code   148  usbd_core.o(.text.USBD_LL_SetupStage)
    USBD_LL_StallEP                          0x08019bd1   Thumb Code    58  usbd_conf.o(.text.USBD_LL_StallEP)
    USBD_LL_Start                            0x08019c11   Thumb Code    50  usbd_conf.o(.text.USBD_LL_Start)
    USBD_LL_Suspend                          0x08019c49   Thumb Code    44  usbd_core.o(.text.USBD_LL_Suspend)
    USBD_LL_Transmit                         0x08019c79   Thumb Code    66  usbd_conf.o(.text.USBD_LL_Transmit)
    USBD_ParseSetupRequest                   0x08019cc1   Thumb Code    98  usbd_ctlreq.o(.text.USBD_ParseSetupRequest)
    USBD_RegisterClass                       0x08019d29   Thumb Code   114  usbd_core.o(.text.USBD_RegisterClass)
    USBD_RunTestMode                         0x08019da1   Thumb Code    10  usbd_core.o(.text.USBD_RunTestMode)
    USBD_SetClassConfig                      0x08019e41   Thumb Code    54  usbd_core.o(.text.USBD_SetClassConfig)
    USBD_Start                               0x0801a049   Thumb Code    16  usbd_core.o(.text.USBD_Start)
    USBD_StdDevReq                           0x0801a059   Thumb Code   204  usbd_ctlreq.o(.text.USBD_StdDevReq)
    USBD_StdEPReq                            0x0801a129   Thumb Code   940  usbd_ctlreq.o(.text.USBD_StdEPReq)
    USBD_StdItfReq                           0x0801a4d9   Thumb Code   244  usbd_ctlreq.o(.text.USBD_StdItfReq)
    USBD_static_free                         0x0801a5d1   Thumb Code     8  usbd_conf.o(.text.USBD_static_free)
    USBD_static_malloc                       0x0801a5d9   Thumb Code    16  usbd_conf.o(.text.USBD_static_malloc)
    USB_ActivateEndpoint                     0x0801a5e9   Thumb Code   222  stm32h7xx_ll_usb.o(.text.USB_ActivateEndpoint)
    USB_ActivateSetup                        0x0801a6c9   Thumb Code    44  stm32h7xx_ll_usb.o(.text.USB_ActivateSetup)
    USB_CoreInit                             0x0801a6f9   Thumb Code   236  stm32h7xx_ll_usb.o(.text.USB_CoreInit)
    USB_DeactivateEndpoint                   0x0801a861   Thumb Code   312  stm32h7xx_ll_usb.o(.text.USB_DeactivateEndpoint)
    USB_DevConnect                           0x0801a999   Thumb Code    42  stm32h7xx_ll_usb.o(.text.USB_DevConnect)
    USB_DevDisconnect                        0x0801a9c9   Thumb Code    42  stm32h7xx_ll_usb.o(.text.USB_DevDisconnect)
    USB_DevInit                              0x0801a9f9   Thumb Code   656  stm32h7xx_ll_usb.o(.text.USB_DevInit)
    USB_DisableGlobalInt                     0x0801ac89   Thumb Code    20  stm32h7xx_ll_usb.o(.text.USB_DisableGlobalInt)
    USB_EP0_OutStart                         0x0801aca1   Thumb Code   158  stm32h7xx_ll_usb.o(.text.USB_EP0_OutStart)
    USB_EPClearStall                         0x0801ad41   Thumb Code   160  stm32h7xx_ll_usb.o(.text.USB_EPClearStall)
    USB_EPSetStall                           0x0801ade1   Thumb Code   168  stm32h7xx_ll_usb.o(.text.USB_EPSetStall)
    USB_EPStartXfer                          0x0801ae89   Thumb Code  1000  stm32h7xx_ll_usb.o(.text.USB_EPStartXfer)
    USB_EPStopXfer                           0x0801b271   Thumb Code   284  stm32h7xx_ll_usb.o(.text.USB_EPStopXfer)
    USB_EnableGlobalInt                      0x0801b391   Thumb Code    20  stm32h7xx_ll_usb.o(.text.USB_EnableGlobalInt)
    USB_FlushRxFifo                          0x0801b3a9   Thumb Code   116  stm32h7xx_ll_usb.o(.text.USB_FlushRxFifo)
    USB_FlushTxFifo                          0x0801b421   Thumb Code   122  stm32h7xx_ll_usb.o(.text.USB_FlushTxFifo)
    USB_GetDevSpeed                          0x0801b4a1   Thumb Code    76  stm32h7xx_ll_usb.o(.text.USB_GetDevSpeed)
    USB_GetMode                              0x0801b4f1   Thumb Code    16  stm32h7xx_ll_usb.o(.text.USB_GetMode)
    USB_ReadDevAllInEpInterrupt              0x0801b501   Thumb Code    36  stm32h7xx_ll_usb.o(.text.USB_ReadDevAllInEpInterrupt)
    USB_ReadDevAllOutEpInterrupt             0x0801b529   Thumb Code    36  stm32h7xx_ll_usb.o(.text.USB_ReadDevAllOutEpInterrupt)
    USB_ReadDevInEPInterrupt                 0x0801b551   Thumb Code    78  stm32h7xx_ll_usb.o(.text.USB_ReadDevInEPInterrupt)
    USB_ReadDevOutEPInterrupt                0x0801b5a1   Thumb Code    46  stm32h7xx_ll_usb.o(.text.USB_ReadDevOutEPInterrupt)
    USB_ReadInterrupts                       0x0801b5d1   Thumb Code    26  stm32h7xx_ll_usb.o(.text.USB_ReadInterrupts)
    USB_ReadPacket                           0x0801b5f1   Thumb Code   180  stm32h7xx_ll_usb.o(.text.USB_ReadPacket)
    USB_SetCurrentMode                       0x0801b6a9   Thumb Code   222  stm32h7xx_ll_usb.o(.text.USB_SetCurrentMode)
    USB_SetDevAddress                        0x0801b789   Thumb Code    54  stm32h7xx_ll_usb.o(.text.USB_SetDevAddress)
    USB_SetDevSpeed                          0x0801b7c1   Thumb Code    34  stm32h7xx_ll_usb.o(.text.USB_SetDevSpeed)
    USB_SetTurnaroundTime                    0x0801b7e9   Thumb Code   442  stm32h7xx_ll_usb.o(.text.USB_SetTurnaroundTime)
    USB_WritePacket                          0x0801b9a9   Thumb Code   130  stm32h7xx_ll_usb.o(.text.USB_WritePacket)
    UsageFault_Handler                       0x0801ba31   Thumb Code     4  stm32h7xx_it.o(.text.UsageFault_Handler)
    VMC_Param_Updata                         0x0801ba39   Thumb Code   128  vmc.o(.text.VMC_Param_Updata)
    VMC_liftoff_check                        0x0801bab9   Thumb Code   198  vmc.o(.text.VMC_liftoff_check)
    WheelMotor_Torque2Iq                     0x0801bb81   Thumb Code    22  bsp_motor.o(.text.WheelMotor_Torque2Iq)
    Ws2812_set_one_color                     0x0801bb99   Thumb Code   136  bsp_ext.o(.text.Ws2812_set_one_color)
    Ws2812_task                              0x0801bc21   Thumb Code    78  bsp_ext.o(.text.Ws2812_task)
    Xbox_rx_buf_Handle                       0x0801bc71   Thumb Code  1034  xbox.o(.text.Xbox_rx_buf_Handle)
    arm_cos_f32                              0x0801c18d   Thumb Code   144  arm_cos_f32.o(.text.arm_cos_f32)
    arm_mat_add_f32                          0x0801c21d   Thumb Code   190  arm_mat_add_f32.o(.text.arm_mat_add_f32)
    arm_mat_init_f32                         0x0801c2db   Thumb Code     8  arm_mat_init_f32.o(.text.arm_mat_init_f32)
    arm_mat_inverse_f32                      0x0801c2e5   Thumb Code   716  arm_mat_inverse_f32.o(.text.arm_mat_inverse_f32)
    arm_mat_mult_f32                         0x0801c5b1   Thumb Code   304  arm_mat_mult_f32.o(.text.arm_mat_mult_f32)
    arm_mat_sub_f32                          0x0801c6e1   Thumb Code   190  arm_mat_sub_f32.o(.text.arm_mat_sub_f32)
    arm_mat_trans_f32                        0x0801c7a1   Thumb Code   180  arm_mat_trans_f32.o(.text.arm_mat_trans_f32)
    arm_sin_f32                              0x0801c855   Thumb Code   140  arm_sin_f32.o(.text.arm_sin_f32)
    bmi088_accel_init                        0x0801c8e1   Thumb Code   444  bmi088driver.o(.text.bmi088_accel_init)
    bmi088_gyro_init                         0x0801caa1   Thumb Code   372  bmi088driver.o(.text.bmi088_gyro_init)
    fputc                                    0x0801cca9   Thumb Code    34  usart.o(.text.fputc)
    mahony_init                              0x0801ccd1   Thumb Code    96  mahony_filter.o(.text.mahony_init)
    mahony_input                             0x0801cd31   Thumb Code    60  mahony_filter.o(.text.mahony_input)
    mahony_output                            0x0801cd71   Thumb Code    70  mahony_filter.o(.text.mahony_output)
    mahony_update                            0x0801cdb9   Thumb Code   764  mahony_filter.o(.text.mahony_update)
    main                                     0x0801d0b9   Thumb Code   216  main.o(.text.main)
    osDelay                                  0x0801d191   Thumb Code    52  cmsis_os2.o(.text.osDelay)
    osKernelInitialize                       0x0801d1c9   Thumb Code    70  cmsis_os2.o(.text.osKernelInitialize)
    osKernelStart                            0x0801d211   Thumb Code    82  cmsis_os2.o(.text.osKernelStart)
    osThreadNew                              0x0801d269   Thumb Code   346  cmsis_os2.o(.text.osThreadNew)
    pvPortMalloc                             0x0801e2a1   Thumb Code   492  heap_4.o(.text.pvPortMalloc)
    pxPortInitialiseStack                    0x0801e491   Thumb Code    94  port.o(.text.pxPortInitialiseStack)
    uxListRemove                             0x0801e521   Thumb Code    72  list.o(.text.uxListRemove)
    vApplicationGetIdleTaskMemory            0x0801e569   Thumb Code    42  cmsis_os2.o(.text.vApplicationGetIdleTaskMemory)
    vApplicationGetTimerTaskMemory           0x0801e599   Thumb Code    44  cmsis_os2.o(.text.vApplicationGetTimerTaskMemory)
    vListInitialise                          0x0801e5c9   Thumb Code    46  list.o(.text.vListInitialise)
    vListInitialiseItem                      0x0801e5f9   Thumb Code    14  list.o(.text.vListInitialiseItem)
    vListInsert                              0x0801e609   Thumb Code   106  list.o(.text.vListInsert)
    vListInsertEnd                           0x0801e679   Thumb Code    58  list.o(.text.vListInsertEnd)
    vPortEnterCritical                       0x0801e6d1   Thumb Code    86  port.o(.text.vPortEnterCritical)
    vPortExitCritical                        0x0801e729   Thumb Code    74  port.o(.text.vPortExitCritical)
    vPortFree                                0x0801e779   Thumb Code   206  heap_4.o(.text.vPortFree)
    vPortSetupTimerInterrupt                 0x0801e849   Thumb Code    68  port.o(.text.vPortSetupTimerInterrupt)
    vPortValidateInterruptPriority           0x0801e891   Thumb Code   132  port.o(.text.vPortValidateInterruptPriority)
