:020000040800F2
:10000000383C0020450100081D420008C14000089E
:1000100019420008510F00084D4C00080000000074
:10002000000000000000000000000000E1430008A4
:10003000A12300080000000035430008D94400084F
:100040005F0100085F0100085F0100085F01000810
:100050005F0100085F0100085F0100085F01000800
:100060005F0100085F0100085F0100085F010008F0
:100070005F0100085F0100085F0100085F010008E0
:100080005F0100085F0100085D0E00085F010008C5
:100090005F010008D51800085F0100085F01000833
:1000A0005F010008914600085F0100085F01000839
:1000B0005F0100085F0100085F0100085F010008A0
:1000C0005F0100085F0100085F0100085F01000890
:1000D0005F0100085F0100085F010008AD4A0008E9
:1000E0005F0100085F0100085F0100085F01000870
:1000F0005F0100085F0100085F0100085F01000860
:100100005F0100085F0100085F0100085F0100084F
:100110005F0100085F0100085F0100085F0100083F
:100120005F0100085F0100085F0100085F0100082F
:10013000DFF80CD000F0AAFB00480047356100084A
:10014000383C00200648804706480047FEE7FEE7A7
:10015000FEE7FEE7FEE7FEE7FEE7FEE7FEE7FEE777
:10016000E94400083101000840EA01039B0703D07D
:1001700009E008C9121F08C0042AFAD203E011F8E6
:10018000013B00F8013B521EF9D27047D2B201E0A8
:1001900000F8012B491EFBD270470022F6E710B58C
:1001A00013460A4604461946FFF7F0FF204610BDE5
:1001B00030B504460020034600E05B1C934203D2A6
:1001C000E05CCD5C401BF8D030BD70B5064606F053
:1001D0005BFD046805460A220021304600F0E8F87D
:1001E0002C6070BD30B5041E71F1000404DB4FF0CB
:1001F0000044404264EB0101141E73F1000405DB6E
:100200001C464FF00043524263EB0403801A9941AD
:1002100001D2012030BD002030BD00F0004230F09E
:1002200000400AD0C10D01F56071C0F3160042EA2A
:100230000151C20840071143704700200146704732
:1002400001F0004330B421F0004150EA010206D031
:100250000A0DA2F56072C1F31301002A02DC30BC62
:1002600000207047440F44EAC104C100E01830BCCC
:1002700000EBC25000F0D4B830B50B460146002068
:100280002022012409E021FA02F59D4205D303FA58
:1002900002F5491B04FA02F52844151EA2F10102D9
:1002A000F1DC30BD2DE9F05F0546002092469B460B
:1002B00088460646814640241BE02846414647467C
:1002C000224600F004FB53465A46C01A914110D30F
:1002D00011461846224600F0EBFA2D1A67EB01088A
:1002E0004F4622460120002100F0E2FA17EB0009F8
:1002F0004E41201EA4F10104DFDC484631462A4667
:100300004346BDE8F09F00000FB40B0010B58AB063
:100310000FA900910E994FF00004234ACC60214CA4
:10032000CDE9064200D004236FF00042CDE901324E
:100330001E4A089202466B46002000F08DFB0AB070
:1003400010BC5DF814FBF0B585B007464FF0FF30E8
:100350000091CDE901011E46002015460C4604908F
:100360003B466A46314604A8FFF7CEFF0499034690
:10037000601825B109B1024600E022462A60002932
:100380000ED0002B02DD0099814209D00094001BA1
:10039000CDE901043B466A46314604A8FFF7B4FFA5
:1003A00005B0F0BD910C0008AF0C00081D09000855
:1003B0002DE9F04791460F4680460446002614F882
:1003C000015B2DB100F0A6FA0068405DC007F6D1D0
:1003D0002B2D02D02D2D18D0641E4A4639462046BA
:1003E00000F076FC27B13968A14201D1C7F800803E
:1003F00071054FF002040BD54042002803DD06F0E2
:1004000043FC0460A007BDE8F08746F48066E4E79B
:100410000028F8DA06F038FC04606FF00040F2E7DC
:100420000029A8BF7047401C490008BF20F0010008
:10043000704710B4B0FA80FC00FA0CF050EA0104E6
:1004400004BF10BC704749B1CCF1200421FA04F478
:1004500011FA0CF118BF012121430843A3EB0C0151
:10046000CB1D4FEA00614FEA102042BF002010BCB4
:10047000704700EBC35010440029A4BF10BC704764
:10048000401C490008BF20F0010010BC704710B5A7
:1004900041000CD0C0F3C751962908DC7E2909DC45
:1004A00006DB410204D000F0004040F07E5010BD59
:1004B000002010BDC1F19604C4F1200100FA01F141
:1004C000E040FFF7ADFFA04010BDF0B400F00042E7
:1004D00021F0004120F00040CE0DC30DC1F3160104
:1004E00041F40001C0F316004C42154640F40000F0
:1004F000761E09E010EB440002D582F00042404233
:100500008842F7D840005B1EB342F9DA18B1F0BC5C
:100510000021FFF78EBF2846F0BC70472DE9FE4F43
:10052000804681EA0300C00F0C46009021F0004194
:1005300023F00045B8EB0200A94105D24046214610
:1005400090461C460B46024623F00040104347D01D
:10055000270DC7F30A00C3F30A510290401A019015
:1005600040286BDAC3F3130040F4801B00989246D6
:1005700020B10023D2EB030A63EB0B0B0198594621
:10058000C0F14002504600F093F906460D46504631
:100590005946019A00F0ABF910EB080061410024C4
:1005A00087EA115284EAE7731A4340D0009A62B393
:1005B000019A012A4FEA075215DC001B61EB020188
:1005C0004FF0004202EA0752CDE90042001C41F51B
:1005D000801132462B4600F0D9FB03B0BDE8F08F06
:1005E00040462146F9E7001B61EB0201001C41F582
:1005F000801300185B412018A2F5001747EB030198
:1006000040EAD570B6196D4111E06D084FEA360623
:1006100045EAC0754FEA0752001B61EB0201001C5E
:1006200041F5801149084FEA300000195141324626
:100630002B4603B0BDE8F04F00F099BB00980122B3
:1006400040000023D0EB020263EBE07300982146E8
:100650004FEAE074B8EB000061EB0401E9E783F0D6
:1006600000435BE781F0004158E72DE9FE4F81EA46
:10067000030404F0004421F0004100944FF0000B0B
:1006800023F0004350EA01045ED052EA03045BD039
:10069000C3F30A54C1F30A552C44A4F2F334019471
:1006A000A0FB0254C1F3130141F48011C3F31303FF
:1006B00043F4801301FB024400FB034E840A970AB3
:1006C00044EA815447EA8357A4FB076802958D0AE0
:1006D00005FB07854FEA932C04FB0C542705029D6C
:1006E0004FEA065847EA1637B5EB08056EEB070CDC
:1006F000870E920E47EA811742EA8312A7FB020196
:10070000B6EB0B0164EB00042B0D43EA0C335E18CF
:1007100044EB1C50DA465146E7FB0201C5F31304D3
:100720004FEA0B3343EA14534FEA0432019C43EA85
:100730000603A4F10C040294009CCDE900B400F07F
:1007400025FB03B0BDE8F08F00200146F9E72DE955
:10075000F04D81EA030404F0004B21F000451446FB
:100760004FF0000A23F0004150EA050220D054EA7D
:1007700001021DD0C5F30A570246C5F31303C1F3A6
:100780001300C1F30A5640F4801543F48013A7EB1D
:100790000608101BD64608F2FD3873EB050002D39D
:1007A00008F1010801E092185B41B8F1000F03DA8B
:1007B00000200146BDE8F08D00204FF48011064670
:1007C00084460EE0171B73EB050705D3121B63EB82
:1007D000050306434CEA010C49084FEA3000921821
:1007E0005B4150EA0107EDD152EA030012D082EAE0
:1007F000040083EA0501084305D0101BAB4106D273
:100800000122002306E000224FF0004302E06FF0D7
:10081000010253101AEB06004CEB085110EB0A00D2
:1008200041EB0B01BDE8F04D00F0A1BAC1F30A5253
:10083000C1F3130140F2FF3341F480119A4202DA0E
:1008400000200146704740F233439A42A2F23342FD
:1008500002DC524200F03BB800F02AB830B5041E6A
:1008600071F1000404DB4FF00044404264EB0101ED
:10087000141E73F1000405DB1C464FF00043524286
:1008800063EB0403994208BF904230BD064C074D0C
:1008900006E0E06840F0010394E807009847103450
:1008A000AC42F6D3FFF748FCEC8100080C8200084C
:1008B000202A04DB203A00FA02F100207047914020
:1008C000C2F1200320FA03F3194390407047202A15
:1008D00004DB203A21FA02F00021704721FA02F3EA
:1008E000D040C2F120029140084319467047202AA7
:1008F00006DBCB17203A41FA02F043EAE07306E048
:1009000041FA02F3D040C2F1200291400843194657
:100910007047000000487047E877000810B50446AB
:10092000FFF7F8FF0068005D00F0010010BD000057
:100930002DE9FF4F087883B09946FF2805D0491C60
:100940002D2804D00024002008E000200BE0012422
:10095000F9E700EB800003EB4000491C0B78FF2B0C
:10096000F7D104B1404200230293147819461D4682
:100970002D2C01D02B2C04D1521C2D2C13D0002453
:100980000294AA461478FF2C0FD00A25A3FB057801
:1009900001FB05814FF0000C03FB0C11521CE31905
:1009A0004AEB0101EEE70124EAE7814453EA010042
:1009B00002D019F5C87F06DA03980021C0E90011BA
:1009C00007B0BDE8F08F0025AE4E2F46DFF8B882A5
:1009D000184600F037FACDE90001B9F1000002DA5B
:1009E000C9F1000400E004460023A74A1AEB030BF8
:1009F00042EB045A12E0E00707D02A463346384655
:100A00004146FFF732FE074688462A4633461046DF
:100A10001946FFF72AFE05460E466410002CEAD15F
:100A2000DDE90001B9F1000F5A46534606DAFFF737
:100A30008EFE3A464346FFF78AFE05E0FFF715FEB5
:100A40003A464346FFF711FE029A0AB181F000418F
:100A5000039AC2E90001B3E72DE9FF4F1F468DB0AD
:100A6000D7E901464FF0FF382E2045464FF00009E8
:100A70000B90B9696D1C0E988847396A8246884781
:100A80000028F6D1BAF1FF3F0AD024F4D064002E3A
:100A900011DDBAF12B0F08D0BAF12D0F0BD102E006
:100AA000404611B08DE744F48064B9696D1C0E981E
:100AB00088478246761E6946600501D52D2000E0F4
:100AC0002B208DF8000001F1010B0DF1200809E049
:100AD000B9696D1C0E98884782460F9844F40074DB
:100AE000761E0560002E02DDBAF1300FF0D00B99B2
:100AF0008A453ED144F0800406E00F99681CA9F1B4
:100B0000010944F400740860B9696D1C761E0E98E2
:100B1000884782463028F0D02BE00B998A4505D1D2
:100B2000200603D444F08004761E18E0504606F0F8
:100B300073FA08B30DF11302761EAAF1300044F4E3
:100B40000074934506D20BF8010B200607D5A9F1D6
:100B5000010003E0200602D409F101008146A0054E
:100B600002D50F99681C0860B9696D1C0E988847FA
:100B70008246002ED1DC53E0002E51DDBAF1650F24
:100B800002D0BAF1450F4BD1A00549D5B9696D1C0A
:100B900024F44074761E0E9888478246002E0CDDA1
:100BA0002B2804D0BAF12D0F07D144F48074B96911
:100BB0006D1C0E9888478246761EE00501D52D21D2
:100BC00000E02B2108F8011BCDF82C8021E00DF16D
:100BD0002901761E44F4007488450CD2AAF1300035
:100BE00010F0FF0088F8000002D10B99884509D960
:100BF00008F1010806E0E00501D5244801E042F2D1
:100C00000F708146B9696D1C0E98884782460F980F
:100C10000560002E04DD504606F0FEF90028D6D10E
:100C2000F9690E988847FF208BF8000088F80000CB
:100C30000020069007904B466A4608A906A8FFF7D1
:100C400077FEA00502D46FF001002AE714F0240F0C
:100C50000AD0E00714D1DDE906123868031D3B60B5
:100C60000068C0E900120BE0DDE90601FFF7E8FAD1
:100C70000146E00704D13868021D3A60006801604F
:100C800028460EE7000014400000F03FF1D8FFFFB7
:100C9000426842B1016811F8013B23B1521EC0E91C
:100CA0000012184670470121C160881E70474268D3
:100CB0005AB1C368016843B983688B4205D0491EA5
:100CC000521CC0E90012002070474FF0FF307047FF
:100CD0002DE9F05F82460078002715468B460AF121
:100CE0000104B946302801D09DB113E014F8010B7E
:100CF0000127782803D0582801D045B10AE00DB16A
:100D0000102D07D10027102514F8010B02E008254B
:100D100000E00A250026B0460EE005FB080005FBB2
:100D200006F1012701EB10461FFA80F8B6F5803F67
:100D300000D3B94614F8010B294600F075F80028D5
:100D4000EBDABBF1000F05D00FB1641E00E0544692
:100D5000CBF80040B9F1000F06D005F095FF022155
:100D60000160C81EBDE8F09F48EA0640FAE710B5EA
:100D7000141E73F1000408DA401C41F100019218BE
:100D80005B411A4301D120F0010010BD2DE9F04D67
:100D900092469B4611B1B1FA81F202E0B0FA80F2BC
:100DA00020329046FFF784FD04460F4640EA0A00D1
:100DB00041EA0B0153465A46084313D0114653EA01
:100DC000010019D0C8F140025046FFF780FD0546EA
:100DD0000E46504659464246FFF76AFD084305D085
:100DE000012004E020463946BDE8F08D002005438F
:100DF00046EAE0762C4337430A986305E40AA0EB01
:100E000008000022FD0A44EA47540A3002D50020B7
:100E10000146E9E7010510196941DDE908450019B6
:100E20006941BDE8F04DA2E73A2800D2303820F001
:100E30002002412A01D3A2F13700884201D34FF0AA
:100E4000FF3070470EB540F2334202920022CDE9E6
:100E500000221346FFF79AFF03B000BD70B542F2BF
:100E60000044C4F201042046022103F0E1FF18B15E
:100E70002046022103F0D8FF20689FED320A20F0BF
:100E80000400206001F08EFA20460021002603F0C5
:100E9000AFFF40F21C15C2F20005288004F5806007
:100EA000002103F0A5FFD5E90B2368802988181AD3
:100EB00002EE100A40F21030511AC2F2000000EEA9
:100EC000101A016840F21430C2F2000002689FED6F
:100ED0001E1A0A4440F21831C2F200010B78B8EE33
:100EE000C00AB8EEC22A20EE010A22EE011A01332E
:100EF00030EE012ADCB2B1EE422A0A2C85ED030A5B
:100F000085ED041A85ED052A02600B7015D34CF6A9
:100F1000CD43CCF6CC43A2FB03230660C3F3CF0042
:100F200000EE100A9FED091AB8EEC00ADA0820EEAA
:100F3000010AAA800E7085ED020ABDE8704002F039
:100F400039BA00BF17B751384108843B7BDC7A3C83
:100F5000FEE7000040F23D30C2F2000000210170C7
:100F6000704700002DE9F0472DED028B82B040F272
:100F70003D36C2F2000631780446481E40F264084D
:100F80000F28C2F2000800F23484D8F800109FED58
:100F9000CE1A00EE101AB8EE400A20EE018ADFE801
:100FA00010F010001E006C009500C20058029F0255
:100FB000FA00BF023201EE026301A50105031C0223
:100FC000370240F27C010020C2F20001C8F80000A4
:100FD000086001F0DDFA0220307000F00ABC40F237
:100FE0008410C2F2000094ED031A90ED472A90EDB0
:100FF000480A40F27C0032EE411AC2F200009FED36
:10100000B32A90ED003A21EE021A71EE030AF4EED3
:10101000400AF1EE10FAC0ED000A00F34F83B1EE82
:10102000400AF4EE400AF1EE10FAC0F247839FED59
:10103000A81A94ED020AF0EE411A03F093FFD8F8D3
:1010400000004EF660218842C0F0D38394ED030A7D
:1010500040F25C00C2F2000080ED000A10EE100ABF
:10106000FFF7DBF802460FF63C000B4605F0FCFDEF
:1010700001F04AFD03203070BBE340F27C00C2F275
:10108000000090ED000A40F25C00C2F2000090ED1A
:10109000001A40F2841480EE010AC2F2000410EE3D
:1010A000100A84ED010AFFF7B8F8024647F601601E
:1010B000C0F600000B4605F0D7FD606801A901905D
:1010C000012000F09DFC0420307092E340F2841275
:1010D00040F25400C2F20002C2F20000002192ED80
:1010E000480A0160416040F27C0540F27000B1EEB8
:1010F000401AC2F20005C2F2000085ED001A85ED2B
:10110000010AC8F80010016001F042FA9FED701A60
:1011100094ED020AD5ED000AF0EE411A03F022FF29
:101120000520307065E30229C0F0638340F270054A
:10113000C2F20005286840F2540100F00100C2F23A
:10114000000101EB800194ED030A91ED001A30EEED
:10115000010A81ED000A40F27C01C2F2000101EBBC
:1011600080009FED5B1A94ED020AD0ED000A002189
:10117000F0EE411AC8F8001003F0F4FE286842F2BD
:101180000F72411C90422960C0F2338301F0BCFC15
:10119000062030702DE340F27C00C2F2000090ED9A
:1011A000001AB6EE002A28EE011A61EE020A9FED3F
:1011B000481A94ED020AF0EE411A03F0D3FEB0EEA5
:1011C000000AB4EE408AF1EE10FAC0F2128340F247
:1011D0009C00C2F2000090ED050A40F27400C2F2D9
:1011E000000080ED000A10EE100AFFF716F8024624
:1011F0000FF280600B4605F037FD0020C8F80000B4
:1012000009203070F5E240F2600440F27407C2F247
:101210000004C2F2000794ED000A97ED001A30EEC8
:10122000410AB0EEC00AB0EE001A81EE000A05F0E5
:10123000A3FDBDEEC00A40F28415C2F2000510EE17
:10124000101A0FF2F05085ED000A05F00DFD286828
:101250001528C0F23E8240F23C30C2F2000002216A
:10126000017010203070C4E240F27C00C2F2000035
:1012700090ED001A40F2780028EE011AB6EE002A2E
:10128000C2F2000094ED020AD0ED001A61EE020AEB
:101290009FED0F1A03F066FEB0EE000AB4EE408A2E
:1012A000F1EE10FAC0F2A5820020C8F8000040F26A
:1012B0009C00C2F20000008840F26C01C2F2000102
:1012C00008600D20307094E217B7513817B7D13845
:1012D00000000000BEB5A43900FEFF46DB0FC94088
:1012E0000000003CABAA2A3FBD37863540F27805A6
:1012F000C2F2000595ED000A1FED0A1A40F27C00CB
:10130000C2F2000070EE011A94ED020AD0ED000A5C
:101310001FED111AC5ED001A03F024FE40F268001B
:10132000C2F2000090ED000AB4EE408AF1EE10FA2D
:1013300038DD40F28411C2F2000195ED001A1FED74
:101340001A2A0B6821EE021A02EE103A1FED1D3A1E
:10135000B8EEC22A22EE032A81EE021A40F29C0164
:10136000C2F20001098840F26435C2F20005BDEE08
:10137000C11A11EE102A8F1A47F6FF7148BF0F44A9
:1013800040F27001C2F200011FED2B1A0A6830EE24
:10139000010A45F82270B2EBC31F80ED000ABCBF02
:1013A00001320A6040F28411C2F2000191ED000A9C
:1013B0001FED361AB8EEC00A20EE010A80EE010ACF
:1013C000B4EE408AF1EE10FAC0F2138200210160FF
:1013D0000E20C8F8001030700BE240F28419C2F2FF
:1013E0000009D9F8001040F26434C8010129C2F2A2
:1013F0000004C0F28E810246231F00210128D8BFBD
:10140000012200BF53F8047F013A3944FAD181E147
:1014100040F23C34C2F20004217848F2D810C0F601
:10142000000005F021FC207800248DF8040001A9BB
:101430004FF0FF30ADF805408DF8074000F0E0FABE
:1014400040F20800C2F2000006213470A0F801103A
:10145000CFE140F25400C2F2000090ED000A90ED9E
:10146000011A40F28414C2F2000430EE410AB1EED7
:10147000001A94ED482A20EE010A82EE000A1FEDC0
:10148000671A20EE010A10EE100A84ED020AFEF738
:10149000C4FE02460FF2F4300B4605F0E5FBA068EF
:1014A00001A90190022000F0ABFA94ED560A1FED5D
:1014B000721AB8EEC00A20EE010AB7EE001A81EEE9
:1014C000000A94ED021A94ED012A0720307021EEF3
:1014D000001A22EE000A84ED541A84ED550A88E1C0
:1014E00040F28410C2F2000090ED010A90ED471A1C
:1014F000002021EE000AB0EE081AC8F8000020EE25
:10150000010AB6EE001A40F27C0020EE010AC2F297
:10151000000080ED000A01F03BF80820307068E11F
:1015200040F27C009FEDC11AC2F2000094ED020A65
:10153000D0ED000A68EE011A9FEDBA1A03F012FD11
:10154000B0EE000AB4EE408AF1EE10FAC0F251811A
:1015500040F29C00C2F20000406940F26004C2F216
:101560000004206001F0D0FA2068FEF756FE024623
:10157000BBA00B4605F078FB0A20307039E140F241
:101580007000C2F200000021016040F26800C2F267
:101590000000016040F27800C2F200000160C8F86B
:1015A000001000F0F5FF0C20307022E140F27805C9
:1015B000C2F2000595ED000A9FED991A40F27C00F9
:1015C000C2F2000070EE011A94ED020AD0ED000A9A
:1015D0009FED941AC5ED001A03F0C4FC40F26800B8
:1015E000C2F2000090ED000AB4EE408AF1EE10FA6B
:1015F0003CDD40F27001C2F200010A68012A35DBCD
:1016000095ED001A9FED882A40F28413C2F2000380
:1016100021EE021A93ED002A9FED843AB8EEC22A19
:1016200022EE032A81EE021A40F29C07C2F2000762
:1016300040F264353F88C2F2000555F82240BDEE05
:10164000C11A11EE103AFB1A234447F6FF7748BF40
:101650003B4403EBD3739FED761A5B1045F82230C1
:10166000013A30EE010A0A6080ED000A40F284106F
:10167000C2F2000090ED000A9FED6C1AB8EEC00AAD
:1016800020EE010A80EE010AB4EE408AF1EE10FA73
:10169000C0F2AF8040F29C0040F26C01C2F2000048
:1016A000C2F2000100880A68104400EBD0704010BC
:1016B000086001F029FA0F2030709AE001F024FA56
:1016C00040F23C30C2F20000012101701020307065
:1016D0008FE094ED000A97ED001A4FF0FF31B4EE61
:1016E000410A59A0F1EE10FAC8BF0121296105F0A5
:1016F000BBFA286801AC01900320214600F080F974
:10170000286921460190042000F07AF90B203070FE
:101710006FE0002191FBF0F13BA0C9F8141005F037
:10172000A3FAD9F8140001A90190052000F068F986
:1017300040F26C00C2F2000001680323CA01C8F243
:10174000010352FB03F202EBC111D9F800A08A1386
:10175000D9F814E002EBD17C4FEACA130025002728
:10176000C0F800C000266FF03F0000BF2A185942A1
:101770009A42B8BF0021002A48BF1946114454F8C4
:101780002110013040280E44F0D1F01706EB5060D4
:1017900007EB0C067F2EC8BF803E0137CEEBD01082
:1017A00009EB4606802F55443083DBD109F116053D
:1017B0006FF07F0701AC00BF35F9020F010AC20BC1
:1017C000030E8DF804008DF8051007F18A002146FC
:1017D0008DF806208DF8073000F012F90A2002F08B
:1017E00001FE0137E8D30120C9F818016B2001F090
:1017F000C1F9D8F800000130C8F8000002B0BDEC13
:10180000028BBDE8F08700BF456E636F6465722090
:101810004F6666736574203D2025640A0D00000044
:10182000BEB5A4B90000000000FEFF46DB0FC940B2
:101830000000003C506F6C65207061697273203D40
:101840002025640A0D000000456E636F64657220F8
:1018500064697220726576203D2025640A0D0000BF
:10186000656E645F706F736974696F6E20252E33C7
:10187000660A0D0073746172745F706F73697469C6
:101880006F6E20252E33660A0D00000070686173AC
:10189000655F696E64756374616E6365203D2025C4
:1018A000660A0D00666F632D3E695F613D20256607
:1018B0000A0D000040F28410C2F200000021C0F8BE
:1018C00018110121016140F23D30C2F200000170A7
:1018D0007047000002F0ECB880B582B040F29C0E78
:1018E000C2F2000EBEF8101040F21812C2F200024E
:1018F00000EE101A40F2080140F2841C1378C2F284
:101900000001C2F2000C0978DCF86801DEF814204E
:10191000012BB8EE400A08BF10EE102A02290092EF
:1019200011D19CED040A9EED082AB8EEC00A9FED85
:10193000311A22EE002AB4EE412AF1EE10FA06DD49
:1019400047F6FF711CE04FF0FF31019149E09FED38
:101950002A3AB4EE432AF1EE10FA04DA48F2000112
:10196000CFF6FF710CE09FED253A22EE032AB6EE8A
:10197000003A32EE032ABDEEC22A12EE101A89B2E4
:1019800040F21C12C2F2000292ED072AADF80410D8
:1019900022EE000AB4EE410AF1EE10FA04DD47F639
:1019A000FF71ADF806101CE09FED131AB4EE410A6A
:1019B000F1EE10FA06DA48F20001CFF6FF71ADF849
:1019C00006100EE09FED0D1A20EE010AB6EE001A89
:1019D00030EE010ABDEEC00A10EE101A89B2ADF861
:1019E0000610282161F31F106946082202F0D8F87A
:1019F00002B080BD00FEFF41000000C20000804434
:101A00007047000080B582B040F28411C2F200013C
:101A1000D1F868210190222060F31F1201A910461D
:101A2000042202F0BDF802B080BD000080B502F0D3
:101A30004DFD40F25831C2F20001086080BD000047
:101A4000F0B581B040F284150446C2F20005D5F825
:101A50006C01276807F00F0630B102F037FD40F245
:101A60005831C2F200010860002EC7F3031708BF07
:101A70000A2F21D0D5F86801B04240F0D0800C2F59
:101A800000F2CD80DFE817F00D003200CB00CB0074
:101A90003A003F006E008D00B300B800CB00C200DA
:101AA000CD00FFF719FF6B2001F064F840F28600CB
:101AB000C2F200000021B9E0E079AA2800F0BE805F
:101AC000CC2800F0C880BB28D4D1A179552940F09A
:101AD000B08001F049F80528CCD1607940F284014A
:101AE00000F00F00C2F200010870C3E7FFF7F4FE38
:101AF0006D2001B0BDE8F04001F03CB86079C5F858
:101B0000240101B0F0BDE07A00EE100AB8EE400A00
:101B100085ED4C0AA07A00EE100AB8EE400A85ED79
:101B20004D0A607A00EE100AB8EE400A85ED4E0AC2
:101B3000D4F8050040F25434C2F20004206001F0F1
:101B400013F8022840F06B80FFF7C6FED5F8240199
:101B5000052800F26480DFE800F01B1B868603A7DF
:101B6000206893E0D4F8050040F26034C2F200042B
:101B7000206000F0F9FF022851D1FFF7ADFED5F843
:101B8000240105284BD8DFE800F0030374747C8837
:101B900040F24430C2F2000095ED040A90ED001AC4
:101BA00019E0D4F8050040F24434C2F20004206089
:101BB00000F0DAFF022832D1FFF78EFED5F82401BB
:101BC00005282CD8DFE800F003034F4F5D6995ED41
:101BD000040A94ED001AB8EEC00A40F2880021EE23
:101BE000000AC2F2000080ED020A01B0F0BD01B0AF
:101BF000BDE8F040FFF770BE607940F2181100F0C8
:101C00000F00C2F20001087001B0F0BD6B2000F0BF
:101C1000B1FF40F22D30C2F200000121017001B08D
:101C2000F0BD40F28600C2F200000121017001B057
:101C3000F0BDCC280FD0AA287FF41CAFA17955297C
:101C400006D140F28500C2F200000121017011E7C7
:101C5000CC287FF40FAFA07955287FF40BAF6B2011
:101C600000F088FF06E740F26030C2F20000006832
:101C700000E0206840F28801C2F20001486001B033
:101C8000F0BD40F25430C2F20000006840F288011A
:101C9000C2F20001086001B0F0BD40F25430C2F25F
:101CA000000090ED000A01E094ED000A01B0BDE8EB
:101CB000F04000F01BBA00002DE9F04140F284151D
:101CC000C2F20005D5F86C01002858D040F2583017
:101CD000C2F20000006802F0F1FBD5F86C118842F6
:101CE0004DD940F28604C2F200042078002808BFD3
:101CF000BDE8F08140F2443840F26037C2F200089B
:101D00000026C2F20007C8F800603E6000F02CFF19
:101D1000022833D1FFF7E0FDD5F8240105282DD89E
:101D2000DFE800F003031212192495ED040A98ED80
:101D3000001AB8EEC00A40F2880021EE000AC2F292
:101D4000000080ED020A19E0386840F28801C2F212
:101D50000001486012E040F25430C2F20000006816
:101D600040F28801C2F20001086007E040F25430FE
:101D7000C2F2000090ED000A00F0B8F92670BDE84C
:101D8000F0810000F0B581B02DED048B40F2841598
:101D9000C2F20005D5F82411B0EE609AB0EE408A88
:101DA000052900F2C3800446DFE811F00600210097
:101DB0005A007500BA00240195ED531A94ED022AD9
:101DC000B1EE410AB4EE402A40F24030F1EE10FA92
:101DD000C8BFB0EE420AB4EE401AC2F20000F1EE03
:101DE00010FAB8BFB0EE410A80ED000A9EE095ED12
:101DF000531A94ED022AB1EE413AB4EE432A95ED1E
:101E00004A0AF1EE10FAC8BFB0EE423A9FEDB62A88
:101E100040F24030B4EE431AC2F20000F1EE10FA84
:101E2000B8BFB0EE413A20EE020A90ED001AB0EED3
:101E3000C00A33EE412AB1EE403AB4EE432AF1EE45
:101E400010FAC8BFB0EE423AB4EE430AF1EE10FA0F
:101E5000B8BFB0EE403A31EE030A80ED000A65E00B
:101E600095ED520A94ED012AB1EE401AB4EE412AE2
:101E700040F25C30F1EE10FAC8BFB0EE421AB4EE98
:101E8000410AC2F20000F1EE10FAB8BFB0EE401AFB
:101E900080ED001A4AE095ED521A94ED012AB1EE58
:101EA000413AB4EE432A95ED4B0AF1EE10FAC8BF61
:101EB000B0EE423A9FED8C2A40F25C30B4EE431A09
:101EC000C2F20000F1EE10FAB8BFB0EE413A20EED7
:101ED000020A90ED001AB0EEC00A33EE413AB1EEBC
:101EE000404AB4EE443AF1EE10FAC8BFB0EE434AAD
:101EF000B4EE440AF1EE10FAB8BFB0EE404A84EEF8
:101F0000020A95ED032A31EE041A80ED001A40F220
:101F10004030C2F2000022EE000A80ED000A05E027
:101F2000206840F25031C2F200010860D5F8240167
:101F3000042825DB40F25031C2F2000191ED001A75
:101F400040F25C31C2F2000195ED4F3A31EE491A90
:101F500091ED002A95ED524A23EE011A31EE022A44
:101F6000B1EE441AB4EE412AF1EE10FAC8BFB0EE59
:101F7000421AB4EE414AF1EE10FAB8BFB0EE441A7C
:101F8000022833DB40F24030C2F2000090ED000A3C
:101F900095ED502A42F62C4031EE481AC2F200006C
:101FA00095ED534A22EE012A90ED003A32EE000AF6
:101FB00030EE032AB1EE440AB4EE402AF1EE10FAF4
:101FC00014DBB4EE442AF1EE10FAB0EE440A0DDC54
:101FD00095ED510A9FED444A20EE040A20EE010AD5
:101FE00030EE030A80ED000AB0EE420ABDEC048B2D
:101FF00001B0F0BD40F22C37C2F20007387840F251
:102000006816C2F20006B8B140F25030C2F20000C9
:10201000D0ED000A40F25C30C2F2000090ED001AF0
:1020200005F5987094ED000AD0EC031A02F0F8FB65
:102030000020306130753870307D00287FF476AF35
:1020400096ED031A96ED040AB4EE410AF1EE10FA89
:1020500013DD206840F25031C2F20001086040F206
:102060005C30C2F200000021016040F24030C2F258
:10207000000001600120307558E702F025FB40F2B6
:10208000503096ED000AC2F2000080ED000A706840
:1020900040F25C31C2F2000196ED021A95ED032A7E
:1020A000086040F29C00C2F2000021EE021A90ED9E
:1020B000052A40F2403030EE420AB0EEC00AB7EED8
:1020C000002AB4EE420AC2F20000F1EE10FA80EDEE
:1020D000001ABFF62BAF96ED040A9FED031A30EEFF
:1020E000010A86ED040A21E717B7513840F288004B
:1020F000C2F2000080ED000A40F22C30C2F2000073
:10210000012101707047000040F29C02C2F20002FF
:1021100042F62C4192ED050AC2F2000100220A604B
:1021200080ED000AC0E9012240F25030C2F2000006
:1021300080ED000A40F25C30C2F20000026040F222
:102140004030C2F20000026040F22C30C2F20000C7
:10215000027040F26810C2F2000001210175704760
:1021600010B540F60044C4F2010420464FF48051FB
:1021700003F03CFF01204FF4004102F0DDF820465F
:102180004FF4805103F034FF0A2002F065F9204635
:102190004FF4805103F02AFF01204FF4084102F070
:1021A000CBF820464FF4805103F022FF0A2002F0C2
:1021B00053F9002010BD0000B0B540F60044C4F251
:1021C00001042046802103F011FF022002F00AF9E9
:1021D000142002F041F92046802103F009FF02207B
:1021E00002F000F920464FF4805103F0FFFE012079
:1021F00043F21C0102F0A0F820464FF4805103F096
:10220000F7FE642002F028F920464FF4805103F0D5
:10221000EDFE012041F2250102F08EF820464FF438
:10222000805103F0E5FE642002F016F920464FF4D9
:10223000805103F0DBFE012041F6DD3102F07CF835
:1022400020464FF4805103F0D3FE642002F004F9DD
:1022500020464FF4805103F0C9FE012042F2DD51C7
:1022600002F06AF820464FF4805103F0C1FE64206A
:1022700002F0F2F820464FF4805103F0B7FE01203F
:1022800043F2E02102F058F820464FF4805103F069
:10229000AFFE642002F0E0F820464FF4805103F0D6
:1022A000A5FE012042F6556102F046F820464FF4A3
:1022B000805103F09DFE642002F0CEF820464FF4DA
:1022C000805103F093FE01204FF4104102F034F8E6
:1022D000054620464FF4805103F08AFE6FF3DF2558
:1022E000242D59D120464FF4805103F07FFE012068
:1022F0004FF4184102F020F8054620464FF4805173
:1023000003F076FE6FF3DF2540F2DD30854243D1E6
:1023100020464FF4805103F069FE01204FF4204124
:1023200002F00AF8054620464FF4805103F060FEA3
:102330006FF3DF2540F2DD5085422DD120464FF46A
:10234000805103F053FE01204FF4304101F0F4FFBF
:10235000054620464FF4805103F04AFE6FF3DF2517
:10236000B5F5387F18D120464FF4805103F03EFE7A
:1023700001204FF4284101F0DFFF054620464FF4CD
:10238000805103F035FE6FF3DF2540F25560281AC7
:1023900018BF4FF0FF30B0BD4FF0FF30B0BD0000B0
:1023A000704700002DE9F04381B02DED028B40F223
:1023B000841840F60005C2F20008C4F20105D8F8FE
:1023C0001070D8F8189128464FF40041B0EE408ABA
:1023D00003F00CFE022048F2210101F0ADFF05F5EB
:1023E0008066304628210422202303F003FE0220C9
:1023F0004FF6FF7101F0A0FF044628464FF400415C
:102400006FF3DF3403F0F4FD30461821042220235B
:1024100003F0F0FD47F6FF70791C08BF444040F21E
:102420009C00C2F20000B9F1000F04801BD0012310
:1024300003EB1423210A08F1180203F07F0332F999
:10244000111032F91320E3B2521A5A4301EB222140
:10245000641A47F6FF71B4F5004F01DB641A02E01D
:10246000002C48BF0C4481684460611AB1F5804F6C
:1024700002DB4FF0FF3103E011F5804F03DC012157
:10248000C2681144C16000EE104A9FED3C1AB8EEDC
:10249000C00A80EE012AD8F8141098ED000A611ADB
:1024A00003EE101AB8EEC00AB8EEC33A20EE033AB3
:1024B00083EE013A90ED031A90ED064AB8EEC11A88
:1024C0000146846032EE012A32EE444A84EE084A24
:1024D00080ED052ABDEEC31AB8EEC15A9FED281A49
:1024E00033EE453A23EE013AB5EE403A33EE015A67
:1024F000F1EE10FAB8BFB0EE453A11F8282F80ED92
:10250000062A00EB820383ED0B4A01324CF6CD43E1
:1025100053431B0D03EB8303A2EB83029FED192AA8
:102520000A70142280ED073A91ED013A043132EE3F
:10253000032A013AF8D1B3EE043A82EE032A40F2BC
:102540009801C2F2000191ED003A9FED0F4A9FED14
:102550000F5A23EE053A22EE042A33EE022A22EE27
:10256000011A21EE000A81ED002A80ED082A80ED93
:10257000090ABDEC028B01B0BDE8F08300FEFF4606
:10258000DB0FC94000000000CDCC4C3FCCCC4C3E12
:1025900010B5EFF3108472B601F088FE84F3108852
:1025A00010BD0000B0B52DED108BB0EE40BA90ED2F
:1025B000040A90ED052A9FEDEDDA9FEDED9AB0EE5D
:1025C00060AAD0ED03AA30EE42EA9FEDEACA31EEEE
:1025D0000D0AF0EE490AB0EE618A044604F074FB7D
:1025E0009FEDE5FA30EE091AB5EE400AF1EE10FA69
:1025F000B8BFB0EE410A30EE0F1AB5EE401AF1EE58
:1026000010FAB4BF9FEDDD0A9FEDDD0A9FEDDD2AD4
:1026100021EE000A21EE000A21EE022A32EE000A23
:10262000B5EE400AB1EE402A9FEDD74AF1EE10FA1E
:10263000ACBF20EE003A20EE023A33EE022ADFED84
:10264000D38A22EE042A32EE000ADFEDD19A31EE6F
:10265000282AB4EE4D2A32EE291AF1EE10FAC8BF3C
:10266000B0EE412AB5EE402AF1EE10FAB4BF9FED6C
:10267000C33A9FEDC33A9FEDC34A22EE033A22EEDE
:10268000033A22EE042A32EE032AB5EE402AB1EED6
:10269000423A9FEDBD5AF1EE10FAACBF22EE024A6B
:1026A00022EE034A34EE033A23EE053A2EEE0C1ADC
:1026B00033EE022A94ED025A9FEDB66A21EE003AFB
:1026C0002AEE824A34EE033A25EE064AB7EE00EAD5
:1026D0008EEE044A40F2841521EE021A2AEE800A98
:1026E000C2F2000531EE402A95ED541A94ED090A24
:1026F0007BEE43BA21EE2B5A7AEE42AA35EE000A5F
:1027000094ED0A5A21EE2A1A31EE051A20EE04AA97
:1027100021EE04BA2BEE0B0A2AEE0A1A31EE001A49
:10272000B1EEC10A9FEDEE4A94ED065A9FEDED6AB7
:1027300023EE043A25EE065A35EE033A94ED075A95
:1027400022EE042A25EE064A34EE022A84ED063AE9
:1027500084ED072AB4EE400AF1EE10FA80F1B2815E
:102760009FEDE11A81EE001A94ED090AB4EE4E1ABB
:10277000F1EE10FA0EDA9FEDDE2A21EE0AAA21EE22
:102780000BBA94ED0A1A20EE020A84ED090A21EE32
:10279000020A11E095ED551A9FEDD42A21EE021A96
:1027A0002BEE812A32EE000A84ED090A94ED0A0A22
:1027B0002AEE811A31EE000A84ED0A0A94ED070A26
:1027C00094ED061A2BEE000A2AEE011A31EE000AE9
:1027D00084ED080A38EE0D0AF0EE490A04F074FAA6
:1027E00030EE091AB5EE400AF1EE10FAB8BFB0EEBD
:1027F000410A30EE0F1AB5EE401AF1EE10FAB4BFEE
:102800009FEDB60A9FEDB20A9FEDB22A21EE000AB3
:1028100021EE000A21EE022A32EE000AB5EE400A4D
:10282000B1EE402A9FEDAC4AF1EE10FAACBF20EEBB
:10283000003A20EE023A33EE022A31EE281A22EE56
:10284000042AB4EE4D1A32EE000A31EE292AF1EED6
:1028500010FAC8BFB0EE421AB5EE401AF1EE10FA07
:10286000B4BF9FED9E2A9FED9A2A9FED9A3A21EEE2
:10287000022A21EE022A21EE031A31EE021AB5EEE7
:10288000401AB1EE412A9FED944AF1EE10FAACBF26
:1028900021EE013A21EE023A33EE022A22EE042A18
:1028A00032EE011A2BEE002A2AEE013A2BEE011A23
:1028B0002AEE000A30EE011AB5EE401A33EE420A53
:1028C000F1EE10FAB5EE400A0CDAF1EE10FA18DA71
:1028D00021EE0C2A0520B4EE402AF1EE10FAC8BF12
:1028E000042023E0F1EE10FA17DA9FED822A02208D
:1028F00021EE022AB4EE402AF1EE10FAC8BF0320FE
:1029000014E09FED7C2A062021EE022AB4EE402A34
:10291000F1EE10FAC8BF052008E021EE0C2A0120D4
:10292000B4EE402AF1EE10FAC8BF022001380528A3
:102930001BD8DFE800F00331445B70859FED6D2A02
:102940009FED6E3A21EE022A32EE000A21EE033AA2
:102950003EEE401A31EE431AB6EE002A21EE022A6C
:1029600030EE021A33EE010A7EE07DE0DB0F4940D3
:10297000DB0FC9403ACD133FDB0F49C07B81CF3E0F
:102980007B81CFBE83F9A23F6666663EDB0FC93FFF
:10299000DB0FC9C0ABAA2A3F21EE0C1A31EE003A78
:1029A00031EE400A3EEE431A31EE401AB6EE002AEE
:1029B00021EE021A30EE012A33EE020A54E09FEDB6
:1029C0004F2A9FED4C3A21EE022A21EE031A31EEF6
:1029D000403A3EEE420A30EE430AB6EE001A20EECE
:1029E000011A32EE010A33EE002A3DE021EE0C2AF4
:1029F0009FED413A32EE402A21EE031A3EEE420AA2
:102A000030EE410AB6EE003A20EE030A31EE001A2B
:102A100032EE012A28E09FED372AB6EE003A21EE89
:102A2000021A31EE402A31EE001A3EEE420A30EE32
:102A3000410A20EE030A32EE002A31EE021A13E0B8
:102A40009FED2D2A21EE023A21EE0C1A31EE000AFA
:102A50003EEE431A31EE401AB6EE002A21EE022A6B
:102A600030EE020A33EE001A9FED253A9FED254A1B
:102A700022EE032A82EE042A21EE031A81EE041AC2
:102A800020EE030A80EE040AB6EE003A42F6344124
:102A9000C4F2010122EE032ABDEEC22A21EE031A7E
:102AA00012EE100ABDEEC11A20EE030A486011EEC4
:102AB000100ABDEEC00A886010EE100A0860BDEC76
:102AC000108BB0BDB0EE410A04F0A3F948E600BF98
:102AD0007B81CFBE83F9A23F6666663E7B81CF3E97
:102AE000CDCC4C3D3333733FAC5C313F17B75138DD
:102AF000A4707D3F3ACD13BF3ACD93BF3ACD933FFB
:102B0000C0E1E44C00409C4610B5EFF3108472B66F
:102B100001F086FB84F3108810BD00000021C0E99D
:102B20000611C0E909117047F0B581B004460025CF
:102B30004FF47A76002700BF642001F08DFC2088D6
:102B4000013E054460880744F6D144F6D350C1F2F3
:102B50006200A5FB0012A7FB000190098909C4E9E6
:102B60000B0101B0F0BD000040F20800C2F200000D
:102B700000787047B0B540F208056B28C2F2000536
:102B800004D10120A5F801000020B0BD2978062954
:102B900000F27583DFE811F007000A002700070044
:102BA000320007003A014FF0FF3469E363384FEA1F
:102BB000700009284FF0FF3400F26283DFE810F064
:102BC0000A0060036003600360035E01600360034A
:102BD0007301770140F24830C2F20000006800281B
:102BE000E1D1032060E16D2800F04983772800F0EF
:102BF00042817128D7D102F0C1FD40E3082800F0DE
:102C00001F81662840F02781EC1C0FF214712046CA
:102C10001322FDF7CDFA002800F05A810FF214714B
:102C200020461922FDF7C4FA002800F062810FF255
:102C3000207120461922FDF7BBFA002800F07B81A5
:102C40000FF2287120460A22FDF7B2FA002800F0A0
:102C500087810FF2247120461022FDF7A9FA00287F
:102C600000F093810FF2247120461422FDF7A0FAA0
:102C7000002800F0A0810FF22C7120460F22FDF7F2
:102C800097FA002800F0AD8148F22211C0F6000149
:102C900020461422FDF78CFA002800F0B48148F297
:102CA0001111C0F6000120461022FDF781FA00281C
:102CB00000F0BF8148F26D11C0F6000120460B22E2
:102CC000FDF776FA002800F0CA8148F25111C0F6EB
:102CD000000120460D22FDF76BFA002800F0D78195
:102CE00048F25F11C0F6000120460D22FDF760FAA0
:102CF000002800F0E48148F29C11C0F60001204653
:102D00000B22FDF755FA002800F0F18148F2791105
:102D1000C0F6000120460B22FDF74AFA002800F019
:102D2000FC8148F28511C0F6000120461622FDF70D
:102D30003FFA002800F0078248F2BA11C0F60001FD
:102D400020460C22FDF734FA002800F0128248F2E7
:102D5000C711C0F6000120461022FDF729FA00280D
:102D600000F01D8248F23711C0F6000120461922FA
:102D7000FDF71EFA002800F0288248F2C601C0F6CE
:102D8000000120461822FDF713FA002800F02F82D8
:102D900048F2DF01C0F6000120461722FDF708FACD
:102DA000002800F03A8248F2A601C0F60001204651
:102DB0001522FDF7FDF9002800F0458248F2BC011C
:102DC000C0F6000120460922FDF7F2F9002800F0C4
:102DD000638248F2A811C0F6000120461122FDF7D7
:102DE000E7F9002800F0758248F2F701C0F600010B
:102DF00020461922FDF7DCF9002800F07C8248F219
:102E00007F00C0F6000003F02FFF34E27A284FF075
:102E1000000440F03582FFF7CFF940F24831C2F2AA
:102E20000001EFF3108072B60C6040F24C31C2F238
:102E300000010C6080F310880120A5F801001FE25A
:102E400095F84300002800F01A82013885F8430005
:102E50000FF2C8406CE095F843102944C87095F80B
:102E600043100131CAB23F2A88BF002185F84310C0
:102E700004F072FC03E202F025FD00E240F248306B
:102E8000C2F2000000684FF0FF34002840F0F881E3
:102E900040F28410C2F20000D0F81801002800F0BF
:102EA000EF81022000E00420A5F80100E7E101F035
:102EB00035FE98B3044640F21A30C2F200000321F6
:102EC000017047F60F40C0F6000003F0CDFED7E1D9
:102ED00005F11600FDF779F9014640F28410C2F2BF
:102EE0000000016047F66150C0F6000003F0BCFE30
:102EF000C1E105F11C0003F0CBFE51EC100BFDF716
:102F00009FF940F28411C2F200014860FDF785F993
:102F1000024647F6F750C0F60000A9E140F21A3029
:102F2000C2F200000221017047F6F430C0F6000042
:102F300003F09AFEA3E105F11C0003F0A9FE51EC99
:102F4000100BFDF77DF940F28411C2F20001886098
:102F5000FDF763F9024647F6D550C0F6000087E159
:102F600005F10D0003F094FE51EC100BFDF768F92C
:102F700040F28411C2F20001C860FDF74EF902462A
:102F800047F6A450C0F6000072E105F1130003F00B
:102F90007FFE51EC100BFDF753F940F28411C2F2A1
:102FA0000001C1F81C01FDF738F9024647F67870B8
:102FB000C0F600005CE105F1170003F069FE51EC7A
:102FC000100BFDF73DF940F28411C2F20001C1F887
:102FD0002001FDF722F9024647F65A60C0F60000CC
:102FE00046E105F11200FDF7F0F8014640F28410C9
:102FF000C2F20000C0F8241147F6EB40C0F6000012
:1030000003F032FE37E105F1170003F041FE51EC09
:10301000100BFDF715F940F28411C2F20001C1F85E
:103020002801FDF7FAF8024647F69060C0F6000066
:103030001EE105F1130003F02BFE51EC100BFDF720
:10304000FFF840F28411C2F20001C1F82C01FDF733
:10305000E4F8024647F67760C0F6000008E105F1A3
:103060000E00FDF7B2F800EE100A40F28410B8EE40
:10307000C00AC2F2000080ED4C0A10EE100AFDF703
:10308000CCF8024647F6D960C0F60000F0E005F142
:103090001000FDF79AF800EE100A40F28410B8EE26
:1030A000C00AC2F2000080ED4D0A10EE100AFDF7D2
:1030B000B4F8024647F6AD60C0F60000D8E005F16E
:1030C0001000FDF782F800EE100A40F28410B8EE0E
:1030D000C00AC2F2000080ED4E0A10EE100AFDF7A1
:1030E0009CF8024647F6C360C0F60000C0E005F158
:1030F0000E0003F0CDFD51EC100BFDF7A1F840F2EE
:103100008411C2F20001C1F83C01FDF786F80246C5
:1031100047F62070C0F60000AAE005F10E0003F0AB
:10312000B7FD51EC100BFDF78BF840F28411C2F2A1
:103130000001C1F84001FDF770F8024647F6ED6066
:10314000C0F6000094E005F1190003F0A1FD51EC78
:10315000100BFDF775F840F28411C2F20001C1F8BE
:103160004401FDF75AF8024647F60170C0F6000028
:103170007EE005F10F0003F08BFD51EC100BFDF725
:103180005FF840F28411C2F20001C1F84801FDF776
:1031900044F8024647F64A70C0F6000068E005F1C0
:1031A000130003F075FD51EC100BFDF749F840F2E8
:1031B0008411C2F20001C1F84C01FDF72EF802465D
:1031C00047F65F70C0F6000052E005F11C00FCF706
:1031D000FCFF014640F28410C2F20000C0F8581112
:1031E00047F62550C0F6000003F03EFD43E005F130
:1031F0001B0003F04DFD51EC100BFDF721F840F2E0
:103200008411C2F20001C1F85C01FDF706F8024624
:1032100047F61960C0F600002AE005F11A0003F035
:1032200037FD51EC100BFDF70BF840F28411C2F2A0
:103230000001C1F86001FCF7F0FF024647F63A6072
:10324000C0F6000014E005F1180003F021FD51EC78
:10325000100BFCF7F5FF40F28411C2F20001C1F837
:103260006401FCF7DAFF024647F6B750C0F60000EB
:103270000B4603F0F9FC20464121FCF78EFF0024A9
:10328000601C01D02046B0BD47F68840C0F6000063
:1032900003F0EAFC2046B0BD05F10C00FCF795FFF9
:1032A00040F28415C2F20005C5F8680140B901205A
:1032B000C5F8680147F69940C0F6000003F0D4FC59
:1032C000D5F8681147F6D940C0F6000003F0CCFCF1
:1032D000D1E705F11400FCF778FF014640F28410B5
:1032E000C2F20000C0F86C1147F64750C0F600006B
:1032F00003F0BAFCBFE705F11C00FCF766FF0146CE
:1033000040F28410C2F20000C0F8701147F603507A
:10331000C0F6000003F0A8FCADE700BF08200800DD
:103320006D6F746F725F706F6C655F7061697273DF
:10333000203D20006D6F746F725F70686173655F10
:10334000726573697374616E6365203D20000000CF
:103350006D6F746F725F70686173655F696E6475BD
:103360006374616E6365203D20000000696E6572C4
:10337000746961203D20000063616C69625F637560
:103380007272656E74203D200000000063616C69FC
:10339000625F6D61785F766F6C74616765203D2058
:1033A00000000000636F6E74726F6C5F6D6F646518
:1033B000203D200070B540F20804C2F200042078DD
:1033C0006178814200F0B08106281FD8DFE800F064
:1033D000041C070E09151800FEF728FB14E0FFF780
:1033E00093FB48F2A300C0F600000BE0FFF78CFB54
:1033F000FDF7B0FD0FF2844004E00FF2684001E0F9
:103400000FF2504003F030FC0120A070A07800289B
:1034100000F08A816178481E0328217000F28481BF
:10342000DFE800F0023D525B47F6BC40C0F600000A
:1034300003F01AFC47F67D50C0F6000003F014FCC0
:1034400047F6D570C0F6000003F00EFC48F21100FC
:10345000C0F6000003F008FC47F6EA70C0F6000072
:1034600003F002FC47F6F970C0F6000003F0FCFB25
:1034700048F22400C0F6000003F0F6FB48F25400C6
:10348000C0F6000003F0F0FB48F29100C0F6000027
:1034900003F0EAFB48F2A300C0F6000042E147F661
:1034A0009150C0F6000003F0DFFB40F28800C2F24A
:1034B0000000FEF729FE40F21C10C2F20000FFF7E8
:1034C0002DFBFFF765F82FE148F26B00C0F6000016
:1034D00003F0CAFBFEF7EEF926E1E01C4121FCF700
:1034E0005CFE48F23C00C0F6000003F0BDFB48F271
:1034F0000800C0F6000003F0B7FB40F28415C2F2EA
:103500000005296847F66350C0F6000003F0ACFBE5
:103510006868FCF782FE024647F6F950C0F60000E4
:103520000B4603F0A1FBA868FCF777FE024647F6BE
:10353000D750C0F600000B4603F096FBE868FCF796
:103540006CFE024647F6A650C0F600000B4603F09C
:103550008BFB47F6DB70C0F6000003F085FBD5F867
:103560001C01FCF75AFE024647F67A70C0F60000CE
:103570000B4603F079FBD5F82001FCF74EFE02461E
:1035800047F65C60C0F600000B4603F06DFB47F6A3
:10359000CA70C0F6000003F067FBD5F8241147F6A7
:1035A000ED40C0F6000003F05FFBD5F82801FCF702
:1035B00034FE024647F69260C0F600000B4603F068
:1035C00053FBD5F82C01FCF728FE024647F679603C
:1035D000C0F600000B4603F047FBD5F83001FCF7BE
:1035E0001CFE024647F6DB60C0F600000B4603F007
:1035F0003BFBD5F83401FCF710FE024647F6AF60FE
:10360000C0F600000B4603F02FFBD5F83801FCF79D
:1036100004FE024647F6C560C0F600000B4603F004
:1036200023FBD5F83C01FCF7F8FD024647F6227073
:10363000C0F600000B4603F017FBD5F84001FCF77D
:10364000ECFD024647F6EF60C0F600000B4603F0C3
:103650000BFBD5F84401FCF7E0FD024647F603708A
:10366000C0F600000B4603F0FFFAD5F84801FCF75E
:10367000D4FD024647F64C70C0F600000B4603F03E
:10368000F3FAD5F84C01FCF7C8FD024647F6617025
:10369000C0F600000B4603F0E7FAD5F8581147F6DC
:1036A0002750C0F6000003F0DFFA79A003F0DCFA3F
:1036B000D5F85C01FCF7B1FD024647F61B60C0F689
:1036C00000000B4603F0D0FAD5F86001FCF7A5FD29
:1036D000024647F63C60C0F600000B4603F0C4FA11
:1036E000D5F86401FCF799FD024647F6B950C0F6DB
:1036F00000000B4603F0B8FA68A003F0B5FAD5F85D
:10370000681168A003F0B0FAD5F86C1169A003F055
:10371000ABFAD5F870116DA003F0A6FA47F62C406D
:10372000C0F6000003F0A0FA2078002800F0918095
:1037300040F248350228C2F2000508D0032835D1EE
:1037400040F21C10C2F20000FDF70CFC2EE040F22B
:103750009C06C2F20006D6ED050A96ED080A40F274
:103760008800C2F20000FEF70DFB96ED071AF0EE9E
:10377000400A40F21C109FED5D0AC2F20000F0EE1C
:10378000411AFEF70FFF40F2841096ED080AC2F2CC
:10379000000090ED591AB0EEC00AB4EE410AF1EE05
:1037A00010FA03DD286840F08050286040F21C10B9
:1037B000C2F2000090ED020A40F28410C2F2000052
:1037C00090ED581AB4EE410AF1EE10FA09DB42F618
:1037D0002841C2F2000181ED000A296841F08041D0
:1037E000296090ED571AB4EE410AF1EE10FA03DCAD
:1037F000286840F00050286040F60040C4F2010004
:10380000042102F053FC40F24C36C2F2000640B9EB
:1038100028683168884204D0FEF7A2FC2968084372
:10382000286028683168884208BF70BD286820B1C8
:10383000FFF76AF90620A4F80100296847F6C84096
:10384000C0F6000003F010FA2868FEF7DBF82868DD
:10385000306070BD4572726F722052657365740A74
:103860000D0A0D0043616E6964206175746F5365C4
:103870007420456E640A0D0A0D00000043616C69F6
:1038800062726174696F6E20456E640A0D0A0D00E4
:103890002050726F746563740A0D00002043414E1E
:1038A0000A0D0000202063616E5F6964203D2025C1
:1038B000640A0D00202063616E5F74696D656F7529
:1038C00074203D2025640A0D000000002020636163
:1038D0006E5F73796E635F7461726765745F656E46
:1038E00061626C65203D2025640A0D000000000027
:1038F000B0B588B00024C4F202042046002100259F
:1039000002F0CEF842F24C40C4F20100019040F2C5
:103910001030C2F200004FF4807103900120029138
:103920004FF48061ADF81D00CDE904104FF4005054
:10393000069001AA204600218DF81C5002F0CEF816
:103940002046002102F09AF82046002102F072F889
:1039500008B0B0BDB0B542F20044C4F20104A4F511
:10396000E055284600210422012302F043FB2846AB
:1039700000210422042302F03DFB284600210422FA
:10398000082302F037FB204601F09AF904F5806520
:10399000284601F095F94FF4A02001F061FA204685
:1039A0000221012201F0B0FA28460221002201F092
:1039B000ABFA20464FF48071012201F0A5FA2846A7
:1039C0004FF48071002201F09FFA2046002101F09F
:1039D0006DF92846002101F069F9204601210122F4
:1039E00001F046F9204600210022012301F044FAAB
:1039F00020460221012201F03BF928460221012242
:103A000001F036F9204600210222012301F0BEF91F
:103A1000284600210322012301F0B8F920460121A4
:103A20004FF4602201F0A0F920460121012201F0AB
:103A30007BF9204602214FF4805201F095F9284687
:103A400002214FF4E04201F08FF9204602210122C9
:103A500001F06AF928460221012201F065F92046A9
:103A600001F052F9204601F055F9012000F0BAFCAE
:103A7000204601F0EDF8284601F04CF9012000F055
:103A8000B1FC284601F0E4F812200021002202F0E7
:103A9000EBFB2046042101F0C7F92046042101F088
:103AA000AFF920460121BDE8B04001F01FBA000087
:103AB000B0B546F200448425C4F20004C0F201050A
:103AC0002046294601F014FD002808BFB0BD20465D
:103AD000294601F005FD42F6FC35C2F2000503203F
:103AE000294601F0D9FD204601212A4601F02EFD8C
:103AF00040F21C302968D5F80B20D5F80F30C2F2FF
:103B000000000160C0F80520C0F80930BDE8B040F1
:103B1000FDF796BFB0B588B046F20044C4F2000489
:103B200004F524452846482103224FF4006302F09F
:103B300061FA2846182103224FF4805302F05AFA02
:103B40006D460020294601F0A7FD204601F0D8FB74
:103B50004FF0012001904FF4C02002904FF083708D
:103B600000902046294601F045FC4FF48030069035
:103B70004FF4005003904FF4DC2004900120059096
:103B80008DF81C0003A801F0DBFB2046102101F09A
:103B9000A3FC15200021002202F066FB08B0B0BD96
:103BA000F0B581B042F61446C2F200060D46074653
:103BB00002203146144601F06FFD0020C6E9007076
:103BC0003081B47244B106F10A00691E11F8012F68
:103BD000013C00F8012FF9D146F20044C4F2000480
:103BE00042F61441C2F20001204601F001FD42F606
:103BF0001045C2F2000501462870204601F07CFD08
:103C000001280FD0FF2600BF2046012101F08AFBCA
:103C10002978204601F070FD01281CBF013E5FEAB3
:103C20000640F1D101B0F0BDB0B540F20020C0F2C5
:103C30003000012102F040FA40F60044C4F20104D1
:103C4000A4F580652846102103224FF4004302F0BA
:103C5000D1F928464FF4004102F0CAF92846102154
:103C60000322102302F0C6F92846102102F0C0F901
:103C70002046102103224FF4805302F0BBF9204666
:103C80004FF4805102F0B4F9204610210322802322
:103C900002F0B0F92046802102F0A8F92046042164
:103CA00003220423BDE8B04002F0A4B9B0B588B047
:103CB00043F20004C4F20104A4F52055284618215B
:103CC0000422A02302F096F928460421042240236E
:103CD00002F090F9204602F043FC4FF4827101910A
:103CE0004FF400610391032106914FF4007100200D
:103CF0000491102102900791059001A9204602F03D
:103D000059FC204602F020FC08B0B0BD70B588B068
:103D100043F60004C4F2000404F554452846182173
:103D200004224FF42043182602F064F928460421A7
:103D300004224FF4804302F05DF9204602F010FCAB
:103D40004FF4827101914FF4006103910121002031
:103D500006914FF400710290CDE9041001A92046AC
:103D6000079602F027FC204602F0EEFB08B070BD7B
:103D7000B0B588B043F60044C4F2000404F55045E1
:103D8000284618210422282302F034F92846042169
:103D900004221023102502F02DF9204602F0E0FB4A
:103DA0004FF4827101914FF40061039101210020D1
:103DB00006914FF400710290CDE9041001A920464C
:103DC000079502F0F7FB204602F0BEFB08B0B0BD3D
:103DD00010B542F60044C4F20104204602F0E2FDB0
:103DE00020460121BDE8104002F04EBE70B588B0FB
:103DF00042F60044C4F20104A4F5105528461821E7
:103E000003224FF4807302F0F5F8284618210322AC
:103E10004FF4007302F0EEF82846182103224FF405
:103E2000806302F0E7F804AD284602F037FE204632
:103E300002F052FD4020CDF8120040F6B7300026C7
:103E4000069020462946ADF81060ADF816608DF852
:103E50001C6002F0B7FD01AD284602F037FD0120DD
:103E6000ADF80400204600212A46ADF80860ADF800
:103E70000C6002F0E5FB204601212A4602F0E0FB3F
:103E8000204602212A4602F0DBFB204603212A4677
:103E900002F0D6FB2046002140F2DC5202F0F2FC98
:103EA00020460021602202F0CFFC2046002108229B
:103EB00002F0EEFC2046012140F2DC5202F0E2FC6E
:103EC00020460121602202F0BFFC20460121082289
:103ED00002F0DEFC2046022140F2DC5202F0D2FC6D
:103EE00020460221602202F0AFFC20460221082277
:103EF00002F0CEFC2046032140F6A43202F0C2FCC0
:103F000020460321602202F09FFC2046032100226C
:103F100002F0BEFC204602F08DFB19200021002299
:103F200002F0A2F92046012102F0A6FD08B070BD02
:103F3000F0B587B040F60004C4F2000404F5823006
:103F4000182103224FF480734FF4807602F052F868
:103F500040F2027002F0C8FA03AD284602F09EFD5E
:103F6000204602F0B9FC0A20ADF80C000F20002713
:103F7000059020462946CDF80E70ADF812708DF8E8
:103F8000187002F01FFD6D46284602F09FFC0120CC
:103F9000CDE90007204602212A46029602F050FB96
:103FA00020460221602202F04FFC2046012102F04F
:103FB0006BFD20464FF4006102F0F0FC204602F059
:103FC000F1FC07B0F0BD000010B588B04FF4A06060
:103FD00002F08AFA0024C4F202042046042101F00F
:103FE0005FFD40F63C00C4F20000019000208DF817
:103FF0001C0042F66430C2F20000039040F201104F
:10400000ADF81D004FF4807002904FF48060049072
:104010004B2005904FF40050069001AA2046042141
:1040200001F05CFD2046042101F016FD204604212C
:1040300001F08EFD2046042101F0FCFC08B010BD0B
:10404000B0B544F60004C4F2000404F54445284623
:10405000182103224FF4806301F0CCFF284604218D
:1040600003224FF4006301F0C5FF204602F05CFD1F
:1040700020464FF4613102F019FD2046002102F084
:10408000EBFD2046002102F0C3FD2046002102F096
:10409000D1FD2046042102F0C3FD2046082102F094
:1040A000D1FD204602F07EFD27200021002202F0F3
:1040B000DBF8204640F20531BDE8B04002F080BD9B
:1040C000FEE70000F0B581B040F25414C2F20004E3
:1040D000206800F0F3F9002800F0998000F0F6F96C
:1040E0002060FEF741FD411E40F2303040F2501595
:1040F0000529C2F20000C2F200055CD8DFE801F039
:1041000003113B5B424940F21931C2F200010B78C6
:10411000C8272A885F437E1C964211D14FF470262F
:104120000BE040F21931C2F200010B78C8272A884F
:104130005F437E1C964203D1F0260660012606727C
:10414000643797420FD140F28416C2F20006D6F8C7
:10415000686100270760771E9F424FF001070772D2
:10416000C4BF01330B7040F2DC539A4223D30022C8
:104170002A800A701FE02988C82911D0A9B94FF4F4
:1041800070210EE02988C8290AD071B940F6FF7164
:1041900007E02988642903D0D9BB4FF47F4100E0B0
:1041A000002101600121017205E0B1F5C87F02D351
:1041B0004FF0FF312980017A31B30024C4F20204A8
:1041C0000026076806722046042101F021FC42F611
:1041D0006430C2F2000000BF27FA06F1C90700EB05
:1041E00046024FF0070106F1010608BF0521182E0F
:1041F000A2F86210F0D1204604214B2201F0BAFC53
:104200002046042101F016FC28880130288001B0E6
:10421000F0BDC829CCD2CEE7FEE700007047000011
:10422000B0B540F60044C4F2010420464FF480517A
:1042300001F0DCFE01204FF4104100F07DF805464E
:1042400020464FF4805101F0D3FE40F2FB7028402D
:1042500041F2040140EA010520464FF4805101F08B
:10426000C5FE0120294600F067F820464FF4805132
:1042700001F0BEFE42F63440C4F2010040F2DC51CF
:1042800004F500548160416001602046012102F084
:104290008FFB00BF2046012102F08EFB0028F9D0E1
:1042A00020460121BDE8B04002F082BBB0B540F627
:1042B0000044C4F2010442F63440C4F2010040F26A
:1042C000DC5104F500558160416001602846012100
:1042D00002F06EFB2846012102F06EFB0028F9D0A7
:1042E0002846012102F064FB20464FF4805101F082
:1042F0007DFE01204FF4104100F01EF805462046D7
:104300004FF4805101F074FE40F2FB70284000F53C
:10431000805520464FF4805101F068FE0120294667
:1043200000F00AF820464FF48051BDE8B04001F09B
:104330005FBE000070470000B0B50D46E8B101282F
:1043400033D002281CBF0020B0BD43F60000C4F2E9
:10435000000000F5806400BF2046022102F024F92D
:104360000028F9D02046294602F0F8F8204601211D
:1043700002F01AF90028F9D02CE043F60000C4F24C
:10438000000000F5784400BF2046022102F00CF93D
:104390000028F9D02046294602F0E0F82046012105
:1043A00002F002F90028F9D014E043F60004C4F248
:1043B000000400BF2046022102F0F6F80028F9D0E0
:1043C0002046294602F0CAF82046012102F0ECF806
:1043D0000028F9D02046BDE8B04002F0BBB800008C
:1043E0007047000070B5B0B340F24C01C2F200015A
:1043F00009684DF68362C4F21B32A1FB022344F626
:10440000D352C1F26202A1FB02154EF2180ECEF297
:10441000000E9A0C4FEA951C03E000BF013808BF5C
:1044200070BDDEF800304FF47A7100240AE000BF5E
:104430002C44E41AB4FBF2F54E1B84BF05FB124476
:104440003146EBD91D46DEF800309D42F0D8F1D25E
:104450002C446444EDE770BDB0B54EF2180E40F246
:104460004C01CEF2000EC2F20001DEF80020096815
:104470004DF68363C4F21B33A1FB033C44F6D353D4
:10448000C1F26203A1FB03144FEA9C434FEA941C60
:1044900000210BE03EBF2144891A6144B1FBF3F4D3
:1044A000051B86BF04FB13112846B0BD1446DEF879
:1044B00000209442EED92144891AEFE740F25811C6
:1044C000C2F200010968081A7047000040F2581053
:1044D000C2F200000068704740F25810C2F20000BB
:1044E000016801310160704781B04EF68851CEF20B
:1044F00000010A6841F2040C42F47002C4F2020C9A
:104500000A605CF8041C41F001014CF8041C00BF77
:104510005CF8041C8907FBD5DCF8001041F0800131
:10452000CCF8001000210091009A4F2A06D800BF55
:10453000009A01320092009A502AF9D3DCF8002048
:1045400042F09002CCF80020009100994F2905D844
:1045500000990131009100995029F9D3DCF800103D
:104560004FF6FF7221F00301CCF800105CF8041C38
:10457000CFF6F66211404CF8041C4FF41F01CCF842
:1045800004105CF8041C21F480214CF8041C002168
:10459000CCF80010CCF828105CF8042C42F48032DF
:1045A0004CF8042C4FF6FE725CF8040C013A41F111
:1045B0000003800301D4002BF6D15CF8040C8003C7
:1045C00001D400BFFEE7DCF8180047F2000140F01C
:1045D0008050C4F20001CCF8180008684FF6FF7252
:1045E00040F440400860DCF80000CBF2C372CCF825
:1045F0000000DCF80000CCF80000DCF8000040F41B
:104600008060CCF80000DCF8000020F44030CCF8EA
:104610000000DCF8000040F44030CCF80000DCF88A
:1046200000001040CCF80000DCF8000040F0006012
:1046300040F45010CCF800005CF8040C40F080709E
:104640004CF8040C5CF8040C8001FBD5086840F4BD
:10465000803008604868C003FCD5086840F400302A
:10466000086000BF48688003FCD5DCF8000020F03B
:104670000300CCF80000DCF8000040F00200CCF8A9
:10468000000000BFDCF800000007FBD501B0704758
:1046900080B542F60040C4F20100012102F0F0F9B9
:1046A00040F25C10C2F20000017840F25D12C2F2EA
:1046B0000002B1FA81F1137849090170581C272BC7
:1046C00088BF0020107080BDB5EE400A40F268102F
:1046D000F1EE10FAC2F200000EDA40F20C31C2F232
:1046E000000140F200320968C2F2000292ED002A95
:1046F0009FED491A016089E040F26011C2F20001A9
:1047000091ED001AB4EE401AF1EE10FA26DD40F2F7
:104710000031C2F2000191ED002A40F20C31C2F2E8
:10472000000191ED001A40F2500122EE003AC2F26F
:10473000000133EE013A91ED001AB6EE004A21EE87
:10474000044A20EE005A24EE054A34EE033A21EEE4
:10475000000A80ED003A30EE022A57E040F2801164
:10476000C2F2000191ED002A31EE022AB4EE402A95
:10477000F1EE10FA16DD42F63041C2F2000191ED81
:10478000003A40F20431C2F2000191ED002A30EE0D
:10479000410A22EE000A30EE030A9FED1F1A80ED57
:1047A000000A33E090ED031AB4EE401AF1EE10FA6D
:1047B0001CDD40F20831C2F2000191ED002A40F206
:1047C0009401C2F2000130EE410A91ED001AB6EEFA
:1047D000003A21EE033A20EE004A23EE043A33EE8B
:1047E000022A80ED002A20EE012A0FE0B4EE401AE2
:1047F000F1EE10FAC8BF704740F20831C2F2000172
:104800009FED052A0968B0EE421A016080ED012A89
:1048100080ED021A704700BF000000000000000099
:104820002DE9F04F81B02DED108BB0EE418A21EED5
:1048300001FA32EEA21A8FEE011AB0EE62CAB0EEA1
:1048400042BAB0EE61DAB0EE609AB0EE40AA70EE15
:10485000608A11EE100AFBF7E0FC044618EE100A1D
:104860000D46FBF7DAFCC80F60F3DF7520462946DA
:10487000FBF7E6FC00EE100A38EEC00A10EE100A54
:104880004FF07E5161F31E000EEE100A40F2500808
:104890002EEE0D1A2EEE0B0AC2F2000840F2940022
:1048A00040F2043B2EEE082A2EEE013A88ED000A73
:1048B0002EEE4C0AC2F20000C2F2000BB4EE432A04
:1048C00080ED000AF1EE10FA8BED001AC2BFB1EED6
:1048D0004E2A22EE0B2A88ED002A98ED002A31EEAE
:1048E000483A83EE024AB1EE413A83EE005AB6EE00
:1048F00000CA31EE086A40F2601A40F26419C2F24E
:10490000000AC2F2000924EE0C3A23EE063A25EE24
:104910000C6A21EE066A33EE063A28EE8E6A2EEE17
:10492000037AB4EE476AF1EE10FA8AED004A89ED97
:10493000005A6CDA32EE021A20EE011A28EE811AC1
:1049400020EE0F3A33EE011A30EE420A81EE000AF1
:1049500010EE100AFBF761FC9FED510B064654EC7C
:10496000105B2A4623460F46FBF73CFC002804BF99
:1049700027462E4630463946FBF762FC00EE100A09
:10498000B1EEC0BAB4EE4BBAF1EE10FA80F182800B
:104990002EEE0B0A98ED001A30EE482A82EE011A2C
:1049A0008BED000A11EE100AFBF737FC2A4623466E
:1049B00006460F46FBF716FC002804BF27462E4686
:1049C00030463946FBF73CFC40F29401C2F200014C
:1049D00091ED000A2EEE4B1A81EE000ACAF8000093
:1049E00010EE100AFBF719FC2A46234606460F462E
:1049F000FBF7F8FB00281CBF3C46354628462146FD
:104A0000FBF71EFC9FED280AC9F8000003E038EE12
:104A1000C30A80EE010A40F280109AED001AC2F239
:104A2000000099ED002A80ED000A30EE010A40F204
:104A3000681030EE020AC2F2000080ED030A40F274
:104A40000C30C2F2000080ED009A40F20830C2F251
:104A5000000098ED002A80ED00AA40F20030C2F27A
:104A6000000028EE010A22EE0C2A21EE011A80ED48
:104A7000008A30EE090A22EE011A42F6304031EE89
:104A8000000AC2F2000080ED000ABDEC108B01B0FC
:104A9000BDE8F08F02F0BDF9B0EE40BA78E700BF94
:104AA000000000000000000000000000B0B544F667
:104AB000000440F20535C4F20004C0F205052046AA
:104AC000294602F093F8002808BFB0BD20462946C9
:104AD00002F082F8204602F01FF8C0B2BDE8B040F4
:104AE000FEF748B810B540F28414C2F2000442F256
:104AF0000001C0F6030120464FF4BE72FBF734FB01
:104B000020464FF4BC71002200F026FED4F8781144
:104B1000401A18BF4FF0FF3010BD00002DE9F041E2
:104B200042F20004C0F60304EFF3108872B601F0FD
:104B300043F940F2073001F02DF8204601F050F81B
:104B4000054640F2073001F025F8EDB940F2841631
:104B5000C2F2000630464FF4BC710022002700F07C
:104B6000FBFDC6F8780100BFF15947EA040001F0E7
:104B70004BF9054640F2073001F00CF825B9B7F5BE
:104B8000BC7F07F10407EFD101F014F8002D18BF26
:104B90000125284688F31088BDE8F081B0B540F2C1
:104BA000841046F26662C2F200000721C4F2660277
:104BB00044F6521341F26F2CC3F69D33C3F6832C97
:104BC00080E80E10002200244FF0804CC4F24822EE
:104BD000C4F2C82400214FF07E5E4FF08143C0E94B
:104BE0004AC2C0E94C240022C0E9461EC0E948314F
:104BF000C4F2A0224CF6CD434DF20A7C40F2000EE6
:104C00000025C3F64C73C3F6A35CC4F2B42EC4F201
:104C1000F015C0E94E4200F5A07282E80850C0F8D5
:104C20004C514FF47A72002300254FF0010C00F52F
:104C3000AC7EC4F24013C4F220258EE82C00C0E9FB
:104C4000594CC0E95B21C0F87411B0BDFEE700000B
:104C5000816841F00801816081680907FCD481689E
:104C600041F00401816000BF81684907FCD47047AE
:104C700080B5012908D0022918BF80BD4FF4401E1D
:104C80006FF4401C382304E04FF4700E6FF4700C86
:104C90002C23195801EA0C0119500EEB02511A5835
:104CA00001EA0E011143195080BD000082680029FD
:104CB00022F4006218BF02F50062826070470000B3
:104CC00010B542F20041C4F2010188420FD043F610
:104CD0000041C4F2010188420CD042F60001C4F246
:104CE0000101884218BF10BD40F20A3404E040F2CE
:104CF000093401E040F20F34204601F015FC204653
:104D0000BDE8104001F000BC816841F48071816011
:104D1000704700008168C90718BF7047816841F07B
:104D20000101816070470000002A01F0010203D0F8
:104D30007AB9890713D470471AB1826822F48012B5
:104D40008260890758BF7047816821F40041816003
:104D50007047826842F4801282608907EBD58168CF
:104D600041F4004181607047012905D0022918BF34
:104D700070476FF4E04101E06FF4602183681940EF
:104D800081608168114381607047000080B5D0F870
:104D900038C0D0F838E0CCF3015CA1EB0C0101EB9A
:104DA000810101F10F0C1F2101FA0CF12EEA010E15
:104DB00002FA0CF141EA0E01092A816304D800F1DC
:104DC000100C02EB420107E0112A88BF80BD02EB04
:104DD000420100F10C0C1E39DCF80020072088404D
:104DE00022EA000003FA01F10843CCF8000080BD7C
:104DF00003298EBF002000EB8100C06B80B270479A
:104E0000CA0703D0426842F0400242608A0703D5D5
:104E1000426842F020024260490758BF704741682B
:104E200041F0800141607047C94301607047000054
:104E3000012907D0042907D002291CBF0020704790
:104E4000202202E0402200E08022036840681940EE
:104E5000104018BF0120002918BF012108407047E9
:104E600042F20441C4F201010A6822F470220A608D
:104E70000A6810430860704710B5052904D800F18E
:104E8000340C01EB810E10E00B2906D801EB8101F7
:104E900000F1300CA1F11E0E07E00F2910D801EB34
:104EA000810100F12C0CA1F13C0EDCF800101F2454
:104EB00004FA0EF4A14302FA0EF42143CCF80010D8
:104EC000092A03D8103002EB420106E0112A88BFFC
:104ED00010BD02EB42010C301E39026807248C40E1
:104EE000A24303FA01F11143016010BDCA0703D0C8
:104EF000826842F480028260890758BF70478168E7
:104F000041F4001181607047002A01F4807205D0DD
:104F1000BAB94A051BD489071FD470471AB1426831
:104F200022F4807242604A0503D5426822F480620E
:104F30004260890758BF7047816821F00201816093
:104F40007047426842F4807242604A05E3D5426885
:104F500042F4806242608907DFD5816841F0020136
:104F60008160704780B52DED0C8B9FEDD42AB7EE94
:104F7000009A20EE020A89EE000AB0EE618A20EE65
:104F800020AA20EE01BA2BEE0B0A2AEE0A1A31EE05
:104F9000001AB1EEC10AB4EE400AF1EE10FA80F147
:104FA00087819FEDC71A9FEDC7DA81EE000AB0EE48
:104FB00049CAB4EE490AF1EE10FAB8BFB0EE40CAE1
:104FC00038EE0D0A9FEDC08AF0EE480A01F07CFE33
:104FD0009FEDBE2A30EE081AB5EE400AF1EE10FA47
:104FE000B8BFB0EE410A30EE021AB5EE401AF1EE4B
:104FF00010FAB4BF9FEDB90A9FEDB50A9FEDB52A2F
:1050000021EE000A21EE000A21EE022A32EE000A09
:10501000B5EE400AB1EE402A9FEDAF4AF1EE10FA2C
:10502000ACBF20EE003A20EE023A33EE022A22EE26
:10503000042A32EE000A9FEDAA2A9FEDA65A31EE0D
:10504000023A9FEDA82AB4EE4D3A33EE022AF1EE71
:1050500010FAC8BFB0EE423AB5EE403AF1EE10FA9F
:10506000B4BF9FED9E4A9FED9A4A23EE044A23EE79
:10507000044A23EE053A33EE043AB5EE403AB1EE77
:10508000434A9FED956AF1EE10FAACBF23EE035A46
:1050900023EE045A35EE044A24EE064A2BEE0C1A8F
:1050A0002AEE0C2A34EE033A21EE004A21EE031ACE
:1050B00022EE000A22EE035A30EE011AB5EE401A33
:1050C00035EE440AF1EE10FAB5EE400A0EDAF1EED2
:1050D00010FA1ADA9FED842A052021EE022AB4EE96
:1050E000402AF1EE10FAC8BF042025E0F1EE10FAD4
:1050F00017DA9FED7E2A022021EE022AB4EE402A22
:10510000F1EE10FAC8BF032016E09FED782A0620C2
:1051100021EE022AB4EE402AF1EE10FAC8BF0520B3
:105120000AE09FED712A012021EE022AB4EE402A06
:10513000F1EE10FAC8BF0220013805281BD8DFE8BD
:1051400000F0031B30475E739FED682A9FED693ABC
:1051500021EE022A32EE000A21EE033A39EE401A1D
:1051600031EE431AB6EE002A21EE022A30EE021A80
:1051700033EE010A6EE06DE09FED5B2A21EE021A2C
:1051800031EE003A31EE400A39EE431A31EE401A60
:10519000B6EE002A21EE021A30EE012A33EE020AA0
:1051A00058E09FED542A9FED513A21EE022A21EE5C
:1051B000031A31EE403A39EE420A30EE430AB6EEB7
:1051C000001A20EE011A32EE010A33EE002A41E005
:1051D0009FED452A9FED463A21EE022A32EE402A03
:1051E00021EE031A39EE420A30EE410AB6EE003AD9
:1051F00020EE030A31EE001A32EE012A2AE09FED7A
:105200003B2AB6EE003A21EE021A31EE402A31EE88
:10521000001A39EE420A30EE410A20EE030A32EE5D
:10522000002A31EE021A15E09FED312A9FED2E3A49
:1052300021EE024A21EE031A31EE000A39EE441A39
:1052400031EE401AB6EE002A21EE022A30EE020AB2
:1052500034EE001A9FED283A9FED284A22EE032AE9
:1052600082EE042A21EE031A81EE041A20EE030ACC
:1052700080EE040AB6EE003A42F63441C4F201016F
:1052800022EE032ABDEEC22A21EE031A12EE100A04
:10529000BDEEC11A20EE030A486011EE100ABDEE01
:1052A000C00A886010EE100A0860BDEC0C8B80BD4F
:1052B000B0EE410A01F0ADFD73E600BFABAA2A3F94
:1052C000AC5C313FDB0F4940DB0FC940DB0F49C00D
:1052D0007B81CFBE83F9A23F6666663E7B81CF3E6F
:1052E000DB0FC93FDB0FC9C03ACD133F3ACD13BF27
:1052F0003ACD93BF3ACD933FC0E1E44C00409C4689
:1053000046F20041C4F20001884218BF704780B5E0
:1053100040F2194001F008F940F21940BDE8804020
:1053200001F0F2B829B1012902D1102102E000BF39
:10533000FEE70C210A5842F020020A507047000094
:10534000B0B546F20061C4F2000144890A684FF02A
:10535000010C42F001020A60CB690CFA04F5AB4380
:10536000CB61C3896FEA050C012B10D023BBCB683E
:1053700003EA0C03CB60B0F806E0438843EA0E432F
:105380004FEAC40E01EBC404236403460DE0CB686E
:105390002B43CB60B0F800E0438843EA0E434FEA6A
:1053A000C40E01EBC4042364831D84881B8843EA74
:1053B000044301EB0E04636483894C68002B44EAC8
:1053C000050208BF04EA0C024A6002894B69002A00
:1053D00043EA050408BF03EA0C044C61007C012881
:1053E00002D1C8692843C861086820F0010008603C
:1053F000B0BD000010B5026840F2010C22F00202BC
:1054000002600368CFF6FF7C43F00103036063464C
:105410004268D20703D1002B03F10103F8D142689F
:10542000D20704BF002010BD0A784B7891F802E043
:10543000CC78920763F319620EF00F0342EA03423D
:1054400004F007034C8942EA0352631E6FF39F2363
:105450001A44C2610A790368012A23F0800308BF55
:10546000803303604A790368012A23F0400308BFB0
:10547000403303608A790368012A23F0200308BFC0
:1054800020330360CA790368012A23F0100318BF90
:10549000103303600A7A0368012A23F0080318BF57
:1054A00008330360497A0268012922F0040208BF28
:1054B00004320260016821F0010101604168C907FE
:1054C000614603D0002901F1010CF7D1002918BF72
:1054D0000121084610BD0000426911434161704737
:1054E000C1F38412012303FA02F2090B0A50704738
:1054F00048F2CB02C0F2010291420CD08422C0F2E9
:10550000010291420BD04CF2810291420BD1C26850
:1055100002F0030210E08269C2F302120CE0026999
:1055200002F0030208E00A0B52F800C0C1F3841332
:1055300001229A4002EA0C02406901F01F01C840B2
:10554000002A18BF012210407047000010B500EB80
:105550000114D4F8B0C11CF004031372D4F8B0E104
:1055600019BF4FEADE0353604FEA5E531360D4F86D
:10557000B0314FEA011C03F0020353720CEB00033D
:10558000D3F8B44100294FEA1424D474D3F8B441B9
:1055900004F00F049472D3F8B841D472D3F8B84130
:1055A0004FEA14241473D3F8B8414FEA14445473E7
:1055B000D3F8B8414FEA14649473D3F8BC41D47360
:1055C000D3F8BC414FEA14241474D3F8BC414FEA19
:1055D00014445474D3F8BC314FEA136393744FF0FE
:1055E000100208BF0C22115841F02001115010BDCB
:1055F00070B50546806840010ED4A86800014FF0E0
:1056000001000CD4AA6812F0805280EA12734FF0A5
:10561000020008BF032003E00023002000E0002375
:10562000002B1CBF032070BD05EB0013D3F88021B5
:105630004FEA001C02F00102C3F880210A7A1AB175
:105640004C6842EAC40E02E00A684FEA425E4A7AB7
:105650008C7AD3F8806142EA0E023243C3F880218B
:105660000CEB0502D2F8846126F00F06C2F88461C3
:10567000D2F884612643C2F88461D1F80B60C2F885
:105680008861D1F80F10C2F88C11D3F8801141F065
:105690000101C3F8801170BD81B1032810D8DFE883
:1056A00000F00210191F0020C0F2FF3088600020B7
:1056B00048604FF400300860704700BFFEE700BF4D
:1056C000FEE700204FF480320874CA60086048602A
:1056D000886070470020C1F80F00C1F80B0005E09A
:1056E0000020C1F80F00C1F80B00C874C1E9000028
:1056F000C1F8070070470000022906D849B213A27A
:1057000052F821108068084000E0002040F2FF219C
:10571000C0F60001884209DC002804BF022070475F
:105720000321C0F2004188420BD00CE040F200316E
:10573000C0F60001884204D00021C1F20301884272
:1057400001D1012070470020704700BF0300000412
:10575000000300080000031071B147F2EC7C01382F
:10576000C0F6000C10F8013F013983EA12635CF8BF
:10577000233083EA0222F5D11046704780B540F20B
:105780008410C2F20000D0F82411052988BF80BD22
:10579000DFE801F0031F3B51678190ED040A40F2FE
:1057A0008800C2F200009FED461AB8EEC00A90EDE4
:1057B000022A20EE010A30EE020A80ED020A10EE03
:1057C000100AFAF72AFD024647F69870C0F6000064
:1057D0005CE090ED040A40F28800C2F200009FED08
:1057E000381AB8EEC00A90ED022A20EE010A30EE17
:1057F000020A80ED020A10EE100AFAF70EFD0246C8
:1058000047F69170C0F6000040E040F28800C2F216
:10581000000090ED010AB7EE001A30EE010A80EDAB
:10582000010A10EE100AFAF7F8FC024647F6B470C7
:10583000C0F600002AE040F28800C2F2000090EDBD
:10584000010AB1EE041A30EE010A80ED010A10EEF1
:10585000100AFAF7E2FC024647F6AD70C0F6000007
:1058600014E040F28800C2F2000090ED000A9FEDC3
:10587000131A30EE010A80ED000A10EE100AFAF752
:10588000CCFC024647F63470C0F600000B46BDE87B
:10589000804001F0E9B9B1EE040AFCF727FC02A050
:1058A000BDE8804001F0E0B96D6F76655F746F5FB1
:1058B000706F73203D20350A0D000000CDCCCC3D2B
:1058C000CDCC4C3D80B540F28410C2F20000D0F83F
:1058D0002411052988BF80BDDFE801F0031F3B517B
:1058E000678190ED040A40F28800C2F200009FED4B
:1058F000471AB8EEC00A90ED022A20EE010A30EEF7
:10590000020A80ED020A10EE100AFAF786FC02463F
:1059100047F69870C0F600005CE090ED040A40F293
:105920008800C2F200009FED391AB8EEC00A90ED6F
:10593000022A20EE010A30EE020A80ED020A10EE81
:10594000100AFAF76AFC024647F69170C0F60000AA
:1059500040E040F28800C2F2000090ED010ABFEE84
:10596000001A30EE010A80ED010A10EE100AFAF773
:1059700054FC024647F6B470C0F600002AE040F23C
:105980008800C2F2000090ED010AB9EE041A30EE70
:10599000010A80ED010A10EE100AFAF73EFC0246F9
:1059A00047F6AD70C0F6000014E040F28800C2F285
:1059B000000090ED000A9FED141A30EE010A80ED10
:1059C000000A10EE100AFAF728FC024647F6347077
:1059D000C0F600000B46BDE8804001F045B99FEDE0
:1059E000040AFCF783FB03A0BDE8804001F03CB94A
:1059F000000000006D6F76655F746F5F706F7320DD
:105A00003D20300A0D000000CDCCCCBDCDCC4CBD2E
:105A100040F20042C4F20202904202D1052900D3B2
:105A2000FEE701EB810100EB8100816821F00101BB
:105A30008160704740F20042C4F20202904202D1FB
:105A4000052900D3FEE701EB810100EB81008168AD
:105A500041F001018160704740F20042C4F202024D
:105A6000904202D1052900D3FEE701EB810100EB52
:105A70008100816821F020018160704740F200427E
:105A8000C4F20202904202D1052900D3FEE701EBE5
:105A9000810100EB8100816841F020018160704745
:105AA00040F20042C4F20202904202D1052900D322
:105AB000FEE701EB810200EB82029368890023F08C
:105AC0000103936000239360D360136153610F223D
:105AD000436802FA01F119434160704740F2004304
:105AE000C4F20203984202D1052900D3FEE780B533
:105AF000136801EB810100EB810003619168416152
:105B0000118AC1608168536821F47C5CD168D2F845
:105B100014E043EA0C03194341EA0E018160117E4F
:105B20008368012923F0400308BF40338360517E1E
:105B30008368012923F0800308BF80338360917E4E
:105B40008268002922F0100218BF1032826080BDE6
:105B500040F20042C4F20202904202D1052900D371
:105B6000FEE701EB810100EB8100816821F48041B7
:105B70008160704740F20043C4F20203984202D1B0
:105B8000052900D3FEE701EB810192B200EB810011
:105B9000C260704742F2000300F01F018009C4F2A6
:105BA00002034FF0010CC2580CFA01F11143C1502D
:105BB0007047000042F21000C4F20200016841F098
:105BC000800101604FF2E071C1F6FF710988B1F503
:105BD000007F98BF7047016C41F0800101647047FD
:105BE00080B54FF2E071C1F6FF7109888446B1F5C6
:105BF000007F70D94FF6FF700121C0F60700CFF289
:105C0000010142F20C02C4F202024FF0020E0B46F6
:105C100084451BD21068C0070AD11068C0065ABF5D
:105C200010680EEA50000320012804D007E000BFEE
:105C30000120012803D1002B03F10103EAD101283F
:105C400008BF0420002800F0958080BD106CC007BC
:105C50000AD1106CC0065ABF106C0EEA5000032027
:105C6000012804D007E000BF0120012803D1002B48
:105C700003F10103EAD1012808BF04200028E4D180
:105C8000506C022340F002005064C2F848C0106912
:105C9000800748BFC2F808C0506C40F04000506414
:105CA000106CC0070AD1106CC0065ABF106C03EA12
:105CB00050000320012804D007E000BF0120012884
:105CC00003D1002901F10101EAD1012808BF042014
:105CD00002F1440149E00121CFF2010142F20C023C
:105CE000C4F202024FF0020E0B4600BF1068C0075C
:105CF0000AD11068C0065ABF10680EEA500003208F
:105D0000012804D007E000BF0120012803D1002BA7
:105D100003F10103EAD1012808BF0420002818BFBD
:105D200080BD5068022340F002005060C2F808C0F5
:105D3000506840F0400050601068C0070AD11068F9
:105D4000C0065ABF106803EA50000320012804D09F
:105D500007E000BF0120012803D1002901F1010162
:105D6000EAD1111D012808BF04200A6822F00202AE
:105D70000A6080BD5068022340F002005060C2F803
:105D800008C0506840F04000506000BF1068C00775
:105D90000AD11068C0065ABF106803EA50000320F9
:105DA000012804D0DDE700BF01200128D9D1002956
:105DB00001F10101EAD1D4E742F20400C4F2020089
:105DC000C168090609D540F22311C4F26751016088
:105DD00048F6AB11CCF6EF5101604FF2E071C1F61D
:105DE000FF710988B1F5007F0DD9C16C090658BF54
:105DF000704740F22311C4F26751016448F6AB11B9
:105E0000CCF6EF510164704710B54FF2E072C1F665
:105E1000FF7212888446B2F5007F68D901224FF6DE
:105E2000FF70CFF20102C0F6070042F20C03844576
:105E3000C4F202034FF0020E14461BD21868C007CA
:105E40000AD11868C0065ABF18680EEA500003202D
:105E5000012804D007E000BF0120012803D1002C55
:105E600004F10104EAD1012808BF0420002800F051
:105E7000898010BD186CC0070AD1186CC0065ABFC3
:105E8000186C0EEA50000320012804D007E000BF80
:105E90000120012803D1002C04F10104EAD10128DA
:105EA00008BF04200028E4D1586C40F00100586479
:105EB000CCF80010022100BF186CC0070AD1186C82
:105EC000C0065ABF186C01EA50000320012804D014
:105ED00007E000BF0120012803D1002A02F10102DE
:105EE000EAD1012808BF042003F1440145E0012361
:105EF000CFF2010342F20C02C4F202024FF0020E92
:105F00001C4600BF1068C0070AD11068C0065ABFFF
:105F100010680EEA50000320012804D007E000BFFB
:105F20000120012803D1002C04F10104EAD1012849
:105F300008BF0420002818BF10BD506840F00100C1
:105F40005060CCF8001002211068C0070AD1106818
:105F5000C0065ABF106801EA50000320012804D08F
:105F600007E000BF0120012803D1002B03F101034A
:105F7000EAD1111D012808BF04200A6822F001029D
:105F80000A6010BD586840F001005860CCF800105D
:105F9000022100BF1868C0070AD11868C0065ABF9E
:105FA000186801EA50000320012804D007E000BF70
:105FB0000120012803D1002A02F10102EAD10128BF
:105FC00008BF0420191DD8E7B0B544F60005C4F297
:105FD00000050446C1B2284600F0A2FD284607216C
:105FE00000F0E6FD0028F9D02046B0BD41617047C1
:105FF000016170472DE9F047CF0601F00F0C09D57C
:10600000042A05D1C26B4CF0030C1A43C26301E0B1
:106010004CEA020C00F1100E00F1140A00244FF0BB
:1060200001094FF00F0800270EE000BF166008FAC4
:1060300004F225EA02020CFA04F52A430260013751
:10604000082F04F104040CD009FA07F212EA03063F
:10605000F5D0056828295246E8D04829E7D172468C
:10606000E4E7082400254FF001094FF00F080FE086
:10607000176008FA05F226EA02020CFA05F6324326
:1060800042600134102C05F1040508BFBDE8F0871B
:1060900009FA04F212EA0307F3D0466828295246A7
:1060A000E6D04829E5D17246E2E700008068084062
:1060B00018BF012070470000B0B50422C4F20102ED
:1060C000134602F1180E002848BF73461C6800F4FE
:1060D0004013B3F5401F1FFA80FC06D1156824F069
:1060E000E06325F0E064146015E0C3020AD46FF0A9
:1060F0000F0303EA50430CFA03F324EA030343F0CB
:10610000E06308E0C0F30343032505FA03F324EA40
:10611000030343F0E0636FF00F0404EA50440029E6
:106120000CFA04F518BF2B43002848BF72461360D1
:10613000B0BD00004FF4A06000F0EAF800F054FA9F
:1061400000F094F9FDF770FDFDF7D2FBFDF702FCBE
:10615000FDF73AFFFDF7ECFEFDF772FFFDF7DAFC05
:10616000FDF744FEFDF7A2FDFDF7D0FDFDF700FEB3
:106170000A20FEF737F9FCF71FF820B11EA000F047
:1061800073FD00BFFEE7FEF7ADFC18B1FEF706FD9C
:1061900025A000E01EA000F067FDFDF719FE40F20B
:1061A000841040F21C14C2F200000021C2F200046C
:1061B000C0F824112046FCF7B7FC0A20FEF712F9BC
:1061C000A0889FED231A00EE100AB8EE400A20EED8
:1061D000010A6B2084ED020AFCF7CCFC0A20FEF7D2
:1061E00001F91CA000F040FDFDF76CFFFBF764FD1A
:1061F000FEF76CF9F8E700BF0A0D44525638333207
:106200003320696E6974206661696C210A0D000093
:106210000A0D436F6E666967206C6F616465642068
:106220006F6B0A0D000000000A0D436F6E66696710
:10623000206C6F61646564206661696C65207365BC
:106240007420746F2064656661756C740A0D0000BB
:106250007BDC7A3C0A0D464F4356342E3020696E63
:106260006974210A0D0000004EF60C5CCEF2000CA1
:10627000DCF8003003F4E063B3F5E06F01D10423F0
:106280002AE0DCF8003003F4E063B3F5C06F01D11D
:10629000032321E0DCF8003003F4E063B3F5A06FE2
:1062A00001D1022318E0DCF8003003F4E063B3F519
:1062B000806F01D101230FE0DCF8003003F4E063CC
:1062C000B3F5407F01D1002306E040F20053C0F255
:1062D000FA53CCF80030022301FA03FCC3F10403A3
:1062E0000F21D94011404EF2001241EA0C01CEF2CA
:1062F0000002090140EA020383F8001300F01F01C5
:10630000012303FA01F11C2303EAD00081507047F6
:1063100040F080604EF60C5140F0FD70CEF200016E
:106320000860704710B541F2040CC4F2020CDCF8AE
:10633000001043F6FF72CEF6FF720A40DCF8281018
:106340000B2821F0005E21D8012383401C070CD1CB
:1063500013F4706F0CD04CF20003CFF6FC7303EA19
:106360008030024341F0005E10E042EA80320DE0EE
:106370000121814011F0A00F08D04CF20001CEF6AF
:10638000FE7101EA8030104340F08052CCF80020CA
:10639000CCF828E010BD000010B541F20402C4F2B0
:1063A0000202116801F00C01082941F20021C0F23B
:1063B0007A012BD11368DB0304D440F6001CC0F231
:1063C0003D0C0DE0936AD2F800C05B0046F6004336
:1063D000C0F2DC2358BF0B46CCF3404123FA01FC4A
:1063E00013681168C3F3834E102303EAD151136875
:1063F0008E44202101EA536171440B463F2918BFA6
:1064000001330F2938BF8B1C03FB0CF11368D2F842
:1064100000C0146803280FD8C3F303130FA2D25C83
:1064200047F6EC3E21FA02F3C0F6000EDFE800F07A
:106430001302060D184610BD002010BDCCF302203B
:106440001EF8000023FA00F010BDC4F3C2201EF8AD
:10645000000023FA00F1084610BD00BF0000000054
:1064600000000000010203040607080980B540F29D
:10647000026000F039F840F2036000F035F840F2B5
:10648000046000F031F84FF4C06000F02DF840F2E5
:10649000096000F029F840F20A6000F025F84FF496
:1064A000A06000F021F80120FFF73CFF40F21970D6
:1064B00000F01AF840F20F7000F016F840F20E707B
:1064C00000F012F840F20C6000F00EF840F212708A
:1064D00000F00AF840F20B6000F006F840F201709C
:1064E000BDE88040AFF3008041F2000300F01F01DF
:1064F0008009C4F202034FF0010CC2580CFA01F1FA
:106500001143C1507047000041F2000300F01F0129
:106510008009C4F202034FF0010CC2580CFA01F1D9
:1065200022EA0101C150704741F2000300F01F014F
:106530008009C4F202034FF0010CC2580CFA01F1B9
:106540001143C15070470000016841F040010160F3
:1065500070470000C06880B270470000C16070479B
:1065600010B543F20001C4F2010188420FD043F696
:106570000041C4F2000188420CD043F60001C4F28D
:106580000001884218BF10BD40F20E4404E04FF4F1
:10659000437401E040F20F442046FFF7C5FF204658
:1065A000BDE81040FFF7B0BF8068084018BF012069
:1065B0007047000070B50268D1E902E402F4415C62
:1065C000D1E90032D1E9045643EA0C031A4342EA06
:1065D0000E02224389692A43324311430160C16993
:1065E00021F40061C16170BD40F24C00C2F20000B4
:1065F000006844F6D351C1F26201A0FB01014FF0E3
:10660000FF3000EB9110B0F1807F00D3FEE74EF237
:106610001001CEF2000148604EF62350CEF2000089
:10662000F022027000228A6007220A602021017095
:1066300070470000016841F0800101607047000070
:10664000032900F2FF80DFE801F002438AD0016AEB
:1066500021F001010162816921F00301816111884A
:10666000036A19430162016A21F002010162918803
:10667000036A194343F20043C4F2010398420162E2
:1066800006D042F60041C4F20101884240F0DA80AF
:10669000016A21F0040101625188036A1943016211
:1066A000016A21F008010162D188036A194301627D
:1066B00050F8041F21F480710160118903681943A7
:1066C0000160016821F40071016051890268B7E03E
:1066D000016A21F010010162816921F44071816138
:1066E0001188036A43EA01110162016A21F0200165
:1066F00001629188036A43EA011143F20043C4F244
:1067000001039842016206D042F60041C4F2010141
:10671000884240F09780016A21F04001016251886F
:10672000036A43EA01110162016A21F080010162FA
:10673000D188036A43EA0111016250F8041F21F471
:10674000806101601189036843EA81010160016889
:1067500021F40061016052890168920070E0016AD1
:1067600021F480710162C16921F00301C1611188C6
:10677000036A43EA01210162016A21F400710162A6
:106780009188036A43EA012143F20043C4F2010302
:106790009842016205D042F60041C4F201018842EC
:1067A00050D1016A21F4806101625188036A43EA91
:1067B00001210162016A21F400610162D188036A4A
:1067C00043EA0121016250F8041F21F48051016065
:1067D0001189036843EA01110160016821F4005145
:1067E00001605289016812012AE0016A21F4805196
:1067F0000162C16921F44071C1611188036A43EAF1
:1068000001310162016A21F4005101629188036A39
:1068100043EA013143F20043C4F2010398420162AA
:1068200006D042F60041C4F20101884218BF704709
:1068300050F8041F21F4804101601289016892011F
:106840001143016070470000032988BF7047DFE8EB
:1068500001F0020E050B50F8181F01E050F81C1F44
:1068600021F07001016008E050F81C1F01E050F8B1
:10687000181F21F4E0411202016001681143016018
:106880007047000003299CBF00EB81004263704702
:10689000032988BF7047DFE801F0020E050B50F8AE
:1068A000181F01E050F81C1F21F00801016008E0EA
:1068B00050F81C1F01E050F8181F21F4006112026B
:1068C0000160016811430160704700000021816090
:1068D000416001607047000010B540F6FF71C4F2DE
:1068E0000001884211DC40F2FF71C4F200018842CD
:1068F00021DCB0F1804F3CD040F20041C4F20001F5
:10690000884249D140F201443EE042F6FF31C4F2F0
:10691000010188421EDC41F20001C4F200018842FC
:106920002AD041F20041C4F20001884218BF10BDD4
:1069300040F2054428E040F60001C4F2000188421C
:106940001DD040F60041C4F20001884224D140F23B
:10695000034419E042F60041C4F20101884211D01B
:1069600043F20041C4F20101884215D140F20D34D6
:106970000AE04FF4806407E040F2044404E040F28F
:10698000024401E040F20B342046FFF7CDFD2046E3
:10699000BDE81040FFF7B8BD10BD0000C26811434C
:1069A000C1607047016841F001010160704700005B
:1069B000C9430161704700000069084018BF012009
:1069C0007047000080B50A8843F2004C826240F6AE
:1069D000FF32C4F200029042C4F2010C0FDCB0F1AD
:1069E000804F1AD040F20043C4F20003984214D002
:1069F00040F60003C4F2000398420ED019E040F6BE
:106A00000043C4F20003984207D0604505D042F627
:106A10000043C4F2010398420BD1036823F07003D2
:106A200003604B8802681A4302608A8803681A432D
:106A3000026041F20002D1F808E020F48063C4F261
:106A400000029342C0F82CE007D0026822F44072A2
:106A50000260CA8803681A430260604505D042F6A6
:106A60000042C4F20102904201D1097B01634169F5
:106A700041F00101416180BDC2681143C1607047AE
:106A8000C943016170470000426C012922F40042B1
:106A900008BF02F5004242647047000000214FF633
:106AA000FF72C0E90011826001737047B0B50446FF
:106AB00044F6FF30C4F200000D4684424FF000005F
:106AC00013DD44F60041C4F200018C4219D045F2B6
:106AD0000001C4F200018C4213D043F60001C4F25D
:106AE00001018C4210D103200CE044F20041C4F2B9
:106AF00000018C4205D044F60001C4F200018C4232
:106B000002D10220FFF748FC00EB5500B0FBF5F086
:106B100080B2A060B0BD000040686FF35F20704796
:106B20006FF35F214160704710B544F6FF31C4F246
:106B30000001884215DD44F60041C4F2000188429C
:106B40001ED045F20001C4F2000188421BD043F67A
:106B50000001C4F20101884218BF10BD40F20E349A
:106B600016E044F20041C4F2000188420ED044F61F
:106B70000001C4F20001884212D140F2124407E041
:106B800040F2134404E040F2144401E040F21144A6
:106B90002046FFF7C9FC2046BDE81040FFF7B4BC13
:106BA00010BD0000C16841F40051C1607047000091
:106BB0008A09105801F01F01C84000F00100704719
:106BC00001F01F0289094FF0010C0B580CFA02F278
:106BD0001A430A5070470000C1F30442012303FA2C
:106BE00002F2D243890D0A5070470000C1F38912A6
:106BF00052F800C08A0D105801F01F03C1F3044180
:106C0000C8402CFA03F1084000F001007047000072
:106C1000C26822F4C062C260C2681143C16070479A
:106C2000C26801F0040122F00402C260C26811438C
:106C3000C1607047026922F4405202610269114347
:106C400001617047C26801F0080122F00802C260C9
:106C5000C2681143C1607047C26822F48052C260AA
:106C6000C2681143C16070470FB4054B10B503A94A
:106C7000044A029800F0D8F910BC5DF814FB00003B
:106C8000C95F000800000020004870470400002091
:106C900030B583B0044600F0E1F89FED090B0546DE
:106CA0008DED000B0123002221466846F9F74BFBCE
:106CB000284600F0E9F89DED000B03B030BD000060
:106CC000000000000000000010B52DED028BF0EE7A
:106CD000408A18EE900AB0EE608A20F00040C0F1C1
:106CE000FF40C00F07D118EE100A20F00040C0F19D
:106CF000FF40C00F2BD018EE101A18EE900AF9F7CB
:106D0000E4FB00EE100A10EE100A6FEAD05010F00B
:106D1000FF0F04BFBDEC028B10BD18EE900A00F00F
:106D2000004110EE100A00F00040814204BFBDECAB
:106D3000028B10BD18EE101A10EE100ABDEC028B7B
:106D400061F31E0000EE900A30EE600A10BD18EEEE
:106D5000900A4FF07F41B1EB400F1CBF18EE100AB4
:106D60005FEA4000C7D1012000F08EF8BDEC028B35
:106D7000BDE8104000F06AB810B52DED028BB0EE02
:106D8000408A18EE100AF9F782FB01EE100A18EE9D
:106D9000100AB7EE000A78EE410A10F0004F4FF0EB
:106DA0007F4010EE901A12D0B1F13F4F24BF10EE89
:106DB000901AB0EB410F12D210EE901AB1F17C5F35
:106DC0001CDD10EE901AB0EB410F17D314E0B1F1B7
:106DD0003F4F07D910EE901AB0EB410F02D331EEBE
:106DE000401A0BE010EE901AB1F17C5F06DB10EE5A
:106DF000901AB0EB410F01D331EE001A18EE100AD1
:106E0000BDEC028B11EE101A61F31E0000EE100AA9
:106E100010BD10B52DED028BB1EEC08A18EE100A30
:106E200020F00040C0F1FF40C00F0AD010EE100A61
:106E300020F00040C0F1FF40C00F04BF012000F06F
:106E400023F8B0EE480ABDEC028B10BDDFED020A5C
:106E500080EEA00A704700000000000001480068B2
:106E6000704700000400002002E008C8121F08C19B
:106E7000002AFAD170477047002001E001C1121FBB
:106E8000002AFBD1704700000149086070470000EC
:106E9000040000202DE9FF5F82B00021DDE904300D
:106EA000020DDDF840B0034318D044F61050A2F2B2
:106EB000FF3242431514119801281FD0A5EB0B0097
:106EC000401C5FEA000A4FF000064E4FDFF8389191
:106ED000B046504615D5CAF1000413E011980124BC
:106EE0004AA3012801D16FEA0B010298119AC0E967
:106EF0000031C0E9024206B0BDE8F09FCBF10000CE
:106F0000DFE704460021404A491842EB0450CDE92E
:106F1000001012E0E00707D032463B4640464946A3
:106F2000F9F7A3FB8046894632463B461046194690
:106F3000F9F79BFB06460F466410002CEAD1DDE909
:106F40000401DDE90023BAF1000F06DAF9F78DFB41
:106F500042464B46F9F789FB05E0F9F7F8FB424654
:106F60004B46F9F7F4FB04460E460022284BF9F78E
:106F700075FC03D84FF0FF30014607E00022254B97
:106F800020463146F9F7CAFAF9F750FC102409E017
:106F9000002C0ADB0A220023F9F784F9039B303224
:106FA0001A55641E50EA0102F2D1641C039AC4F11E
:106FB00011031444119A012A03D0012208430DD170
:106FC0000AE0084304D000204FF0110B119072E743
:106FD000A3EB0B056D1E0DE05B4504DD4FF00002D9
:106FE00005F1010504E003DA4FF00002A5F1010507
:106FF000002AECD002981199C0E90231C0E900459D
:1070000079E70000000014400000F03F300000006D
:107010000000F0430000E03F30380A2801D2012090
:1070200070470020704700002DE9FF4F95B09B4648
:107030008946064600250FE2252877D100242746F9
:10704000F84A0121059400E0044316F8013F203B73
:1070500001FA03F01042F7D130782A2811D06FF0EE
:107060002F033078A0F13002092A16D8059A44F08F
:10707000020402EB820203EB42021044761C0590EC
:10708000EFE759F8042B0592002A03DA504244F442
:107090000054059044F00204761C30782E2816D156
:1070A00016F8010F44F004042A280DD06FF02F02C7
:1070B0003078A0F13003092B09D807EB870302EBE6
:1070C0004303C718761CF3E759F8047B761C307825
:1070D0006C280FD006DC4C2817D068280DD06A2801
:1070E00014D104E0742810D07A280FD10DE044F4B4
:1070F00000140AE044F4801401E044F4401472786F
:10710000824202D104F58014761C761C3078662801
:107110000BD013DC582877D009DC002875D045281F
:10712000F6D04628F4D047281AD19DE118E063280C
:1071300035D0642879D0652812D195E1702873D0B4
:1071400008DC6728F1D069286FD06E280DD06F2831
:1071500006D1B5E073282CD0752875D0782874D066
:107160005A46179990476D1C75E1C4F302500228E6
:1071700009D003280DD0D9F8001004280DD00D60D7
:1071800009F1040967E1D9F80010EA17C1E90052D2
:10719000F6E7D9F800100D80F2E70D70F0E719F866
:1071A000041B8DF8001000208DF80100EA46012034
:1071B00003E059F804AB4FF0FF3061074FF00001D6
:1071C00002D40DE008F101018846B9420FDA80458A
:1071D000F8DB1AF808100029F4D108E008F10101E1
:1071E00088468142FADB1AF808100029F6D1059882
:1071F0005B46A0EB080721463846179A00F094FA40
:10720000284400EB080507E04DE029E10DE01AF8FD
:10721000010B5A4617999047B8F10108F7D25B461F
:1072200021463846179A13E142E00A220092C4F33D
:1072300002524FF0000A022A08D059F804CB032A60
:107240004FEAEC710AD00DE029E02AE009F10701CC
:1072500021F00702F2E802C1914609E00FFA8CFC26
:107260004FEAEC71042A03D14FFA8CFC4FEAEC711F
:10727000002907DA0A460021DCF1000C61EB02016B
:107280002D2202E0220504D52B228DF804200122B4
:1072900003E0E20701D02022F7E7904659E00A21F7
:1072A00002E010220DE010214FF0000A00910BE0E7
:1072B00010224FF0000A44F004040827009203E073
:1072C00008224FF0000A0092C4F30252022A05D0AD
:1072D00059F804CB0021032A08D009E009F107017D
:1072E00021F00702F2E802C1914605E01FFA8CFC8A
:1072F000042A01D10CF0FF0C4FF00008220728D51A
:10730000702806D0009B83F0100353EA0A0305D0CF
:107310000EE040228DF80420012208E05CEA010220
:1073200006D030228DF804208DF805000222904608
:10733000009B83F0080353EA0A030AD15CEA0102C6
:1073400001D1620705D530228DF804204FF00108E5
:107350007F1E582804D034A003900EA802900DE0A0
:1073600036A0F9E753466046009AF8F79BFF84463B
:107370000398825C0298401E029002705CEA010051
:10738000F0D1029806A9081A00F1200A600702D578
:1073900024F4803400E00127574502DDA7EB0A0002
:1073A00000E0002000EB0A01009005984144401ADB
:1073B0000590E00306D45B462146179A059800F035
:1073C000B3F90544002706E001A85A46C05D1799A5
:1073D00090476D1C7F1C4745F6DBE0030CD55B46F0
:1073E0002146179A059800F09FF9054404E03020E3
:1073F0005A46179990476D1C0099481E0090002925
:10740000F5DC08E0029802995A460078491C02917E
:10741000179990476D1CBAF10001AAF1010AF1DC3D
:1074200065E1000009280100303132333435363748
:1074300038396162636465660000000030313233C0
:107440003435363738394142434445460000000060
:1074500000F058F90544761C307800287FF4ECAD34
:1074600019B02846BDE8F08F620700D4062709F15D
:10747000070222F0070CFCE80223E14603F0004873
:107480005FEA080C02D00FF2702C0DE05FEA045C9A
:1074900002D50FF2682C07E05FEAC47C02D00FF23D
:1074A000602C01E0AFF2700C4FF0FF3823F0004386
:1074B000CDF850C065280CD006DC452809D04628F8
:1074C0001DD047283DD13DE0662818D067287ED1E1
:1074D00038E00021112F01DB112000E0781CCDE9FC
:1074E000000106A90EA8FFF7D5FCDDE90F010E9AF1
:1074F00003910021009207F1010A04914DE04FF041
:1075000000400097CDE9011006A90EA8FFF7C2FCC4
:10751000DDE90F0203920E9B11990022DDF80CA009
:107520000093049211B9791C00EB010AB7EB0A0031
:1075300004D4C0F1FF3007F1010A0490AAEB070060
:10754000019044E0012F00DA01270021112F01DD15
:10755000112000E03846CDE9000106A90EA8FFF78A
:1075600099FCDDE90F010E9A03910021049100922C
:10757000BA4621070CD40399514500DA8A46BAF17C
:10758000010F05DD009AAAF10101515C302908D0F4
:10759000B84202DA10F1040F06DA0121CDE9011038
:1075A00015E0AAF10101E9E7002805DC049901448E
:1075B0000491AAEB000102E0411C514500DD8A461E
:1075C0000499401A401C01904FF00040029020079F
:1075D00004D40198504501DBCDF8048000208DF8DB
:1075E0004F0002980DF14F07B0F1004F25D02B202E
:1075F0000E9002984FF0020800280CDA40420290E8
:107600002D200E9007E00A210298F8F735FE303160
:10761000029007F8011DB8F10001A8F10108F2DCA1
:1076200002980028EFD1791E0E980870307800F08B
:10763000200040F0450007F8020D12A8C01B00F121
:1076400007081498007800B1012000EB0A010198A6
:1076500001EBE07105984144401A401E0590E0039B
:1076600006D45B462146179A059800F05DF805445C
:107670001498007818B15A46179990476D1CE0038A
:1076800024D55B462146179A059800F04DF805442D
:107690001CE00498002807DBDDE90301884203DDD4
:1076A0000098405C179901E0179930205A4690479E
:1076B000049805F10105401C04900198401E0190BA
:1076C00004D12E205A46179990476D1CBAF100013B
:1076D000AAF1010ADDDC05E017F8010B5A461799FB
:1076E00090476D1CB8F10001A8F10108F4DC5B467D
:1076F0002146179A0598ABE62D0000002B000000EC
:10770000200000002DE9F041044600251E461746E2
:10771000880404D405E039462020B0476D1C641E5F
:10772000F9D52846BDE8F0812DE9F0410446002551
:107730001E469046C80301D5302700E02027880464
:1077400004D505E041463846B0476D1C641EF9D5A6
:107750002846BDE8F08100000149FEF735BC000075
:107760000000002000404040404040404040414137
:107770004141414040404040404040404040404006
:1077800040404040400502020202020202020202A0
:10779000020202020220202020202020202020029D
:1077A000020202020202909090909090101010102D
:1077B00010101010101010101010101010101010C9
:1077C000020202020202888888888888080808085D
:1077D0000808080808080808080808080808080829
:1077E000020202024000000065770008000000006D
:1077F000B71DC1046E3B8209D926430DDC76041304
:107800006B6BC517B24D861A0550471EB8ED08269A
:107810000FF0C922D6D68A2F61CB4B2B649B0C3537
:10782000D386CD310AA08E3CBDBD4F3870DB114CE4
:10783000C7C6D0481EE09345A9FD5241ACAD155FC7
:107840001BB0D45BC2969756758B5652C836196AD0
:107850007F2BD86EA60D9B6311105A6714401D79BB
:10786000A35DDC7D7A7B9F70CD665E74E0B6239865
:1078700057ABE29C8E8DA191399060953CC0278BCF
:107880008BDDE68F52FBA582E5E66486585B2BBE56
:10789000EF46EABA3660A9B7817D68B3842D2FAD73
:1078A0003330EEA9EA16ADA45D0B6CA0906D32D416
:1078B0002770F3D0FE56B0DD494B71D94C1B36C74B
:1078C000FB06F7C32220B4CE953D75CA28803AF254
:1078D0009F9DFBF646BBB8FBF1A679FFF4F63EE1AF
:1078E00043EBFFE59ACDBCE82DD07DEC7770863474
:1078F000C06D4730194B043DAE56C539AB068227E3
:107900001C1B4323C53D002E7220C12ACF9D8E1221
:1079100078804F16A1A60C1B16BBCD1F13EB8A0156
:10792000A4F64B057DD00808CACDC90C07AB9778E3
:10793000B0B6567C69901571DE8DD475DBDD936B26
:107940006CC0526FB5E6116202FBD066BF469F5E07
:10795000085B5E5AD17D1D576660DC5363309B4DDA
:10796000D42D5A490D0B1944BA16D84097C6A5AC68
:1079700020DB64A8F9FD27A54EE0E6A14BB0A1BF2E
:10798000FCAD60BB258B23B69296E2B22F2BAD8A5D
:1079900098366C8E41102F83F60DEE87F35DA99912
:1079A0004440689D9D662B902A7BEA94E71DB4E0D5
:1079B000500075E4892636E93E3BF7ED3B6BB0F3AA
:1079C0008C7671F7555032FAE24DF3FE5FF0BCC68B
:1079D000E8ED7DC231CB3ECF86D6FFCB8386B8D5CE
:1079E000349B79D1EDBD3ADC5AA0FBD8EEE00C69AE
:1079F00059FDCD6D80DB8E6037C64F643296087AB4
:107A0000858BC97E5CAD8A73EBB04B77560D044F06
:107A1000E110C54B383686468F2B47428A7B005C87
:107A20003D66C158E4408255535D43519E3B1D2540
:107A30002926DC21F0009F2C471D5E28424D193677
:107A4000F550D8322C769B3F9B6B5A3B26D61503BC
:107A500091CBD40748ED970AFFF0560EFAA011100B
:107A60004DBDD014949B93192386521D0E562FF1B1
:107A7000B94BEEF5606DADF8D7706CFCD2202BE2FF
:107A8000653DEAE6BC1BA9EB0B0668EFB6BB27D742
:107A900001A6E6D3D880A5DE6F9D64DA6ACD23C443
:107AA000DDD0E2C004F6A1CDB3EB60C97E8D3EBD52
:107AB000C990FFB910B6BCB4A7AB7DB0A2FB3AAE7B
:107AC00015E6FBAACCC0B8A77BDD79A3C660369BC0
:107AD000717DF79FA85BB4921F4675961A1632887F
:107AE000AD0BF38C742DB081C330718599908A5D94
:107AF0002E8D4B59F7AB085440B6C95045E68E4E13
:107B0000F2FB4F4A2BDD0C479CC0CD43217D827B8D
:107B10009660437F4F460072F85BC176FD0B866826
:107B20004A16476C93300461242DC565E94B9B11BF
:107B30005E565A1587701918306DD81C353D9F0256
:107B400082205E065B061D0BEC1BDC0F51A69337F3
:107B5000E6BB52333F9D113E8880D03A8DD09724AA
:107B60003ACD5620E3EB152D54F6D4297926A9C534
:107B7000CE3B68C1171D2BCCA000EAC8A550ADD6DE
:107B8000124D6CD2CB6B2FDF7C76EEDBC1CBA1E349
:107B900076D660E7AFF023EA18EDE2EE1DBDA5F062
:107BA000AAA064F4738627F9C49BE6FD09FDB88991
:107BB000BEE0798D67C63A80D0DBFB84D58BBC9A5A
:107BC00062967D9EBBB03E930CADFF97B110B0AFF7
:107BD000060D71ABDF2B32A66836F3A26D66B4BC1E
:107BE000DA7B75B8035D36B5B440F7B1000000002C
:107BF000010203045573657220436F6E6669672046
:107C0000557064617465204F4B210A0D0A0D0055B3
:107C100073657220436F6E66696720557064617486
:107C200065204641494C210A0D0A0D000A0D546F8A
:107C3000206368616E676520612076616C75652CD4
:107C40002074797065202770726566697827203DF9
:107C5000202776616C75652727454E544552270AC3
:107C60000D692E652E20276D6F746F725F706F6CBB
:107C7000655F7061697273203D20372727454E5438
:107C80004552270A0D0A0D00496E76616C69642021
:107C90007374617465210A0D000A0D202063616E02
:107CA0005F69642063616E6E6F7420626520302CA2
:107CB0002073657420746F20310A0D00436F6D6D61
:107CC000616E64733A0A0D004572726F7220436FE1
:107CD00064653A2025580A0D000A0D202063616E64
:107CE0005F6964203D2025640A0D000A0D20206391
:107CF0006F6E74726F6C5F6D6F6465203D202564DC
:107D00000A0D000A0D202063616E5F73796E635F58
:107D10007461726765745F656E61626C65203D2099
:107D200025640A0D000A0D202063757272656E7459
:107D30005F6374726C5F62616E64776964746820FB
:107D40003D2025640A0D000A0D202063616E5F74DA
:107D5000696D656F75745F6D73203D2025640A0D34
:107D6000000A0D20206D6F746F725F706F6C655F1D
:107D70007061697273203D2025640A0D00206D201A
:107D800020202D204D6F746F72204D6F64650A0D99
:107D900000456E746572204D6F746F72204D6F6474
:107DA000650A0D000A0D2020696E657274696120F4
:107DB0003D2025660A0D000A0D202070726F746543
:107DC00063745F6F7665725F7370656564203D20D4
:107DD00025660A0D000A0D20206D6F746F725F70AA
:107DE000686173655F696E64756374616E63652055
:107DF0003D2025660A0D000A0D20206D6F746F72FC
:107E00005F70686173655F726573697374616E63D7
:107E100065203D2025660A0D000A0D202070726F36
:107E2000746563745F756E6465725F766F6C7461A0
:107E30006765203D2025660A0D000A0D202070721E
:107E40006F746563745F6F7665725F766F6C746173
:107E50006765203D2025660A0D000A0D202063611C
:107E60006C69625F6D61785F766F6C7461676520C5
:107E70003D2025660A0D000A0D202076656C5F7294
:107E8000616D705F72617465203D2025660A0D008A
:107E90000A0D202063757272656E745F72616D7079
:107EA0005F72617465203D2025660A0D000A0D2071
:107EB000207472616A5F616363656C203D20256692
:107EC0000A0D000A0D20207472616A5F64656365A3
:107ED0006C203D2025660A0D000A0D202074726179
:107EE0006A5F76656C203D2025660A0D000A0D202C
:107EF0002076656C5F6761696E203D2025660A0DFE
:107F0000000A0D202076656C5F696E74656772618A
:107F1000746F725F6761696E203D2025660A0D00EF
:107F20000A0D2020706F735F6761696E203D202508
:107F3000660A0D00696E7075745F706F736974699D
:107F40006F6E203D2025660A0D000A0D2020766503
:107F50006C5F6C696D6974203D2025660A0D000A0E
:107F60000D202063757272656E745F6C696D697443
:107F7000203D2025660A0D000A0D202063616C69F2
:107F8000625F63757272656E74203D2025660A0D0E
:107F9000005B52616D705D20696E7075745F637512
:107FA0007272656E74203D2025660A0D005B526179
:107FB0006D705D20696E7075745F76656C6F636956
:107FC0007479203D2025660A0D0020436F6E74727F
:107FD0006F6C0A0D0020632020202D2043616C6906
:107FE00062726174696F6E0A0D0020732020202D6B
:107FF0002053657475700A0D0020692020202D2003
:10800000456E7465720A0D00204D6F746F720A0D13
:1080100000207A2020202D20436C6561722045725B
:10802000720A0D0020752020202D20557064617487
:108030006520436F6E666967730A0D00436F6E6655
:10804000696775726174696F6E204F7074696F6EC5
:10805000730A0D0020682020202D2043616E696482
:10806000204175746F5365740A0D0043616C696239
:10807000726174696F6E2053746172740A0D000A24
:108080000D496E76616C696420696E7075740A0DB5
:1080900000206520092D204578697420746F204DDB
:1080A000656E750A0D0070726F746563745F6F762C
:1080B00065725F7370656564203D200063616E5F6B
:1080C0006964203D200070726F746563745F756E23
:1080D0006465725F766F6C74616765203D20007027
:1080E000726F746563745F6F7665725F766F6C74C0
:1080F000616765203D200063616E5F73796E635F29
:108100007461726765745F656E61626C65203D20A5
:108110000076656C5F72616D705F72617465203DA1
:10812000200063757272656E745F72616D705F724C
:10813000617465203D200063757272656E745F63C3
:1081400074726C5F62616E647769647468203D204C
:10815000007472616A5F616363656C203D20007426
:1081600072616A5F646563656C203D2000747261B2
:108170006A5F76656C203D200076656C5F6761699B
:108180006E203D200076656C5F696E746567726174
:10819000746F725F6761696E203D2000706F735F5E
:1081A0006761696E203D200063616E5F74696D6573
:1081B0006F75745F6D73203D200076656C5F6C6930
:1081C0006D6974203D200063757272656E745F6C1A
:1081D000696D6974203D200043616C6962204572BD
:1081E000726F722025640A0D0000000010820008E2
:1081F0000000002050000000686E00086082000847
:1082000050000020E83B0000786E000800000000ED
:10821000000000000000000000000100000000005D
:10822000000000000000000000000000000000004E
:10823000000000000000000000000000000000003E
:10824000000000000000000000000000000000002E
:10825000000000000000000000000000000E2707E2
:0400000508000131BD
:00000001FF
